{
  "contractName": "MusicDApp",
  "abi": [
    {
      "constant": false,
      "inputs": [
        {
          "name": "_ipfsHash",
          "type": "bytes"
        },
        {
          "name": "_name",
          "type": "string"
        },
        {
          "name": "_artist",
          "type": "string"
        },
        {
          "name": "_coverFrom",
          "type": "string"
        }
      ],
      "name": "uploadMusic",
      "outputs": [],
      "payable": false,
      "stateMutability": "nonpayable",
      "type": "function",
      "signature": "0x7aef759b"
    },
    {
      "constant": true,
      "inputs": [
        {
          "name": "_name",
          "type": "string"
        },
        {
          "name": "_artist",
          "type": "string"
        }
      ],
      "name": "getMusic",
      "outputs": [
        {
          "components": [
            {
              "name": "uploader",
              "type": "address"
            },
            {
              "name": "ipfsHash",
              "type": "bytes"
            },
            {
              "name": "name",
              "type": "string"
            },
            {
              "name": "artist",
              "type": "string"
            },
            {
              "name": "coverFrom",
              "type": "string"
            },
            {
              "name": "uploadTime",
              "type": "uint256"
            }
          ],
          "name": "",
          "type": "tuple"
        }
      ],
      "payable": false,
      "stateMutability": "view",
      "type": "function",
      "signature": "0x7fb95448"
    },
    {
      "constant": true,
      "inputs": [
        {
          "name": "_name",
          "type": "string"
        }
      ],
      "name": "getMusicList",
      "outputs": [
        {
          "components": [
            {
              "name": "uploader",
              "type": "address"
            },
            {
              "name": "ipfsHash",
              "type": "bytes"
            },
            {
              "name": "name",
              "type": "string"
            },
            {
              "name": "artist",
              "type": "string"
            },
            {
              "name": "coverFrom",
              "type": "string"
            },
            {
              "name": "uploadTime",
              "type": "uint256"
            }
          ],
          "name": "",
          "type": "tuple[]"
        }
      ],
      "payable": false,
      "stateMutability": "view",
      "type": "function",
      "signature": "0x2f4c58b0"
    }
  ],
  "bytecode": "0x608060405234801561001057600080fd5b506113db806100206000396000f3fe608060405260043610610051576000357c0100000000000000000000000000000000000000000000000000000000900480632f4c58b0146100565780637aef759b146100935780637fb95448146100bc575b600080fd5b34801561006257600080fd5b5061007d60048036036100789190810190610f2d565b6100f9565b60405161008a919061120e565b60405180910390f35b34801561009f57600080fd5b506100ba60048036036100b59190810190610e6a565b6104b1565b005b3480156100c857600080fd5b506100e360048036036100de9190810190610f6e565b610868565b6040516100f09190611230565b60405180910390f35b6060806002836040518082805190602001908083835b602083101515610134578051825260208201915060208101905060208303925061010f565b6001836020036101000a0380198251168184511680821785525050505050509050019150509081526020016040518091039020805480602002602001604051908101604052809291908181526020016000905b828210156104a2578382906000526020600020906006020160c060405190810160405290816000820160009054906101000a900473ffffffffffffffffffffffffffffffffffffffff1673ffffffffffffffffffffffffffffffffffffffff1673ffffffffffffffffffffffffffffffffffffffff168152602001600182018054600181600116156101000203166002900480601f01602080910402602001604051908101604052809291908181526020018280546001816001161561010002031660029004801561029a5780601f1061026f5761010080835404028352916020019161029a565b820191906000526020600020905b81548152906001019060200180831161027d57829003601f168201915b50505050508152602001600282018054600181600116156101000203166002900480601f01602080910402602001604051908101604052809291908181526020018280546001816001161561010002031660029004801561033c5780601f106103115761010080835404028352916020019161033c565b820191906000526020600020905b81548152906001019060200180831161031f57829003601f168201915b50505050508152602001600382018054600181600116156101000203166002900480601f0160208091040260200160405190810160405280929190818152602001828054600181600116156101000203166002900480156103de5780601f106103b3576101008083540402835291602001916103de565b820191906000526020600020905b8154815290600101906020018083116103c157829003601f168201915b50505050508152602001600482018054600181600116156101000203166002900480601f0160208091040260200160405190810160405280929190818152602001828054600181600116156101000203166002900480156104805780601f1061045557610100808354040283529160200191610480565b820191906000526020600020905b81548152906001019060200180831161046357829003601f168201915b5050505050815260200160058201548152505081526020019060010190610187565b50505050905080915050919050565b60003390806001815401808255809150509060018203906000526020600020016000909192909190916101000a81548173ffffffffffffffffffffffffffffffffffffffff021916908373ffffffffffffffffffffffffffffffffffffffff1602179055505061051f610c4c565b60c0604051908101604052803373ffffffffffffffffffffffffffffffffffffffff168152602001868152602001858152602001848152602001838152602001428152509050806001856040518082805190602001908083835b60208310151561059e5780518252602082019150602081019050602083039250610579565b6001836020036101000a0380198251168184511680821785525050505050509050019150509081526020016040518091039020846040518082805190602001908083835b60208310151561060757805182526020820191506020810190506020830392506105e2565b6001836020036101000a038019825116818451168082178552505050505050905001915050908152602001604051809103902060008201518160000160006101000a81548173ffffffffffffffffffffffffffffffffffffffff021916908373ffffffffffffffffffffffffffffffffffffffff160217905550602082015181600101908051906020019061069d929190610c99565b5060408201518160020190805190602001906106ba929190610d19565b5060608201518160030190805190602001906106d7929190610d19565b5060808201518160040190805190602001906106f4929190610d19565b5060a082015181600501559050506002846040518082805190602001908083835b60208310151561073a5780518252602082019150602081019050602083039250610715565b6001836020036101000a0380198251168184511680821785525050505050509050019150509081526020016040518091039020819080600181540180825580915050906001820390600052602060002090600602016000909192909190915060008201518160000160006101000a81548173ffffffffffffffffffffffffffffffffffffffff021916908373ffffffffffffffffffffffffffffffffffffffff16021790555060208201518160010190805190602001906107fc929190610c99565b506040820151816002019080519060200190610819929190610d19565b506060820151816003019080519060200190610836929190610d19565b506080820151816004019080519060200190610853929190610d19565b5060a082015181600501555050505050505050565b610870610c4c565b610878610c4c565b6001846040518082805190602001908083835b6020831015156108b0578051825260208201915060208101905060208303925061088b565b6001836020036101000a0380198251168184511680821785525050505050509050019150509081526020016040518091039020836040518082805190602001908083835b60208310151561091957805182526020820191506020810190506020830392506108f4565b6001836020036101000a038019825116818451168082178552505050505050905001915050908152602001604051809103902060c060405190810160405290816000820160009054906101000a900473ffffffffffffffffffffffffffffffffffffffff1673ffffffffffffffffffffffffffffffffffffffff1673ffffffffffffffffffffffffffffffffffffffff168152602001600182018054600181600116156101000203166002900480601f016020809104026020016040519081016040528092919081815260200182805460018160011615610100020316600290048015610a475780601f10610a1c57610100808354040283529160200191610a47565b820191906000526020600020905b815481529060010190602001808311610a2a57829003601f168201915b50505050508152602001600282018054600181600116156101000203166002900480601f016020809104026020016040519081016040528092919081815260200182805460018160011615610100020316600290048015610ae95780601f10610abe57610100808354040283529160200191610ae9565b820191906000526020600020905b815481529060010190602001808311610acc57829003601f168201915b50505050508152602001600382018054600181600116156101000203166002900480601f016020809104026020016040519081016040528092919081815260200182805460018160011615610100020316600290048015610b8b5780601f10610b6057610100808354040283529160200191610b8b565b820191906000526020600020905b815481529060010190602001808311610b6e57829003601f168201915b50505050508152602001600482018054600181600116156101000203166002900480601f016020809104026020016040519081016040528092919081815260200182805460018160011615610100020316600290048015610c2d5780601f10610c0257610100808354040283529160200191610c2d565b820191906000526020600020905b815481529060010190602001808311610c1057829003601f168201915b5050505050815260200160058201548152505090508091505092915050565b60c060405190810160405280600073ffffffffffffffffffffffffffffffffffffffff16815260200160608152602001606081526020016060815260200160608152602001600081525090565b828054600181600116156101000203166002900490600052602060002090601f016020900481019282601f10610cda57805160ff1916838001178555610d08565b82800160010185558215610d08579182015b82811115610d07578251825591602001919060010190610cec565b5b509050610d159190610d99565b5090565b828054600181600116156101000203166002900490600052602060002090601f016020900481019282601f10610d5a57805160ff1916838001178555610d88565b82800160010185558215610d88579182015b82811115610d87578251825591602001919060010190610d6c565b5b509050610d959190610d99565b5090565b610dbb91905b80821115610db7576000816000905550600101610d9f565b5090565b90565b600082601f8301121515610dd157600080fd5b8135610de4610ddf8261127f565b611252565b91508082526020830160208301858383011115610e0057600080fd5b610e0b83828461134e565b50505092915050565b600082601f8301121515610e2757600080fd5b8135610e3a610e35826112ab565b611252565b91508082526020830160208301858383011115610e5657600080fd5b610e6183828461134e565b50505092915050565b60008060008060808587031215610e8057600080fd5b600085013567ffffffffffffffff811115610e9a57600080fd5b610ea687828801610dbe565b945050602085013567ffffffffffffffff811115610ec357600080fd5b610ecf87828801610e14565b935050604085013567ffffffffffffffff811115610eec57600080fd5b610ef887828801610e14565b925050606085013567ffffffffffffffff811115610f1557600080fd5b610f2187828801610e14565b91505092959194509250565b600060208284031215610f3f57600080fd5b600082013567ffffffffffffffff811115610f5957600080fd5b610f6584828501610e14565b91505092915050565b60008060408385031215610f8157600080fd5b600083013567ffffffffffffffff811115610f9b57600080fd5b610fa785828601610e14565b925050602083013567ffffffffffffffff811115610fc457600080fd5b610fd085828601610e14565b9150509250929050565b610fe381611312565b82525050565b6000610ff4826112e4565b8084526020840193508360208202850161100d856112d7565b60005b84811015611046578383038852611028838351611161565b925061103382611305565b9150602088019750600181019050611010565b508196508694505050505092915050565b6000611062826112ef565b80845261107681602086016020860161135d565b61107f81611390565b602085010191505092915050565b6000611098826112fa565b8084526110ac81602086016020860161135d565b6110b581611390565b602085010191505092915050565b600060c0830160008301516110db6000860182610fda565b50602083015184820360208601526110f38282611057565b9150506040830151848203604086015261110d828261108d565b91505060608301518482036060860152611127828261108d565b91505060808301518482036080860152611141828261108d565b91505060a083015161115660a08601826111ff565b508091505092915050565b600060c0830160008301516111796000860182610fda565b50602083015184820360208601526111918282611057565b915050604083015184820360408601526111ab828261108d565b915050606083015184820360608601526111c5828261108d565b915050608083015184820360808601526111df828261108d565b91505060a08301516111f460a08601826111ff565b508091505092915050565b61120881611344565b82525050565b600060208201905081810360008301526112288184610fe9565b905092915050565b6000602082019050818103600083015261124a81846110c3565b905092915050565b6000604051905081810181811067ffffffffffffffff8211171561127557600080fd5b8060405250919050565b600067ffffffffffffffff82111561129657600080fd5b601f19601f8301169050602081019050919050565b600067ffffffffffffffff8211156112c257600080fd5b601f19601f8301169050602081019050919050565b6000602082019050919050565b600081519050919050565b600081519050919050565b600081519050919050565b6000602082019050919050565b600061131d82611324565b9050919050565b600073ffffffffffffffffffffffffffffffffffffffff82169050919050565b6000819050919050565b82818337600083830152505050565b60005b8381101561137b578082015181840152602081019050611360565b8381111561138a576000848401525b50505050565b6000601f19601f830116905091905056fea265627a7a72305820469af6742b227bf3b04e95f43fe33af0690a5aa188f2c4b42683de4dff9ffe696c6578706572696d656e74616cf50037",
  "source": "pragma solidity ^0.5.0;\npragma experimental ABIEncoderV2; // support return struct in functions\n\ncontract MusicDApp {\n\n  // state variables \n  address[] uploaderIndexes;\n  mapping(string => mapping(string => Music)) internal music; // (name, artist) as primary key\n  mapping(string => Music[]) internal music_list; // name as primary key\n\n  // events firing\n    // event OnMusicUpload(...)\n    // event OnMusicDownload(...)\n\n  // data structures\n  struct Music {\n    address   uploader;\n    bytes     ipfsHash;\n    string    name;\n    string    artist;\n    string    coverFrom;\n    uint      uploadTime;\n    // uint      count;\n  }\n\n  // Modifiers\n\n  // Public methods\n  function uploadMusic(bytes memory _ipfsHash, string memory _name, string memory _artist, string memory _coverFrom) public {\n    uploaderIndexes.push(msg.sender);\n    Music memory _music = Music(msg.sender, _ipfsHash, _name, _artist, _coverFrom, now);\n\n    music[_name][_artist] = _music;\n    music_list[_name].push(_music);\n  }\n\n  function getMusic(string memory _name, string memory _artist) public view returns(Music memory) {\n    Music memory _music = music[_name][_artist];\n\n    return _music;\n  }\n\n  function getMusicList(string memory _name) public view returns(Music[] memory) {\n    Music[] memory _music_list = music_list[_name];\n\n    return _music_list;\n  }\n\n  // Private methods\n\n}",
  "sourcePath": "/Users/youyou/Documents/GitHub/nmlab-final/music-dapp/contracts/MusicDApp.sol",
  "compiler": {
    "name": "solc",
    "version": "0.5.1+commit.c8a2cb62.Emscripten.clang"
  },
  "schemaVersion": "3.0.1",
  "updatedAt": "2021-05-31T18:05:46.790Z",
  "devdoc": {
    "methods": {}
  },
  "userdoc": {
    "methods": {}
  }
}