{
  "contractName": "TodoApp",
  "abi": [
    {
      "anonymous": false,
      "inputs": [
        {
          "indexed": false,
          "name": "todoId",
          "type": "uint256"
        }
      ],
      "name": "OnTodoAdded",
      "type": "event"
    },
    {
      "anonymous": false,
      "inputs": [
        {
          "indexed": false,
          "name": "todoId",
          "type": "uint256"
        }
      ],
      "name": "OnTodoDeleted",
      "type": "event"
    },
    {
      "anonymous": false,
      "inputs": [
        {
          "indexed": false,
          "name": "todoId",
          "type": "uint256"
        }
      ],
      "name": "OnTodoCompleted",
      "type": "event"
    },
    {
      "anonymous": false,
      "inputs": [
        {
          "indexed": false,
          "name": "todoId",
          "type": "uint256"
        }
      ],
      "name": "OnTodoUndone",
      "type": "event"
    },
    {
      "constant": true,
      "inputs": [
        {
          "name": "_todoId",
          "type": "uint256"
        }
      ],
      "name": "isTodoValid",
      "outputs": [
        {
          "name": "isValid",
          "type": "bool"
        }
      ],
      "payable": false,
      "stateMutability": "view",
      "type": "function"
    },
    {
      "constant": true,
      "inputs": [
        {
          "name": "_todoId",
          "type": "uint256"
        }
      ],
      "name": "isTodoCompleted",
      "outputs": [
        {
          "name": "isValid",
          "type": "bool"
        }
      ],
      "payable": false,
      "stateMutability": "view",
      "type": "function"
    },
    {
      "constant": true,
      "inputs": [
        {
          "name": "_todoId",
          "type": "uint256"
        }
      ],
      "name": "getTodo",
      "outputs": [
        {
          "name": "",
          "type": "string"
        },
        {
          "name": "",
          "type": "bool"
        }
      ],
      "payable": false,
      "stateMutability": "view",
      "type": "function"
    },
    {
      "constant": true,
      "inputs": [],
      "name": "getTodoList",
      "outputs": [
        {
          "name": "",
          "type": "uint256[]"
        },
        {
          "name": "",
          "type": "bool[]"
        }
      ],
      "payable": false,
      "stateMutability": "view",
      "type": "function"
    },
    {
      "constant": false,
      "inputs": [
        {
          "name": "_taskName",
          "type": "string"
        }
      ],
      "name": "addTodo",
      "outputs": [],
      "payable": false,
      "stateMutability": "nonpayable",
      "type": "function"
    },
    {
      "constant": false,
      "inputs": [
        {
          "name": "_todoId",
          "type": "uint256"
        }
      ],
      "name": "deleteTodo",
      "outputs": [],
      "payable": false,
      "stateMutability": "nonpayable",
      "type": "function"
    },
    {
      "constant": false,
      "inputs": [
        {
          "name": "_todoId",
          "type": "uint256"
        }
      ],
      "name": "completeTodo",
      "outputs": [],
      "payable": false,
      "stateMutability": "nonpayable",
      "type": "function"
    },
    {
      "constant": false,
      "inputs": [
        {
          "name": "_todoId",
          "type": "uint256"
        }
      ],
      "name": "undoneTodo",
      "outputs": [],
      "payable": false,
      "stateMutability": "nonpayable",
      "type": "function"
    }
  ],
  "bytecode": "0x608060405234801561001057600080fd5b50610d1e806100206000396000f3fe608060405260043610610088576000357c010000000000000000000000000000000000000000000000000000000090048063040485001461008d5780630c7a16be146100c857806320fe21441461017c5780633850e7d5146101b75780636e3c67381461020a5780637a3f48a81461024557806395ffebf514610298578063dd68afb614610360575b600080fd5b34801561009957600080fd5b506100c6600480360360208110156100b057600080fd5b810190808035906020019092919050505061041f565b005b3480156100d457600080fd5b506100dd610510565b604051808060200180602001838103835285818151815260200191508051906020019060200280838360005b83811015610124578082015181840152602081019050610109565b50505050905001838103825284818151815260200191508051906020019060200280838360005b8381101561016657808201518184015260208101905061014b565b5050505090500194505050505060405180910390f35b34801561018857600080fd5b506101b56004803603602081101561019f57600080fd5b8101908080359060200190929190505050610643565b005b3480156101c357600080fd5b506101f0600480360360208110156101da57600080fd5b8101908080359060200190929190505050610735565b604051808215151515815260200191505060405180910390f35b34801561021657600080fd5b506102436004803603602081101561022d57600080fd5b810190808035906020019092919050505061076b565b005b34801561025157600080fd5b5061027e6004803603602081101561026857600080fd5b810190808035906020019092919050505061085c565b604051808215151515815260200191505060405180910390f35b3480156102a457600080fd5b5061035e600480360360208110156102bb57600080fd5b81019080803590602001906401000000008111156102d857600080fd5b8201836020820111156102ea57600080fd5b8035906020019184600183028401116401000000008311171561030c57600080fd5b91908080601f016020809104026020016040519081016040528093929190818152602001838380828437600081840152601f19601f820116905080830192505050505050509192919290505050610912565b005b34801561036c57600080fd5b506103996004803603602081101561038357600080fd5b8101908080359060200190929190505050610a0e565b604051808060200183151515158152602001828103825284818151815260200191508051906020019080838360005b838110156103e35780820151818401526020810190506103c8565b50505050905090810190601f1680156104105780820380516001836020036101000a031916815260200191505b50935050505060405180910390f35b8061042981610735565b151561049d576040517f08c379a000000000000000000000000000000000000000000000000000000000815260040180806020018281038252601a8152602001807f546f646f206d7573742062652076616c696420746f2063616c6c00000000000081525060200191505060405180910390fd5b600080838154811015156104ad57fe5b906000526020600020906002020160010160006101000a81548160ff0219169083151502179055507f3e6e017a26a71c185056d52187a42b48f458d6d60f35fc28b54df4a3388e4c66826040518082815260200191505060405180910390a15050565b6060806000606061051f610b84565b80935081925050506060826040519080825280602002602001820160405280156105585781602001602082028038833980820191505090505b50905060608360405190808252806020026020018201604052801561058c5781602001602082028038833980820191505090505b50905060008090505b8481101561063457600084828151811015156105ad57fe5b9060200190602002015190508084838151811015156105c857fe5b90602001906020020181815250506000818154811015156105e557fe5b906000526020600020906002020160010160009054906101000a900460ff16838381518110151561061257fe5b9060200190602002019015159081151581525050508080600101915050610595565b50818195509550505050509091565b8061064d81610735565b15156106c1576040517f08c379a000000000000000000000000000000000000000000000000000000000815260040180806020018281038252601a8152602001807f546f646f206d7573742062652076616c696420746f2063616c6c00000000000081525060200191505060405180910390fd5b60016000838154811015156106d257fe5b906000526020600020906002020160010160006101000a81548160ff0219169083151502179055507f61d1105621ac231cbad3b861dbf7afa380522c35d47c2dc979cd1da098689104826040518082815260200191505060405180910390a15050565b6000808281548110151561074557fe5b906000526020600020906002020160010160019054906101000a900460ff169050919050565b8061077581610735565b15156107e9576040517f08c379a000000000000000000000000000000000000000000000000000000000815260040180806020018281038252601a8152602001807f546f646f206d7573742062652076616c696420746f2063616c6c00000000000081525060200191505060405180910390fd5b600080838154811015156107f957fe5b906000526020600020906002020160010160016101000a81548160ff0219169083151502179055507f73e4229b811312fffcc660ed4dc33edcb38ca330ced2c471913a1c46b81509e3826040518082815260200191505060405180910390a15050565b60008161086881610735565b15156108dc576040517f08c379a000000000000000000000000000000000000000000000000000000000815260040180806020018281038252601a8152602001807f546f646f206d7573742062652076616c696420746f2063616c6c00000000000081525060200191505060405180910390fd5b6000838154811015156108eb57fe5b906000526020600020906002020160010160009054906101000a900460ff16915050919050565b61091a610c27565b6060604051908101604052808381526020016000151581526020016001151581525090506000600160008390806001815401808255809150509060018203906000526020600020906002020160009091929091909150600082015181600001908051906020019061098c929190610c4d565b5060208201518160010160006101000a81548160ff02191690831515021790555060408201518160010160016101000a81548160ff02191690831515021790555050500390507f6edbfebf4adc3e180444860a21cd838446f00049410a44c6ec4a178a2ebe529b816040518082815260200191505060405180910390a1505050565b6060600082610a1c81610735565b1515610a90576040517f08c379a000000000000000000000000000000000000000000000000000000000815260040180806020018281038252601a8152602001807f546f646f206d7573742062652076616c696420746f2063616c6c00000000000081525060200191505060405180910390fd5b600084815481101515610a9f57fe5b9060005260206000209060020201600001600085815481101515610abf57fe5b906000526020600020906002020160010160009054906101000a900460ff16818054600181600116156101000203166002900480601f016020809104026020016040519081016040528092919081815260200182805460018160011615610100020316600290048015610b735780601f10610b4857610100808354040283529160200191610b73565b820191906000526020600020905b815481529060010190602001808311610b5657829003601f168201915b505050505091509250925050915091565b606060006060600080549050604051908082528060200260200182016040528015610bbe5781602001602082028038833980820191505090505b509050600080905060008090505b600080549050811015610c1a57610be281610735565b15610c0d57808383815181101515610bf657fe5b906020019060200201818152505081806001019250505b8080600101915050610bcc565b5081819350935050509091565b606060405190810160405280606081526020016000151581526020016000151581525090565b828054600181600116156101000203166002900490600052602060002090601f016020900481019282601f10610c8e57805160ff1916838001178555610cbc565b82800160010185558215610cbc579182015b82811115610cbb578251825591602001919060010190610ca0565b5b509050610cc99190610ccd565b5090565b610cef91905b80821115610ceb576000816000905550600101610cd3565b5090565b9056fea165627a7a72305820cbfe4b1ec6eb4dec24e838904d79604d4ea6559238ce1bd8d557454ab6ee7bcb0029",
  "source": "pragma solidity ^0.5.0;\n\n// Reference: https://github.com/pomelyu/EthereumTodo\n\ncontract TodoApp {\n\n    event OnTodoAdded(uint todoId);\n    event OnTodoDeleted(uint todoId);\n    event OnTodoCompleted(uint todoId);\n    event OnTodoUndone(uint todoId);\n\n    struct Todo {\n        string taskName;\n        bool isComplete;\n        bool isValid;\n    }\n\n    Todo[] todos;\n\n\n    // Modifier\n    modifier isValidTodo(uint _todoId) {\n        require(isTodoValid(_todoId), \"Todo must be valid to call\");\n        _;\n    }\n\n\n    // Public function\n    function isTodoValid(uint _todoId) public view returns(bool isValid) {\n        return todos[_todoId].isValid;\n    }\n\n    function isTodoCompleted(uint _todoId) public view isValidTodo(_todoId) returns(bool isValid) {\n        return todos[_todoId].isComplete;\n    }\n\n    function getTodo(uint _todoId) public view isValidTodo(_todoId) returns(string memory, bool) {\n        return (todos[_todoId].taskName, todos[_todoId].isComplete);\n    }\n\n    function getTodoList() public view returns(uint[] memory, bool[] memory) {\n        uint len;\n        uint[] memory valids;\n\n        (valids, len) = _getValidTodos();\n\n        uint[] memory ids = new uint[](len);\n        bool[] memory isCompletes = new bool[](len);\n        for (uint i = 0; i < len; i++) {\n            uint id = valids[i];\n            ids[i] = id;\n            isCompletes[i] = todos[id].isComplete;\n        }\n        return (ids, isCompletes);\n    }\n\n    function addTodo(string memory _taskName) public {\n        Todo memory todo = Todo(_taskName, false, true);\n        uint todoId = todos.push(todo) - 1;\n\n        emit OnTodoAdded(todoId);\n    }\n\n    function deleteTodo(uint _todoId) public isValidTodo(_todoId) {\n        todos[_todoId].isValid = false;\n\n        emit OnTodoDeleted(_todoId);\n    }\n\n    function completeTodo(uint _todoId) public isValidTodo(_todoId) {\n        todos[_todoId].isComplete = true;\n\n        emit OnTodoCompleted(_todoId);\n    }\n\n    function undoneTodo(uint _todoId) public isValidTodo(_todoId) {\n        todos[_todoId].isComplete = false;\n\n        emit OnTodoUndone(_todoId);\n    }\n\n    // Private methods\n    function _getValidTodos() private view returns(uint[] memory valids, uint length) {\n        uint[] memory validTodos = new uint[](todos.length);\n        uint count = 0;\n        for (uint i = 0; i < todos.length; i++) {\n            if (isTodoValid(i)) {\n                validTodos[count] = i;\n                count++;\n            }\n        }\n        return(validTodos, count);\n    }\n}",
  "sourcePath": "/Users/youyou/Documents/GitHub/EthHW/3_TodoApp/contracts/TodoApp.sol",
  "compiler": {
    "name": "solc",
    "version": "0.5.1+commit.c8a2cb62.Emscripten.clang"
  },
  "schemaVersion": "3.3.2",
  "updatedAt": "2020-12-16T12:15:20.937Z",
  "networkType": "ethereum",
  "devdoc": {
    "methods": {}
  },
  "userdoc": {
    "methods": {}
  }
}