{
  "contractName": "DEX",
  "abi": [
    {
      "inputs": [],
      "stateMutability": "nonpayable",
      "type": "constructor"
    },
    {
      "anonymous": false,
      "inputs": [
        {
          "indexed": false,
          "internalType": "uint256",
          "name": "amount",
          "type": "uint256"
        }
      ],
      "name": "Bought",
      "type": "event"
    },
    {
      "anonymous": false,
      "inputs": [
        {
          "indexed": false,
          "internalType": "uint256",
          "name": "amount",
          "type": "uint256"
        }
      ],
      "name": "Sold",
      "type": "event"
    },
    {
      "inputs": [],
      "name": "exchange_rate",
      "outputs": [
        {
          "internalType": "uint256",
          "name": "",
          "type": "uint256"
        }
      ],
      "stateMutability": "view",
      "type": "function"
    },
    {
      "inputs": [],
      "name": "token",
      "outputs": [
        {
          "internalType": "contract TokenPool",
          "name": "",
          "type": "address"
        }
      ],
      "stateMutability": "view",
      "type": "function"
    },
    {
      "inputs": [],
      "name": "getTokenSupply",
      "outputs": [
        {
          "internalType": "uint256",
          "name": "",
          "type": "uint256"
        }
      ],
      "stateMutability": "view",
      "type": "function"
    },
    {
      "inputs": [],
      "name": "getContractAddress",
      "outputs": [
        {
          "internalType": "address",
          "name": "",
          "type": "address"
        }
      ],
      "stateMutability": "view",
      "type": "function"
    },
    {
      "inputs": [],
      "name": "getPoolTokenBalance",
      "outputs": [
        {
          "internalType": "uint256",
          "name": "",
          "type": "uint256"
        }
      ],
      "stateMutability": "view",
      "type": "function"
    },
    {
      "inputs": [],
      "name": "getPoolEtherBalance",
      "outputs": [
        {
          "internalType": "uint256",
          "name": "",
          "type": "uint256"
        }
      ],
      "stateMutability": "view",
      "type": "function"
    },
    {
      "inputs": [],
      "name": "register",
      "outputs": [
        {
          "internalType": "bool",
          "name": "",
          "type": "bool"
        }
      ],
      "stateMutability": "nonpayable",
      "type": "function"
    },
    {
      "inputs": [],
      "name": "buy",
      "outputs": [],
      "stateMutability": "payable",
      "type": "function"
    },
    {
      "inputs": [
        {
          "internalType": "uint256",
          "name": "amount",
          "type": "uint256"
        }
      ],
      "name": "sell",
      "outputs": [],
      "stateMutability": "nonpayable",
      "type": "function"
    },
    {
      "inputs": [
        {
          "internalType": "address",
          "name": "receiver",
          "type": "address"
        },
        {
          "internalType": "uint256",
          "name": "amount",
          "type": "uint256"
        }
      ],
      "name": "transferToken",
      "outputs": [],
      "stateMutability": "nonpayable",
      "type": "function"
    }
  ],
  "bytecode": "0x6080604052655af3107a400060015534801561001a57600080fd5b5060405161002790610069565b604051809103906000f080158015610043573d6000803e3d6000fd5b5060008054600160a060020a031916600160a060020a0392909216919091179055610076565b6104eb80610afd83390190565b610a78806100856000396000f3fe6080604052600436106100955760003560e060020a9004806346c641f31161005d57806346c641f314610140578063a6f2ae3a14610155578063ad974f4c1461015d578063e4849b3214610172578063fc0c546a1461019257610095565b80631072cbea1461009a578063171ef0b2146100bc5780631aa3a008146100e7578063245fcb921461010957806332a2c5d01461011e575b600080fd5b3480156100a657600080fd5b506100ba6100b53660046107b8565b6101a7565b005b3480156100c857600080fd5b506100d1610261565b6040516100de91906109e8565b60405180910390f35b3480156100f357600080fd5b506100fc610267565b6040516100de9190610880565b34801561011557600080fd5b506100d16103a9565b34801561012a57600080fd5b506101336103ae565b6040516100de9190610848565b34801561014c57600080fd5b506100d16103b2565b6100ba61043b565b34801561016957600080fd5b506100d16105dd565b34801561017e57600080fd5b506100ba61018d366004610815565b61062f565b34801561019e57600080fd5b506101336107a9565b600081116101d35760405160e560020a62461bcd0281526004016101ca9061091f565b60405180910390fd5b60005460405160e060020a6323b872dd028152600160a060020a03909116906323b872dd9061020a9033908690869060040161085c565b602060405180830381600087803b15801561022457600080fd5b505af1158015610238573d6000803e3d6000fd5b505050506040513d601f19601f8201168201806040525081019061025c91906107ee565b505050565b60015481565b6000805460405160e060020a6370a08231028152612710918391600160a060020a03909116906370a08231906102a1903090600401610848565b60206040518083038186803b1580156102b957600080fd5b505afa1580156102cd573d6000803e3d6000fd5b505050506040513d601f19601f820116820180604052508101906102f1919061082d565b9050808211156103165760405160e560020a62461bcd0281526004016101ca906109b3565b60005460405160e060020a6323b872dd028152600160a060020a03909116906323b872dd9061034d9030903390879060040161085c565b602060405180830381600087803b15801561036757600080fd5b505af115801561037b573d6000803e3d6000fd5b505050506040513d601f19601f8201168201806040525081019061039f91906107ee565b5060019250505090565b303190565b3090565b6000805460405160e060020a6370a08231028152600160a060020a03909116906370a08231906103e6903090600401610848565b60206040518083038186803b1580156103fe57600080fd5b505afa158015610412573d6000803e3d6000fd5b505050506040513d601f19601f82011682018060405250810190610436919061082d565b905090565b6000805460405160e060020a6370a08231028152349291600160a060020a0316906370a0823190610470903090600401610848565b60206040518083038186803b15801561048857600080fd5b505afa15801561049c573d6000803e3d6000fd5b505050506040513d601f19601f820116820180604052508101906104c0919061082d565b9050600082116104e55760405160e560020a62461bcd0281526004016101ca9061088b565b808211156105085760405160e560020a62461bcd0281526004016101ca906109b3565b600054600154600160a060020a03909116906323b872dd903090339061052e90876109f1565b6040518463ffffffff1660e060020a02815260040161054f9392919061085c565b602060405180830381600087803b15801561056957600080fd5b505af115801561057d573d6000803e3d6000fd5b505050506040513d601f19601f820116820180604052508101906105a191906107ee565b507f4e08ba899977cf7d4c2964bce71c6b9a7ef76ee5166a4c1249a1e08016e33ef1826040516105d191906109e8565b60405180910390a15050565b60008060009054906101000a9004600160a060020a0316600160a060020a03166318160ddd6040518163ffffffff1660e060020a02815260040160206040518083038186803b1580156103fe57600080fd5b600081116106525760405160e560020a62461bcd0281526004016101ca906108c2565b60005460405160e060020a6323b872dd028152600160a060020a03909116906323b872dd906106899033903090869060040161085c565b602060405180830381600087803b1580156106a357600080fd5b505af11580156106b7573d6000803e3d6000fd5b505050506040513d601f19601f820116820180604052508101906106db91906107ee565b506000600154826106ec9190610a14565b9050600033600160a060020a03168260405161070790610845565b60006040518083038185875af1925050503d8060008114610744576040519150601f19603f3d011682016040523d82523d6000602084013e610749565b606091505b505090508061076d5760405160e560020a62461bcd0281526004016101ca9061097c565b7f92f64ca637d023f354075a4be751b169c1a8a9ccb6d33cdd0cb35205439957278360405161079c91906109e8565b60405180910390a1505050565b600054600160a060020a031681565b600080604083850312156107ca578182fd5b8235600160a060020a03811681146107e0578283fd5b946020939093013593505050565b6000602082840312156107ff578081fd5b8151801515811461080e578182fd5b9392505050565b600060208284031215610826578081fd5b5035919050565b60006020828403121561083e578081fd5b5051919050565b90565b600160a060020a0391909116815260200190565b600160a060020a039384168152919092166020820152604081019190915260600190565b901515815260200190565b6020808252601b908201527f596f75206e65656420746f2073656e6420736f6d652045746865720000000000604082015260600190565b60208082526025908201527f596f75206e65656420746f2073656c6c206174206c6561737420736f6d65207460408201527f6f6b656e73000000000000000000000000000000000000000000000000000000606082015260800190565b60208082526026908201527f596f75206e65656420746f20656e746572206174206c6561737420736f6d652060408201527f746f6b656e730000000000000000000000000000000000000000000000000000606082015260800190565b60208082526016908201527f5472616e73666572204574686572206661696c65642e00000000000000000000604082015260600190565b6020808252818101527f4e6f7420656e6f75676820746f6b656e7320696e207468652072657365727665604082015260600190565b90815260200190565b600082610a0f5760e060020a634e487b710281526012600452602481fd5b500490565b6000816000190483118215151615610a3d5760e060020a634e487b710281526011600452602481fd5b50029056fea26469706673582212208007d4df9bf0a0901da7b3c4c4b317c49bb29899dc755c9b0018c8b8cef90cb264736f6c63430008000033608060405268056bc75e2d6310000060015534801561001d57600080fd5b50600154336000908152602081905260409020556104ab806100406000396000f3fe608060405234801561001057600080fd5b506004361061007e577c0100000000000000000000000000000000000000000000000000000000600035046306fdde03811461008357806318160ddd146100a157806323b872dd146100b6578063313ce567146100d657806370a08231146100eb57806395d89b41146100fe575b600080fd5b61008b610106565b604051610098919061038e565b60405180910390f35b6100a961013f565b6040516100989190610416565b6100c96100c4366004610348565b610145565b6040516100989190610383565b6100de610256565b604051610098919061041f565b6100a96100f936600461032e565b61025b565b61008b61027a565b6040518060400160405280600981526020017f4d75736963436f696e000000000000000000000000000000000000000000000081525081565b60015490565b600160a060020a0383166000908152602081905260408120548211156101a0576040517f08c379a0000000000000000000000000000000000000000000000000000000008152600401610197906103e1565b60405180910390fd5b600160a060020a0384166000908152602081905260409020546101c390836102b3565b600160a060020a0380861660009081526020819052604080822093909355908516815220546101f290836102e7565b600160a060020a0380851660008181526020819052604090819020939093559151908616907fddf252ad1be2c89b69c2b068fc378daa952ba7f163c4a11628f55a4df523b3ef90610244908690610416565b60405180910390a35060019392505050565b600281565b600160a060020a0381166000908152602081905260409020545b919050565b6040518060400160405280600381526020017f4d5543000000000000000000000000000000000000000000000000000000000081525081565b6000828211156102d65760e060020a634e487b7102600052600160045260246000fd5b6102e08284610445565b9392505050565b6000806102f4838561042d565b9050838110156102e05760e060020a634e487b7102600052600160045260246000fd5b8035600160a060020a038116811461027557600080fd5b60006020828403121561033f578081fd5b6102e082610317565b60008060006060848603121561035c578182fd5b61036584610317565b925061037360208501610317565b9150604084013590509250925092565b901515815260200190565b6000602080835283518082850152825b818110156103ba5785810183015185820160400152820161039e565b818111156103cb5783604083870101525b50601f01601f1916929092016040019392505050565b6020808252818101527f546865206f776e657220686173206e6f20656e6f7567682062616c616e636521604082015260600190565b90815260200190565b60ff91909116815260200190565b600082198211156104405761044061045c565b500190565b6000828210156104575761045761045c565b500390565b60e060020a634e487b7102600052601160045260246000fdfea2646970667358221220dd6487f38fb2355b01aa2007d24309987685c8b8c437448added730bc2852eba64736f6c63430008000033",
  "immutableReferences": {},
  "source": "pragma solidity >=0.4.0 <0.9.0;\n\ninterface TokenPool {\n    function totalSupply() external view returns (uint256);\n\n    function balanceOf(address account) external view returns (uint256);\n\n    function transferFrom(\n        address sender,\n        address recipient,\n        uint256 amount\n    ) external returns (bool);\n\n    event Transfer(address indexed from, address indexed to, uint256 value);\n    \n}\n\ncontract MusicCoin is TokenPool {\n    string public constant name = \"MusicCoin\";\n    string public constant symbol = \"MUC\";\n    uint8 public constant decimals = 2;\n\n    mapping(address => uint256) balances;\n\n    uint256 _totalSupply = 100 ether;\n\n    using SafeMath for uint256;\n\n    constructor() {\n        balances[msg.sender] = _totalSupply;\n    }\n\n    function totalSupply() public view override returns (uint256) {\n        return _totalSupply;\n    }\n\n    function balanceOf(address tokenOwner)\n        public\n        view\n        override\n        returns (uint256)\n    {\n        return balances[tokenOwner];\n    }\n\n    function transferFrom(\n        address owner,\n        address buyer,\n        uint256 numTokens\n    ) public override returns (bool) {\n        require(numTokens <= balances[owner], \"The owner has no enough balance!\");\n        balances[owner] = balances[owner].sub(numTokens);\n        balances[buyer] = balances[buyer].add(numTokens);\n        emit Transfer(owner, buyer, numTokens);\n        return true;\n    }\n}\n\nlibrary SafeMath {\n    function sub(uint256 a, uint256 b) internal pure returns (uint256) {\n        assert(b <= a);\n        return a - b;\n    }\n\n    function add(uint256 a, uint256 b) internal pure returns (uint256) {\n        uint256 c = a + b;\n        assert(c >= a);\n        return c;\n    }\n}\n\ncontract DEX {\n    event Bought(uint256 amount);\n    event Sold(uint256 amount);\n\n    TokenPool public token;\n    uint256 public exchange_rate = 10**14;\n\n    constructor() {\n        token = new MusicCoin();\n    }\n\n    function getTokenSupply() public view returns (uint256) {\n        return token.totalSupply();\n    }\n\n    function getContractAddress() public view returns (address) {\n        return address(this);\n    }\n\n    function getPoolTokenBalance() public view returns (uint256) {\n        return token.balanceOf(address(this));\n    }\n\n    function getPoolEtherBalance() public view returns (uint256) {\n        return address(this).balance;\n    }\n\n    function register() public returns (bool) {\n        uint amount = 10000;\n        uint256 dexBalance = token.balanceOf(address(this));\n        require(amount <= dexBalance, \"Not enough tokens in the reserve\");\n        token.transferFrom(address(this), msg.sender, amount);\n        return true;\n    }\n\n    function buy() public payable {\n        uint256 amountTobuy = msg.value;\n        uint256 dexBalance = token.balanceOf(address(this));\n        require(amountTobuy > 0, \"You need to send some Ether\");\n        require(amountTobuy <= dexBalance, \"Not enough tokens in the reserve\");\n        token.transferFrom(address(this), msg.sender, amountTobuy / exchange_rate);\n        emit Bought(amountTobuy);\n    }\n\n    function sell(uint256 amount) public {\n        require(amount > 0, \"You need to sell at least some tokens\");\n        token.transferFrom(msg.sender, address(this), amount);\n\n        // Send seller the sell price\n        uint256 weiAmount = amount * exchange_rate;\n\n        (bool success, ) = msg.sender.call{value: weiAmount}(\"\");\n        // payable(msg.sender).transfer(weiAmount);\n        require(success, \"Transfer Ether failed.\");\n        emit Sold(amount);\n    }\n\n    function transferToken(\n        address receiver,\n        uint256 amount\n    ) public {\n        require(amount > 0, \"You need to enter at least some tokens\");\n        token.transferFrom(msg.sender, receiver, amount);\n    }\n\n    function transferTokenFrom(\n        address sender,\n        address receiver,\n        uint256 amount\n    ) internal {\n        require(amount > 0, \"You need to enter at least some tokens\");\n        token.transferFrom(sender, receiver, amount);\n    }\n}\n",
  "sourcePath": "/Users/systemato/dev/nmlab-final/music-dapp/react/src/contracts/MusicToken.sol",
  "compiler": {
    "name": "solc",
    "version": "0.8.0+commit.c7dfd78e.Emscripten.clang"
  },
  "schemaVersion": "3.4.0",
  "updatedAt": "2021-06-24T15:41:56.432Z",
  "devdoc": {
    "kind": "dev",
    "methods": {},
    "version": 1
  },
  "userdoc": {
    "kind": "user",
    "methods": {},
    "version": 1
  }
}