{
  "contractName": "DEX",
  "abi": [
    {
      "inputs": [],
      "stateMutability": "nonpayable",
      "type": "constructor"
    },
    {
      "anonymous": false,
      "inputs": [
        {
          "indexed": false,
          "internalType": "uint256",
          "name": "amount",
          "type": "uint256"
        }
      ],
      "name": "Bought",
      "type": "event"
    },
    {
      "anonymous": false,
      "inputs": [
        {
          "indexed": false,
          "internalType": "uint256",
          "name": "amount",
          "type": "uint256"
        }
      ],
      "name": "Sold",
      "type": "event"
    },
    {
      "inputs": [],
      "name": "exchange_rate",
      "outputs": [
        {
          "internalType": "uint256",
          "name": "",
          "type": "uint256"
        }
      ],
      "stateMutability": "view",
      "type": "function"
    },
    {
      "inputs": [],
      "name": "token",
      "outputs": [
        {
          "internalType": "contract TokenPool",
          "name": "",
          "type": "address"
        }
      ],
      "stateMutability": "view",
      "type": "function"
    },
    {
      "inputs": [],
      "name": "getTokenSupply",
      "outputs": [
        {
          "internalType": "uint256",
          "name": "",
          "type": "uint256"
        }
      ],
      "stateMutability": "view",
      "type": "function"
    },
    {
      "inputs": [],
      "name": "getContractAddress",
      "outputs": [
        {
          "internalType": "address",
          "name": "",
          "type": "address"
        }
      ],
      "stateMutability": "view",
      "type": "function"
    },
    {
      "inputs": [],
      "name": "getPoolTokenBalance",
      "outputs": [
        {
          "internalType": "uint256",
          "name": "",
          "type": "uint256"
        }
      ],
      "stateMutability": "view",
      "type": "function"
    },
    {
      "inputs": [],
      "name": "getPoolEtherBalance",
      "outputs": [
        {
          "internalType": "uint256",
          "name": "",
          "type": "uint256"
        }
      ],
      "stateMutability": "view",
      "type": "function"
    },
    {
      "inputs": [],
      "name": "register",
      "outputs": [
        {
          "internalType": "bool",
          "name": "",
          "type": "bool"
        }
      ],
      "stateMutability": "nonpayable",
      "type": "function"
    },
    {
      "inputs": [],
      "name": "buy",
      "outputs": [],
      "stateMutability": "payable",
      "type": "function"
    },
    {
      "inputs": [
        {
          "internalType": "uint256",
          "name": "amount",
          "type": "uint256"
        }
      ],
      "name": "sell",
      "outputs": [],
      "stateMutability": "nonpayable",
      "type": "function"
    },
    {
      "inputs": [
        {
          "internalType": "address",
          "name": "receiver",
          "type": "address"
        },
        {
          "internalType": "uint256",
          "name": "amount",
          "type": "uint256"
        }
      ],
      "name": "transferToken",
      "outputs": [],
      "stateMutability": "nonpayable",
      "type": "function"
    }
  ],
  "bytecode": "0x6080604052655af3107a400060015534801561001a57600080fd5b5060405161002790610069565b604051809103906000f080158015610043573d6000803e3d6000fd5b5060008054600160a060020a031916600160a060020a0392909216919091179055610076565b61049480610abf83390190565b610a3a806100856000396000f3fe6080604052600436106100845760e060020a60003504631072cbea8114610089578063171ef0b2146100ab5780631aa3a008146100d6578063245fcb92146100f857806332a2c5d01461010d57806346c641f31461012f578063a6f2ae3a14610144578063ad974f4c1461014c578063e4849b3214610161578063fc0c546a14610181575b600080fd5b34801561009557600080fd5b506100a96100a43660046107a7565b610196565b005b3480156100b757600080fd5b506100c0610250565b6040516100cd91906109aa565b60405180910390f35b3480156100e257600080fd5b506100eb610256565b6040516100cd919061086f565b34801561010457600080fd5b506100c0610398565b34801561011957600080fd5b5061012261039d565b6040516100cd9190610837565b34801561013b57600080fd5b506100c06103a1565b6100a961042a565b34801561015857600080fd5b506100c06105cc565b34801561016d57600080fd5b506100a961017c366004610804565b61061e565b34801561018d57600080fd5b50610122610798565b600081116101c25760405160e560020a62461bcd0281526004016101b9906108f9565b60405180910390fd5b60005460405160e060020a6323b872dd028152600160a060020a03909116906323b872dd906101f99033908690869060040161084b565b602060405180830381600087803b15801561021357600080fd5b505af1158015610227573d6000803e3d6000fd5b505050506040513d601f19601f8201168201806040525081019061024b91906107dd565b505050565b60015481565b6000805460405160e060020a6370a08231028152612710918391600160a060020a03909116906370a0823190610290903090600401610837565b60206040518083038186803b1580156102a857600080fd5b505afa1580156102bc573d6000803e3d6000fd5b505050506040513d601f19601f820116820180604052508101906102e0919061081c565b9050808211156103055760405160e560020a62461bcd0281526004016101b990610975565b60005460405160e060020a6323b872dd028152600160a060020a03909116906323b872dd9061033c9030903390879060040161084b565b602060405180830381600087803b15801561035657600080fd5b505af115801561036a573d6000803e3d6000fd5b505050506040513d601f19601f8201168201806040525081019061038e91906107dd565b5060019250505090565b303190565b3090565b6000805460405160e060020a6370a08231028152600160a060020a03909116906370a08231906103d5903090600401610837565b60206040518083038186803b1580156103ed57600080fd5b505afa158015610401573d6000803e3d6000fd5b505050506040513d601f19601f82011682018060405250810190610425919061081c565b905090565b6000805460405160e060020a6370a08231028152349291600160a060020a0316906370a082319061045f903090600401610837565b60206040518083038186803b15801561047757600080fd5b505afa15801561048b573d6000803e3d6000fd5b505050506040513d601f19601f820116820180604052508101906104af919061081c565b9050600082116104d45760405160e560020a62461bcd0281526004016101b99061087a565b808211156104f75760405160e560020a62461bcd0281526004016101b990610975565b600054600154600160a060020a03909116906323b872dd903090339061051d90876109b3565b6040518463ffffffff1660e060020a02815260040161053e9392919061084b565b602060405180830381600087803b15801561055857600080fd5b505af115801561056c573d6000803e3d6000fd5b505050506040513d601f19601f8201168201806040525081019061059091906107dd565b507f4e08ba899977cf7d4c2964bce71c6b9a7ef76ee5166a4c1249a1e08016e33ef1826040516105c091906109aa565b60405180910390a15050565b60008060009054906101000a9004600160a060020a0316600160a060020a03166318160ddd6040518163ffffffff1660e060020a02815260040160206040518083038186803b1580156103ed57600080fd5b600081116106415760405160e560020a62461bcd0281526004016101b9906108b1565b60005460405160e060020a6323b872dd028152600160a060020a03909116906323b872dd906106789033903090869060040161084b565b602060405180830381600087803b15801561069257600080fd5b505af11580156106a6573d6000803e3d6000fd5b505050506040513d601f19601f820116820180604052508101906106ca91906107dd565b506000600154826106db91906109d6565b9050600033600160a060020a0316826040516106f690610834565b60006040518083038185875af1925050503d8060008114610733576040519150601f19603f3d011682016040523d82523d6000602084013e610738565b606091505b505090508061075c5760405160e560020a62461bcd0281526004016101b990610942565b7f92f64ca637d023f354075a4be751b169c1a8a9ccb6d33cdd0cb35205439957278360405161078b91906109aa565b60405180910390a1505050565b600054600160a060020a031681565b600080604083850312156107b9578182fd5b8235600160a060020a03811681146107cf578283fd5b946020939093013593505050565b6000602082840312156107ee578081fd5b815180151581146107fd578182fd5b9392505050565b600060208284031215610815578081fd5b5035919050565b60006020828403121561082d578081fd5b5051919050565b90565b600160a060020a0391909116815260200190565b600160a060020a039384168152919092166020820152604081019190915260600190565b901515815260200190565b6020808252601b908201527f596f75206e65656420746f2073656e6420736f6d652045746865720000000000604082015260600190565b60208082526025908201527f596f75206e65656420746f2073656c6c206174206c6561737420736f6d652074604082015260d860020a646f6b656e7302606082015260800190565b60208082526026908201527f596f75206e65656420746f20656e746572206174206c6561737420736f6d6520604082015260d060020a65746f6b656e7302606082015260800190565b6020808252601690820152605160020a752a3930b739b332b91022ba3432b9103330b4b632b21702604082015260600190565b6020808252818101527f4e6f7420656e6f75676820746f6b656e7320696e207468652072657365727665604082015260600190565b90815260200190565b6000826109d15760e060020a634e487b710281526012600452602481fd5b500490565b60008160001904831182151516156109ff5760e060020a634e487b710281526011600452602481fd5b50029056fea26469706673582212208320276326b0e766998c2d56978b68f175600a290bbab54a68da05831775379964736f6c63430008000033608060405268056bc75e2d6310000060015534801561001d57600080fd5b5060015433600090815260208190526040902055610454806100406000396000f3fe608060405234801561001057600080fd5b50600436106100655760e060020a600035046306fdde03811461006a57806318160ddd1461008857806323b872dd1461009d578063313ce567146100bd57806370a08231146100d257806395d89b41146100e5575b600080fd5b6100726100ed565b60405161007f9190610336565b60405180910390f35b610090610115565b60405161007f91906103be565b6100b06100ab3660046102f0565b61011b565b60405161007f919061032b565b6100c5610215565b60405161007f91906103c7565b6100906100e03660046102d6565b61021a565b610072610239565b60405180604001604052806009815260200160b960020a6826bab9b4b1a1b7b4b70281525081565b60015490565b600160a060020a03831660009081526020819052604081205482111561015f5760405160e560020a62461bcd02815260040161015690610389565b60405180910390fd5b600160a060020a038416600090815260208190526040902054610182908361025b565b600160a060020a0380861660009081526020819052604080822093909355908516815220546101b1908361028f565b600160a060020a0380851660008181526020819052604090819020939093559151908616907fddf252ad1be2c89b69c2b068fc378daa952ba7f163c4a11628f55a4df523b3ef906102039086906103be565b60405180910390a35060019392505050565b600281565b600160a060020a0381166000908152602081905260409020545b919050565b60405180604001604052806003815260200160e860020a624d55430281525081565b60008282111561027e5760e060020a634e487b7102600052600160045260246000fd5b61028882846103ed565b9392505050565b60008061029c83856103d5565b9050838110156102885760e060020a634e487b7102600052600160045260246000fd5b8035600160a060020a038116811461023457600080fd5b6000602082840312156102e7578081fd5b610288826102bf565b600080600060608486031215610304578182fd5b61030d846102bf565b925061031b602085016102bf565b9150604084013590509250925092565b901515815260200190565b6000602080835283518082850152825b8181101561036257858101830151858201604001528201610346565b818111156103735783604083870101525b50601f01601f1916929092016040019392505050565b6020808252818101527f546865206f776e657220686173206e6f20656e6f7567682062616c616e636521604082015260600190565b90815260200190565b60ff91909116815260200190565b600082198211156103e8576103e8610404565b500190565b6000828210156103ff576103ff610404565b500390565b60e060020a634e487b710260009081526011600452602490fdfea264697066735822122010b7da222bf6e6f35ad8d62ad185e2af5bb4e71cd6d1be6e798de855fddf0cbe64736f6c63430008000033",
  "immutableReferences": {},
  "source": "pragma solidity >=0.4.0 <0.9.0;\n\ninterface TokenPool {\n    function totalSupply() external view returns (uint256);\n\n    function balanceOf(address account) external view returns (uint256);\n\n    function transferFrom(\n        address sender,\n        address recipient,\n        uint256 amount\n    ) external returns (bool);\n\n    event Transfer(address indexed from, address indexed to, uint256 value);\n    \n}\n\ncontract MusicCoin is TokenPool {\n    string public constant name = \"MusicCoin\";\n    string public constant symbol = \"MUC\";\n    uint8 public constant decimals = 2;\n\n    mapping(address => uint256) balances;\n\n    uint256 _totalSupply = 100 ether;\n\n    using SafeMath for uint256;\n\n    constructor() {\n        balances[msg.sender] = _totalSupply;\n    }\n\n    function totalSupply() public view override returns (uint256) {\n        return _totalSupply;\n    }\n\n    function balanceOf(address tokenOwner)\n        public\n        view\n        override\n        returns (uint256)\n    {\n        return balances[tokenOwner];\n    }\n\n    function transferFrom(\n        address owner,\n        address buyer,\n        uint256 numTokens\n    ) public override returns (bool) {\n        require(numTokens <= balances[owner], \"The owner has no enough balance!\");\n        balances[owner] = balances[owner].sub(numTokens);\n        balances[buyer] = balances[buyer].add(numTokens);\n        emit Transfer(owner, buyer, numTokens);\n        return true;\n    }\n}\n\nlibrary SafeMath {\n    function sub(uint256 a, uint256 b) internal pure returns (uint256) {\n        assert(b <= a);\n        return a - b;\n    }\n\n    function add(uint256 a, uint256 b) internal pure returns (uint256) {\n        uint256 c = a + b;\n        assert(c >= a);\n        return c;\n    }\n}\n\ncontract DEX {\n    event Bought(uint256 amount);\n    event Sold(uint256 amount);\n\n    TokenPool public token;\n    uint256 public exchange_rate = 10**14;\n\n    constructor() {\n        token = new MusicCoin();\n    }\n\n    function getTokenSupply() public view returns (uint256) {\n        return token.totalSupply();\n    }\n\n    function getContractAddress() public view returns (address) {\n        return address(this);\n    }\n\n    function getPoolTokenBalance() public view returns (uint256) {\n        return token.balanceOf(address(this));\n    }\n\n    function getPoolEtherBalance() public view returns (uint256) {\n        return address(this).balance;\n    }\n\n    function register() public returns (bool) {\n        uint amount = 10000;\n        uint256 dexBalance = token.balanceOf(address(this));\n        require(amount <= dexBalance, \"Not enough tokens in the reserve\");\n        token.transferFrom(address(this), msg.sender, amount);\n        return true;\n    }\n\n    function buy() public payable {\n        uint256 amountTobuy = msg.value;\n        uint256 dexBalance = token.balanceOf(address(this));\n        require(amountTobuy > 0, \"You need to send some Ether\");\n        require(amountTobuy <= dexBalance, \"Not enough tokens in the reserve\");\n        token.transferFrom(address(this), msg.sender, amountTobuy / exchange_rate);\n        emit Bought(amountTobuy);\n    }\n\n    function sell(uint256 amount) public {\n        require(amount > 0, \"You need to sell at least some tokens\");\n        token.transferFrom(msg.sender, address(this), amount);\n\n        // Send seller the sell price\n        uint256 weiAmount = amount * exchange_rate;\n\n        (bool success, ) = msg.sender.call{value: weiAmount}(\"\");\n        // payable(msg.sender).transfer(weiAmount);\n        require(success, \"Transfer Ether failed.\");\n        emit Sold(amount);\n    }\n\n    function transferToken(\n        address receiver,\n        uint256 amount\n    ) public {\n        require(amount > 0, \"You need to enter at least some tokens\");\n        token.transferFrom(msg.sender, receiver, amount);\n    }\n\n    function transferTokenFrom(\n        address sender,\n        address receiver,\n        uint256 amount\n    ) internal {\n        require(amount > 0, \"You need to enter at least some tokens\");\n        token.transferFrom(sender, receiver, amount);\n    }\n}\n",
  "sourcePath": "/Users/systemato/dev/nmlab-final/music-dapp/react/src/contracts/MusicToken.sol",
  "compiler": {
    "name": "solc",
    "version": "0.8.0+commit.c7dfd78e.Emscripten.clang"
  },
  "schemaVersion": "3.4.0",
  "updatedAt": "2021-06-25T08:26:33.938Z",
  "devdoc": {
    "kind": "dev",
    "methods": {},
    "version": 1
  },
  "userdoc": {
    "kind": "user",
    "methods": {},
    "version": 1
  }
}