{
  "contractName": "DEX",
  "abi": [
    {
      "inputs": [],
      "stateMutability": "nonpayable",
      "type": "constructor"
    },
    {
      "anonymous": false,
      "inputs": [
        {
          "indexed": false,
          "internalType": "uint256",
          "name": "amount",
          "type": "uint256"
        }
      ],
      "name": "Bought",
      "type": "event"
    },
    {
      "anonymous": false,
      "inputs": [
        {
          "indexed": false,
          "internalType": "uint256",
          "name": "amount",
          "type": "uint256"
        }
      ],
      "name": "Sold",
      "type": "event"
    },
    {
      "inputs": [],
      "name": "exchange_rate",
      "outputs": [
        {
          "internalType": "uint256",
          "name": "",
          "type": "uint256"
        }
      ],
      "stateMutability": "view",
      "type": "function"
    },
    {
      "inputs": [],
      "name": "token",
      "outputs": [
        {
          "internalType": "contract IERC20",
          "name": "",
          "type": "address"
        }
      ],
      "stateMutability": "view",
      "type": "function"
    },
    {
      "inputs": [],
      "name": "buy",
      "outputs": [],
      "stateMutability": "payable",
      "type": "function"
    },
    {
      "inputs": [
        {
          "internalType": "uint256",
          "name": "amount",
          "type": "uint256"
        }
      ],
      "name": "sell",
      "outputs": [],
      "stateMutability": "nonpayable",
      "type": "function"
    },
    {
      "inputs": [
        {
          "internalType": "address",
          "name": "sender",
          "type": "address"
        },
        {
          "internalType": "address",
          "name": "receiver",
          "type": "address"
        },
        {
          "internalType": "uint256",
          "name": "amount",
          "type": "uint256"
        }
      ],
      "name": "transferToken",
      "outputs": [],
      "stateMutability": "nonpayable",
      "type": "function"
    }
  ],
  "bytecode": "0x60806040526103e860015534801561001657600080fd5b5060405161002390610065565b604051809103906000f08015801561003f573d6000803e3d6000fd5b5060008054600160a060020a031916600160a060020a0392909216919091179055610072565b6106f08061093583390190565b6108b4806100816000396000f3fe60806040526004361061004d5760e060020a6000350463171ef0b28114610052578063a6f2ae3a1461007d578063e4849b3214610087578063f5537ede146100a7578063fc0c546a146100c7575b600080fd5b34801561005e57600080fd5b506100676100e9565b6040516100749190610824565b60405180910390f35b6100856100ef565b005b34801561009357600080fd5b506100856100a2366004610652565b610297565b3480156100b357600080fd5b506100856100c23660046105f0565b610470565b3480156100d357600080fd5b506100dc6105c5565b6040516100749190610682565b60015481565b6000805460405160e060020a6370a08231028152349291600160a060020a0316906370a0823190610124903090600401610682565b60206040518083038186803b15801561013c57600080fd5b505afa158015610150573d6000803e3d6000fd5b505050506040513d601f19601f82011682018060405250810190610174919061066a565b9050600082116101a25760405160e560020a62461bcd028152600401610199906106ed565b60405180910390fd5b808211156101c55760405160e560020a62461bcd028152600401610199906107b8565b600054600154600160a060020a039091169063a9059cbb9033906101e99086610850565b6040518363ffffffff1660e060020a0281526004016102099291906106d4565b602060405180830381600087803b15801561022357600080fd5b505af1158015610237573d6000803e3d6000fd5b505050506040513d601f19601f8201168201806040525081019061025b919061062b565b507f4e08ba899977cf7d4c2964bce71c6b9a7ef76ee5166a4c1249a1e08016e33ef18260405161028b9190610824565b60405180910390a15050565b600081116102ba5760405160e560020a62461bcd02815260040161019990610724565b600080546040517fdd62ed3e000000000000000000000000000000000000000000000000000000008152600160a060020a039091169063dd62ed3e906103069033903090600401610696565b60206040518083038186803b15801561031e57600080fd5b505afa158015610332573d6000803e3d6000fd5b505050506040513d601f19601f82011682018060405250810190610356919061066a565b90508181101561037b5760405160e560020a62461bcd02815260040161019990610781565b60005460405160e060020a6323b872dd028152600160a060020a03909116906323b872dd906103b2903390309087906004016106b0565b602060405180830381600087803b1580156103cc57600080fd5b505af11580156103e0573d6000803e3d6000fd5b505050506040513d601f19601f82011682018060405250810190610404919061062b565b5060015433906108fc90610418908561082d565b6040518115909202916000818181858888f19350505050158015610440573d6000803e3d6000fd5b507f92f64ca637d023f354075a4be751b169c1a8a9ccb6d33cdd0cb35205439957278260405161028b9190610824565b600081116104935760405160e560020a62461bcd02815260040161019990610724565b60005460405160e060020a6370a082310281528291600160a060020a0316906370a08231906104c6908790600401610682565b60206040518083038186803b1580156104de57600080fd5b505afa1580156104f2573d6000803e3d6000fd5b505050506040513d601f19601f82011682018060405250810190610516919061066a565b116105365760405160e560020a62461bcd028152600401610199906107ed565b60005460405160e060020a6323b872dd028152600160a060020a03909116906323b872dd9061056d908690869086906004016106b0565b602060405180830381600087803b15801561058757600080fd5b505af115801561059b573d6000803e3d6000fd5b505050506040513d601f19601f820116820180604052508101906105bf919061062b565b50505050565b600054600160a060020a031681565b8035600160a060020a03811681146105eb57600080fd5b919050565b600080600060608486031215610604578283fd5b61060d846105d4565b925061061b602085016105d4565b9150604084013590509250925092565b60006020828403121561063c578081fd5b8151801515811461064b578182fd5b9392505050565b600060208284031215610663578081fd5b5035919050565b60006020828403121561067b578081fd5b5051919050565b600160a060020a0391909116815260200190565b600160a060020a0392831681529116602082015260400190565b600160a060020a039384168152919092166020820152604081019190915260600190565b600160a060020a03929092168252602082015260400190565b6020808252601b908201527f596f75206e65656420746f2073656e6420736f6d652045746865720000000000604082015260600190565b60208082526025908201527f596f75206e65656420746f2073656c6c206174206c6561737420736f6d65207460408201527f6f6b656e73000000000000000000000000000000000000000000000000000000606082015260800190565b60208082526019908201527f436865636b2074686520746f6b656e20616c6c6f77616e636500000000000000604082015260600190565b6020808252818101527f4e6f7420656e6f75676820746f6b656e7320696e207468652072657365727665604082015260600190565b6020808252601b908201527f596f75206861766520746f20656e6f7567682062616c616e6365210000000000604082015260600190565b90815260200190565b60008261084b5760e060020a634e487b710281526012600452602481fd5b500490565b60008160001904831182151516156108795760e060020a634e487b710281526011600452602481fd5b50029056fea2646970667358221220de7019593d383129a4664ce27b165db41ed9a879e845571df0cdf3516ac6fcc364736f6c6343000800003360806040526a52b7d2dcc80cd2e400000060025534801561001f57600080fd5b50600254336000908152602081905260409020556106ae806100426000396000f3fe608060405234801561001057600080fd5b506004361061009f577c0100000000000000000000000000000000000000000000000000000000600035046306fdde0381146100a4578063095ea7b3146100c257806318160ddd146100e257806323b872dd146100f7578063313ce5671461010a57806370a082311461011f57806395d89b4114610132578063a9059cbb1461013a578063dd62ed3e1461014d575b600080fd5b6100ac610160565b6040516100b991906105c6565b60405180910390f35b6100d56100d0366004610592565b610199565b6040516100b991906105bb565b6100ea610203565b6040516100b99190610619565b6100d5610105366004610557565b610209565b610112610357565b6040516100b99190610622565b6100ea61012d36600461050b565b61035c565b6100ac61037b565b6100d5610148366004610592565b6103b4565b6100ea61015b366004610525565b610465565b6040518060400160405280600981526020017f4d75736963436f696e000000000000000000000000000000000000000000000081525081565b336000818152600160209081526040808320600160a060020a038716808552925280832085905551919290917f8c5be1e5ebec7d5bd14f71427d1e84f3dd0314c0f7b2291e5b200ac8c7c3b925906101f2908690610619565b60405180910390a350600192915050565b60025490565b600160a060020a03831660009081526020819052604081205482111561022e57600080fd5b600160a060020a038416600090815260016020908152604080832033845290915290205482111561025e57600080fd5b600160a060020a0384166000908152602081905260409020546102819083610490565b600160a060020a0385166000908152602081815260408083209390935560018152828220338352905220546102b69083610490565b600160a060020a03808616600090815260016020908152604080832033845282528083209490945591861681529081905220546102f390836104c4565b600160a060020a0380851660008181526020819052604090819020939093559151908616907fddf252ad1be2c89b69c2b068fc378daa952ba7f163c4a11628f55a4df523b3ef90610345908690610619565b60405180910390a35060019392505050565b600281565b600160a060020a0381166000908152602081905260409020545b919050565b6040518060400160405280600381526020017f4d5543000000000000000000000000000000000000000000000000000000000081525081565b336000908152602081905260408120548211156103d057600080fd5b336000908152602081905260409020546103ea9083610490565b3360009081526020819052604080822092909255600160a060020a0385168152205461041690836104c4565b600160a060020a0384166000818152602081905260409081902092909255905133907fddf252ad1be2c89b69c2b068fc378daa952ba7f163c4a11628f55a4df523b3ef906101f2908690610619565b600160a060020a03918216600090815260016020908152604080832093909416825291909152205490565b6000828211156104b35760e060020a634e487b7102600052600160045260246000fd5b6104bd8284610648565b9392505050565b6000806104d18385610630565b9050838110156104bd5760e060020a634e487b7102600052600160045260246000fd5b8035600160a060020a038116811461037657600080fd5b60006020828403121561051c578081fd5b6104bd826104f4565b60008060408385031215610537578081fd5b610540836104f4565b915061054e602084016104f4565b90509250929050565b60008060006060848603121561056b578081fd5b610574846104f4565b9250610582602085016104f4565b9150604084013590509250925092565b600080604083850312156105a4578182fd5b6105ad836104f4565b946020939093013593505050565b901515815260200190565b6000602080835283518082850152825b818110156105f2578581018301518582016040015282016105d6565b818111156106035783604083870101525b50601f01601f1916929092016040019392505050565b90815260200190565b60ff91909116815260200190565b600082198211156106435761064361065f565b500190565b60008282101561065a5761065a61065f565b500390565b60e060020a634e487b7102600052601160045260246000fdfea2646970667358221220d5ed501100d12a8a617d167fff523ae4aff9525763fc8664c38d85840a55dd3764736f6c63430008000033",
  "immutableReferences": {},
  "source": "pragma solidity >=0.4.0 <0.9.0;\n\ninterface IERC20 {\n    function totalSupply() external view returns (uint256);\n\n    function balanceOf(address account) external view returns (uint256);\n\n    function allowance(address owner, address spender)\n        external\n        view\n        returns (uint256);\n\n    function transfer(address recipient, uint256 amount)\n        external\n        returns (bool);\n\n    function approve(address spender, uint256 amount) external returns (bool);\n\n    function transferFrom(\n        address sender,\n        address recipient,\n        uint256 amount\n    ) external returns (bool);\n\n    event Transfer(address indexed from, address indexed to, uint256 value);\n    event Approval(\n        address indexed owner,\n        address indexed spender,\n        uint256 value\n    );\n}\n\ncontract MusicCoin is IERC20 {\n    string public constant name = \"MusicCoin\";\n    string public constant symbol = \"MUC\";\n    uint8 public constant decimals = 2;\n\n    mapping(address => uint256) balances;\n\n    mapping(address => mapping(address => uint256)) allowed;\n\n    uint256 totalSupply_ = 100000000 ether;\n\n    using SafeMath for uint256;\n\n    constructor() {\n        balances[msg.sender] = totalSupply_;\n    }\n\n    function totalSupply() public view override returns (uint256) {\n        return totalSupply_;\n    }\n\n    function balanceOf(address tokenOwner)\n        public\n        view\n        override\n        returns (uint256)\n    {\n        return balances[tokenOwner];\n    }\n\n    function transfer(address receiver, uint256 numTokens)\n        public\n        override\n        returns (bool)\n    {\n        require(numTokens <= balances[msg.sender]);\n        balances[msg.sender] = balances[msg.sender].sub(numTokens);\n        balances[receiver] = balances[receiver].add(numTokens);\n        emit Transfer(msg.sender, receiver, numTokens);\n        return true;\n    }\n\n    function approve(address delegate, uint256 numTokens)\n        public\n        override\n        returns (bool)\n    {\n        allowed[msg.sender][delegate] = numTokens;\n        emit Approval(msg.sender, delegate, numTokens);\n        return true;\n    }\n\n    function allowance(address owner, address delegate)\n        public\n        view\n        override\n        returns (uint256)\n    {\n        return allowed[owner][delegate];\n    }\n\n    function transferFrom(\n        address owner,\n        address buyer,\n        uint256 numTokens\n    ) public override returns (bool) {\n        require(numTokens <= balances[owner]);\n        require(numTokens <= allowed[owner][msg.sender]);\n\n        balances[owner] = balances[owner].sub(numTokens);\n        allowed[owner][msg.sender] = allowed[owner][msg.sender].sub(numTokens);\n        balances[buyer] = balances[buyer].add(numTokens);\n        emit Transfer(owner, buyer, numTokens);\n        return true;\n    }\n}\n\nlibrary SafeMath {\n    function sub(uint256 a, uint256 b) internal pure returns (uint256) {\n        assert(b <= a);\n        return a - b;\n    }\n\n    function add(uint256 a, uint256 b) internal pure returns (uint256) {\n        uint256 c = a + b;\n        assert(c >= a);\n        return c;\n    }\n}\n\ncontract DEX {\n    event Bought(uint256 amount);\n    event Sold(uint256 amount);\n\n    IERC20 public token;\n    uint256 public exchange_rate = 1000;\n\n    constructor() {\n        token = new MusicCoin();\n    }\n\n    function buy() public payable {\n        uint256 amountTobuy = msg.value;\n        uint256 dexBalance = token.balanceOf(address(this));\n        require(amountTobuy > 0, \"You need to send some Ether\");\n        require(amountTobuy <= dexBalance, \"Not enough tokens in the reserve\");\n        token.transfer(msg.sender, amountTobuy * exchange_rate);\n        emit Bought(amountTobuy);\n    }\n\n    function sell(uint256 amount) public {\n        require(amount > 0, \"You need to sell at least some tokens\");\n        uint256 allowance = token.allowance(msg.sender, address(this));\n        require(allowance >= amount, \"Check the token allowance\");\n        token.transferFrom(msg.sender, address(this), amount);\n        payable(msg.sender).transfer(amount / exchange_rate);\n        emit Sold(amount);\n    }\n\n    function transferToken(\n        address sender,\n        address receiver,\n        uint256 amount\n    ) public {\n        require(amount > 0, \"You need to sell at least some tokens\");\n        require(\n            token.balanceOf(sender) > amount,\n            \"You have to enough balance!\"\n        );\n        token.transferFrom(sender, receiver, amount);\n    }\n}\n",
  "sourcePath": "/Users/systemato/dev/nmlab-final/music-dapp/react/src/contracts/MyERC20.sol",
  "compiler": {
    "name": "solc",
    "version": "0.8.0+commit.c7dfd78e.Emscripten.clang"
  },
  "schemaVersion": "3.4.0",
  "updatedAt": "2021-06-07T06:40:48.726Z",
  "devdoc": {
    "kind": "dev",
    "methods": {},
    "version": 1
  },
  "userdoc": {
    "kind": "user",
    "methods": {},
    "version": 1
  }
}