{
  "contractName": "MusicDApp",
  "abi": [
    {
      "anonymous": false,
      "inputs": [
        {
          "indexed": false,
          "internalType": "uint256",
          "name": "amount",
          "type": "uint256"
        }
      ],
      "name": "Bought",
      "type": "event"
    },
    {
      "anonymous": false,
      "inputs": [
        {
          "indexed": false,
          "internalType": "uint256",
          "name": "amount",
          "type": "uint256"
        }
      ],
      "name": "Sold",
      "type": "event"
    },
    {
      "inputs": [],
      "name": "buy",
      "outputs": [],
      "stateMutability": "payable",
      "type": "function",
      "payable": true
    },
    {
      "inputs": [],
      "name": "exchange_rate",
      "outputs": [
        {
          "internalType": "uint256",
          "name": "",
          "type": "uint256"
        }
      ],
      "stateMutability": "view",
      "type": "function",
      "constant": true
    },
    {
      "inputs": [
        {
          "internalType": "uint256",
          "name": "amount",
          "type": "uint256"
        }
      ],
      "name": "sell",
      "outputs": [],
      "stateMutability": "nonpayable",
      "type": "function"
    },
    {
      "inputs": [],
      "name": "token",
      "outputs": [
        {
          "internalType": "contract IERC20",
          "name": "",
          "type": "address"
        }
      ],
      "stateMutability": "view",
      "type": "function",
      "constant": true
    },
    {
      "inputs": [
        {
          "internalType": "address",
          "name": "sender",
          "type": "address"
        },
        {
          "internalType": "address",
          "name": "receiver",
          "type": "address"
        },
        {
          "internalType": "uint256",
          "name": "amount",
          "type": "uint256"
        }
      ],
      "name": "transferToken",
      "outputs": [],
      "stateMutability": "nonpayable",
      "type": "function"
    },
    {
      "inputs": [],
      "name": "returnMsgSender",
      "outputs": [
        {
          "internalType": "address",
          "name": "",
          "type": "address"
        }
      ],
      "stateMutability": "view",
      "type": "function",
      "constant": true
    },
    {
      "inputs": [],
      "name": "userExists",
      "outputs": [
        {
          "internalType": "bool",
          "name": "",
          "type": "bool"
        }
      ],
      "stateMutability": "view",
      "type": "function",
      "constant": true
    },
    {
      "inputs": [],
      "name": "getUserInfo",
      "outputs": [
        {
          "components": [
            {
              "internalType": "string[]",
              "name": "upload_music_list",
              "type": "string[]"
            },
            {
              "internalType": "string[]",
              "name": "bought_music_list",
              "type": "string[]"
            },
            {
              "internalType": "bool",
              "name": "isValid",
              "type": "bool"
            }
          ],
          "internalType": "struct MusicDApp.User",
          "name": "",
          "type": "tuple"
        }
      ],
      "stateMutability": "view",
      "type": "function",
      "constant": true
    },
    {
      "inputs": [],
      "name": "getUserBalance",
      "outputs": [
        {
          "internalType": "uint256",
          "name": "",
          "type": "uint256"
        }
      ],
      "stateMutability": "view",
      "type": "function",
      "constant": true
    },
    {
      "inputs": [],
      "name": "register",
      "outputs": [
        {
          "components": [
            {
              "internalType": "string[]",
              "name": "upload_music_list",
              "type": "string[]"
            },
            {
              "internalType": "string[]",
              "name": "bought_music_list",
              "type": "string[]"
            },
            {
              "internalType": "bool",
              "name": "isValid",
              "type": "bool"
            }
          ],
          "internalType": "struct MusicDApp.User",
          "name": "",
          "type": "tuple"
        }
      ],
      "stateMutability": "nonpayable",
      "type": "function"
    },
    {
      "inputs": [],
      "name": "getUploadMusicList",
      "outputs": [
        {
          "internalType": "string[]",
          "name": "",
          "type": "string[]"
        }
      ],
      "stateMutability": "view",
      "type": "function",
      "constant": true
    },
    {
      "inputs": [],
      "name": "getBoughtMusicList",
      "outputs": [
        {
          "internalType": "string[]",
          "name": "",
          "type": "string[]"
        }
      ],
      "stateMutability": "view",
      "type": "function",
      "constant": true
    },
    {
      "inputs": [
        {
          "internalType": "string",
          "name": "_ipfsHash",
          "type": "string"
        }
      ],
      "name": "findUploadMusic",
      "outputs": [
        {
          "internalType": "bool",
          "name": "",
          "type": "bool"
        }
      ],
      "stateMutability": "view",
      "type": "function",
      "constant": true
    },
    {
      "inputs": [
        {
          "internalType": "string",
          "name": "_ipfsHash",
          "type": "string"
        }
      ],
      "name": "findBoughtMusic",
      "outputs": [
        {
          "internalType": "bool",
          "name": "",
          "type": "bool"
        }
      ],
      "stateMutability": "view",
      "type": "function",
      "constant": true
    },
    {
      "inputs": [
        {
          "internalType": "string",
          "name": "_ipfsHash",
          "type": "string"
        },
        {
          "internalType": "string",
          "name": "_name",
          "type": "string"
        },
        {
          "internalType": "string",
          "name": "_artist",
          "type": "string"
        },
        {
          "internalType": "string",
          "name": "_coverFrom",
          "type": "string"
        }
      ],
      "name": "uploadMusic",
      "outputs": [],
      "stateMutability": "nonpayable",
      "type": "function"
    },
    {
      "inputs": [
        {
          "internalType": "string",
          "name": "_name",
          "type": "string"
        },
        {
          "internalType": "string",
          "name": "_artist",
          "type": "string"
        }
      ],
      "name": "getMusic",
      "outputs": [
        {
          "components": [
            {
              "internalType": "address",
              "name": "uploader",
              "type": "address"
            },
            {
              "internalType": "uint256",
              "name": "uploadTime",
              "type": "uint256"
            },
            {
              "internalType": "uint256",
              "name": "count",
              "type": "uint256"
            },
            {
              "internalType": "string",
              "name": "name",
              "type": "string"
            },
            {
              "internalType": "string",
              "name": "artist",
              "type": "string"
            },
            {
              "internalType": "string",
              "name": "ipfsHash",
              "type": "string"
            },
            {
              "internalType": "string",
              "name": "coverFrom",
              "type": "string"
            }
          ],
          "internalType": "struct MusicDApp.Music",
          "name": "",
          "type": "tuple"
        }
      ],
      "stateMutability": "view",
      "type": "function",
      "constant": true
    },
    {
      "inputs": [
        {
          "internalType": "string",
          "name": "_ipfsHash",
          "type": "string"
        }
      ],
      "name": "getMusicByHash",
      "outputs": [
        {
          "components": [
            {
              "internalType": "address",
              "name": "uploader",
              "type": "address"
            },
            {
              "internalType": "uint256",
              "name": "uploadTime",
              "type": "uint256"
            },
            {
              "internalType": "uint256",
              "name": "count",
              "type": "uint256"
            },
            {
              "internalType": "string",
              "name": "name",
              "type": "string"
            },
            {
              "internalType": "string",
              "name": "artist",
              "type": "string"
            },
            {
              "internalType": "string",
              "name": "ipfsHash",
              "type": "string"
            },
            {
              "internalType": "string",
              "name": "coverFrom",
              "type": "string"
            }
          ],
          "internalType": "struct MusicDApp.Music",
          "name": "",
          "type": "tuple"
        }
      ],
      "stateMutability": "view",
      "type": "function",
      "constant": true
    },
    {
      "inputs": [
        {
          "internalType": "string",
          "name": "_name",
          "type": "string"
        },
        {
          "internalType": "string",
          "name": "_artist",
          "type": "string"
        }
      ],
      "name": "getMusicWithCountIncrement",
      "outputs": [
        {
          "components": [
            {
              "internalType": "address",
              "name": "uploader",
              "type": "address"
            },
            {
              "internalType": "uint256",
              "name": "uploadTime",
              "type": "uint256"
            },
            {
              "internalType": "uint256",
              "name": "count",
              "type": "uint256"
            },
            {
              "internalType": "string",
              "name": "name",
              "type": "string"
            },
            {
              "internalType": "string",
              "name": "artist",
              "type": "string"
            },
            {
              "internalType": "string",
              "name": "ipfsHash",
              "type": "string"
            },
            {
              "internalType": "string",
              "name": "coverFrom",
              "type": "string"
            }
          ],
          "internalType": "struct MusicDApp.Music",
          "name": "",
          "type": "tuple"
        }
      ],
      "stateMutability": "nonpayable",
      "type": "function"
    },
    {
      "inputs": [
        {
          "internalType": "string",
          "name": "_name",
          "type": "string"
        }
      ],
      "name": "getMusicArtistList",
      "outputs": [
        {
          "components": [
            {
              "internalType": "address",
              "name": "uploader",
              "type": "address"
            },
            {
              "internalType": "uint256",
              "name": "uploadTime",
              "type": "uint256"
            },
            {
              "internalType": "uint256",
              "name": "count",
              "type": "uint256"
            },
            {
              "internalType": "string",
              "name": "name",
              "type": "string"
            },
            {
              "internalType": "string",
              "name": "artist",
              "type": "string"
            },
            {
              "internalType": "string",
              "name": "ipfsHash",
              "type": "string"
            },
            {
              "internalType": "string",
              "name": "coverFrom",
              "type": "string"
            }
          ],
          "internalType": "struct MusicDApp.Music[]",
          "name": "",
          "type": "tuple[]"
        }
      ],
      "stateMutability": "view",
      "type": "function",
      "constant": true
    },
    {
      "inputs": [
        {
          "internalType": "string",
          "name": "_artist",
          "type": "string"
        }
      ],
      "name": "getArtistMusicList",
      "outputs": [
        {
          "components": [
            {
              "internalType": "address",
              "name": "uploader",
              "type": "address"
            },
            {
              "internalType": "uint256",
              "name": "uploadTime",
              "type": "uint256"
            },
            {
              "internalType": "uint256",
              "name": "count",
              "type": "uint256"
            },
            {
              "internalType": "string",
              "name": "name",
              "type": "string"
            },
            {
              "internalType": "string",
              "name": "artist",
              "type": "string"
            },
            {
              "internalType": "string",
              "name": "ipfsHash",
              "type": "string"
            },
            {
              "internalType": "string",
              "name": "coverFrom",
              "type": "string"
            }
          ],
          "internalType": "struct MusicDApp.Music[]",
          "name": "",
          "type": "tuple[]"
        }
      ],
      "stateMutability": "view",
      "type": "function",
      "constant": true
    },
    {
      "inputs": [
        {
          "internalType": "string",
          "name": "_name",
          "type": "string"
        },
        {
          "internalType": "string",
          "name": "_artist",
          "type": "string"
        }
      ],
      "name": "buyMusic",
      "outputs": [],
      "stateMutability": "nonpayable",
      "type": "function"
    },
    {
      "inputs": [
        {
          "internalType": "string",
          "name": "_ipfsHash",
          "type": "string"
        }
      ],
      "name": "buyMusicByHash",
      "outputs": [],
      "stateMutability": "nonpayable",
      "type": "function"
    },
    {
      "inputs": [
        {
          "internalType": "string",
          "name": "_name",
          "type": "string"
        },
        {
          "internalType": "string",
          "name": "_artist",
          "type": "string"
        },
        {
          "internalType": "uint8",
          "name": "depth",
          "type": "uint8"
        }
      ],
      "name": "getMusicChain",
      "outputs": [
        {
          "components": [
            {
              "internalType": "address",
              "name": "uploader",
              "type": "address"
            },
            {
              "internalType": "uint256",
              "name": "uploadTime",
              "type": "uint256"
            },
            {
              "internalType": "uint256",
              "name": "count",
              "type": "uint256"
            },
            {
              "internalType": "string",
              "name": "name",
              "type": "string"
            },
            {
              "internalType": "string",
              "name": "artist",
              "type": "string"
            },
            {
              "internalType": "string",
              "name": "ipfsHash",
              "type": "string"
            },
            {
              "internalType": "string",
              "name": "coverFrom",
              "type": "string"
            }
          ],
          "internalType": "struct MusicDApp.Music[]",
          "name": "",
          "type": "tuple[]"
        }
      ],
      "stateMutability": "view",
      "type": "function",
      "constant": true
    },
    {
      "inputs": [
        {
          "internalType": "string",
          "name": "_ipfsHash",
          "type": "string"
        },
        {
          "internalType": "uint8",
          "name": "depth",
          "type": "uint8"
        }
      ],
      "name": "getMusicChainByHash",
      "outputs": [
        {
          "components": [
            {
              "internalType": "address",
              "name": "uploader",
              "type": "address"
            },
            {
              "internalType": "uint256",
              "name": "uploadTime",
              "type": "uint256"
            },
            {
              "internalType": "uint256",
              "name": "count",
              "type": "uint256"
            },
            {
              "internalType": "string",
              "name": "name",
              "type": "string"
            },
            {
              "internalType": "string",
              "name": "artist",
              "type": "string"
            },
            {
              "internalType": "string",
              "name": "ipfsHash",
              "type": "string"
            },
            {
              "internalType": "string",
              "name": "coverFrom",
              "type": "string"
            }
          ],
          "internalType": "struct MusicDApp.Music[]",
          "name": "",
          "type": "tuple[]"
        }
      ],
      "stateMutability": "view",
      "type": "function",
      "constant": true
    }
  ],
  "bytecode": "0x60806040526103e86001553480156200001757600080fd5b5060405162000026906200006a565b604051809103906000f08015801562000043573d6000803e3d6000fd5b5060008054600160a060020a031916600160a060020a039290921691909117905562000078565b6106f08062004cd783390190565b614c4f80620000886000396000f3fe60806040526004361061014f5760003560e060020a9004806393154af7116100ba578063e90fd8e711610073578063e90fd8e714610395578063eae6d4da146103b5578063f5537ede146103ca578063f7f6bd7f146103ea578063fc0c546a1461040a578063fdf743251461041f5761014f565b806393154af7146102f8578063a6f2ae3a14610318578063b1ddeab014610320578063b7013dc114610340578063e41bfe6e14610355578063e4849b32146103755761014f565b806360b377b81161010c57806360b377b81461023257806370d97eca146102545780637fb954481461027657806380f3de65146102965780638aa4342c146102c35780639146436b146102d85761014f565b8063171ef0b2146101545780631aa3a0081461017f5780631f4b04ea146101a1578063209af2dd146101ce5780633d724a3f146101fb5780635d8d15851461021d575b600080fd5b34801561016057600080fd5b5061016961043f565b6040516101769190614aff565b60405180910390f35b34801561018b57600080fd5b50610194610445565b6040516101769190614aad565b3480156101ad57600080fd5b506101c16101bc3660046144f7565b610976565b6040516101769190614a9a565b3480156101da57600080fd5b506101ee6101e93660046144bc565b610c95565b6040516101769190614905565b34801561020757600080fd5b50610210610f8a565b604051610176919061483a565b34801561022957600080fd5b50610194610f8e565b34801561023e57600080fd5b50610247611152565b60405161017691906148a5565b34801561026057600080fd5b5061027461026f3660046144f7565b611236565b005b34801561028257600080fd5b506101c16102913660046144f7565b61190d565b3480156102a257600080fd5b506102b66102b13660046144bc565b611927565b6040516101769190614958565b3480156102cf57600080fd5b50610247611bb4565b3480156102e457600080fd5b506101c16102f33660046144bc565b611c92565b34801561030457600080fd5b506101ee610313366004614671565b611f3f565b6102746125a1565b34801561032c57600080fd5b5061027461033b366004614558565b612740565b34801561034c57600080fd5b50610169612c40565b34801561036157600080fd5b506102746103703660046144bc565b612cc9565b34801561038157600080fd5b506102746103903660046146bd565b613370565b3480156103a157600080fd5b506101ee6103b03660046144bc565b613549565b3480156103c157600080fd5b506102b6613830565b3480156103d657600080fd5b506102746103e536600461445a565b613849565b3480156103f657600080fd5b506102b66104053660046144bc565b61399e565b34801561041657600080fd5b50610210613c21565b34801561042b57600080fd5b506101ee61043a366004614600565b613c30565b60015481565b61044d6142af565b610455613830565b61079b576000805460405160e060020a6370a08231028152600160a060020a03909116906370a082319061048d90309060040161483a565b60206040518083038186803b1580156104a557600080fd5b505afa1580156104b9573d6000803e3d6000fd5b505050506040513d601f19601f820116820180604052508101906104dd91906146d5565b905080612710111561050d5760405160e560020a62461bcd02815260040161050490614a2e565b60405180910390fd5b6000546040517fa9059cbb000000000000000000000000000000000000000000000000000000008152600160a060020a039091169063a9059cbb9061055a9033906127109060040161488c565b602060405180830381600087803b15801561057457600080fd5b505af1158015610588573d6000803e3d6000fd5b505050506040513d601f19601f820116820180604052508101906105ac9190614495565b5033600090815260036020908152604080832060028101805460ff191660011790558151815460809481028201850190935260608101838152909391928492849190879085015b8282101561069f57838290600052602060002001805461061290614b8e565b80601f016020809104026020016040519081016040528092919081815260200182805461063e90614b8e565b801561068b5780601f106106605761010080835404028352916020019161068b565b820191906000526020600020905b81548152906001019060200180831161066e57829003601f168201915b5050505050815260200190600101906105f3565b50505050815260200160018201805480602002602001604051908101604052809291908181526020016000905b828210156107785783829060005260206000200180546106eb90614b8e565b80601f016020809104026020016040519081016040528092919081815260200182805461071790614b8e565b80156107645780601f1061073957610100808354040283529160200191610764565b820191906000526020600020905b81548152906001019060200180831161074757829003601f168201915b5050505050815260200190600101906106cc565b505050908252506002919091015460ff1615156020909101529250610973915050565b3360009081526003602090815260408083208151815460809481028201850190935260608101838152909491938593919285929185015b8282101561087e5783829060005260206000200180546107f190614b8e565b80601f016020809104026020016040519081016040528092919081815260200182805461081d90614b8e565b801561086a5780601f1061083f5761010080835404028352916020019161086a565b820191906000526020600020905b81548152906001019060200180831161084d57829003601f168201915b5050505050815260200190600101906107d2565b50505050815260200160018201805480602002602001604051908101604052809291908181526020016000905b828210156109575783829060005260206000200180546108ca90614b8e565b80601f01602080910402602001604051908101604052809291908181526020018280546108f690614b8e565b80156109435780601f1061091857610100808354040283529160200191610943565b820191906000526020600020905b81548152906001019060200180831161092657829003601f168201915b5050505050815260200190600101906108ab565b505050908252506002919091015460ff16151560209091015290505b90565b61097e6142d2565b600160058460405161099091906147f5565b9081526020016040518091039020836040516109ac91906147f5565b908152602001604051809103902060020160008282546109cc9190614b08565b9250508190555060006005846040516109e591906147f5565b908152602001604051809103902083604051610a0191906147f5565b90815260408051918290036020908101832060e0840183528054600160a060020a03168452600181015491840191909152600281015491830191909152600381018054606084019190610a5390614b8e565b80601f0160208091040260200160405190810160405280929190818152602001828054610a7f90614b8e565b8015610acc5780601f10610aa157610100808354040283529160200191610acc565b820191906000526020600020905b815481529060010190602001808311610aaf57829003601f168201915b50505050508152602001600482018054610ae590614b8e565b80601f0160208091040260200160405190810160405280929190818152602001828054610b1190614b8e565b8015610b5e5780601f10610b3357610100808354040283529160200191610b5e565b820191906000526020600020905b815481529060010190602001808311610b4157829003601f168201915b50505050508152602001600582018054610b7790614b8e565b80601f0160208091040260200160405190810160405280929190818152602001828054610ba390614b8e565b8015610bf05780601f10610bc557610100808354040283529160200191610bf0565b820191906000526020600020905b815481529060010190602001808311610bd357829003601f168201915b50505050508152602001600682018054610c0990614b8e565b80601f0160208091040260200160405190810160405280929190818152602001828054610c3590614b8e565b8015610c825780601f10610c5757610100808354040283529160200191610c82565b820191906000526020600020905b815481529060010190602001808311610c6557829003601f168201915b5050509190925250919695505050505050565b60606000600683604051610ca991906147f5565b9081526020016040518091039020805480602002602001604051908101604052809291908181526020016000905b82821015610f7c5760008481526020908190206040805160e081018252600786029092018054600160a060020a03168352600181015493830193909352600283015490820152600382018054919291606084019190610d3590614b8e565b80601f0160208091040260200160405190810160405280929190818152602001828054610d6190614b8e565b8015610dae5780601f10610d8357610100808354040283529160200191610dae565b820191906000526020600020905b815481529060010190602001808311610d9157829003601f168201915b50505050508152602001600482018054610dc790614b8e565b80601f0160208091040260200160405190810160405280929190818152602001828054610df390614b8e565b8015610e405780601f10610e1557610100808354040283529160200191610e40565b820191906000526020600020905b815481529060010190602001808311610e2357829003601f168201915b50505050508152602001600582018054610e5990614b8e565b80601f0160208091040260200160405190810160405280929190818152602001828054610e8590614b8e565b8015610ed25780601f10610ea757610100808354040283529160200191610ed2565b820191906000526020600020905b815481529060010190602001808311610eb557829003601f168201915b50505050508152602001600682018054610eeb90614b8e565b80601f0160208091040260200160405190810160405280929190818152602001828054610f1790614b8e565b8015610f645780601f10610f3957610100808354040283529160200191610f64565b820191906000526020600020905b815481529060010190602001808311610f4757829003601f168201915b50505050508152505081526020019060010190610cd7565b50929450505050505b919050565b3390565b610f966142af565b3360009081526003602090815260408083208151815460809481028201850190935260608101838152909491938593919285929185015b82821015611079578382906000526020600020018054610fec90614b8e565b80601f016020809104026020016040519081016040528092919081815260200182805461101890614b8e565b80156110655780601f1061103a57610100808354040283529160200191611065565b820191906000526020600020905b81548152906001019060200180831161104857829003601f168201915b505050505081526020019060010190610fcd565b50505050815260200160018201805480602002602001604051908101604052809291908181526020016000905b828210156109575783829060005260206000200180546110c590614b8e565b80601f01602080910402602001604051908101604052809291908181526020018280546110f190614b8e565b801561113e5780601f106111135761010080835404028352916020019161113e565b820191906000526020600020905b81548152906001019060200180831161112157829003601f168201915b5050505050815260200190600101906110a6565b336000908152600360209081526040808320805482518185028101850190935280835260609492939192909184015b8282101561122d5783829060005260206000200180546111a090614b8e565b80601f01602080910402602001604051908101604052809291908181526020018280546111cc90614b8e565b80156112195780601f106111ee57610100808354040283529160200191611219565b820191906000526020600020905b8154815290600101906020018083116111fc57829003601f168201915b505050505081526020019060010190611181565b50505050905090565b6000339050600060058460405161124d91906147f5565b90815260200160405180910390208360405161126991906147f5565b90815260408051918290036020908101832060e0840183528054600160a060020a031684526001810154918401919091526002810154918301919091526003810180546060840191906112bb90614b8e565b80601f01602080910402602001604051908101604052809291908181526020018280546112e790614b8e565b80156113345780601f1061130957610100808354040283529160200191611334565b820191906000526020600020905b81548152906001019060200180831161131757829003601f168201915b5050505050815260200160048201805461134d90614b8e565b80601f016020809104026020016040519081016040528092919081815260200182805461137990614b8e565b80156113c65780601f1061139b576101008083540402835291602001916113c6565b820191906000526020600020905b8154815290600101906020018083116113a957829003601f168201915b505050505081526020016005820180546113df90614b8e565b80601f016020809104026020016040519081016040528092919081815260200182805461140b90614b8e565b80156114585780601f1061142d57610100808354040283529160200191611458565b820191906000526020600020905b81548152906001019060200180831161143b57829003601f168201915b5050505050815260200160068201805461147190614b8e565b80601f016020809104026020016040519081016040528092919081815260200182805461149d90614b8e565b80156114ea5780601f106114bf576101008083540402835291602001916114ea565b820191906000526020600020905b8154815290600101906020018083116114cd57829003601f168201915b5050509190925250505060a08082015182516040805160e0810182526064815260326020820152601991810191909152600c606082015260066080820152600393810193909352600160c08401529293509190600061154884611927565b1561155857505050505050611909565b6115618461399e565b1561157157505050505050611909565b6007811061157e576118cb565b6115b386848484600781106115a65760e060020a634e487b7102600052603260045260246000fd5b602002015160ff16613849565b6040516020016115c290614811565b604051602081830303815290604052805190602001208560c001516040516020016115ed91906147f5565b60405160208183030381529060405280519060200120141561160e576118cb565b82955060048560c0015160405161162591906147f5565b90815260408051918290036020908101832060e0840183528054600160a060020a0316845260018101549184019190915260028101549183019190915260038101805460608401919061167790614b8e565b80601f01602080910402602001604051908101604052809291908181526020018280546116a390614b8e565b80156116f05780601f106116c5576101008083540402835291602001916116f0565b820191906000526020600020905b8154815290600101906020018083116116d357829003601f168201915b5050505050815260200160048201805461170990614b8e565b80601f016020809104026020016040519081016040528092919081815260200182805461173590614b8e565b80156117825780601f1061175757610100808354040283529160200191611782565b820191906000526020600020905b81548152906001019060200180831161176557829003601f168201915b5050505050815260200160058201805461179b90614b8e565b80601f01602080910402602001604051908101604052809291908181526020018280546117c790614b8e565b80156118145780601f106117e957610100808354040283529160200191611814565b820191906000526020600020905b8154815290600101906020018083116117f757829003601f168201915b5050505050815260200160068201805461182d90614b8e565b80601f016020809104026020016040519081016040528092919081815260200182805461185990614b8e565b80156118a65780601f1061187b576101008083540402835291602001916118a6565b820191906000526020600020905b81548152906001019060200180831161188957829003601f168201915b50505050508152505094508460000151925080806118c390614bcc565b915050611571565b33600090815260036020908152604082206001908101805491820181558352918190208651611901939190910191870190614318565b505050505050505b5050565b6119156142d2565b60006005846040516109e591906147f5565b3360009081526003602090815260408083208151815460809481028201850190935260608101838152859491938492849190879085015b82821015611a0a57838290600052602060002001805461197d90614b8e565b80601f01602080910402602001604051908101604052809291908181526020018280546119a990614b8e565b80156119f65780601f106119cb576101008083540402835291602001916119f6565b820191906000526020600020905b8154815290600101906020018083116119d957829003601f168201915b50505050508152602001906001019061195e565b50505050815260200160018201805480602002602001604051908101604052809291908181526020016000905b82821015611ae3578382906000526020600020018054611a5690614b8e565b80601f0160208091040260200160405190810160405280929190818152602001828054611a8290614b8e565b8015611acf5780601f10611aa457610100808354040283529160200191611acf565b820191906000526020600020905b815481529060010190602001808311611ab257829003601f168201915b505050505081526020019060010190611a37565b505050908252506002919091015460ff161515602090910152805190915060005b8151811015611ba957818181518110611b305760e060020a634e487b7102600052603260045260246000fd5b6020026020010151604051602001611b4891906147f5565b6040516020818303038152906040528051906020012085604051602001611b6f91906147f5565b604051602081830303815290604052805190602001201415611b975760019350505050610f85565b80611ba181614bcc565b915050611b04565b506000949350505050565b336000908152600360209081526040808320600101805482518185028101850190935280835260609492939192909184015b8282101561122d578382906000526020600020018054611c0590614b8e565b80601f0160208091040260200160405190810160405280929190818152602001828054611c3190614b8e565b8015611c7e5780601f10611c5357610100808354040283529160200191611c7e565b820191906000526020600020905b815481529060010190602001808311611c6157829003601f168201915b505050505081526020019060010190611be6565b611c9a6142d2565b6000600483604051611cac91906147f5565b90815260408051918290036020908101832060e0840183528054600160a060020a03168452600181015491840191909152600281015491830191909152600381018054606084019190611cfe90614b8e565b80601f0160208091040260200160405190810160405280929190818152602001828054611d2a90614b8e565b8015611d775780601f10611d4c57610100808354040283529160200191611d77565b820191906000526020600020905b815481529060010190602001808311611d5a57829003601f168201915b50505050508152602001600482018054611d9090614b8e565b80601f0160208091040260200160405190810160405280929190818152602001828054611dbc90614b8e565b8015611e095780601f10611dde57610100808354040283529160200191611e09565b820191906000526020600020905b815481529060010190602001808311611dec57829003601f168201915b50505050508152602001600582018054611e2290614b8e565b80601f0160208091040260200160405190810160405280929190818152602001828054611e4e90614b8e565b8015611e9b5780601f10611e7057610100808354040283529160200191611e9b565b820191906000526020600020905b815481529060010190602001808311611e7e57829003601f168201915b50505050508152602001600682018054611eb490614b8e565b80601f0160208091040260200160405190810160405280929190818152602001828054611ee090614b8e565b8015611f2d5780601f10611f0257610100808354040283529160200191611f2d565b820191906000526020600020905b815481529060010190602001808311611f1057829003601f168201915b50505091909252509195945050505050565b60606000600484604051611f5391906147f5565b90815260408051918290036020908101832060e0840183528054600160a060020a03168452600181015491840191909152600281015491830191909152600381018054606084019190611fa590614b8e565b80601f0160208091040260200160405190810160405280929190818152602001828054611fd190614b8e565b801561201e5780601f10611ff35761010080835404028352916020019161201e565b820191906000526020600020905b81548152906001019060200180831161200157829003601f168201915b5050505050815260200160048201805461203790614b8e565b80601f016020809104026020016040519081016040528092919081815260200182805461206390614b8e565b80156120b05780601f10612085576101008083540402835291602001916120b0565b820191906000526020600020905b81548152906001019060200180831161209357829003601f168201915b505050505081526020016005820180546120c990614b8e565b80601f01602080910402602001604051908101604052809291908181526020018280546120f590614b8e565b80156121425780601f1061211757610100808354040283529160200191612142565b820191906000526020600020905b81548152906001019060200180831161212557829003601f168201915b5050505050815260200160068201805461215b90614b8e565b80601f016020809104026020016040519081016040528092919081815260200182805461218790614b8e565b80156121d45780601f106121a9576101008083540402835291602001916121d4565b820191906000526020600020905b8154815290600101906020018083116121b757829003601f168201915b50505050508152505090506000808460ff1667ffffffffffffffff81111561220f5760e060020a634e487b7102600052604160045260246000fd5b60405190808252806020026020018201604052801561224857816020015b6122356142d2565b81526020019060019003908161222d5790505b5090505b8460ff16821061225b57612598565b8281838151811061227f5760e060020a634e487b7102600052603260045260246000fd5b602002602001018190525060405160200161229990614811565b604051602081830303815290604052805190602001208360c001516040516020016122c491906147f5565b6040516020818303038152906040528051906020012014156122e557612598565b60048360c001516040516122f991906147f5565b90815260408051918290036020908101832060e0840183528054600160a060020a0316845260018101549184019190915260028101549183019190915260038101805460608401919061234b90614b8e565b80601f016020809104026020016040519081016040528092919081815260200182805461237790614b8e565b80156123c45780601f10612399576101008083540402835291602001916123c4565b820191906000526020600020905b8154815290600101906020018083116123a757829003601f168201915b505050505081526020016004820180546123dd90614b8e565b80601f016020809104026020016040519081016040528092919081815260200182805461240990614b8e565b80156124565780601f1061242b57610100808354040283529160200191612456565b820191906000526020600020905b81548152906001019060200180831161243957829003601f168201915b5050505050815260200160058201805461246f90614b8e565b80601f016020809104026020016040519081016040528092919081815260200182805461249b90614b8e565b80156124e85780601f106124bd576101008083540402835291602001916124e8565b820191906000526020600020905b8154815290600101906020018083116124cb57829003601f168201915b5050505050815260200160068201805461250190614b8e565b80601f016020809104026020016040519081016040528092919081815260200182805461252d90614b8e565b801561257a5780601f1061254f5761010080835404028352916020019161257a565b820191906000526020600020905b81548152906001019060200180831161255d57829003601f168201915b5050505050815250509250818061259090614bcc565b92505061224c565b95945050505050565b6000805460405160e060020a6370a08231028152349291600160a060020a0316906370a08231906125d690309060040161483a565b60206040518083038186803b1580156125ee57600080fd5b505afa158015612602573d6000803e3d6000fd5b505050506040513d601f19601f8201168201806040525081019061262691906146d5565b90506000821161264b5760405160e560020a62461bcd02815260040161050490614963565b8082111561266e5760405160e560020a62461bcd02815260040161050490614a2e565b600054600154600160a060020a039091169063a9059cbb9033906126929086614b43565b6040518363ffffffff1660e060020a0281526004016126b292919061488c565b602060405180830381600087803b1580156126cc57600080fd5b505af11580156126e0573d6000803e3d6000fd5b505050506040513d601f19601f820116820180604052508101906127049190614495565b507f4e08ba899977cf7d4c2964bce71c6b9a7ef76ee5166a4c1249a1e08016e33ef1826040516127349190614aff565b60405180910390a15050565b6040805160e0810182523381524260208083019182526000938301848152606084018881526080850188905260a085018a905260c0850187905260028054600181018255965284517f405787fa12a823e0f2b7631cc41b3ba8828b3321ca811111fa75cd3aa3bb5ace60079097029687018054600160a060020a031916600160a060020a0390921691909117815593517f405787fa12a823e0f2b7631cc41b3ba8828b3321ca811111fa75cd3aa3bb5acf87015590517f405787fa12a823e0f2b7631cc41b3ba8828b3321ca811111fa75cd3aa3bb5ad086015551805193948594612853937f405787fa12a823e0f2b7631cc41b3ba8828b3321ca811111fa75cd3aa3bb5ad19092019290910190614318565b506080820151805161286f916004840191602090910190614318565b5060a0820151805161288b916005840191602090910190614318565b5060c082015180516128a7916006840191602090910190614318565b505050806005856040516128bb91906147f5565b9081526020016040518091039020846040516128d791906147f5565b908152604080516020928190038301902083518154600160a060020a031916600160a060020a0390911617815583830151600182015590830151600282015560608301518051919261293192600385019290910190614318565b506080820151805161294d916004840191602090910190614318565b5060a08201518051612969916005840191602090910190614318565b5060c08201518051612985916006840191602090910190614318565b509050508060048660405161299a91906147f5565b908152604080516020928190038301902083518154600160a060020a031916600160a060020a039091161781558383015160018201559083015160028201556060830151805191926129f492600385019290910190614318565b5060808201518051612a10916004840191602090910190614318565b5060a08201518051612a2c916005840191602090910190614318565b5060c08201518051612a48916006840191602090910190614318565b50905050600684604051612a5c91906147f5565b908152604080516020928190038301902080546001808201835560009283529184902085516007909202018054600160a060020a031916600160a060020a039092169190911781558484015191810191909155908301516002820155606083015180518493612ad2926003850192910190614318565b5060808201518051612aee916004840191602090910190614318565b5060a08201518051612b0a916005840191602090910190614318565b5060c08201518051612b26916006840191602090910190614318565b505050600783604051612b3991906147f5565b908152604080516020928190038301902080546001808201835560009283529184902085516007909202018054600160a060020a031916600160a060020a039092169190911781558484015191810191909155908301516002820155606083015180518493612baf926003850192910190614318565b5060808201518051612bcb916004840191602090910190614318565b5060a08201518051612be7916005840191602090910190614318565b5060c08201518051612c03916006840191602090910190614318565b505033600090815260036020908152604082208054600181018255908352918190208851612c38945092019190880190614318565b505050505050565b6000805460405160e060020a6370a08231028152600160a060020a03909116906370a0823190612c7490339060040161483a565b60206040518083038186803b158015612c8c57600080fd5b505afa158015612ca0573d6000803e3d6000fd5b505050506040513d601f19601f82011682018060405250810190612cc491906146d5565b905090565b60003390506000600483604051612ce091906147f5565b90815260408051918290036020908101832060e0840183528054600160a060020a03168452600181015491840191909152600281015491830191909152600381018054606084019190612d3290614b8e565b80601f0160208091040260200160405190810160405280929190818152602001828054612d5e90614b8e565b8015612dab5780601f10612d8057610100808354040283529160200191612dab565b820191906000526020600020905b815481529060010190602001808311612d8e57829003601f168201915b50505050508152602001600482018054612dc490614b8e565b80601f0160208091040260200160405190810160405280929190818152602001828054612df090614b8e565b8015612e3d5780601f10612e1257610100808354040283529160200191612e3d565b820191906000526020600020905b815481529060010190602001808311612e2057829003601f168201915b50505050508152602001600582018054612e5690614b8e565b80601f0160208091040260200160405190810160405280929190818152602001828054612e8290614b8e565b8015612ecf5780601f10612ea457610100808354040283529160200191612ecf565b820191906000526020600020905b815481529060010190602001808311612eb257829003601f168201915b50505050508152602001600682018054612ee890614b8e565b80601f0160208091040260200160405190810160405280929190818152602001828054612f1490614b8e565b8015612f615780601f10612f3657610100808354040283529160200191612f61565b820191906000526020600020905b815481529060010190602001808311612f4457829003601f168201915b50505091909252505081516040805160e0810182526064815260326020820152601991810191909152600c606082015260066080820152600360a0820152600160c082015292935085929091506000612fb984611927565b15612fc95750505050505061336d565b612fd28461399e565b15612fe25750505050505061336d565b60078110612fef5761332f565b61301786848484600781106115a65760e060020a634e487b7102600052603260045260246000fd5b60405160200161302690614811565b604051602081830303815290604052805190602001208560c0015160405160200161305191906147f5565b6040516020818303038152906040528051906020012014156130725761332f565b82955060048560c0015160405161308991906147f5565b90815260408051918290036020908101832060e0840183528054600160a060020a031684526001810154918401919091526002810154918301919091526003810180546060840191906130db90614b8e565b80601f016020809104026020016040519081016040528092919081815260200182805461310790614b8e565b80156131545780601f1061312957610100808354040283529160200191613154565b820191906000526020600020905b81548152906001019060200180831161313757829003601f168201915b5050505050815260200160048201805461316d90614b8e565b80601f016020809104026020016040519081016040528092919081815260200182805461319990614b8e565b80156131e65780601f106131bb576101008083540402835291602001916131e6565b820191906000526020600020905b8154815290600101906020018083116131c957829003601f168201915b505050505081526020016005820180546131ff90614b8e565b80601f016020809104026020016040519081016040528092919081815260200182805461322b90614b8e565b80156132785780601f1061324d57610100808354040283529160200191613278565b820191906000526020600020905b81548152906001019060200180831161325b57829003601f168201915b5050505050815260200160068201805461329190614b8e565b80601f01602080910402602001604051908101604052809291908181526020018280546132bd90614b8e565b801561330a5780601f106132df5761010080835404028352916020019161330a565b820191906000526020600020905b8154815290600101906020018083116132ed57829003601f168201915b505050505081525050945084600001519250808061332790614bcc565b915050612fe2565b33600090815260036020908152604082206001908101805491820181558352918190208651613365939190910191870190614318565b505050505050505b50565b600081116133935760405160e560020a62461bcd0281526004016105049061499a565b600080546040517fdd62ed3e000000000000000000000000000000000000000000000000000000008152600160a060020a039091169063dd62ed3e906133df903390309060040161484e565b60206040518083038186803b1580156133f757600080fd5b505afa15801561340b573d6000803e3d6000fd5b505050506040513d601f19601f8201168201806040525081019061342f91906146d5565b9050818110156134545760405160e560020a62461bcd028152600401610504906149f7565b60005460405160e060020a6323b872dd028152600160a060020a03909116906323b872dd9061348b90339030908790600401614868565b602060405180830381600087803b1580156134a557600080fd5b505af11580156134b9573d6000803e3d6000fd5b505050506040513d601f19601f820116820180604052508101906134dd9190614495565b5060015433906108fc906134f19085614b20565b6040518115909202916000818181858888f19350505050158015613519573d6000803e3d6000fd5b507f92f64ca637d023f354075a4be751b169c1a8a9ccb6d33cdd0cb3520543995727826040516127349190614aff565b6060600060078360405161355d91906147f5565b9081526020016040518091039020805480602002602001604051908101604052809291908181526020016000905b82821015610f7c5760008481526020908190206040805160e081018252600786029092018054600160a060020a031683526001810154938301939093526002830154908201526003820180549192916060840191906135e990614b8e565b80601f016020809104026020016040519081016040528092919081815260200182805461361590614b8e565b80156136625780601f1061363757610100808354040283529160200191613662565b820191906000526020600020905b81548152906001019060200180831161364557829003601f168201915b5050505050815260200160048201805461367b90614b8e565b80601f01602080910402602001604051908101604052809291908181526020018280546136a790614b8e565b80156136f45780601f106136c9576101008083540402835291602001916136f4565b820191906000526020600020905b8154815290600101906020018083116136d757829003601f168201915b5050505050815260200160058201805461370d90614b8e565b80601f016020809104026020016040519081016040528092919081815260200182805461373990614b8e565b80156137865780601f1061375b57610100808354040283529160200191613786565b820191906000526020600020905b81548152906001019060200180831161376957829003601f168201915b5050505050815260200160068201805461379f90614b8e565b80601f01602080910402602001604051908101604052809291908181526020018280546137cb90614b8e565b80156138185780601f106137ed57610100808354040283529160200191613818565b820191906000526020600020905b8154815290600101906020018083116137fb57829003601f168201915b5050505050815250508152602001906001019061358b565b3360009081526003602052604090206002015460ff1690565b6000811161386c5760405160e560020a62461bcd0281526004016105049061499a565b60005460405160e060020a6370a082310281528291600160a060020a0316906370a082319061389f90879060040161483a565b60206040518083038186803b1580156138b757600080fd5b505afa1580156138cb573d6000803e3d6000fd5b505050506040513d601f19601f820116820180604052508101906138ef91906146d5565b1161390f5760405160e560020a62461bcd02815260040161050490614a63565b60005460405160e060020a6323b872dd028152600160a060020a03909116906323b872dd9061394690869086908690600401614868565b602060405180830381600087803b15801561396057600080fd5b505af1158015613974573d6000803e3d6000fd5b505050506040513d601f19601f820116820180604052508101906139989190614495565b50505050565b3360009081526003602090815260408083208151815460809481028201850190935260608101838152859491938492849190879085015b82821015613a815783829060005260206000200180546139f490614b8e565b80601f0160208091040260200160405190810160405280929190818152602001828054613a2090614b8e565b8015613a6d5780601f10613a4257610100808354040283529160200191613a6d565b820191906000526020600020905b815481529060010190602001808311613a5057829003601f168201915b5050505050815260200190600101906139d5565b50505050815260200160018201805480602002602001604051908101604052809291908181526020016000905b82821015613b5a578382906000526020600020018054613acd90614b8e565b80601f0160208091040260200160405190810160405280929190818152602001828054613af990614b8e565b8015613b465780601f10613b1b57610100808354040283529160200191613b46565b820191906000526020600020905b815481529060010190602001808311613b2957829003601f168201915b505050505081526020019060010190613aae565b505050908252506002919091015460ff16151560209182015281015190915060005b8151811015611ba957818181518110613ba85760e060020a634e487b7102600052603260045260246000fd5b6020026020010151604051602001613bc091906147f5565b6040516020818303038152906040528051906020012085604051602001613be791906147f5565b604051602081830303815290604052805190602001201415613c0f5760019350505050610f85565b80613c1981614bcc565b915050613b7c565b600054600160a060020a031681565b60606000600585604051613c4491906147f5565b908152602001604051809103902084604051613c6091906147f5565b90815260408051918290036020908101832060e0840183528054600160a060020a03168452600181015491840191909152600281015491830191909152600381018054606084019190613cb290614b8e565b80601f0160208091040260200160405190810160405280929190818152602001828054613cde90614b8e565b8015613d2b5780601f10613d0057610100808354040283529160200191613d2b565b820191906000526020600020905b815481529060010190602001808311613d0e57829003601f168201915b50505050508152602001600482018054613d4490614b8e565b80601f0160208091040260200160405190810160405280929190818152602001828054613d7090614b8e565b8015613dbd5780601f10613d9257610100808354040283529160200191613dbd565b820191906000526020600020905b815481529060010190602001808311613da057829003601f168201915b50505050508152602001600582018054613dd690614b8e565b80601f0160208091040260200160405190810160405280929190818152602001828054613e0290614b8e565b8015613e4f5780601f10613e2457610100808354040283529160200191613e4f565b820191906000526020600020905b815481529060010190602001808311613e3257829003601f168201915b50505050508152602001600682018054613e6890614b8e565b80601f0160208091040260200160405190810160405280929190818152602001828054613e9490614b8e565b8015613ee15780601f10613eb657610100808354040283529160200191613ee1565b820191906000526020600020905b815481529060010190602001808311613ec457829003601f168201915b50505050508152505090506000808460ff1667ffffffffffffffff811115613f1c5760e060020a634e487b7102600052604160045260246000fd5b604051908082528060200260200182016040528015613f5557816020015b613f426142d2565b815260200190600190039081613f3a5790505b5090505b8460ff168210613f68576142a5565b82818381518110613f8c5760e060020a634e487b7102600052603260045260246000fd5b6020026020010181905250604051602001613fa690614811565b604051602081830303815290604052805190602001208360c00151604051602001613fd191906147f5565b604051602081830303815290604052805190602001201415613ff2576142a5565b60048360c0015160405161400691906147f5565b90815260408051918290036020908101832060e0840183528054600160a060020a0316845260018101549184019190915260028101549183019190915260038101805460608401919061405890614b8e565b80601f016020809104026020016040519081016040528092919081815260200182805461408490614b8e565b80156140d15780601f106140a6576101008083540402835291602001916140d1565b820191906000526020600020905b8154815290600101906020018083116140b457829003601f168201915b505050505081526020016004820180546140ea90614b8e565b80601f016020809104026020016040519081016040528092919081815260200182805461411690614b8e565b80156141635780601f1061413857610100808354040283529160200191614163565b820191906000526020600020905b81548152906001019060200180831161414657829003601f168201915b5050505050815260200160058201805461417c90614b8e565b80601f01602080910402602001604051908101604052809291908181526020018280546141a890614b8e565b80156141f55780601f106141ca576101008083540402835291602001916141f5565b820191906000526020600020905b8154815290600101906020018083116141d857829003601f168201915b5050505050815260200160068201805461420e90614b8e565b80601f016020809104026020016040519081016040528092919081815260200182805461423a90614b8e565b80156142875780601f1061425c57610100808354040283529160200191614287565b820191906000526020600020905b81548152906001019060200180831161426a57829003601f168201915b5050505050815250509250818061429d90614bcc565b925050613f59565b9695505050505050565b604051806060016040528060608152602001606081526020016000151581525090565b6040518060e001604052806000600160a060020a031681526020016000815260200160008152602001606081526020016060815260200160608152602001606081525090565b82805461432490614b8e565b90600052602060002090601f016020900481019282614346576000855561438c565b82601f1061435f57805160ff191683800117855561438c565b8280016001018555821561438c579182015b8281111561438c578251825591602001919060010190614371565b5061439892915061439c565b5090565b5b80821115614398576000815560010161439d565b8035600160a060020a0381168114610f8557600080fd5b600082601f8301126143d8578081fd5b813567ffffffffffffffff808211156143f3576143f3614c00565b604051601f8301601f19168101602001828111828210171561441757614417614c00565b60405282815284830160200186101561442e578384fd5b82602086016020830137918201602001929092529392505050565b803560ff81168114610f8557600080fd5b60008060006060848603121561446e578283fd5b614477846143b1565b9250614485602085016143b1565b9150604084013590509250925092565b6000602082840312156144a6578081fd5b815180151581146144b5578182fd5b9392505050565b6000602082840312156144cd578081fd5b813567ffffffffffffffff8111156144e3578182fd5b6144ef848285016143c8565b949350505050565b60008060408385031215614509578182fd5b823567ffffffffffffffff80821115614520578384fd5b61452c868387016143c8565b93506020850135915080821115614541578283fd5b5061454e858286016143c8565b9150509250929050565b6000806000806080858703121561456d578081fd5b843567ffffffffffffffff80821115614584578283fd5b614590888389016143c8565b955060208701359150808211156145a5578283fd5b6145b1888389016143c8565b945060408701359150808211156145c6578283fd5b6145d2888389016143c8565b935060608701359150808211156145e7578283fd5b506145f4878288016143c8565b91505092959194509250565b600080600060608486031215614614578283fd5b833567ffffffffffffffff8082111561462b578485fd5b614637878388016143c8565b9450602086013591508082111561464c578384fd5b50614659868287016143c8565b92505061466860408501614449565b90509250925092565b60008060408385031215614683578182fd5b823567ffffffffffffffff811115614699578283fd5b6146a5858286016143c8565b9250506146b460208401614449565b90509250929050565b6000602082840312156146ce578081fd5b5035919050565b6000602082840312156146e6578081fd5b5051919050565b6000815180845260208085018081965082840281019150828601855b85811015614733578284038952614721848351614740565b98850198935090840190600101614709565b5091979650505050505050565b60008151808452614758816020860160208601614b62565b601f01601f19169290920160200192915050565b6000600160a060020a0382511683526020820151602084015260408201516040840152606082015160e060608501526147a860e0850182614740565b9050608083015184820360808601526147c18282614740565b91505060a083015184820360a08601526147db8282614740565b91505060c083015184820360c08601526125988282614740565b60008251614807818460208701614b62565b9190910192915050565b7f4e6f6e6500000000000000000000000000000000000000000000000000000000815260040190565b600160a060020a0391909116815260200190565b600160a060020a0392831681529116602082015260400190565b600160a060020a039384168152919092166020820152604081019190915260600190565b600160a060020a03929092168252602082015260400190565b6000602080830181845280855180835260408601915060408482028701019250838701855b828110156148f857603f198886030184526148e6858351614740565b945092850192908501906001016148ca565b5092979650505050505050565b6000602080830181845280855180835260408601915060408482028701019250838701855b828110156148f857603f1988860301845261494685835161476c565b9450928501929085019060010161492a565b901515815260200190565b6020808252601b908201527f596f75206e65656420746f2073656e6420736f6d652045746865720000000000604082015260600190565b60208082526025908201527f596f75206e65656420746f2073656c6c206174206c6561737420736f6d65207460408201527f6f6b656e73000000000000000000000000000000000000000000000000000000606082015260800190565b60208082526019908201527f436865636b2074686520746f6b656e20616c6c6f77616e636500000000000000604082015260600190565b6020808252818101527f4e6f7420656e6f75676820746f6b656e7320696e207468652072657365727665604082015260600190565b6020808252601b908201527f596f75206861766520746f20656e6f7567682062616c616e6365210000000000604082015260600190565b6000602082526144b5602083018461476c565b600060208252825160606020840152614ac960808401826146ed565b90506020840151601f19848303016040850152614ae682826146ed565b9150506040840151151560608401528091505092915050565b90815260200190565b60008219821115614b1b57614b1b614be7565b500190565b600082614b3e5760e060020a634e487b710281526012600452602481fd5b500490565b6000816000190483118215151615614b5d57614b5d614be7565b500290565b60005b83811015614b7d578181015183820152602001614b65565b838111156139985750506000910152565b600281046001821680614ba257607f821691505b60208210811415614bc65760e060020a634e487b7102600052602260045260246000fd5b50919050565b6000600019821415614be057614be0614be7565b5060010190565b60e060020a634e487b7102600052601160045260246000fd5b60e060020a634e487b7102600052604160045260246000fdfea2646970667358221220f18ecf2292af4e65f0ee77554995f66b0eb69f79568940b09f872fc3c0405d9f64736f6c6343000800003360806040526a52b7d2dcc80cd2e400000060025534801561001f57600080fd5b50600254336000908152602081905260409020556106ae806100426000396000f3fe608060405234801561001057600080fd5b506004361061009f577c0100000000000000000000000000000000000000000000000000000000600035046306fdde0381146100a4578063095ea7b3146100c257806318160ddd146100e257806323b872dd146100f7578063313ce5671461010a57806370a082311461011f57806395d89b4114610132578063a9059cbb1461013a578063dd62ed3e1461014d575b600080fd5b6100ac610160565b6040516100b991906105c6565b60405180910390f35b6100d56100d0366004610592565b610199565b6040516100b991906105bb565b6100ea610203565b6040516100b99190610619565b6100d5610105366004610557565b610209565b610112610357565b6040516100b99190610622565b6100ea61012d36600461050b565b61035c565b6100ac61037b565b6100d5610148366004610592565b6103b4565b6100ea61015b366004610525565b610465565b6040518060400160405280600981526020017f4d75736963436f696e000000000000000000000000000000000000000000000081525081565b336000818152600160209081526040808320600160a060020a038716808552925280832085905551919290917f8c5be1e5ebec7d5bd14f71427d1e84f3dd0314c0f7b2291e5b200ac8c7c3b925906101f2908690610619565b60405180910390a350600192915050565b60025490565b600160a060020a03831660009081526020819052604081205482111561022e57600080fd5b600160a060020a038416600090815260016020908152604080832033845290915290205482111561025e57600080fd5b600160a060020a0384166000908152602081905260409020546102819083610490565b600160a060020a0385166000908152602081815260408083209390935560018152828220338352905220546102b69083610490565b600160a060020a03808616600090815260016020908152604080832033845282528083209490945591861681529081905220546102f390836104c4565b600160a060020a0380851660008181526020819052604090819020939093559151908616907fddf252ad1be2c89b69c2b068fc378daa952ba7f163c4a11628f55a4df523b3ef90610345908690610619565b60405180910390a35060019392505050565b600281565b600160a060020a0381166000908152602081905260409020545b919050565b6040518060400160405280600381526020017f4d5543000000000000000000000000000000000000000000000000000000000081525081565b336000908152602081905260408120548211156103d057600080fd5b336000908152602081905260409020546103ea9083610490565b3360009081526020819052604080822092909255600160a060020a0385168152205461041690836104c4565b600160a060020a0384166000818152602081905260409081902092909255905133907fddf252ad1be2c89b69c2b068fc378daa952ba7f163c4a11628f55a4df523b3ef906101f2908690610619565b600160a060020a03918216600090815260016020908152604080832093909416825291909152205490565b6000828211156104b35760e060020a634e487b7102600052600160045260246000fd5b6104bd8284610648565b9392505050565b6000806104d18385610630565b9050838110156104bd5760e060020a634e487b7102600052600160045260246000fd5b8035600160a060020a038116811461037657600080fd5b60006020828403121561051c578081fd5b6104bd826104f4565b60008060408385031215610537578081fd5b610540836104f4565b915061054e602084016104f4565b90509250929050565b60008060006060848603121561056b578081fd5b610574846104f4565b9250610582602085016104f4565b9150604084013590509250925092565b600080604083850312156105a4578182fd5b6105ad836104f4565b946020939093013593505050565b901515815260200190565b6000602080835283518082850152825b818110156105f2578581018301518582016040015282016105d6565b818111156106035783604083870101525b50601f01601f1916929092016040019392505050565b90815260200190565b60ff91909116815260200190565b600082198211156106435761064361065f565b500190565b60008282101561065a5761065a61065f565b500390565b60e060020a634e487b7102600052601160045260246000fdfea2646970667358221220a191106f8595b834e3aa156e1cc74d1789c093c310ee5f270da9446f91c3514d64736f6c63430008000033",
  "immutableReferences": {},
  "source": "pragma solidity >=0.4.0 <0.9.0;\n// support return struct in functions\npragma experimental ABIEncoderV2;\n\n// import \"../../node_modules/@openzeppelin/contracts/token/ERC20/ERC20.sol\";\n// import \"./MusicCoin.sol\";\nimport \"./MyERC20.sol\";\n\ncontract MusicDApp is DEX {\n    // Music metadata\n    struct Music {\n        // Music information\n        address uploader;\n        uint256 uploadTime;\n        uint256 count;\n        string name;\n        string artist;\n        // Music content\n        string ipfsHash;\n        string coverFrom;\n    }\n\n    struct User {\n        string[] upload_music_list;\n        string[] bought_music_list;\n        bool isValid;\n    }\n\n    // State variables\n    Music[] musics;\n\n    mapping(address => User) internal users;\n\n    // ipfs hash as index\n    mapping(string => Music) internal music_hash;\n\n    // (name, artist) as primary key\n    mapping(string => mapping(string => Music)) internal music;\n\n    // name as primary key\n    mapping(string => Music[]) internal music_artist_list;\n\n    // artist as primary key\n    mapping(string => Music[]) internal artist_music_list;\n\n    // events firing\n    // event OnMusicUpload(string ipfsHash);\n    // event OnMusicDownload(...)\n\n    // Modifiers\n\n    // Public methods\n\n    // Retrieve basic user information\n    function returnMsgSender() public view returns (address) {\n        return msg.sender;\n    }\n\n    function userExists() public view returns (bool) {\n        return users[msg.sender].isValid;\n    }\n\n    function getUserInfo() public view returns (User memory) {\n        return users[msg.sender];\n    }\n\n    function getUserBalance() public view returns (uint256) {\n        return token.balanceOf(msg.sender);\n    }\n\n    function register() public returns (User memory) {\n        if (!userExists()) {\n            // Give 100 token for new user\n            uint256 dexBalance = token.balanceOf(address(this));\n            require(10000 <= dexBalance, \"Not enough tokens in the reserve\");\n            token.transfer(msg.sender, 10000);\n            users[msg.sender].isValid = true;\n            User memory user = users[msg.sender];\n            return user;\n        } else {\n            return users[msg.sender];\n        }\n    }\n\n    function getUploadMusicList() public view returns (string[] memory) {\n        return users[msg.sender].upload_music_list;\n    }\n\n    function getBoughtMusicList() public view returns (string[] memory) {\n        return users[msg.sender].bought_music_list;\n    }\n\n    function findUploadMusic(string memory _ipfsHash)\n        public\n        view\n        returns (bool)\n    {\n        User memory user = users[msg.sender];\n        string[] memory upload_list = user.upload_music_list;\n\n        for (uint256 i = 0; i < upload_list.length; i++) {\n            if (\n                keccak256(abi.encodePacked(_ipfsHash)) ==\n                keccak256(abi.encodePacked(upload_list[i]))\n            ) {\n                return true;\n            }\n        }\n\n        return false;\n    }\n\n    function findBoughtMusic(string memory _ipfsHash)\n        public\n        view\n        returns (bool)\n    {\n        User memory user = users[msg.sender];\n        string[] memory bought_list = user.bought_music_list;\n\n        for (uint256 i = 0; i < bought_list.length; i++) {\n            if (\n                keccak256(abi.encodePacked(_ipfsHash)) ==\n                keccak256(abi.encodePacked(bought_list[i]))\n            ) {\n                return true;\n            }\n        }\n\n        return false;\n    }\n\n    function uploadMusic(\n        string memory _ipfsHash,\n        string memory _name,\n        string memory _artist,\n        string memory _coverFrom\n    ) public {\n        Music memory _music =\n            Music(\n                msg.sender,\n                block.timestamp,\n                0,\n                _name,\n                _artist,\n                _ipfsHash,\n                _coverFrom\n            );\n\n        // Global state update\n        musics.push(_music);\n        music[_name][_artist] = _music;\n        music_hash[_ipfsHash] = _music;\n        music_artist_list[_name].push(_music);\n        artist_music_list[_artist].push(_music);\n\n        // User state update\n        users[msg.sender].upload_music_list.push(_ipfsHash);\n    }\n\n    function getMusic(string memory _name, string memory _artist)\n        public\n        view\n        returns (Music memory)\n    {\n        Music memory _music = music[_name][_artist];\n\n        return _music;\n    }\n\n    function getMusicByHash(string memory _ipfsHash)\n        public\n        view\n        returns (Music memory)\n    {\n        Music memory _music = music_hash[_ipfsHash];\n\n        return _music;\n    }\n\n    function getMusicWithCountIncrement(\n        string memory _name,\n        string memory _artist\n    ) public returns (Music memory) {\n        music[_name][_artist].count += 1;\n        Music memory _music = music[_name][_artist];\n\n        return _music;\n    }\n\n    function getMusicArtistList(string memory _name)\n        public\n        view\n        returns (Music[] memory)\n    {\n        Music[] memory _music_list = music_artist_list[_name];\n\n        return _music_list;\n    }\n\n    function getArtistMusicList(string memory _artist)\n        public\n        view\n        returns (Music[] memory)\n    {\n        Music[] memory _artist_music_list = artist_music_list[_artist];\n\n        return _artist_music_list;\n    }\n\n    function buyMusic(string memory _name, string memory _artist) public {\n        address sender = msg.sender;\n        Music memory _music = music[_name][_artist];\n        string memory songHash = _music.ipfsHash;\n        address uploader = _music.uploader;\n        uint8[7] memory chain = [100, 50, 25, 12, 6, 3, 1];\n        uint256 count = 0;\n\n        // TODO: Uploader can listen to what he uploaded\n        if (findUploadMusic(songHash)) return;\n\n        // TODO: Buyer will not pay twice\n        if (findBoughtMusic(songHash)) return;\n        // transfer token to uploader at the beginning of the chain\n\n        while (true) {\n            // The depth excee the limit\n            if (count >= 7) {\n                break;\n            }\n\n            transferToken(sender, uploader, chain[count]);\n            // hit the end of the chain\n            if (\n                keccak256(abi.encodePacked((_music.coverFrom))) ==\n                keccak256(abi.encodePacked((\"None\")))\n            ) {\n                break;\n            }\n\n            sender = uploader;\n            _music = music_hash[_music.coverFrom];\n            uploader = _music.uploader;\n\n            count++;\n        }\n\n        // add music to listener list\n        users[msg.sender].bought_music_list.push(songHash);\n    }\n\n    function buyMusicByHash(string memory _ipfsHash) public {\n        address sender = msg.sender;\n        Music memory _music = music_hash[_ipfsHash];\n        string memory songHash = _ipfsHash;\n        address uploader = _music.uploader;\n        uint8[7] memory chain = [100, 50, 25, 12, 6, 3, 1];\n        uint256 count = 0;\n\n        // TODO: Uploader can listen to what he uploaded\n        if (findUploadMusic(songHash)) return;\n\n        // TODO: Buyer will not pay twice\n        if (findBoughtMusic(songHash)) return;\n\n        while (true) {\n            // The depth excee the limit\n            if (count >= 7) {\n                break;\n            }\n\n            transferToken(sender, uploader, chain[count]);\n            // hit the end of the chain\n            if (\n                keccak256(abi.encodePacked((_music.coverFrom))) ==\n                keccak256(abi.encodePacked((\"None\")))\n            ) {\n                break;\n            }\n\n            sender = uploader;\n            _music = music_hash[_music.coverFrom];\n            uploader = _music.uploader;\n\n            count++;\n        }\n\n        // add music to listener list\n        users[msg.sender].bought_music_list.push(songHash);\n    }\n\n    function getMusicChain(\n        string memory _name,\n        string memory _artist,\n        uint8 depth\n    ) public view returns (Music[] memory) {\n        Music memory _music = music[_name][_artist];\n        uint256 count = 0;\n        Music[] memory music_chain = new Music[](depth);\n\n        // transfer token to uploader at the beginning of the chain\n\n        while (true) {\n            // The depth excee the limit\n            if (count >= depth) {\n                break;\n            }\n            music_chain[count] = _music;\n            // hit the end of the chain\n            if (\n                keccak256(abi.encodePacked((_music.coverFrom))) ==\n                keccak256(abi.encodePacked((\"None\")))\n            ) {\n                break;\n            }\n\n            _music = music_hash[_music.coverFrom];\n\n            count++;\n        }\n\n        return music_chain;\n    }\n\n    function getMusicChainByHash(string memory _ipfsHash, uint8 depth)\n        public\n        view\n        returns (Music[] memory)\n    {\n        Music memory _music = music_hash[_ipfsHash];\n        uint256 count = 0;\n        Music[] memory music_chain = new Music[](depth);\n\n        while (true) {\n            // The depth excee the limit\n            if (count >= depth) {\n                break;\n            }\n            music_chain[count] = _music;\n            // hit the end of the chain\n            if (\n                keccak256(abi.encodePacked((_music.coverFrom))) ==\n                keccak256(abi.encodePacked((\"None\")))\n            ) {\n                break;\n            }\n\n            _music = music_hash[_music.coverFrom];\n\n            count++;\n        }\n\n        return music_chain;\n    }\n\n    // Private methods\n}\n",
  "sourcePath": "/Users/chiao1/Desktop/NM-Lab/project/nmlab-final/music-dapp/react/src/contracts/MusicDApp.sol",
  "compiler": {
    "name": "solc",
    "version": "0.8.0+commit.c7dfd78e.Emscripten.clang"
  },
  "schemaVersion": "3.4.0",
  "updatedAt": "2021-06-08T06:34:58.217Z",
  "networkType": "ethereum",
  "devdoc": {
    "kind": "dev",
    "methods": {},
    "version": 1
  },
  "userdoc": {
    "kind": "user",
    "methods": {},
    "version": 1
  }
}