{
  "contractName": "MusicDApp",
  "abi": [
    {
      "anonymous": false,
      "inputs": [
        {
          "indexed": false,
          "internalType": "uint256",
          "name": "amount",
          "type": "uint256"
        }
      ],
      "name": "Bought",
      "type": "event"
    },
    {
      "anonymous": false,
      "inputs": [
        {
          "indexed": false,
          "internalType": "uint256",
          "name": "amount",
          "type": "uint256"
        }
      ],
      "name": "Sold",
      "type": "event"
    },
    {
      "inputs": [],
      "name": "buy",
      "outputs": [],
      "stateMutability": "payable",
      "type": "function",
      "payable": true
    },
    {
      "inputs": [],
      "name": "exchange_rate",
      "outputs": [
        {
          "internalType": "uint256",
          "name": "",
          "type": "uint256"
        }
      ],
      "stateMutability": "view",
      "type": "function",
      "constant": true
    },
    {
      "inputs": [],
      "name": "getContractAddress",
      "outputs": [
        {
          "internalType": "address",
          "name": "",
          "type": "address"
        }
      ],
      "stateMutability": "view",
      "type": "function",
      "constant": true
    },
    {
      "inputs": [],
      "name": "getPoolEtherBalance",
      "outputs": [
        {
          "internalType": "uint256",
          "name": "",
          "type": "uint256"
        }
      ],
      "stateMutability": "view",
      "type": "function",
      "constant": true
    },
    {
      "inputs": [],
      "name": "getPoolTokenBalance",
      "outputs": [
        {
          "internalType": "uint256",
          "name": "",
          "type": "uint256"
        }
      ],
      "stateMutability": "view",
      "type": "function",
      "constant": true
    },
    {
      "inputs": [],
      "name": "getTokenSupply",
      "outputs": [
        {
          "internalType": "uint256",
          "name": "",
          "type": "uint256"
        }
      ],
      "stateMutability": "view",
      "type": "function",
      "constant": true
    },
    {
      "inputs": [],
      "name": "register",
      "outputs": [
        {
          "internalType": "bool",
          "name": "",
          "type": "bool"
        }
      ],
      "stateMutability": "nonpayable",
      "type": "function"
    },
    {
      "inputs": [
        {
          "internalType": "uint256",
          "name": "amount",
          "type": "uint256"
        }
      ],
      "name": "sell",
      "outputs": [],
      "stateMutability": "nonpayable",
      "type": "function"
    },
    {
      "inputs": [],
      "name": "token",
      "outputs": [
        {
          "internalType": "contract TokenPool",
          "name": "",
          "type": "address"
        }
      ],
      "stateMutability": "view",
      "type": "function",
      "constant": true
    },
    {
      "inputs": [
        {
          "internalType": "address",
          "name": "receiver",
          "type": "address"
        },
        {
          "internalType": "uint256",
          "name": "amount",
          "type": "uint256"
        }
      ],
      "name": "transferToken",
      "outputs": [],
      "stateMutability": "nonpayable",
      "type": "function"
    },
    {
      "inputs": [],
      "name": "userExists",
      "outputs": [
        {
          "internalType": "bool",
          "name": "",
          "type": "bool"
        }
      ],
      "stateMutability": "view",
      "type": "function",
      "constant": true
    },
    {
      "inputs": [],
      "name": "getUserInfo",
      "outputs": [
        {
          "components": [
            {
              "internalType": "string[]",
              "name": "upload_music_list",
              "type": "string[]"
            },
            {
              "internalType": "string[]",
              "name": "bought_music_list",
              "type": "string[]"
            },
            {
              "internalType": "bool",
              "name": "isValid",
              "type": "bool"
            }
          ],
          "internalType": "struct MusicDApp.User",
          "name": "",
          "type": "tuple"
        }
      ],
      "stateMutability": "view",
      "type": "function",
      "constant": true
    },
    {
      "inputs": [],
      "name": "getUserBalance",
      "outputs": [
        {
          "internalType": "uint256",
          "name": "",
          "type": "uint256"
        }
      ],
      "stateMutability": "view",
      "type": "function",
      "constant": true
    },
    {
      "inputs": [],
      "name": "getUploadMusicList",
      "outputs": [
        {
          "internalType": "string[]",
          "name": "",
          "type": "string[]"
        }
      ],
      "stateMutability": "view",
      "type": "function",
      "constant": true
    },
    {
      "inputs": [],
      "name": "getBoughtMusicList",
      "outputs": [
        {
          "internalType": "string[]",
          "name": "",
          "type": "string[]"
        }
      ],
      "stateMutability": "view",
      "type": "function",
      "constant": true
    },
    {
      "inputs": [
        {
          "internalType": "string",
          "name": "_ipfsHash",
          "type": "string"
        }
      ],
      "name": "findUploadMusic",
      "outputs": [
        {
          "internalType": "bool",
          "name": "",
          "type": "bool"
        }
      ],
      "stateMutability": "view",
      "type": "function",
      "constant": true
    },
    {
      "inputs": [
        {
          "internalType": "string",
          "name": "_ipfsHash",
          "type": "string"
        }
      ],
      "name": "findBoughtMusic",
      "outputs": [
        {
          "internalType": "bool",
          "name": "",
          "type": "bool"
        }
      ],
      "stateMutability": "view",
      "type": "function",
      "constant": true
    },
    {
      "inputs": [
        {
          "internalType": "string",
          "name": "_name",
          "type": "string"
        },
        {
          "internalType": "string",
          "name": "_artist",
          "type": "string"
        }
      ],
      "name": "musicExists",
      "outputs": [
        {
          "internalType": "bool",
          "name": "",
          "type": "bool"
        }
      ],
      "stateMutability": "view",
      "type": "function",
      "constant": true
    },
    {
      "inputs": [
        {
          "internalType": "string",
          "name": "_ipfsHash",
          "type": "string"
        },
        {
          "internalType": "string",
          "name": "_name",
          "type": "string"
        },
        {
          "internalType": "string",
          "name": "_artist",
          "type": "string"
        },
        {
          "internalType": "string",
          "name": "_coverFrom",
          "type": "string"
        }
      ],
      "name": "uploadMusic",
      "outputs": [],
      "stateMutability": "nonpayable",
      "type": "function"
    },
    {
      "inputs": [
        {
          "internalType": "string",
          "name": "_ipfsHash",
          "type": "string"
        },
        {
          "internalType": "string",
          "name": "_name",
          "type": "string"
        },
        {
          "internalType": "string",
          "name": "_artist",
          "type": "string"
        },
        {
          "internalType": "string",
          "name": "_coverFrom",
          "type": "string"
        },
        {
          "internalType": "address",
          "name": "uploader_addr",
          "type": "address"
        }
      ],
      "name": "uploadMusic_batch",
      "outputs": [],
      "stateMutability": "nonpayable",
      "type": "function"
    },
    {
      "inputs": [
        {
          "internalType": "string",
          "name": "_name",
          "type": "string"
        },
        {
          "internalType": "string",
          "name": "_artist",
          "type": "string"
        }
      ],
      "name": "getMusic",
      "outputs": [
        {
          "components": [
            {
              "internalType": "address",
              "name": "uploader",
              "type": "address"
            },
            {
              "internalType": "uint256",
              "name": "uploadTime",
              "type": "uint256"
            },
            {
              "internalType": "uint256",
              "name": "count",
              "type": "uint256"
            },
            {
              "internalType": "string",
              "name": "name",
              "type": "string"
            },
            {
              "internalType": "string",
              "name": "artist",
              "type": "string"
            },
            {
              "internalType": "string",
              "name": "ipfsHash",
              "type": "string"
            },
            {
              "internalType": "string",
              "name": "coverFrom",
              "type": "string"
            }
          ],
          "internalType": "struct MusicDApp.Music",
          "name": "",
          "type": "tuple"
        }
      ],
      "stateMutability": "view",
      "type": "function",
      "constant": true
    },
    {
      "inputs": [
        {
          "internalType": "string",
          "name": "_ipfsHash",
          "type": "string"
        }
      ],
      "name": "getMusicByHash",
      "outputs": [
        {
          "components": [
            {
              "internalType": "address",
              "name": "uploader",
              "type": "address"
            },
            {
              "internalType": "uint256",
              "name": "uploadTime",
              "type": "uint256"
            },
            {
              "internalType": "uint256",
              "name": "count",
              "type": "uint256"
            },
            {
              "internalType": "string",
              "name": "name",
              "type": "string"
            },
            {
              "internalType": "string",
              "name": "artist",
              "type": "string"
            },
            {
              "internalType": "string",
              "name": "ipfsHash",
              "type": "string"
            },
            {
              "internalType": "string",
              "name": "coverFrom",
              "type": "string"
            }
          ],
          "internalType": "struct MusicDApp.Music",
          "name": "",
          "type": "tuple"
        }
      ],
      "stateMutability": "view",
      "type": "function",
      "constant": true
    },
    {
      "inputs": [
        {
          "internalType": "string",
          "name": "_name",
          "type": "string"
        }
      ],
      "name": "getMusicArtistList",
      "outputs": [
        {
          "components": [
            {
              "internalType": "address",
              "name": "uploader",
              "type": "address"
            },
            {
              "internalType": "uint256",
              "name": "uploadTime",
              "type": "uint256"
            },
            {
              "internalType": "uint256",
              "name": "count",
              "type": "uint256"
            },
            {
              "internalType": "string",
              "name": "name",
              "type": "string"
            },
            {
              "internalType": "string",
              "name": "artist",
              "type": "string"
            },
            {
              "internalType": "string",
              "name": "ipfsHash",
              "type": "string"
            },
            {
              "internalType": "string",
              "name": "coverFrom",
              "type": "string"
            }
          ],
          "internalType": "struct MusicDApp.Music[]",
          "name": "",
          "type": "tuple[]"
        }
      ],
      "stateMutability": "view",
      "type": "function",
      "constant": true
    },
    {
      "inputs": [
        {
          "internalType": "string",
          "name": "_artist",
          "type": "string"
        }
      ],
      "name": "getArtistMusicList",
      "outputs": [
        {
          "components": [
            {
              "internalType": "address",
              "name": "uploader",
              "type": "address"
            },
            {
              "internalType": "uint256",
              "name": "uploadTime",
              "type": "uint256"
            },
            {
              "internalType": "uint256",
              "name": "count",
              "type": "uint256"
            },
            {
              "internalType": "string",
              "name": "name",
              "type": "string"
            },
            {
              "internalType": "string",
              "name": "artist",
              "type": "string"
            },
            {
              "internalType": "string",
              "name": "ipfsHash",
              "type": "string"
            },
            {
              "internalType": "string",
              "name": "coverFrom",
              "type": "string"
            }
          ],
          "internalType": "struct MusicDApp.Music[]",
          "name": "",
          "type": "tuple[]"
        }
      ],
      "stateMutability": "view",
      "type": "function",
      "constant": true
    },
    {
      "inputs": [
        {
          "internalType": "string",
          "name": "_ipfsHash",
          "type": "string"
        }
      ],
      "name": "buyMusicByHash",
      "outputs": [],
      "stateMutability": "nonpayable",
      "type": "function"
    },
    {
      "inputs": [
        {
          "internalType": "string",
          "name": "_ipfsHash",
          "type": "string"
        },
        {
          "internalType": "uint8",
          "name": "depth",
          "type": "uint8"
        }
      ],
      "name": "getMusicChainByHash",
      "outputs": [
        {
          "components": [
            {
              "internalType": "address",
              "name": "uploader",
              "type": "address"
            },
            {
              "internalType": "uint256",
              "name": "uploadTime",
              "type": "uint256"
            },
            {
              "internalType": "uint256",
              "name": "count",
              "type": "uint256"
            },
            {
              "internalType": "string",
              "name": "name",
              "type": "string"
            },
            {
              "internalType": "string",
              "name": "artist",
              "type": "string"
            },
            {
              "internalType": "string",
              "name": "ipfsHash",
              "type": "string"
            },
            {
              "internalType": "string",
              "name": "coverFrom",
              "type": "string"
            }
          ],
          "internalType": "struct MusicDApp.Music[]",
          "name": "",
          "type": "tuple[]"
        }
      ],
      "stateMutability": "view",
      "type": "function",
      "constant": true
    },
    {
      "inputs": [
        {
          "internalType": "string",
          "name": "_name",
          "type": "string"
        },
        {
          "internalType": "string",
          "name": "_artist",
          "type": "string"
        },
        {
          "internalType": "uint256",
          "name": "_index",
          "type": "uint256"
        },
        {
          "internalType": "uint256",
          "name": "depth",
          "type": "uint256"
        }
      ],
      "name": "getRelevantMusicArtistList",
      "outputs": [
        {
          "components": [
            {
              "internalType": "address",
              "name": "uploader",
              "type": "address"
            },
            {
              "internalType": "uint256",
              "name": "uploadTime",
              "type": "uint256"
            },
            {
              "internalType": "uint256",
              "name": "count",
              "type": "uint256"
            },
            {
              "internalType": "string",
              "name": "name",
              "type": "string"
            },
            {
              "internalType": "string",
              "name": "artist",
              "type": "string"
            },
            {
              "internalType": "string",
              "name": "ipfsHash",
              "type": "string"
            },
            {
              "internalType": "string",
              "name": "coverFrom",
              "type": "string"
            }
          ],
          "internalType": "struct MusicDApp.Music[10]",
          "name": "",
          "type": "tuple[10]"
        },
        {
          "internalType": "uint256",
          "name": "",
          "type": "uint256"
        },
        {
          "internalType": "bool",
          "name": "",
          "type": "bool"
        }
      ],
      "stateMutability": "view",
      "type": "function",
      "constant": true
    }
  ],
  "bytecode": "0x6080604052655af3107a40006001553480156200001b57600080fd5b506040516200002a906200006e565b604051809103906000f08015801562000047573d6000803e3d6000fd5b5060008054600160a060020a031916600160a060020a03929092169190911790556200007c565b6104948062004a0783390190565b61497b806200008c6000396000f3fe60806040526004361061013f5760e060020a60003504631072cbea8114610144578063171ef0b2146101665780631aa3a00814610191578063209af2dd146101b3578063245fcb92146101e057806332a2c5d0146101f55780633854f10c1461021757806346c641f3146102465780635d8d15851461025b57806360b377b81461027d5780637fb954481461029f57806380f3de65146102cc5780638aa4342c146102ec5780639146436b1461030157806393154af714610321578063a597896414610341578063a678b83014610361578063a6f2ae3a14610381578063ad974f4c14610389578063b1ddeab01461039e578063b7013dc1146103be578063e41bfe6e146103d3578063e4849b32146103f3578063e90fd8e714610413578063eae6d4da14610433578063f7f6bd7f14610448578063fc0c546a14610468575b600080fd5b34801561015057600080fd5b5061016461015f366004614013565b61047d565b005b34801561017257600080fd5b5061017b610537565b6040516101889190614791565b60405180910390f35b34801561019d57600080fd5b506101a661053d565b60405161018891906145f1565b3480156101bf57600080fd5b506101d36101ce366004614063565b61067f565b604051610188919061459e565b3480156101ec57600080fd5b5061017b610974565b34801561020157600080fd5b5061020a610979565b60405161018891906144a7565b34801561022357600080fd5b5061023761023236600461425c565b61097d565b6040516101889392919061453f565b34801561025257600080fd5b5061017b610d1d565b34801561026757600080fd5b50610270610da6565b604051610188919061473f565b34801561028957600080fd5b50610292610f88565b60405161018891906144df565b3480156102ab57600080fd5b506102bf6102ba36600461409d565b61106c565b604051610188919061472c565b3480156102d857600080fd5b506101a66102e7366004614063565b611338565b3480156102f857600080fd5b506102926115c5565b34801561030d57600080fd5b506102bf61031c366004614063565b6116a3565b34801561032d57600080fd5b506101d361033c3660046142cc565b611950565b34801561034d57600080fd5b506101a661035c36600461409d565b611fb1565b34801561036d57600080fd5b5061016461037c3660046141a4565b612280565b610164612743565b34801561039557600080fd5b5061017b6128e5565b3480156103aa57600080fd5b506101646103b93660046140fd565b612937565b3480156103ca57600080fd5b5061017b612def565b3480156103df57600080fd5b506101646103ee366004614063565b612e23565b3480156103ff57600080fd5b5061016461040e366004614320565b61352a565b34801561041f57600080fd5b506101d361042e366004614063565b6136a4565b34801561043f57600080fd5b506101a661398b565b34801561045457600080fd5b506101a6610463366004614063565b6139a4565b34801561047457600080fd5b5061020a613c27565b600081116104a95760405160e560020a62461bcd0281526004016104a09061467b565b60405180910390fd5b60005460405160e060020a6323b872dd028152600160a060020a03909116906323b872dd906104e0903390869086906004016144bb565b602060405180830381600087803b1580156104fa57600080fd5b505af115801561050e573d6000803e3d6000fd5b505050506040513d601f19601f82011682018060405250810190610532919061403c565b505050565b60015481565b6000805460405160e060020a6370a08231028152612710918391600160a060020a03909116906370a08231906105779030906004016144a7565b60206040518083038186803b15801561058f57600080fd5b505afa1580156105a3573d6000803e3d6000fd5b505050506040513d601f19601f820116820180604052508101906105c79190614338565b9050808211156105ec5760405160e560020a62461bcd0281526004016104a0906146f7565b60005460405160e060020a6323b872dd028152600160a060020a03909116906323b872dd90610623903090339087906004016144bb565b602060405180830381600087803b15801561063d57600080fd5b505af1158015610651573d6000803e3d6000fd5b505050506040513d601f19601f82011682018060405250810190610675919061403c565b5060019250505090565b606060006006836040516106939190614475565b9081526020016040518091039020805480602002602001604051908101604052809291908181526020016000905b828210156109665760008481526020908190206040805160e081018252600786029092018054600160a060020a0316835260018101549383019390935260028301549082015260038201805491929160608401919061071f90614837565b80601f016020809104026020016040519081016040528092919081815260200182805461074b90614837565b80156107985780601f1061076d57610100808354040283529160200191610798565b820191906000526020600020905b81548152906001019060200180831161077b57829003601f168201915b505050505081526020016004820180546107b190614837565b80601f01602080910402602001604051908101604052809291908181526020018280546107dd90614837565b801561082a5780601f106107ff5761010080835404028352916020019161082a565b820191906000526020600020905b81548152906001019060200180831161080d57829003601f168201915b5050505050815260200160058201805461084390614837565b80601f016020809104026020016040519081016040528092919081815260200182805461086f90614837565b80156108bc5780601f10610891576101008083540402835291602001916108bc565b820191906000526020600020905b81548152906001019060200180831161089f57829003601f168201915b505050505081526020016006820180546108d590614837565b80601f016020809104026020016040519081016040528092919081815260200182805461090190614837565b801561094e5780601f106109235761010080835404028352916020019161094e565b820191906000526020600020905b81548152906001019060200180831161093157829003601f168201915b505050505081525050815260200190600101906106c1565b50929450505050505b919050565b303190565b3090565b610985613e4c565b600080610990613e4c565b60008061099b613e7a565b88805b600254811015610cfc578985106109b457610cfc565b600281815481106109d85760e060020a634e487b7102600052603260045260246000fd5b90600052602060002090600702016040518060e00160405290816000820160009054906101000a9004600160a060020a0316600160a060020a0316600160a060020a031681526020016001820154815260200160028201548152602001600382018054610a4490614837565b80601f0160208091040260200160405190810160405280929190818152602001828054610a7090614837565b8015610abd5780601f10610a9257610100808354040283529160200191610abd565b820191906000526020600020905b815481529060010190602001808311610aa057829003601f168201915b50505050508152602001600482018054610ad690614837565b80601f0160208091040260200160405190810160405280929190818152602001828054610b0290614837565b8015610b4f5780601f10610b2457610100808354040283529160200191610b4f565b820191906000526020600020905b815481529060010190602001808311610b3257829003601f168201915b50505050508152602001600582018054610b6890614837565b80601f0160208091040260200160405190810160405280929190818152602001828054610b9490614837565b8015610be15780601f10610bb657610100808354040283529160200191610be1565b820191906000526020600020905b815481529060010190602001808311610bc457829003601f168201915b50505050508152602001600682018054610bfa90614837565b80601f0160208091040260200160405190810160405280929190818152602001828054610c2690614837565b8015610c735780601f10610c4857610100808354040283529160200191610c73565b820191906000526020600020905b815481529060010190602001808311610c5657829003601f168201915b5050505050815250509250610c8c8d8460600151613c36565b80610ca05750610ca08c8460800151613c36565b15610cdc57828686600a8110610cc95760e060020a634e487b7102600052603260045260246000fd5b602002015284610cd881614876565b9550505b81610ce681614876565b9250508080610cf490614876565b91505061099e565b50600254811415610d0c57600192505b50929a919950975095505050505050565b6000805460405160e060020a6370a08231028152600160a060020a03909116906370a0823190610d519030906004016144a7565b60206040518083038186803b158015610d6957600080fd5b505afa158015610d7d573d6000803e3d6000fd5b505050506040513d601f19601f82011682018060405250810190610da19190614338565b905090565b610dae613ec0565b3360009081526003602090815260408083208151815460809481028201850190935260608101838152909491938593919285929185015b82821015610e91578382906000526020600020018054610e0490614837565b80601f0160208091040260200160405190810160405280929190818152602001828054610e3090614837565b8015610e7d5780601f10610e5257610100808354040283529160200191610e7d565b820191906000526020600020905b815481529060010190602001808311610e6057829003601f168201915b505050505081526020019060010190610de5565b50505050815260200160018201805480602002602001604051908101604052809291908181526020016000905b82821015610f6a578382906000526020600020018054610edd90614837565b80601f0160208091040260200160405190810160405280929190818152602001828054610f0990614837565b8015610f565780601f10610f2b57610100808354040283529160200191610f56565b820191906000526020600020905b815481529060010190602001808311610f3957829003601f168201915b505050505081526020019060010190610ebe565b505050908252506002919091015460ff161515602090910152905090565b336000908152600360209081526040808320805482518185028101850190935280835260609492939192909184015b82821015611063578382906000526020600020018054610fd690614837565b80601f016020809104026020016040519081016040528092919081815260200182805461100290614837565b801561104f5780601f106110245761010080835404028352916020019161104f565b820191906000526020600020905b81548152906001019060200180831161103257829003601f168201915b505050505081526020019060010190610fb7565b50505050905090565b611074613e7a565b60006005846040516110869190614475565b9081526020016040518091039020836040516110a29190614475565b90815260408051918290036020908101832060e0840183528054600160a060020a031684526001810154918401919091526002810154918301919091526003810180546060840191906110f490614837565b80601f016020809104026020016040519081016040528092919081815260200182805461112090614837565b801561116d5780601f106111425761010080835404028352916020019161116d565b820191906000526020600020905b81548152906001019060200180831161115057829003601f168201915b5050505050815260200160048201805461118690614837565b80601f01602080910402602001604051908101604052809291908181526020018280546111b290614837565b80156111ff5780601f106111d4576101008083540402835291602001916111ff565b820191906000526020600020905b8154815290600101906020018083116111e257829003601f168201915b5050505050815260200160058201805461121890614837565b80601f016020809104026020016040519081016040528092919081815260200182805461124490614837565b80156112915780601f1061126657610100808354040283529160200191611291565b820191906000526020600020905b81548152906001019060200180831161127457829003601f168201915b505050505081526020016006820180546112aa90614837565b80601f01602080910402602001604051908101604052809291908181526020018280546112d690614837565b80156113235780601f106112f857610100808354040283529160200191611323565b820191906000526020600020905b81548152906001019060200180831161130657829003601f168201915b50505091909252509193505050505b92915050565b3360009081526003602090815260408083208151815460809481028201850190935260608101838152859491938492849190879085015b8282101561141b57838290600052602060002001805461138e90614837565b80601f01602080910402602001604051908101604052809291908181526020018280546113ba90614837565b80156114075780601f106113dc57610100808354040283529160200191611407565b820191906000526020600020905b8154815290600101906020018083116113ea57829003601f168201915b50505050508152602001906001019061136f565b50505050815260200160018201805480602002602001604051908101604052809291908181526020016000905b828210156114f457838290600052602060002001805461146790614837565b80601f016020809104026020016040519081016040528092919081815260200182805461149390614837565b80156114e05780601f106114b5576101008083540402835291602001916114e0565b820191906000526020600020905b8154815290600101906020018083116114c357829003601f168201915b505050505081526020019060010190611448565b505050908252506002919091015460ff161515602090910152805190915060005b81518110156115ba578181815181106115415760e060020a634e487b7102600052603260045260246000fd5b60200260200101516040516020016115599190614475565b60405160208183030381529060405280519060200120856040516020016115809190614475565b6040516020818303038152906040528051906020012014156115a8576001935050505061096f565b806115b281614876565b915050611515565b506000949350505050565b336000908152600360209081526040808320600101805482518185028101850190935280835260609492939192909184015b8282101561106357838290600052602060002001805461161690614837565b80601f016020809104026020016040519081016040528092919081815260200182805461164290614837565b801561168f5780601f106116645761010080835404028352916020019161168f565b820191906000526020600020905b81548152906001019060200180831161167257829003601f168201915b5050505050815260200190600101906115f7565b6116ab613e7a565b60006004836040516116bd9190614475565b90815260408051918290036020908101832060e0840183528054600160a060020a0316845260018101549184019190915260028101549183019190915260038101805460608401919061170f90614837565b80601f016020809104026020016040519081016040528092919081815260200182805461173b90614837565b80156117885780601f1061175d57610100808354040283529160200191611788565b820191906000526020600020905b81548152906001019060200180831161176b57829003601f168201915b505050505081526020016004820180546117a190614837565b80601f01602080910402602001604051908101604052809291908181526020018280546117cd90614837565b801561181a5780601f106117ef5761010080835404028352916020019161181a565b820191906000526020600020905b8154815290600101906020018083116117fd57829003601f168201915b5050505050815260200160058201805461183390614837565b80601f016020809104026020016040519081016040528092919081815260200182805461185f90614837565b80156118ac5780601f10611881576101008083540402835291602001916118ac565b820191906000526020600020905b81548152906001019060200180831161188f57829003601f168201915b505050505081526020016006820180546118c590614837565b80601f01602080910402602001604051908101604052809291908181526020018280546118f190614837565b801561193e5780601f106119135761010080835404028352916020019161193e565b820191906000526020600020905b81548152906001019060200180831161192157829003601f168201915b50505091909252509195945050505050565b606060006004846040516119649190614475565b90815260408051918290036020908101832060e0840183528054600160a060020a031684526001810154918401919091526002810154918301919091526003810180546060840191906119b690614837565b80601f01602080910402602001604051908101604052809291908181526020018280546119e290614837565b8015611a2f5780601f10611a0457610100808354040283529160200191611a2f565b820191906000526020600020905b815481529060010190602001808311611a1257829003601f168201915b50505050508152602001600482018054611a4890614837565b80601f0160208091040260200160405190810160405280929190818152602001828054611a7490614837565b8015611ac15780601f10611a9657610100808354040283529160200191611ac1565b820191906000526020600020905b815481529060010190602001808311611aa457829003601f168201915b50505050508152602001600582018054611ada90614837565b80601f0160208091040260200160405190810160405280929190818152602001828054611b0690614837565b8015611b535780601f10611b2857610100808354040283529160200191611b53565b820191906000526020600020905b815481529060010190602001808311611b3657829003601f168201915b50505050508152602001600682018054611b6c90614837565b80601f0160208091040260200160405190810160405280929190818152602001828054611b9890614837565b8015611be55780601f10611bba57610100808354040283529160200191611be5565b820191906000526020600020905b815481529060010190602001808311611bc857829003601f168201915b50505050508152505090506000808460ff166001604060020a03811115611c1f5760e060020a634e487b7102600052604160045260246000fd5b604051908082528060200260200182016040528015611c5857816020015b611c45613e7a565b815260200190600190039081611c3d5790505b5090505b8460ff168210611c6b57611fa8565b82818381518110611c8f5760e060020a634e487b7102600052603260045260246000fd5b6020026020010181905250604051602001611ca990614491565b604051602081830303815290604052805190602001208360c00151604051602001611cd49190614475565b604051602081830303815290604052805190602001201415611cf557611fa8565b60048360c00151604051611d099190614475565b90815260408051918290036020908101832060e0840183528054600160a060020a03168452600181015491840191909152600281015491830191909152600381018054606084019190611d5b90614837565b80601f0160208091040260200160405190810160405280929190818152602001828054611d8790614837565b8015611dd45780601f10611da957610100808354040283529160200191611dd4565b820191906000526020600020905b815481529060010190602001808311611db757829003601f168201915b50505050508152602001600482018054611ded90614837565b80601f0160208091040260200160405190810160405280929190818152602001828054611e1990614837565b8015611e665780601f10611e3b57610100808354040283529160200191611e66565b820191906000526020600020905b815481529060010190602001808311611e4957829003601f168201915b50505050508152602001600582018054611e7f90614837565b80601f0160208091040260200160405190810160405280929190818152602001828054611eab90614837565b8015611ef85780601f10611ecd57610100808354040283529160200191611ef8565b820191906000526020600020905b815481529060010190602001808311611edb57829003601f168201915b50505050508152602001600682018054611f1190614837565b80601f0160208091040260200160405190810160405280929190818152602001828054611f3d90614837565b8015611f8a5780601f10611f5f57610100808354040283529160200191611f8a565b820191906000526020600020905b815481529060010190602001808311611f6d57829003601f168201915b50505050508152505092508180611fa090614876565b925050611c5c565b95945050505050565b600080600584604051611fc49190614475565b908152602001604051809103902083604051611fe09190614475565b90815260408051918290036020908101832060e0840183528054600160a060020a0316845260018101549184019190915260028101549183019190915260038101805460608401919061203290614837565b80601f016020809104026020016040519081016040528092919081815260200182805461205e90614837565b80156120ab5780601f10612080576101008083540402835291602001916120ab565b820191906000526020600020905b81548152906001019060200180831161208e57829003601f168201915b505050505081526020016004820180546120c490614837565b80601f01602080910402602001604051908101604052809291908181526020018280546120f090614837565b801561213d5780601f106121125761010080835404028352916020019161213d565b820191906000526020600020905b81548152906001019060200180831161212057829003601f168201915b5050505050815260200160058201805461215690614837565b80601f016020809104026020016040519081016040528092919081815260200182805461218290614837565b80156121cf5780601f106121a4576101008083540402835291602001916121cf565b820191906000526020600020905b8154815290600101906020018083116121b257829003601f168201915b505050505081526020016006820180546121e890614837565b80601f016020809104026020016040519081016040528092919081815260200182805461221490614837565b80156122615780601f1061223657610100808354040283529160200191612261565b820191906000526020600020905b81548152906001019060200180831161224457829003601f168201915b5050509190925250509051600160a060020a0316151595945050505050565b6040805160e081018252600160a060020a0383811682524260208084019182526000948401858152606085018a8152608086018a905260a086018c905260c0860189905260028054600181018255975285516000805160206148c683398151915260079098029788018054600160a060020a0319169190961617855592516000805160206148e683398151915287015551600080516020614906833981519152860155905180519394859461234b936000805160206149268339815191529092019290910190613ee3565b5060808201518051612367916004840191602090910190613ee3565b5060a08201518051612383916005840191602090910190613ee3565b5060c0820151805161239f916006840191602090910190613ee3565b505050806005866040516123b39190614475565b9081526020016040518091039020856040516123cf9190614475565b908152604080516020928190038301902083518154600160a060020a031916600160a060020a0390911617815583830151600182015590830151600282015560608301518051919261242992600385019290910190613ee3565b5060808201518051612445916004840191602090910190613ee3565b5060a08201518051612461916005840191602090910190613ee3565b5060c0820151805161247d916006840191602090910190613ee3565b50905050806004876040516124929190614475565b908152604080516020928190038301902083518154600160a060020a031916600160a060020a039091161781558383015160018201559083015160028201556060830151805191926124ec92600385019290910190613ee3565b5060808201518051612508916004840191602090910190613ee3565b5060a08201518051612524916005840191602090910190613ee3565b5060c08201518051612540916006840191602090910190613ee3565b509050506006856040516125549190614475565b908152604080516020928190038301902080546001808201835560009283529184902085516007909202018054600160a060020a031916600160a060020a0390921691909117815584840151918101919091559083015160028201556060830151805184936125ca926003850192910190613ee3565b50608082015180516125e6916004840191602090910190613ee3565b5060a08201518051612602916005840191602090910190613ee3565b5060c0820151805161261e916006840191602090910190613ee3565b5050506007846040516126319190614475565b908152604080516020928190038301902080546001808201835560009283529184902085516007909202018054600160a060020a031916600160a060020a0390921691909117815584840151918101919091559083015160028201556060830151805184936126a7926003850192910190613ee3565b50608082015180516126c3916004840191602090910190613ee3565b5060a082015180516126df916005840191602090910190613ee3565b5060c082015180516126fb916006840191602090910190613ee3565b505050600160a060020a03821660009081526003602090815260408220805460018101825590835291819020885161273a939190910191890190613ee3565b50505050505050565b6000805460405160e060020a6370a08231028152349291600160a060020a0316906370a08231906127789030906004016144a7565b60206040518083038186803b15801561279057600080fd5b505afa1580156127a4573d6000803e3d6000fd5b505050506040513d601f19601f820116820180604052508101906127c89190614338565b9050600082116127ed5760405160e560020a62461bcd0281526004016104a0906145fc565b808211156128105760405160e560020a62461bcd0281526004016104a0906146f7565b600054600154600160a060020a03909116906323b872dd903090339061283690876147b2565b6040518463ffffffff1660e060020a028152600401612857939291906144bb565b602060405180830381600087803b15801561287157600080fd5b505af1158015612885573d6000803e3d6000fd5b505050506040513d601f19601f820116820180604052508101906128a9919061403c565b507f4e08ba899977cf7d4c2964bce71c6b9a7ef76ee5166a4c1249a1e08016e33ef1826040516128d99190614791565b60405180910390a15050565b60008060009054906101000a9004600160a060020a0316600160a060020a03166318160ddd6040518163ffffffff1660e060020a02815260040160206040518083038186803b158015610d6957600080fd5b6040805160e0810182523381524260208083019182526001938301848152606084018881526080850188905260a085018a905260c0850187905260028054968701815560005284516000805160206148c683398151915260079097029687018054600160a060020a031916600160a060020a0390921691909117815593516000805160206148e6833981519152870155905160008051602061490683398151915286015551805193948594612a02936000805160206149268339815191529092019290910190613ee3565b5060808201518051612a1e916004840191602090910190613ee3565b5060a08201518051612a3a916005840191602090910190613ee3565b5060c08201518051612a56916006840191602090910190613ee3565b50505080600585604051612a6a9190614475565b908152602001604051809103902084604051612a869190614475565b908152604080516020928190038301902083518154600160a060020a031916600160a060020a03909116178155838301516001820155908301516002820155606083015180519192612ae092600385019290910190613ee3565b5060808201518051612afc916004840191602090910190613ee3565b5060a08201518051612b18916005840191602090910190613ee3565b5060c08201518051612b34916006840191602090910190613ee3565b5090505080600486604051612b499190614475565b908152604080516020928190038301902083518154600160a060020a031916600160a060020a03909116178155838301516001820155908301516002820155606083015180519192612ba392600385019290910190613ee3565b5060808201518051612bbf916004840191602090910190613ee3565b5060a08201518051612bdb916005840191602090910190613ee3565b5060c08201518051612bf7916006840191602090910190613ee3565b50905050600684604051612c0b9190614475565b908152604080516020928190038301902080546001808201835560009283529184902085516007909202018054600160a060020a031916600160a060020a039092169190911781558484015191810191909155908301516002820155606083015180518493612c81926003850192910190613ee3565b5060808201518051612c9d916004840191602090910190613ee3565b5060a08201518051612cb9916005840191602090910190613ee3565b5060c08201518051612cd5916006840191602090910190613ee3565b505050600783604051612ce89190614475565b908152604080516020928190038301902080546001808201835560009283529184902085516007909202018054600160a060020a031916600160a060020a039092169190911781558484015191810191909155908301516002820155606083015180518493612d5e926003850192910190613ee3565b5060808201518051612d7a916004840191602090910190613ee3565b5060a08201518051612d96916005840191602090910190613ee3565b5060c08201518051612db2916006840191602090910190613ee3565b505033600090815260036020908152604082208054600181018255908352918190208851612de7945092019190880190613ee3565b505050505050565b6000805460405160e060020a6370a08231028152600160a060020a03909116906370a0823190610d519033906004016144a7565b60003390506000600483604051612e3a9190614475565b90815260408051918290036020908101832060e0840183528054600160a060020a03168452600181015491840191909152600281015491830191909152600381018054606084019190612e8c90614837565b80601f0160208091040260200160405190810160405280929190818152602001828054612eb890614837565b8015612f055780601f10612eda57610100808354040283529160200191612f05565b820191906000526020600020905b815481529060010190602001808311612ee857829003601f168201915b50505050508152602001600482018054612f1e90614837565b80601f0160208091040260200160405190810160405280929190818152602001828054612f4a90614837565b8015612f975780601f10612f6c57610100808354040283529160200191612f97565b820191906000526020600020905b815481529060010190602001808311612f7a57829003601f168201915b50505050508152602001600582018054612fb090614837565b80601f0160208091040260200160405190810160405280929190818152602001828054612fdc90614837565b80156130295780601f10612ffe57610100808354040283529160200191613029565b820191906000526020600020905b81548152906001019060200180831161300c57829003601f168201915b5050505050815260200160068201805461304290614837565b80601f016020809104026020016040519081016040528092919081815260200182805461306e90614837565b80156130bb5780601f10613090576101008083540402835291602001916130bb565b820191906000526020600020905b81548152906001019060200180831161309e57829003601f168201915b50505091909252505081516040805160e0810182526064815260326020820152601991810191909152600c606082015260066080820152600360a0820152600160c08201529293508592909150600061311384611338565b1561312357505050505050613527565b61312c846139a4565b1561313c57505050505050613527565b60078110613149576134e9565b8260405160200161315a919061445b565b6040516020818303038152906040528051906020012086604051602001613181919061445b565b60405160208183030381529060405280519060200120146131d1576131d186848484600781106131c45760e060020a634e487b7102600052603260045260246000fd5b602002015160ff16613d9a565b6040516020016131e090614491565b604051602081830303815290604052805190602001208560c0015160405160200161320b9190614475565b60405160208183030381529060405280519060200120141561322c576134e9565b82955060048560c001516040516132439190614475565b90815260408051918290036020908101832060e0840183528054600160a060020a0316845260018101549184019190915260028101549183019190915260038101805460608401919061329590614837565b80601f01602080910402602001604051908101604052809291908181526020018280546132c190614837565b801561330e5780601f106132e35761010080835404028352916020019161330e565b820191906000526020600020905b8154815290600101906020018083116132f157829003601f168201915b5050505050815260200160048201805461332790614837565b80601f016020809104026020016040519081016040528092919081815260200182805461335390614837565b80156133a05780601f10613375576101008083540402835291602001916133a0565b820191906000526020600020905b81548152906001019060200180831161338357829003601f168201915b505050505081526020016005820180546133b990614837565b80601f01602080910402602001604051908101604052809291908181526020018280546133e590614837565b80156134325780601f1061340757610100808354040283529160200191613432565b820191906000526020600020905b81548152906001019060200180831161341557829003601f168201915b5050505050815260200160068201805461344b90614837565b80601f016020809104026020016040519081016040528092919081815260200182805461347790614837565b80156134c45780601f10613499576101008083540402835291602001916134c4565b820191906000526020600020905b8154815290600101906020018083116134a757829003601f168201915b50505050508152505094508460000151925080806134e190614876565b91505061313c565b3360009081526003602090815260408220600190810180549182018155835291819020865161351f939190910191870190613ee3565b505050505050505b50565b6000811161354d5760405160e560020a62461bcd0281526004016104a090614633565b60005460405160e060020a6323b872dd028152600160a060020a03909116906323b872dd90613584903390309086906004016144bb565b602060405180830381600087803b15801561359e57600080fd5b505af11580156135b2573d6000803e3d6000fd5b505050506040513d601f19601f820116820180604052508101906135d6919061403c565b506000600154826135e791906147d5565b9050600033600160a060020a031682604051613602906144a4565b60006040518083038185875af1925050503d806000811461363f576040519150601f19603f3d011682016040523d82523d6000602084013e613644565b606091505b50509050806136685760405160e560020a62461bcd0281526004016104a0906146c4565b7f92f64ca637d023f354075a4be751b169c1a8a9ccb6d33cdd0cb3520543995727836040516136979190614791565b60405180910390a1505050565b606060006007836040516136b89190614475565b9081526020016040518091039020805480602002602001604051908101604052809291908181526020016000905b828210156109665760008481526020908190206040805160e081018252600786029092018054600160a060020a0316835260018101549383019390935260028301549082015260038201805491929160608401919061374490614837565b80601f016020809104026020016040519081016040528092919081815260200182805461377090614837565b80156137bd5780601f10613792576101008083540402835291602001916137bd565b820191906000526020600020905b8154815290600101906020018083116137a057829003601f168201915b505050505081526020016004820180546137d690614837565b80601f016020809104026020016040519081016040528092919081815260200182805461380290614837565b801561384f5780601f106138245761010080835404028352916020019161384f565b820191906000526020600020905b81548152906001019060200180831161383257829003601f168201915b5050505050815260200160058201805461386890614837565b80601f016020809104026020016040519081016040528092919081815260200182805461389490614837565b80156138e15780601f106138b6576101008083540402835291602001916138e1565b820191906000526020600020905b8154815290600101906020018083116138c457829003601f168201915b505050505081526020016006820180546138fa90614837565b80601f016020809104026020016040519081016040528092919081815260200182805461392690614837565b80156139735780601f1061394857610100808354040283529160200191613973565b820191906000526020600020905b81548152906001019060200180831161395657829003601f168201915b505050505081525050815260200190600101906136e6565b3360009081526003602052604090206002015460ff1690565b3360009081526003602090815260408083208151815460809481028201850190935260608101838152859491938492849190879085015b82821015613a875783829060005260206000200180546139fa90614837565b80601f0160208091040260200160405190810160405280929190818152602001828054613a2690614837565b8015613a735780601f10613a4857610100808354040283529160200191613a73565b820191906000526020600020905b815481529060010190602001808311613a5657829003601f168201915b5050505050815260200190600101906139db565b50505050815260200160018201805480602002602001604051908101604052809291908181526020016000905b82821015613b60578382906000526020600020018054613ad390614837565b80601f0160208091040260200160405190810160405280929190818152602001828054613aff90614837565b8015613b4c5780601f10613b2157610100808354040283529160200191613b4c565b820191906000526020600020905b815481529060010190602001808311613b2f57829003601f168201915b505050505081526020019060010190613ab4565b505050908252506002919091015460ff16151560209182015281015190915060005b81518110156115ba57818181518110613bae5760e060020a634e487b7102600052603260045260246000fd5b6020026020010151604051602001613bc69190614475565b6040516020818303038152906040528051906020012085604051602001613bed9190614475565b604051602081830303815290604052805190602001201415613c15576001935050505061096f565b80613c1f81614876565b915050613b82565b600054600160a060020a031681565b60405160009083908390613c4e908290602001614475565b6040516020818303038152906040528051906020012085604051602001613c759190614475565b604051602081830303815290604052805190602001201415613c9c57600192505050611332565b6000805b83518351613cae91906147f4565b811015613d9057600160005b8551811015613d6c57858181518110613ce65760e060020a634e487b7102600052603260045260246000fd5b602001015160f860020a900460f860020a02600160f860020a031916858285613d0f919061479a565b81518110613d305760e060020a634e487b7102600052603260045260246000fd5b602001015160f860020a900460f860020a02600160f860020a03191614613d5a5760009150613d6c565b80613d6481614876565b915050613cba565b508015613d7d576001925050613d90565b5080613d8881614876565b915050613ca0565b5095945050505050565b60008111613dbd5760405160e560020a62461bcd0281526004016104a09061467b565b60005460405160e060020a6323b872dd028152600160a060020a03909116906323b872dd90613df4908690869086906004016144bb565b602060405180830381600087803b158015613e0e57600080fd5b505af1158015613e22573d6000803e3d6000fd5b505050506040513d601f19601f82011682018060405250810190613e46919061403c565b50505050565b604051806101400160405280600a905b613e64613e7a565b815260200190600190039081613e5c5790505090565b6040518060e001604052806000600160a060020a031681526020016000815260200160008152602001606081526020016060815260200160608152602001606081525090565b604051806060016040528060608152602001606081526020016000151581525090565b828054613eef90614837565b90600052602060002090601f016020900481019282613f115760008555613f57565b82601f10613f2a57805160ff1916838001178555613f57565b82800160010185558215613f57579182015b82811115613f57578251825591602001919060010190613f3c565b50613f63929150613f67565b5090565b5b80821115613f635760008155600101613f68565b8035600160a060020a038116811461096f57600080fd5b600082601f830112613fa3578081fd5b81356001604060020a0380821115613fbd57613fbd6148ab565b604051601f8301601f191681016020018281118282101715613fe157613fe16148ab565b604052828152848301602001861015613ff8578384fd5b82602086016020830137918201602001929092529392505050565b60008060408385031215614025578182fd5b61402e83613f7c565b946020939093013593505050565b60006020828403121561404d578081fd5b8151801515811461405c578182fd5b9392505050565b600060208284031215614074578081fd5b81356001604060020a03811115614089578182fd5b61409584828501613f93565b949350505050565b600080604083850312156140af578182fd5b82356001604060020a03808211156140c5578384fd5b6140d186838701613f93565b935060208501359150808211156140e6578283fd5b506140f385828601613f93565b9150509250929050565b60008060008060808587031215614112578182fd5b84356001604060020a0380821115614128578384fd5b61413488838901613f93565b95506020870135915080821115614149578384fd5b61415588838901613f93565b9450604087013591508082111561416a578384fd5b61417688838901613f93565b9350606087013591508082111561418b578283fd5b5061419887828801613f93565b91505092959194509250565b600080600080600060a086880312156141bb578081fd5b85356001604060020a03808211156141d1578283fd5b6141dd89838a01613f93565b965060208801359150808211156141f2578283fd5b6141fe89838a01613f93565b95506040880135915080821115614213578283fd5b61421f89838a01613f93565b94506060880135915080821115614234578283fd5b5061424188828901613f93565b92505061425060808701613f7c565b90509295509295909350565b60008060008060808587031215614271578384fd5b84356001604060020a0380821115614287578586fd5b61429388838901613f93565b955060208701359150808211156142a8578485fd5b506142b587828801613f93565b949794965050505060408301359260600135919050565b600080604083850312156142de578182fd5b82356001604060020a038111156142f3578283fd5b6142ff85828601613f93565b925050602083013560ff81168114614315578182fd5b809150509250929050565b600060208284031215614331578081fd5b5035919050565b600060208284031215614349578081fd5b5051919050565b60008282518085526020808601955080818302840101818601855b8481101561439957601f198684030189526143878383516143a6565b9884019892509083019060010161436b565b5090979650505050505050565b600081518084526143be81602086016020860161480b565b601f01601f19169290920160200192915050565b6000600160a060020a0382511683526020820151602084015260408201516040840152606082015160e0606085015261440e60e08501826143a6565b90506080830151848203608086015261442782826143a6565b91505060a083015184820360a086015261444182826143a6565b91505060c083015184820360c0860152611fa882826143a6565b600160a060020a0391909116606060020a02815260140190565b6000825161448781846020870161480b565b9190910192915050565b60e060020a634e6f6e6502815260040190565b90565b600160a060020a0391909116815260200190565b600160a060020a039384168152919092166020820152604081019190915260600190565b6000602080830181845280855180835260408601915060408482028701019250838701855b8281101561453257603f198886030184526145208583516143a6565b94509285019290850190600101614504565b5092979650505050505050565b60608082526000906101a0830190830186835b600a81101561458457605f1986850301835261456f8483516143d2565b93506020928301929190910190600101614552565b505050602083019490945250901515604090910152919050565b6000602080830181845280855180835260408601915060408482028701019250838701855b8281101561453257603f198886030184526145df8583516143d2565b945092850192908501906001016145c3565b901515815260200190565b6020808252601b908201527f596f75206e65656420746f2073656e6420736f6d652045746865720000000000604082015260600190565b60208082526025908201527f596f75206e65656420746f2073656c6c206174206c6561737420736f6d652074604082015260d860020a646f6b656e7302606082015260800190565b60208082526026908201527f596f75206e65656420746f20656e746572206174206c6561737420736f6d6520604082015260d060020a65746f6b656e7302606082015260800190565b6020808252601690820152605160020a752a3930b739b332b91022ba3432b9103330b4b632b21702604082015260600190565b6020808252818101527f4e6f7420656e6f75676820746f6b656e7320696e207468652072657365727665604082015260600190565b60006020825261405c60208301846143d2565b60006020825282516060602084015261475b6080840182614350565b90506020840151601f198483030160408501526147788282614350565b9150506040840151151560608401528091505092915050565b90815260200190565b600082198211156147ad576147ad614891565b500190565b6000826147d05760e060020a634e487b710281526012600452602481fd5b500490565b60008160001904831182151516156147ef576147ef614891565b500290565b60008282101561480657614806614891565b500390565b60005b8381101561482657818101518382015260200161480e565b83811115613e465750506000910152565b60028104600182168061484b57607f821691505b602082108114156148705760e060020a634e487b710260009081526022600452602490fd5b50919050565b600060001982141561488a5761488a614891565b5060010190565b60e060020a634e487b710260009081526011600452602490fd5b60e060020a634e487b710260009081526041600452602490fdfe405787fa12a823e0f2b7631cc41b3ba8828b3321ca811111fa75cd3aa3bb5ace405787fa12a823e0f2b7631cc41b3ba8828b3321ca811111fa75cd3aa3bb5acf405787fa12a823e0f2b7631cc41b3ba8828b3321ca811111fa75cd3aa3bb5ad0405787fa12a823e0f2b7631cc41b3ba8828b3321ca811111fa75cd3aa3bb5ad1a2646970667358221220facfd9daa591b74126a1fcf24ac2e505bc9adc3d885eae62912c74738e059e7764736f6c63430008000033608060405268056bc75e2d6310000060015534801561001d57600080fd5b5060015433600090815260208190526040902055610454806100406000396000f3fe608060405234801561001057600080fd5b50600436106100655760e060020a600035046306fdde03811461006a57806318160ddd1461008857806323b872dd1461009d578063313ce567146100bd57806370a08231146100d257806395d89b41146100e5575b600080fd5b6100726100ed565b60405161007f9190610336565b60405180910390f35b610090610115565b60405161007f91906103be565b6100b06100ab3660046102f0565b61011b565b60405161007f919061032b565b6100c5610215565b60405161007f91906103c7565b6100906100e03660046102d6565b61021a565b610072610239565b60405180604001604052806009815260200160b960020a6826bab9b4b1a1b7b4b70281525081565b60015490565b600160a060020a03831660009081526020819052604081205482111561015f5760405160e560020a62461bcd02815260040161015690610389565b60405180910390fd5b600160a060020a038416600090815260208190526040902054610182908361025b565b600160a060020a0380861660009081526020819052604080822093909355908516815220546101b1908361028f565b600160a060020a0380851660008181526020819052604090819020939093559151908616907fddf252ad1be2c89b69c2b068fc378daa952ba7f163c4a11628f55a4df523b3ef906102039086906103be565b60405180910390a35060019392505050565b600281565b600160a060020a0381166000908152602081905260409020545b919050565b60405180604001604052806003815260200160e860020a624d55430281525081565b60008282111561027e5760e060020a634e487b7102600052600160045260246000fd5b61028882846103ed565b9392505050565b60008061029c83856103d5565b9050838110156102885760e060020a634e487b7102600052600160045260246000fd5b8035600160a060020a038116811461023457600080fd5b6000602082840312156102e7578081fd5b610288826102bf565b600080600060608486031215610304578182fd5b61030d846102bf565b925061031b602085016102bf565b9150604084013590509250925092565b901515815260200190565b6000602080835283518082850152825b8181101561036257858101830151858201604001528201610346565b818111156103735783604083870101525b50601f01601f1916929092016040019392505050565b6020808252818101527f546865206f776e657220686173206e6f20656e6f7567682062616c616e636521604082015260600190565b90815260200190565b60ff91909116815260200190565b600082198211156103e8576103e8610404565b500190565b6000828210156103ff576103ff610404565b500390565b60e060020a634e487b710260009081526011600452602490fdfea264697066735822122010b7da222bf6e6f35ad8d62ad185e2af5bb4e71cd6d1be6e798de855fddf0cbe64736f6c63430008000033",
  "immutableReferences": {},
  "source": "pragma solidity >=0.4.0 <0.9.0;\n// support return struct in functions\npragma experimental ABIEncoderV2;\n\n// import \"../../node_modules/@openzeppelin/contracts/token/ERC20/ERC20.sol\";\n// import \"./MusicCoin.sol\";\nimport \"./MusicToken.sol\";\n\ncontract MusicDApp is DEX {\n    // Music metadata\n    struct Music {\n        // Music information\n        address uploader;\n        uint256 uploadTime;\n        uint256 count;\n        string name;\n        string artist;\n        // Music content\n        string ipfsHash;\n        string coverFrom;\n    }\n\n    struct User {\n        string[] upload_music_list;\n        string[] bought_music_list;\n        bool isValid;\n    }\n\n    // State variables\n    Music[] internal musics;\n\n    mapping(address => User) internal users;\n\n    // ipfs hash as index\n    mapping(string => Music) internal music_hash;\n\n    // (name, artist) as primary key\n    mapping(string => mapping(string => Music)) internal music;\n\n    // name as primary key\n    mapping(string => Music[]) internal music_artist_list;\n\n    // artist as primary key\n    mapping(string => Music[]) internal artist_music_list;\n\n    // Modifiers\n\n    // Public methods\n\n    // Retrieve basic user information\n    function userExists() public view returns (bool) {\n        return users[msg.sender].isValid;\n    }\n\n    function getUserInfo() public view returns (User memory) {\n        return users[msg.sender];\n    }\n\n    function getUserBalance() public view returns (uint256) {\n        return token.balanceOf(msg.sender);\n    }\n\n    // function registerUser() public returns (User memory) {\n    //     if (!userExists()) {\n    //         // Give 10000 token for new user\n    //         uint256 dexBalance = token.balanceOf(address(this));\n    //         require(10000 <= dexBalance, \"Not enough tokens in the reserve\");\n    //         bool success = register();\n    //         require(success, \"Register Process failed.\");\n    //         // token.transfer(msg.sender, 10000);\n    //         users[msg.sender].isValid = true;\n    //         User memory user = users[msg.sender];\n    //         return user;\n    //     } else {\n    //         return users[msg.sender];\n    //     }\n    // }\n\n    function getUploadMusicList() public view returns (string[] memory) {\n        return users[msg.sender].upload_music_list;\n    }\n\n    function getBoughtMusicList() public view returns (string[] memory) {\n        return users[msg.sender].bought_music_list;\n    }\n\n    // check if the user had upload this music\n    function findUploadMusic(string memory _ipfsHash)\n        public\n        view\n        returns (bool)\n    {\n        User memory user = users[msg.sender];\n        string[] memory upload_list = user.upload_music_list;\n\n        for (uint256 i = 0; i < upload_list.length; i++) {\n            if (\n                keccak256(abi.encodePacked(_ipfsHash)) ==\n                keccak256(abi.encodePacked(upload_list[i]))\n            ) {\n                return true;\n            }\n        }\n\n        return false;\n    }\n\n    // check if the user had bought this music\n    function findBoughtMusic(string memory _ipfsHash)\n        public\n        view\n        returns (bool)\n    {\n        User memory user = users[msg.sender];\n        string[] memory bought_list = user.bought_music_list;\n\n        for (uint256 i = 0; i < bought_list.length; i++) {\n            if (\n                keccak256(abi.encodePacked(_ipfsHash)) ==\n                keccak256(abi.encodePacked(bought_list[i]))\n            ) {\n                return true;\n            }\n        }\n\n        return false;\n    }\n\n    function musicExists(string memory _name, string memory _artist) \n        public \n        view\n        returns (bool)\n    {\n        Music memory _music = music[_name][_artist];\n        address _uploader = _music.uploader;\n        bool exists = _uploader != address(0);\n        return exists;\n    }\n\n    // upload music to the blockchain\n    function uploadMusic(\n        string memory _ipfsHash,\n        string memory _name,\n        string memory _artist,\n        string memory _coverFrom\n    ) public {\n        Music memory _music =\n            Music(\n                msg.sender,\n                block.timestamp,\n                1,\n                _name,\n                _artist,\n                _ipfsHash,\n                _coverFrom\n            );\n\n        // Global state update\n        musics.push(_music);\n        music[_name][_artist] = _music;\n        music_hash[_ipfsHash] = _music;\n        music_artist_list[_name].push(_music);\n        artist_music_list[_artist].push(_music);\n\n        // User state update\n        users[msg.sender].upload_music_list.push(_ipfsHash);\n    }\n\n    function uploadMusic_batch(\n        string memory _ipfsHash,\n        string memory _name,\n        string memory _artist,\n        string memory _coverFrom,\n        address uploader_addr\n    ) public {\n        Music memory _music =\n            Music(\n                uploader_addr,\n                block.timestamp,\n                0,\n                _name,\n                _artist,\n                _ipfsHash,\n                _coverFrom\n            );\n\n        // Global state update\n        musics.push(_music);\n        music[_name][_artist] = _music;\n        music_hash[_ipfsHash] = _music;\n        music_artist_list[_name].push(_music);\n        artist_music_list[_artist].push(_music);\n\n        // User state update\n        users[uploader_addr].upload_music_list.push(_ipfsHash);\n    }\n\n    function getMusic(string memory _name, string memory _artist)\n        public\n        view\n        returns (Music memory)\n    {\n        Music memory _music = music[_name][_artist];\n\n        return _music;\n    }\n\n    // function searchMusic(string memory _name, string memory _artist)\n    //     public\n    //     view\n    //     returns (Music[] memory)\n    // {\n    //     Music[] memory returnList = new Music[](musics.length);\n    //     uint ind = 0;\n    //     for (uint i=0; i<musics.length; i++) {\n    //         if (str_contains(_name,musics[i].name) || str_contains(_artist,musics[i].artist))\n    //         {\n    //             returnList[ind] = musics[i];\n    //             i = i + 1;\n    //         }\n    //     }\n    //     return returnList;\n    // }\n\n    function getMusicByHash(string memory _ipfsHash)\n        public\n        view\n        returns (Music memory)\n    {\n        Music memory _music = music_hash[_ipfsHash];\n\n        return _music;\n    }\n\n    function getMusicArtistList(string memory _name)\n        public\n        view\n        returns (Music[] memory)\n    {\n        Music[] memory _music_list = music_artist_list[_name];\n\n        return _music_list;\n    }\n\n    function getArtistMusicList(string memory _artist)\n        public\n        view\n        returns (Music[] memory)\n    {\n        Music[] memory _artist_music_list = artist_music_list[_artist];\n\n        return _artist_music_list;\n    }       \n\n    function buyMusicByHash(string memory _ipfsHash) public {\n        address sender = msg.sender;\n        Music memory _music = music_hash[_ipfsHash];\n        string memory songHash = _ipfsHash;\n        address uploader = _music.uploader;\n        uint8[7] memory chain = [100, 50, 25, 12, 6, 3, 1];\n        uint256 count = 0;\n\n        // Uploader can listen to what he uploaded\n        if (findUploadMusic(songHash)) return;\n\n        // Buyer will not pay twice\n        if (findBoughtMusic(songHash)) return;\n\n        while (true) {\n            // The depth excee the limit\n            if (count >= 7) {\n                break;\n            }\n\n            // Send token only if the \n            if (\n                !(keccak256(abi.encodePacked(sender)) ==\n                keccak256(abi.encodePacked(uploader)))\n            ) {\n                transferTokenFrom(sender, uploader, chain[count]);\n            }\n            // hit the end of the chain\n            if (\n                keccak256(abi.encodePacked((_music.coverFrom))) ==\n                keccak256(abi.encodePacked((\"None\")))\n            ) {\n                break;\n            }\n\n            sender = uploader;\n            _music = music_hash[_music.coverFrom];\n            uploader = _music.uploader;\n\n            count++;\n        }\n\n        // add music to listener list\n        users[msg.sender].bought_music_list.push(songHash);\n    }\n\n    // function getMusicChain(\n    //     string memory _name,\n    //     string memory _artist,\n    //     uint8 depth\n    // ) public view returns (Music[] memory) {\n    //     Music memory _music = music[_name][_artist];\n    //     uint256 count = 0;\n    //     Music[] memory music_chain = new Music[](depth);\n\n    //     // transfer token to uploader at the beginning of the chain\n\n    //     while (true) {\n    //         // The depth excee the limit\n    //         if (count >= depth) {\n    //             break;\n    //         }\n    //         music_chain[count] = _music;\n    //         // hit the end of the chain\n    //         if (\n    //             keccak256(abi.encodePacked((_music.coverFrom))) ==\n    //             keccak256(abi.encodePacked((\"None\")))\n    //         ) {\n    //             break;\n    //         }\n\n    //         _music = music_hash[_music.coverFrom];\n\n    //         count++;\n    //     }\n\n    //     return music_chain;\n    // }\n\n    function getMusicChainByHash(string memory _ipfsHash, uint8 depth)\n        public\n        view\n        returns (Music[] memory)\n    {\n        Music memory _music = music_hash[_ipfsHash];\n        uint256 count = 0;\n        Music[] memory music_chain = new Music[](depth);\n\n        while (true) {\n            // The depth excee the limit\n            if (count >= depth) {\n                break;\n            }\n            music_chain[count] = _music;\n            // hit the end of the chain\n            if (\n                keccak256(abi.encodePacked((_music.coverFrom))) ==\n                keccak256(abi.encodePacked((\"None\")))\n            ) {\n                break;\n            }\n\n            _music = music_hash[_music.coverFrom];\n\n            count++;\n        }\n\n        return music_chain;\n    }\n\n    // function getRelevantMusicNameList(string memory _name, uint _index, uint depth) \n    //     public \n    //     view \n    //     returns (Music[10] memory, uint, bool) \n    // {\n    //     Music[10] memory returnList;\n    //     uint returnIndex = 0;\n    //     bool reachEnd = false;\n    //     Music memory _music;\n    //     uint index = _index;\n        \n    //     for(uint i = _index; i < musics.length; i++) {\n    //         if(returnIndex >= depth) break;\n    //         _music = musics[i];\n\n    //         // if a music name contains input name, put it into return list \n    //         if(str_contains(_name, _music.name)) {\n    //             returnList[returnIndex] = _music;\n    //             returnIndex++;\n    //         }\n\n    //         index++;\n    //     }\n\n    //     // tell frontend we had reach the end of the list\n    //     if (index == musics.length) {\n    //         reachEnd = true;\n    //     }\n\n    //     return (returnList, returnIndex, reachEnd);\n    // }\n\n    // function getRelevantArtistNameList(string memory _artist, uint _index, uint depth) \n    //     public \n    //     view \n    //     returns (Music[10] memory, uint, bool) \n    // {\n    //     Music[10] memory returnList;\n    //     uint returnIndex = 0;\n    //     bool reachEnd = false;\n    //     Music memory _music;\n    //     uint index = _index;\n        \n    //     for(uint i = _index; i < musics.length; i++) {\n    //         if(returnIndex >= depth) break;\n    //         _music = musics[i];\n\n    //         // if a music name contains input name, put it into return list \n    //         if(str_contains(_artist, _music.artist)) {\n    //             returnList[returnIndex] = _music;\n    //             returnIndex++;\n    //         }\n\n    //         index++;\n    //     }\n\n    //     // tell frontend we had reach the end of the list\n    //     if (index == musics.length) {\n    //         reachEnd = true;\n    //     }\n\n    //     return (returnList, returnIndex, reachEnd);\n    // }\n\n    function getRelevantMusicArtistList(string memory _name, string memory _artist, uint _index, uint depth) \n        public \n        view \n        returns (Music[10] memory, uint, bool) \n    {\n        Music[10] memory returnList;\n        uint returnIndex = 0;\n        bool reachEnd = false;\n        Music memory _music;\n        uint index = _index;\n        \n        for(uint i = _index; i < musics.length; i++) {\n            if(returnIndex >= depth) break;\n            _music = musics[i];\n\n            // if a music name contains input name, put it into return list \n            if(str_contains(_name, _music.name) || str_contains(_artist, _music.artist)) {\n                returnList[returnIndex] = _music;\n                returnIndex++;\n            }\n\n            index++;\n        }\n\n        // tell frontend we had reach the end of the list\n        if (index == musics.length) {\n            reachEnd = true;\n        }\n\n        return (returnList, returnIndex, reachEnd);\n    }\n\n    \n\n    // Private methods\n    // check if string contains in other string\n    function str_contains (string memory what, string memory where) private pure returns (bool){\n        bytes memory whatBytes = bytes (what);\n        bytes memory whereBytes = bytes (where);\n        if (keccak256(abi.encodePacked((what))) == keccak256(abi.encodePacked((where))))\n        {\n            return true;\n        }\n        bool found = false;\n        for (uint i = 0; i < whereBytes.length - whatBytes.length; i++) {\n            bool flag = true;\n            for (uint j = 0; j < whatBytes.length; j++)\n                if (whereBytes [i + j] != whatBytes [j]) {\n                    flag = false;\n                    break;\n                }\n            if (flag) {\n                found = true;\n                break;\n            }\n        }\n        return (found);\n    }\n}\n",
  "sourcePath": "/Users/systemato/dev/nmlab-final/music-dapp/react/src/contracts/MusicDApp.sol",
  "compiler": {
    "name": "solc",
    "version": "0.8.0+commit.c7dfd78e.Emscripten.clang"
  },
  "schemaVersion": "3.4.0",
  "updatedAt": "2021-06-25T08:26:46.005Z",
  "networkType": "ethereum",
  "devdoc": {
    "kind": "dev",
    "methods": {},
    "version": 1
  },
  "userdoc": {
    "kind": "user",
    "methods": {},
    "version": 1
  }
}