{
  "contractName": "MusicDApp",
  "abi": [
    {
      "anonymous": false,
      "inputs": [
        {
          "indexed": false,
          "internalType": "uint256",
          "name": "amount",
          "type": "uint256"
        }
      ],
      "name": "Bought",
      "type": "event"
    },
    {
      "anonymous": false,
      "inputs": [
        {
          "indexed": false,
          "internalType": "uint256",
          "name": "amount",
          "type": "uint256"
        }
      ],
      "name": "Sold",
      "type": "event"
    },
    {
      "inputs": [],
      "name": "buy",
      "outputs": [],
      "stateMutability": "payable",
      "type": "function",
      "payable": true
    },
    {
      "inputs": [],
      "name": "exchange_rate",
      "outputs": [
        {
          "internalType": "uint256",
          "name": "",
          "type": "uint256"
        }
      ],
      "stateMutability": "view",
      "type": "function",
      "constant": true
    },
    {
      "inputs": [
        {
          "internalType": "uint256",
          "name": "amount",
          "type": "uint256"
        }
      ],
      "name": "sell",
      "outputs": [],
      "stateMutability": "nonpayable",
      "type": "function"
    },
    {
      "inputs": [],
      "name": "token",
      "outputs": [
        {
          "internalType": "contract IERC20",
          "name": "",
          "type": "address"
        }
      ],
      "stateMutability": "view",
      "type": "function",
      "constant": true
    },
    {
      "inputs": [
        {
          "internalType": "address",
          "name": "sender",
          "type": "address"
        },
        {
          "internalType": "address",
          "name": "receiver",
          "type": "address"
        },
        {
          "internalType": "uint256",
          "name": "amount",
          "type": "uint256"
        }
      ],
      "name": "transferToken",
      "outputs": [],
      "stateMutability": "nonpayable",
      "type": "function"
    },
    {
      "inputs": [],
      "name": "login",
      "outputs": [
        {
          "internalType": "string[]",
          "name": "",
          "type": "string[]"
        }
      ],
      "stateMutability": "nonpayable",
      "type": "function"
    },
    {
      "inputs": [],
      "name": "getUploadMusicList",
      "outputs": [
        {
          "internalType": "string[]",
          "name": "",
          "type": "string[]"
        }
      ],
      "stateMutability": "view",
      "type": "function",
      "constant": true
    },
    {
      "inputs": [],
      "name": "getBoughtMusicList",
      "outputs": [
        {
          "internalType": "string[]",
          "name": "",
          "type": "string[]"
        }
      ],
      "stateMutability": "view",
      "type": "function",
      "constant": true
    },
    {
      "inputs": [],
      "name": "getUserInfo",
      "outputs": [
        {
          "components": [
            {
              "internalType": "string[]",
              "name": "upload_music_list",
              "type": "string[]"
            },
            {
              "internalType": "string[]",
              "name": "bought_music_list",
              "type": "string[]"
            },
            {
              "internalType": "bool",
              "name": "isValid",
              "type": "bool"
            }
          ],
          "internalType": "struct MusicDApp.User",
          "name": "",
          "type": "tuple"
        }
      ],
      "stateMutability": "view",
      "type": "function",
      "constant": true
    },
    {
      "inputs": [],
      "name": "getUserBalance",
      "outputs": [
        {
          "internalType": "uint256",
          "name": "",
          "type": "uint256"
        }
      ],
      "stateMutability": "view",
      "type": "function",
      "constant": true
    },
    {
      "inputs": [
        {
          "internalType": "string",
          "name": "_ipfsHash",
          "type": "string"
        }
      ],
      "name": "findUploadMusic",
      "outputs": [
        {
          "internalType": "bool",
          "name": "",
          "type": "bool"
        }
      ],
      "stateMutability": "view",
      "type": "function",
      "constant": true
    },
    {
      "inputs": [
        {
          "internalType": "string",
          "name": "_ipfsHash",
          "type": "string"
        }
      ],
      "name": "findBoughtMusic",
      "outputs": [
        {
          "internalType": "bool",
          "name": "",
          "type": "bool"
        }
      ],
      "stateMutability": "view",
      "type": "function",
      "constant": true
    },
    {
      "inputs": [
        {
          "internalType": "string",
          "name": "_ipfsHash",
          "type": "string"
        },
        {
          "internalType": "string",
          "name": "_name",
          "type": "string"
        },
        {
          "internalType": "string",
          "name": "_artist",
          "type": "string"
        },
        {
          "internalType": "string",
          "name": "_coverFrom",
          "type": "string"
        }
      ],
      "name": "uploadMusic",
      "outputs": [],
      "stateMutability": "nonpayable",
      "type": "function"
    },
    {
      "inputs": [
        {
          "internalType": "string",
          "name": "_name",
          "type": "string"
        },
        {
          "internalType": "string",
          "name": "_artist",
          "type": "string"
        }
      ],
      "name": "getMusic",
      "outputs": [
        {
          "components": [
            {
              "internalType": "address",
              "name": "uploader",
              "type": "address"
            },
            {
              "internalType": "uint256",
              "name": "uploadTime",
              "type": "uint256"
            },
            {
              "internalType": "uint256",
              "name": "count",
              "type": "uint256"
            },
            {
              "internalType": "string",
              "name": "name",
              "type": "string"
            },
            {
              "internalType": "string",
              "name": "artist",
              "type": "string"
            },
            {
              "internalType": "string",
              "name": "ipfsHash",
              "type": "string"
            },
            {
              "internalType": "string",
              "name": "coverFrom",
              "type": "string"
            }
          ],
          "internalType": "struct MusicDApp.Music",
          "name": "",
          "type": "tuple"
        }
      ],
      "stateMutability": "view",
      "type": "function",
      "constant": true
    },
    {
      "inputs": [
        {
          "internalType": "string",
          "name": "_ipfsHash",
          "type": "string"
        }
      ],
      "name": "getMusicByHash",
      "outputs": [
        {
          "components": [
            {
              "internalType": "address",
              "name": "uploader",
              "type": "address"
            },
            {
              "internalType": "uint256",
              "name": "uploadTime",
              "type": "uint256"
            },
            {
              "internalType": "uint256",
              "name": "count",
              "type": "uint256"
            },
            {
              "internalType": "string",
              "name": "name",
              "type": "string"
            },
            {
              "internalType": "string",
              "name": "artist",
              "type": "string"
            },
            {
              "internalType": "string",
              "name": "ipfsHash",
              "type": "string"
            },
            {
              "internalType": "string",
              "name": "coverFrom",
              "type": "string"
            }
          ],
          "internalType": "struct MusicDApp.Music",
          "name": "",
          "type": "tuple"
        }
      ],
      "stateMutability": "view",
      "type": "function",
      "constant": true
    },
    {
      "inputs": [
        {
          "internalType": "string",
          "name": "_name",
          "type": "string"
        },
        {
          "internalType": "string",
          "name": "_artist",
          "type": "string"
        }
      ],
      "name": "getMusicWithCountIncrement",
      "outputs": [
        {
          "components": [
            {
              "internalType": "address",
              "name": "uploader",
              "type": "address"
            },
            {
              "internalType": "uint256",
              "name": "uploadTime",
              "type": "uint256"
            },
            {
              "internalType": "uint256",
              "name": "count",
              "type": "uint256"
            },
            {
              "internalType": "string",
              "name": "name",
              "type": "string"
            },
            {
              "internalType": "string",
              "name": "artist",
              "type": "string"
            },
            {
              "internalType": "string",
              "name": "ipfsHash",
              "type": "string"
            },
            {
              "internalType": "string",
              "name": "coverFrom",
              "type": "string"
            }
          ],
          "internalType": "struct MusicDApp.Music",
          "name": "",
          "type": "tuple"
        }
      ],
      "stateMutability": "nonpayable",
      "type": "function"
    },
    {
      "inputs": [
        {
          "internalType": "string",
          "name": "_name",
          "type": "string"
        }
      ],
      "name": "getMusicArtistList",
      "outputs": [
        {
          "components": [
            {
              "internalType": "address",
              "name": "uploader",
              "type": "address"
            },
            {
              "internalType": "uint256",
              "name": "uploadTime",
              "type": "uint256"
            },
            {
              "internalType": "uint256",
              "name": "count",
              "type": "uint256"
            },
            {
              "internalType": "string",
              "name": "name",
              "type": "string"
            },
            {
              "internalType": "string",
              "name": "artist",
              "type": "string"
            },
            {
              "internalType": "string",
              "name": "ipfsHash",
              "type": "string"
            },
            {
              "internalType": "string",
              "name": "coverFrom",
              "type": "string"
            }
          ],
          "internalType": "struct MusicDApp.Music[]",
          "name": "",
          "type": "tuple[]"
        }
      ],
      "stateMutability": "view",
      "type": "function",
      "constant": true
    },
    {
      "inputs": [
        {
          "internalType": "string",
          "name": "_artist",
          "type": "string"
        }
      ],
      "name": "getArtistMusicList",
      "outputs": [
        {
          "components": [
            {
              "internalType": "address",
              "name": "uploader",
              "type": "address"
            },
            {
              "internalType": "uint256",
              "name": "uploadTime",
              "type": "uint256"
            },
            {
              "internalType": "uint256",
              "name": "count",
              "type": "uint256"
            },
            {
              "internalType": "string",
              "name": "name",
              "type": "string"
            },
            {
              "internalType": "string",
              "name": "artist",
              "type": "string"
            },
            {
              "internalType": "string",
              "name": "ipfsHash",
              "type": "string"
            },
            {
              "internalType": "string",
              "name": "coverFrom",
              "type": "string"
            }
          ],
          "internalType": "struct MusicDApp.Music[]",
          "name": "",
          "type": "tuple[]"
        }
      ],
      "stateMutability": "view",
      "type": "function",
      "constant": true
    },
    {
      "inputs": [
        {
          "internalType": "string",
          "name": "_name",
          "type": "string"
        },
        {
          "internalType": "string",
          "name": "_artist",
          "type": "string"
        }
      ],
      "name": "buyMusic",
      "outputs": [],
      "stateMutability": "nonpayable",
      "type": "function"
    },
    {
      "inputs": [
        {
          "internalType": "string",
          "name": "_ipfsHash",
          "type": "string"
        }
      ],
      "name": "buyMusicByHash",
      "outputs": [],
      "stateMutability": "nonpayable",
      "type": "function"
    },
    {
      "inputs": [
        {
          "internalType": "string",
          "name": "_name",
          "type": "string"
        },
        {
          "internalType": "string",
          "name": "_artist",
          "type": "string"
        },
        {
          "internalType": "uint8",
          "name": "depth",
          "type": "uint8"
        }
      ],
      "name": "getMusicChain",
      "outputs": [
        {
          "components": [
            {
              "internalType": "address",
              "name": "uploader",
              "type": "address"
            },
            {
              "internalType": "uint256",
              "name": "uploadTime",
              "type": "uint256"
            },
            {
              "internalType": "uint256",
              "name": "count",
              "type": "uint256"
            },
            {
              "internalType": "string",
              "name": "name",
              "type": "string"
            },
            {
              "internalType": "string",
              "name": "artist",
              "type": "string"
            },
            {
              "internalType": "string",
              "name": "ipfsHash",
              "type": "string"
            },
            {
              "internalType": "string",
              "name": "coverFrom",
              "type": "string"
            }
          ],
          "internalType": "struct MusicDApp.Music[]",
          "name": "",
          "type": "tuple[]"
        }
      ],
      "stateMutability": "view",
      "type": "function",
      "constant": true
    },
    {
      "inputs": [
        {
          "internalType": "string",
          "name": "_ipfsHash",
          "type": "string"
        },
        {
          "internalType": "uint8",
          "name": "depth",
          "type": "uint8"
        }
      ],
      "name": "getMusicChainByHash",
      "outputs": [
        {
          "components": [
            {
              "internalType": "address",
              "name": "uploader",
              "type": "address"
            },
            {
              "internalType": "uint256",
              "name": "uploadTime",
              "type": "uint256"
            },
            {
              "internalType": "uint256",
              "name": "count",
              "type": "uint256"
            },
            {
              "internalType": "string",
              "name": "name",
              "type": "string"
            },
            {
              "internalType": "string",
              "name": "artist",
              "type": "string"
            },
            {
              "internalType": "string",
              "name": "ipfsHash",
              "type": "string"
            },
            {
              "internalType": "string",
              "name": "coverFrom",
              "type": "string"
            }
          ],
          "internalType": "struct MusicDApp.Music[]",
          "name": "",
          "type": "tuple[]"
        }
      ],
      "stateMutability": "view",
      "type": "function",
      "constant": true
    }
  ],
  "bytecode": "0x60806040526103e86001553480156200001757600080fd5b5060405162000026906200006a565b604051809103906000f08015801562000043573d6000803e3d6000fd5b5060008054600160a060020a031916600160a060020a039290921691909117905562000078565b6106f080620049d683390190565b61494e80620000886000396000f3fe6080604052600436106101395760003560e060020a90048063a6f2ae3a116100af578063e4849b3211610073578063e4849b321461033d578063e90fd8e71461035d578063f5537ede1461037d578063f7f6bd7f1461039d578063fc0c546a146103bd578063fdf74325146103df57610139565b8063a6f2ae3a146102cb578063b1ddeab0146102d3578063b34e97e8146102f3578063b7013dc114610308578063e41bfe6e1461031d57610139565b806370d97eca1161010157806370d97eca146102075780637fb954481461022957806380f3de65146102495780638aa4342c146102765780639146436b1461028b57806393154af7146102ab57610139565b8063171ef0b21461013e5780631f4b04ea14610169578063209af2dd146101965780635d8d1585146101c357806360b377b8146101e5575b600080fd5b34801561014a57600080fd5b506101536103ff565b60405161016091906147fe565b60405180910390f35b34801561017557600080fd5b506101896101843660046141f6565b610405565b6040516101609190614799565b3480156101a257600080fd5b506101b66101b13660046141bb565b610724565b6040516101609190614604565b3480156101cf57600080fd5b506101d8610a19565b60405161016091906147ac565b3480156101f157600080fd5b506101fa610bfc565b60405161016091906145a4565b34801561021357600080fd5b506102276102223660046141f6565b610ce0565b005b34801561023557600080fd5b506101896102443660046141f6565b6113b7565b34801561025557600080fd5b506102696102643660046141bb565b6113d1565b6040516101609190614657565b34801561028257600080fd5b506101fa61165e565b34801561029757600080fd5b506101896102a63660046141bb565b61173c565b3480156102b757600080fd5b506101b66102c6366004614370565b6119e9565b61022761204b565b3480156102df57600080fd5b506102276102ee366004614257565b6121f3565b3480156102ff57600080fd5b506101fa6126f4565b34801561031457600080fd5b50610153612960565b34801561032957600080fd5b506102276103383660046141bb565b6129e9565b34801561034957600080fd5b506102276103583660046143bc565b613088565b34801561036957600080fd5b506101b66103783660046141bb565b613261565b34801561038957600080fd5b50610227610398366004614159565b613548565b3480156103a957600080fd5b506102696103b83660046141bb565b61369d565b3480156103c957600080fd5b506103d2613920565b6040516101609190614539565b3480156103eb57600080fd5b506101b66103fa3660046142ff565b61392f565b60015481565b61040d613fae565b600160058460405161041f91906144f4565b90815260200160405180910390208360405161043b91906144f4565b9081526020016040518091039020600201600082825461045b9190614807565b92505081905550600060058460405161047491906144f4565b90815260200160405180910390208360405161049091906144f4565b90815260408051918290036020908101832060e0840183528054600160a060020a031684526001810154918401919091526002810154918301919091526003810180546060840191906104e29061488d565b80601f016020809104026020016040519081016040528092919081815260200182805461050e9061488d565b801561055b5780601f106105305761010080835404028352916020019161055b565b820191906000526020600020905b81548152906001019060200180831161053e57829003601f168201915b505050505081526020016004820180546105749061488d565b80601f01602080910402602001604051908101604052809291908181526020018280546105a09061488d565b80156105ed5780601f106105c2576101008083540402835291602001916105ed565b820191906000526020600020905b8154815290600101906020018083116105d057829003601f168201915b505050505081526020016005820180546106069061488d565b80601f01602080910402602001604051908101604052809291908181526020018280546106329061488d565b801561067f5780601f106106545761010080835404028352916020019161067f565b820191906000526020600020905b81548152906001019060200180831161066257829003601f168201915b505050505081526020016006820180546106989061488d565b80601f01602080910402602001604051908101604052809291908181526020018280546106c49061488d565b80156107115780601f106106e657610100808354040283529160200191610711565b820191906000526020600020905b8154815290600101906020018083116106f457829003601f168201915b5050509190925250919695505050505050565b6060600060068360405161073891906144f4565b9081526020016040518091039020805480602002602001604051908101604052809291908181526020016000905b82821015610a0b5760008481526020908190206040805160e081018252600786029092018054600160a060020a031683526001810154938301939093526002830154908201526003820180549192916060840191906107c49061488d565b80601f01602080910402602001604051908101604052809291908181526020018280546107f09061488d565b801561083d5780601f106108125761010080835404028352916020019161083d565b820191906000526020600020905b81548152906001019060200180831161082057829003601f168201915b505050505081526020016004820180546108569061488d565b80601f01602080910402602001604051908101604052809291908181526020018280546108829061488d565b80156108cf5780601f106108a4576101008083540402835291602001916108cf565b820191906000526020600020905b8154815290600101906020018083116108b257829003601f168201915b505050505081526020016005820180546108e89061488d565b80601f01602080910402602001604051908101604052809291908181526020018280546109149061488d565b80156109615780601f1061093657610100808354040283529160200191610961565b820191906000526020600020905b81548152906001019060200180831161094457829003601f168201915b5050505050815260200160068201805461097a9061488d565b80601f01602080910402602001604051908101604052809291908181526020018280546109a69061488d565b80156109f35780601f106109c8576101008083540402835291602001916109f3565b820191906000526020600020905b8154815290600101906020018083116109d657829003601f168201915b50505050508152505081526020019060010190610766565b50929450505050505b919050565b610a21613ff4565b3360009081526003602090815260408083208151815460809481028201850190935260608101838152909491938593919285929185015b82821015610b04578382906000526020600020018054610a779061488d565b80601f0160208091040260200160405190810160405280929190818152602001828054610aa39061488d565b8015610af05780601f10610ac557610100808354040283529160200191610af0565b820191906000526020600020905b815481529060010190602001808311610ad357829003601f168201915b505050505081526020019060010190610a58565b50505050815260200160018201805480602002602001604051908101604052809291908181526020016000905b82821015610bdd578382906000526020600020018054610b509061488d565b80601f0160208091040260200160405190810160405280929190818152602001828054610b7c9061488d565b8015610bc95780601f10610b9e57610100808354040283529160200191610bc9565b820191906000526020600020905b815481529060010190602001808311610bac57829003601f168201915b505050505081526020019060010190610b31565b505050908252506002919091015460ff16151560209091015290505b90565b336000908152600360209081526040808320805482518185028101850190935280835260609492939192909184015b82821015610cd7578382906000526020600020018054610c4a9061488d565b80601f0160208091040260200160405190810160405280929190818152602001828054610c769061488d565b8015610cc35780601f10610c9857610100808354040283529160200191610cc3565b820191906000526020600020905b815481529060010190602001808311610ca657829003601f168201915b505050505081526020019060010190610c2b565b50505050905090565b60003390506000600584604051610cf791906144f4565b908152602001604051809103902083604051610d1391906144f4565b90815260408051918290036020908101832060e0840183528054600160a060020a03168452600181015491840191909152600281015491830191909152600381018054606084019190610d659061488d565b80601f0160208091040260200160405190810160405280929190818152602001828054610d919061488d565b8015610dde5780601f10610db357610100808354040283529160200191610dde565b820191906000526020600020905b815481529060010190602001808311610dc157829003601f168201915b50505050508152602001600482018054610df79061488d565b80601f0160208091040260200160405190810160405280929190818152602001828054610e239061488d565b8015610e705780601f10610e4557610100808354040283529160200191610e70565b820191906000526020600020905b815481529060010190602001808311610e5357829003601f168201915b50505050508152602001600582018054610e899061488d565b80601f0160208091040260200160405190810160405280929190818152602001828054610eb59061488d565b8015610f025780601f10610ed757610100808354040283529160200191610f02565b820191906000526020600020905b815481529060010190602001808311610ee557829003601f168201915b50505050508152602001600682018054610f1b9061488d565b80601f0160208091040260200160405190810160405280929190818152602001828054610f479061488d565b8015610f945780601f10610f6957610100808354040283529160200191610f94565b820191906000526020600020905b815481529060010190602001808311610f7757829003601f168201915b5050509190925250505060a08082015182516040805160e0810182526064815260326020820152601991810191909152600c606082015260066080820152600393810193909352600160c084015292935091906000610ff2846113d1565b15611002575050505050506113b3565b61100b8461369d565b1561101b575050505050506113b3565b6007811061102857611375565b61105d86848484600781106110505760e060020a634e487b7102600052603260045260246000fd5b602002015160ff16613548565b60405160200161106c90614510565b604051602081830303815290604052805190602001208560c0015160405160200161109791906144f4565b6040516020818303038152906040528051906020012014156110b857611375565b82955060048560c001516040516110cf91906144f4565b90815260408051918290036020908101832060e0840183528054600160a060020a031684526001810154918401919091526002810154918301919091526003810180546060840191906111219061488d565b80601f016020809104026020016040519081016040528092919081815260200182805461114d9061488d565b801561119a5780601f1061116f5761010080835404028352916020019161119a565b820191906000526020600020905b81548152906001019060200180831161117d57829003601f168201915b505050505081526020016004820180546111b39061488d565b80601f01602080910402602001604051908101604052809291908181526020018280546111df9061488d565b801561122c5780601f106112015761010080835404028352916020019161122c565b820191906000526020600020905b81548152906001019060200180831161120f57829003601f168201915b505050505081526020016005820180546112459061488d565b80601f01602080910402602001604051908101604052809291908181526020018280546112719061488d565b80156112be5780601f10611293576101008083540402835291602001916112be565b820191906000526020600020905b8154815290600101906020018083116112a157829003601f168201915b505050505081526020016006820180546112d79061488d565b80601f01602080910402602001604051908101604052809291908181526020018280546113039061488d565b80156113505780601f1061132557610100808354040283529160200191611350565b820191906000526020600020905b81548152906001019060200180831161133357829003601f168201915b505050505081525050945084600001519250808061136d906148cb565b91505061101b565b336000908152600360209081526040822060019081018054918201815583529181902086516113ab939190910191870190614017565b505050505050505b5050565b6113bf613fae565b600060058460405161047491906144f4565b3360009081526003602090815260408083208151815460809481028201850190935260608101838152859491938492849190879085015b828210156114b45783829060005260206000200180546114279061488d565b80601f01602080910402602001604051908101604052809291908181526020018280546114539061488d565b80156114a05780601f10611475576101008083540402835291602001916114a0565b820191906000526020600020905b81548152906001019060200180831161148357829003601f168201915b505050505081526020019060010190611408565b50505050815260200160018201805480602002602001604051908101604052809291908181526020016000905b8282101561158d5783829060005260206000200180546115009061488d565b80601f016020809104026020016040519081016040528092919081815260200182805461152c9061488d565b80156115795780601f1061154e57610100808354040283529160200191611579565b820191906000526020600020905b81548152906001019060200180831161155c57829003601f168201915b5050505050815260200190600101906114e1565b505050908252506002919091015460ff161515602090910152805190915060005b8151811015611653578181815181106115da5760e060020a634e487b7102600052603260045260246000fd5b60200260200101516040516020016115f291906144f4565b604051602081830303815290604052805190602001208560405160200161161991906144f4565b6040516020818303038152906040528051906020012014156116415760019350505050610a14565b8061164b816148cb565b9150506115ae565b506000949350505050565b336000908152600360209081526040808320600101805482518185028101850190935280835260609492939192909184015b82821015610cd75783829060005260206000200180546116af9061488d565b80601f01602080910402602001604051908101604052809291908181526020018280546116db9061488d565b80156117285780601f106116fd57610100808354040283529160200191611728565b820191906000526020600020905b81548152906001019060200180831161170b57829003601f168201915b505050505081526020019060010190611690565b611744613fae565b600060048360405161175691906144f4565b90815260408051918290036020908101832060e0840183528054600160a060020a031684526001810154918401919091526002810154918301919091526003810180546060840191906117a89061488d565b80601f01602080910402602001604051908101604052809291908181526020018280546117d49061488d565b80156118215780601f106117f657610100808354040283529160200191611821565b820191906000526020600020905b81548152906001019060200180831161180457829003601f168201915b5050505050815260200160048201805461183a9061488d565b80601f01602080910402602001604051908101604052809291908181526020018280546118669061488d565b80156118b35780601f10611888576101008083540402835291602001916118b3565b820191906000526020600020905b81548152906001019060200180831161189657829003601f168201915b505050505081526020016005820180546118cc9061488d565b80601f01602080910402602001604051908101604052809291908181526020018280546118f89061488d565b80156119455780601f1061191a57610100808354040283529160200191611945565b820191906000526020600020905b81548152906001019060200180831161192857829003601f168201915b5050505050815260200160068201805461195e9061488d565b80601f016020809104026020016040519081016040528092919081815260200182805461198a9061488d565b80156119d75780601f106119ac576101008083540402835291602001916119d7565b820191906000526020600020905b8154815290600101906020018083116119ba57829003601f168201915b50505091909252509195945050505050565b606060006004846040516119fd91906144f4565b90815260408051918290036020908101832060e0840183528054600160a060020a03168452600181015491840191909152600281015491830191909152600381018054606084019190611a4f9061488d565b80601f0160208091040260200160405190810160405280929190818152602001828054611a7b9061488d565b8015611ac85780601f10611a9d57610100808354040283529160200191611ac8565b820191906000526020600020905b815481529060010190602001808311611aab57829003601f168201915b50505050508152602001600482018054611ae19061488d565b80601f0160208091040260200160405190810160405280929190818152602001828054611b0d9061488d565b8015611b5a5780601f10611b2f57610100808354040283529160200191611b5a565b820191906000526020600020905b815481529060010190602001808311611b3d57829003601f168201915b50505050508152602001600582018054611b739061488d565b80601f0160208091040260200160405190810160405280929190818152602001828054611b9f9061488d565b8015611bec5780601f10611bc157610100808354040283529160200191611bec565b820191906000526020600020905b815481529060010190602001808311611bcf57829003601f168201915b50505050508152602001600682018054611c059061488d565b80601f0160208091040260200160405190810160405280929190818152602001828054611c319061488d565b8015611c7e5780601f10611c5357610100808354040283529160200191611c7e565b820191906000526020600020905b815481529060010190602001808311611c6157829003601f168201915b50505050508152505090506000808460ff1667ffffffffffffffff811115611cb95760e060020a634e487b7102600052604160045260246000fd5b604051908082528060200260200182016040528015611cf257816020015b611cdf613fae565b815260200190600190039081611cd75790505b5090505b8460ff168210611d0557612042565b82818381518110611d295760e060020a634e487b7102600052603260045260246000fd5b6020026020010181905250604051602001611d4390614510565b604051602081830303815290604052805190602001208360c00151604051602001611d6e91906144f4565b604051602081830303815290604052805190602001201415611d8f57612042565b60048360c00151604051611da391906144f4565b90815260408051918290036020908101832060e0840183528054600160a060020a03168452600181015491840191909152600281015491830191909152600381018054606084019190611df59061488d565b80601f0160208091040260200160405190810160405280929190818152602001828054611e219061488d565b8015611e6e5780601f10611e4357610100808354040283529160200191611e6e565b820191906000526020600020905b815481529060010190602001808311611e5157829003601f168201915b50505050508152602001600482018054611e879061488d565b80601f0160208091040260200160405190810160405280929190818152602001828054611eb39061488d565b8015611f005780601f10611ed557610100808354040283529160200191611f00565b820191906000526020600020905b815481529060010190602001808311611ee357829003601f168201915b50505050508152602001600582018054611f199061488d565b80601f0160208091040260200160405190810160405280929190818152602001828054611f459061488d565b8015611f925780601f10611f6757610100808354040283529160200191611f92565b820191906000526020600020905b815481529060010190602001808311611f7557829003601f168201915b50505050508152602001600682018054611fab9061488d565b80601f0160208091040260200160405190810160405280929190818152602001828054611fd79061488d565b80156120245780601f10611ff957610100808354040283529160200191612024565b820191906000526020600020905b81548152906001019060200180831161200757829003601f168201915b5050505050815250509250818061203a906148cb565b925050611cf6565b95945050505050565b6000805460405160e060020a6370a08231028152349291600160a060020a0316906370a0823190612080903090600401614539565b60206040518083038186803b15801561209857600080fd5b505afa1580156120ac573d6000803e3d6000fd5b505050506040513d601f19601f820116820180604052508101906120d091906143d4565b9050600082116120fe5760405160e560020a62461bcd0281526004016120f590614662565b60405180910390fd5b808211156121215760405160e560020a62461bcd0281526004016120f59061472d565b600054600154600160a060020a039091169063a9059cbb9033906121459086614842565b6040518363ffffffff1660e060020a02815260040161216592919061458b565b602060405180830381600087803b15801561217f57600080fd5b505af1158015612193573d6000803e3d6000fd5b505050506040513d601f19601f820116820180604052508101906121b79190614194565b507f4e08ba899977cf7d4c2964bce71c6b9a7ef76ee5166a4c1249a1e08016e33ef1826040516121e791906147fe565b60405180910390a15050565b33600090815260036020908152604082208054600181018255908352918190208651612226939190910191870190614017565b506040805160e0810182523381524260208083019182526000938301848152606084018881526080850188905260a085018a905260c0850187905260028054600181018255965284517f405787fa12a823e0f2b7631cc41b3ba8828b3321ca811111fa75cd3aa3bb5ace60079097029687018054600160a060020a031916600160a060020a0390921691909117815593517f405787fa12a823e0f2b7631cc41b3ba8828b3321ca811111fa75cd3aa3bb5acf87015590517f405787fa12a823e0f2b7631cc41b3ba8828b3321ca811111fa75cd3aa3bb5ad08601555180519394859461233a937f405787fa12a823e0f2b7631cc41b3ba8828b3321ca811111fa75cd3aa3bb5ad19092019290910190614017565b5060808201518051612356916004840191602090910190614017565b5060a08201518051612372916005840191602090910190614017565b5060c0820151805161238e916006840191602090910190614017565b505050806005856040516123a291906144f4565b9081526020016040518091039020846040516123be91906144f4565b908152604080516020928190038301902083518154600160a060020a031916600160a060020a0390911617815583830151600182015590830151600282015560608301518051919261241892600385019290910190614017565b5060808201518051612434916004840191602090910190614017565b5060a08201518051612450916005840191602090910190614017565b5060c0820151805161246c916006840191602090910190614017565b509050508060048660405161248191906144f4565b908152604080516020928190038301902083518154600160a060020a031916600160a060020a039091161781558383015160018201559083015160028201556060830151805191926124db92600385019290910190614017565b50608082015180516124f7916004840191602090910190614017565b5060a08201518051612513916005840191602090910190614017565b5060c0820151805161252f916006840191602090910190614017565b5090505060068460405161254391906144f4565b908152604080516020928190038301902080546001808201835560009283529184902085516007909202018054600160a060020a031916600160a060020a0390921691909117815584840151918101919091559083015160028201556060830151805184936125b9926003850192910190614017565b50608082015180516125d5916004840191602090910190614017565b5060a082015180516125f1916005840191602090910190614017565b5060c0820151805161260d916006840191602090910190614017565b50505060078360405161262091906144f4565b908152604080516020928190038301902080546001808201835560009283529184902085516007909202018054600160a060020a031916600160a060020a039092169190911781558484015191810191909155908301516002820155606083015180518493612696926003850192910190614017565b50608082015180516126b2916004840191602090910190614017565b5060a082015180516126ce916005840191602090910190614017565b5060c082015180516126ea916006840191602090910190614017565b5050505050505050565b3360009081526003602052604090206002015460609060ff16156127215761271a610bfc565b9050610bf9565b6000805460405160e060020a6370a08231028152600160a060020a03909116906370a0823190612755903090600401614539565b60206040518083038186803b15801561276d57600080fd5b505afa158015612781573d6000803e3d6000fd5b505050506040513d601f19601f820116820180604052508101906127a591906143d4565b905080606411156127cb5760405160e560020a62461bcd0281526004016120f59061472d565b6000546040517fa9059cbb000000000000000000000000000000000000000000000000000000008152600160a060020a039091169063a9059cbb906128189033906127109060040161458b565b602060405180830381600087803b15801561283257600080fd5b505af1158015612846573d6000803e3d6000fd5b505050506040513d601f19601f8201168201806040525081019061286a9190614194565b5033600090815260036020908152604080832060028101805460ff191660019081179091550180548251818502810185019093528083529193909284015b828210156129545783829060005260206000200180546128c79061488d565b80601f01602080910402602001604051908101604052809291908181526020018280546128f39061488d565b80156129405780601f1061291557610100808354040283529160200191612940565b820191906000526020600020905b81548152906001019060200180831161292357829003601f168201915b5050505050815260200190600101906128a8565b50505050915050610bf9565b6000805460405160e060020a6370a08231028152600160a060020a03909116906370a0823190612994903390600401614539565b60206040518083038186803b1580156129ac57600080fd5b505afa1580156129c0573d6000803e3d6000fd5b505050506040513d601f19601f820116820180604052508101906129e491906143d4565b905090565b60003390506000600483604051612a0091906144f4565b90815260408051918290036020908101832060e0840183528054600160a060020a03168452600181015491840191909152600281015491830191909152600381018054606084019190612a529061488d565b80601f0160208091040260200160405190810160405280929190818152602001828054612a7e9061488d565b8015612acb5780601f10612aa057610100808354040283529160200191612acb565b820191906000526020600020905b815481529060010190602001808311612aae57829003601f168201915b50505050508152602001600482018054612ae49061488d565b80601f0160208091040260200160405190810160405280929190818152602001828054612b109061488d565b8015612b5d5780601f10612b3257610100808354040283529160200191612b5d565b820191906000526020600020905b815481529060010190602001808311612b4057829003601f168201915b50505050508152602001600582018054612b769061488d565b80601f0160208091040260200160405190810160405280929190818152602001828054612ba29061488d565b8015612bef5780601f10612bc457610100808354040283529160200191612bef565b820191906000526020600020905b815481529060010190602001808311612bd257829003601f168201915b50505050508152602001600682018054612c089061488d565b80601f0160208091040260200160405190810160405280929190818152602001828054612c349061488d565b8015612c815780601f10612c5657610100808354040283529160200191612c81565b820191906000526020600020905b815481529060010190602001808311612c6457829003601f168201915b50505091909252505081516040805160e0810182526064815260326020820152601991810191909152600c606082015260066080820152600360a0820152600160c082015292935085929091506000612cd9846113d1565b15612ce957505050505050613085565b612cf28461369d565b15612d0257505050505050613085565b60078110612d0f5761304f565b612d3786848484600781106110505760e060020a634e487b7102600052603260045260246000fd5b604051602001612d4690614510565b604051602081830303815290604052805190602001208560c00151604051602001612d7191906144f4565b604051602081830303815290604052805190602001201415612d925761304f565b82955060048560c00151604051612da991906144f4565b90815260408051918290036020908101832060e0840183528054600160a060020a03168452600181015491840191909152600281015491830191909152600381018054606084019190612dfb9061488d565b80601f0160208091040260200160405190810160405280929190818152602001828054612e279061488d565b8015612e745780601f10612e4957610100808354040283529160200191612e74565b820191906000526020600020905b815481529060010190602001808311612e5757829003601f168201915b50505050508152602001600482018054612e8d9061488d565b80601f0160208091040260200160405190810160405280929190818152602001828054612eb99061488d565b8015612f065780601f10612edb57610100808354040283529160200191612f06565b820191906000526020600020905b815481529060010190602001808311612ee957829003601f168201915b50505050508152602001600582018054612f1f9061488d565b80601f0160208091040260200160405190810160405280929190818152602001828054612f4b9061488d565b8015612f985780601f10612f6d57610100808354040283529160200191612f98565b820191906000526020600020905b815481529060010190602001808311612f7b57829003601f168201915b50505050508152602001600682018054612fb19061488d565b80601f0160208091040260200160405190810160405280929190818152602001828054612fdd9061488d565b801561302a5780601f10612fff5761010080835404028352916020019161302a565b820191906000526020600020905b81548152906001019060200180831161300d57829003601f168201915b5050505050815250509450846000015192508080613047906148cb565b915050612d02565b336000908152600360209081526040822060019081018054918201815583529181902086516126ea939190910191870190614017565b50565b600081116130ab5760405160e560020a62461bcd0281526004016120f590614699565b600080546040517fdd62ed3e000000000000000000000000000000000000000000000000000000008152600160a060020a039091169063dd62ed3e906130f7903390309060040161454d565b60206040518083038186803b15801561310f57600080fd5b505afa158015613123573d6000803e3d6000fd5b505050506040513d601f19601f8201168201806040525081019061314791906143d4565b90508181101561316c5760405160e560020a62461bcd0281526004016120f5906146f6565b60005460405160e060020a6323b872dd028152600160a060020a03909116906323b872dd906131a390339030908790600401614567565b602060405180830381600087803b1580156131bd57600080fd5b505af11580156131d1573d6000803e3d6000fd5b505050506040513d601f19601f820116820180604052508101906131f59190614194565b5060015433906108fc90613209908561481f565b6040518115909202916000818181858888f19350505050158015613231573d6000803e3d6000fd5b507f92f64ca637d023f354075a4be751b169c1a8a9ccb6d33cdd0cb3520543995727826040516121e791906147fe565b6060600060078360405161327591906144f4565b9081526020016040518091039020805480602002602001604051908101604052809291908181526020016000905b82821015610a0b5760008481526020908190206040805160e081018252600786029092018054600160a060020a031683526001810154938301939093526002830154908201526003820180549192916060840191906133019061488d565b80601f016020809104026020016040519081016040528092919081815260200182805461332d9061488d565b801561337a5780601f1061334f5761010080835404028352916020019161337a565b820191906000526020600020905b81548152906001019060200180831161335d57829003601f168201915b505050505081526020016004820180546133939061488d565b80601f01602080910402602001604051908101604052809291908181526020018280546133bf9061488d565b801561340c5780601f106133e15761010080835404028352916020019161340c565b820191906000526020600020905b8154815290600101906020018083116133ef57829003601f168201915b505050505081526020016005820180546134259061488d565b80601f01602080910402602001604051908101604052809291908181526020018280546134519061488d565b801561349e5780601f106134735761010080835404028352916020019161349e565b820191906000526020600020905b81548152906001019060200180831161348157829003601f168201915b505050505081526020016006820180546134b79061488d565b80601f01602080910402602001604051908101604052809291908181526020018280546134e39061488d565b80156135305780601f1061350557610100808354040283529160200191613530565b820191906000526020600020905b81548152906001019060200180831161351357829003601f168201915b505050505081525050815260200190600101906132a3565b6000811161356b5760405160e560020a62461bcd0281526004016120f590614699565b60005460405160e060020a6370a082310281528291600160a060020a0316906370a082319061359e908790600401614539565b60206040518083038186803b1580156135b657600080fd5b505afa1580156135ca573d6000803e3d6000fd5b505050506040513d601f19601f820116820180604052508101906135ee91906143d4565b1161360e5760405160e560020a62461bcd0281526004016120f590614762565b60005460405160e060020a6323b872dd028152600160a060020a03909116906323b872dd9061364590869086908690600401614567565b602060405180830381600087803b15801561365f57600080fd5b505af1158015613673573d6000803e3d6000fd5b505050506040513d601f19601f820116820180604052508101906136979190614194565b50505050565b3360009081526003602090815260408083208151815460809481028201850190935260608101838152859491938492849190879085015b828210156137805783829060005260206000200180546136f39061488d565b80601f016020809104026020016040519081016040528092919081815260200182805461371f9061488d565b801561376c5780601f106137415761010080835404028352916020019161376c565b820191906000526020600020905b81548152906001019060200180831161374f57829003601f168201915b5050505050815260200190600101906136d4565b50505050815260200160018201805480602002602001604051908101604052809291908181526020016000905b828210156138595783829060005260206000200180546137cc9061488d565b80601f01602080910402602001604051908101604052809291908181526020018280546137f89061488d565b80156138455780601f1061381a57610100808354040283529160200191613845565b820191906000526020600020905b81548152906001019060200180831161382857829003601f168201915b5050505050815260200190600101906137ad565b505050908252506002919091015460ff16151560209182015281015190915060005b8151811015611653578181815181106138a75760e060020a634e487b7102600052603260045260246000fd5b60200260200101516040516020016138bf91906144f4565b60405160208183030381529060405280519060200120856040516020016138e691906144f4565b60405160208183030381529060405280519060200120141561390e5760019350505050610a14565b80613918816148cb565b91505061387b565b600054600160a060020a031681565b6060600060058560405161394391906144f4565b90815260200160405180910390208460405161395f91906144f4565b90815260408051918290036020908101832060e0840183528054600160a060020a031684526001810154918401919091526002810154918301919091526003810180546060840191906139b19061488d565b80601f01602080910402602001604051908101604052809291908181526020018280546139dd9061488d565b8015613a2a5780601f106139ff57610100808354040283529160200191613a2a565b820191906000526020600020905b815481529060010190602001808311613a0d57829003601f168201915b50505050508152602001600482018054613a439061488d565b80601f0160208091040260200160405190810160405280929190818152602001828054613a6f9061488d565b8015613abc5780601f10613a9157610100808354040283529160200191613abc565b820191906000526020600020905b815481529060010190602001808311613a9f57829003601f168201915b50505050508152602001600582018054613ad59061488d565b80601f0160208091040260200160405190810160405280929190818152602001828054613b019061488d565b8015613b4e5780601f10613b2357610100808354040283529160200191613b4e565b820191906000526020600020905b815481529060010190602001808311613b3157829003601f168201915b50505050508152602001600682018054613b679061488d565b80601f0160208091040260200160405190810160405280929190818152602001828054613b939061488d565b8015613be05780601f10613bb557610100808354040283529160200191613be0565b820191906000526020600020905b815481529060010190602001808311613bc357829003601f168201915b50505050508152505090506000808460ff1667ffffffffffffffff811115613c1b5760e060020a634e487b7102600052604160045260246000fd5b604051908082528060200260200182016040528015613c5457816020015b613c41613fae565b815260200190600190039081613c395790505b5090505b8460ff168210613c6757613fa4565b82818381518110613c8b5760e060020a634e487b7102600052603260045260246000fd5b6020026020010181905250604051602001613ca590614510565b604051602081830303815290604052805190602001208360c00151604051602001613cd091906144f4565b604051602081830303815290604052805190602001201415613cf157613fa4565b60048360c00151604051613d0591906144f4565b90815260408051918290036020908101832060e0840183528054600160a060020a03168452600181015491840191909152600281015491830191909152600381018054606084019190613d579061488d565b80601f0160208091040260200160405190810160405280929190818152602001828054613d839061488d565b8015613dd05780601f10613da557610100808354040283529160200191613dd0565b820191906000526020600020905b815481529060010190602001808311613db357829003601f168201915b50505050508152602001600482018054613de99061488d565b80601f0160208091040260200160405190810160405280929190818152602001828054613e159061488d565b8015613e625780601f10613e3757610100808354040283529160200191613e62565b820191906000526020600020905b815481529060010190602001808311613e4557829003601f168201915b50505050508152602001600582018054613e7b9061488d565b80601f0160208091040260200160405190810160405280929190818152602001828054613ea79061488d565b8015613ef45780601f10613ec957610100808354040283529160200191613ef4565b820191906000526020600020905b815481529060010190602001808311613ed757829003601f168201915b50505050508152602001600682018054613f0d9061488d565b80601f0160208091040260200160405190810160405280929190818152602001828054613f399061488d565b8015613f865780601f10613f5b57610100808354040283529160200191613f86565b820191906000526020600020905b815481529060010190602001808311613f6957829003601f168201915b50505050508152505092508180613f9c906148cb565b925050613c58565b9695505050505050565b6040518060e001604052806000600160a060020a031681526020016000815260200160008152602001606081526020016060815260200160608152602001606081525090565b604051806060016040528060608152602001606081526020016000151581525090565b8280546140239061488d565b90600052602060002090601f016020900481019282614045576000855561408b565b82601f1061405e57805160ff191683800117855561408b565b8280016001018555821561408b579182015b8281111561408b578251825591602001919060010190614070565b5061409792915061409b565b5090565b5b80821115614097576000815560010161409c565b8035600160a060020a0381168114610a1457600080fd5b600082601f8301126140d7578081fd5b813567ffffffffffffffff808211156140f2576140f26148ff565b604051601f8301601f191681016020018281118282101715614116576141166148ff565b60405282815284830160200186101561412d578384fd5b82602086016020830137918201602001929092529392505050565b803560ff81168114610a1457600080fd5b60008060006060848603121561416d578283fd5b614176846140b0565b9250614184602085016140b0565b9150604084013590509250925092565b6000602082840312156141a5578081fd5b815180151581146141b4578182fd5b9392505050565b6000602082840312156141cc578081fd5b813567ffffffffffffffff8111156141e2578182fd5b6141ee848285016140c7565b949350505050565b60008060408385031215614208578182fd5b823567ffffffffffffffff8082111561421f578384fd5b61422b868387016140c7565b93506020850135915080821115614240578283fd5b5061424d858286016140c7565b9150509250929050565b6000806000806080858703121561426c578081fd5b843567ffffffffffffffff80821115614283578283fd5b61428f888389016140c7565b955060208701359150808211156142a4578283fd5b6142b0888389016140c7565b945060408701359150808211156142c5578283fd5b6142d1888389016140c7565b935060608701359150808211156142e6578283fd5b506142f3878288016140c7565b91505092959194509250565b600080600060608486031215614313578283fd5b833567ffffffffffffffff8082111561432a578485fd5b614336878388016140c7565b9450602086013591508082111561434b578384fd5b50614358868287016140c7565b92505061436760408501614148565b90509250925092565b60008060408385031215614382578182fd5b823567ffffffffffffffff811115614398578283fd5b6143a4858286016140c7565b9250506143b360208401614148565b90509250929050565b6000602082840312156143cd578081fd5b5035919050565b6000602082840312156143e5578081fd5b5051919050565b6000815180845260208085018081965082840281019150828601855b8581101561443257828403895261442084835161443f565b98850198935090840190600101614408565b5091979650505050505050565b60008151808452614457816020860160208601614861565b601f01601f19169290920160200192915050565b6000600160a060020a0382511683526020820151602084015260408201516040840152606082015160e060608501526144a760e085018261443f565b9050608083015184820360808601526144c0828261443f565b91505060a083015184820360a08601526144da828261443f565b91505060c083015184820360c0860152612042828261443f565b60008251614506818460208701614861565b9190910192915050565b7f4e6f6e6500000000000000000000000000000000000000000000000000000000815260040190565b600160a060020a0391909116815260200190565b600160a060020a0392831681529116602082015260400190565b600160a060020a039384168152919092166020820152604081019190915260600190565b600160a060020a03929092168252602082015260400190565b6000602080830181845280855180835260408601915060408482028701019250838701855b828110156145f757603f198886030184526145e585835161443f565b945092850192908501906001016145c9565b5092979650505050505050565b6000602080830181845280855180835260408601915060408482028701019250838701855b828110156145f757603f1988860301845261464585835161446b565b94509285019290850190600101614629565b901515815260200190565b6020808252601b908201527f596f75206e65656420746f2073656e6420736f6d652045746865720000000000604082015260600190565b60208082526025908201527f596f75206e65656420746f2073656c6c206174206c6561737420736f6d65207460408201527f6f6b656e73000000000000000000000000000000000000000000000000000000606082015260800190565b60208082526019908201527f436865636b2074686520746f6b656e20616c6c6f77616e636500000000000000604082015260600190565b6020808252818101527f4e6f7420656e6f75676820746f6b656e7320696e207468652072657365727665604082015260600190565b6020808252601b908201527f596f75206861766520746f20656e6f7567682062616c616e6365210000000000604082015260600190565b6000602082526141b4602083018461446b565b6000602082528251606060208401526147c860808401826143ec565b90506020840151601f198483030160408501526147e582826143ec565b9150506040840151151560608401528091505092915050565b90815260200190565b6000821982111561481a5761481a6148e6565b500190565b60008261483d5760e060020a634e487b710281526012600452602481fd5b500490565b600081600019048311821515161561485c5761485c6148e6565b500290565b60005b8381101561487c578181015183820152602001614864565b838111156136975750506000910152565b6002810460018216806148a157607f821691505b602082108114156148c55760e060020a634e487b7102600052602260045260246000fd5b50919050565b60006000198214156148df576148df6148e6565b5060010190565b60e060020a634e487b7102600052601160045260246000fd5b60e060020a634e487b7102600052604160045260246000fdfea2646970667358221220d0cf261a7b4d16a8b6a07709a9ac9baa10f0712c2206126bcfbb1db180a550be64736f6c6343000800003360806040526a52b7d2dcc80cd2e400000060025534801561001f57600080fd5b50600254336000908152602081905260409020556106ae806100426000396000f3fe608060405234801561001057600080fd5b506004361061009f577c0100000000000000000000000000000000000000000000000000000000600035046306fdde0381146100a4578063095ea7b3146100c257806318160ddd146100e257806323b872dd146100f7578063313ce5671461010a57806370a082311461011f57806395d89b4114610132578063a9059cbb1461013a578063dd62ed3e1461014d575b600080fd5b6100ac610160565b6040516100b991906105c6565b60405180910390f35b6100d56100d0366004610592565b610199565b6040516100b991906105bb565b6100ea610203565b6040516100b99190610619565b6100d5610105366004610557565b610209565b610112610357565b6040516100b99190610622565b6100ea61012d36600461050b565b61035c565b6100ac61037b565b6100d5610148366004610592565b6103b4565b6100ea61015b366004610525565b610465565b6040518060400160405280600981526020017f4d75736963436f696e000000000000000000000000000000000000000000000081525081565b336000818152600160209081526040808320600160a060020a038716808552925280832085905551919290917f8c5be1e5ebec7d5bd14f71427d1e84f3dd0314c0f7b2291e5b200ac8c7c3b925906101f2908690610619565b60405180910390a350600192915050565b60025490565b600160a060020a03831660009081526020819052604081205482111561022e57600080fd5b600160a060020a038416600090815260016020908152604080832033845290915290205482111561025e57600080fd5b600160a060020a0384166000908152602081905260409020546102819083610490565b600160a060020a0385166000908152602081815260408083209390935560018152828220338352905220546102b69083610490565b600160a060020a03808616600090815260016020908152604080832033845282528083209490945591861681529081905220546102f390836104c4565b600160a060020a0380851660008181526020819052604090819020939093559151908616907fddf252ad1be2c89b69c2b068fc378daa952ba7f163c4a11628f55a4df523b3ef90610345908690610619565b60405180910390a35060019392505050565b600281565b600160a060020a0381166000908152602081905260409020545b919050565b6040518060400160405280600381526020017f4d5543000000000000000000000000000000000000000000000000000000000081525081565b336000908152602081905260408120548211156103d057600080fd5b336000908152602081905260409020546103ea9083610490565b3360009081526020819052604080822092909255600160a060020a0385168152205461041690836104c4565b600160a060020a0384166000818152602081905260409081902092909255905133907fddf252ad1be2c89b69c2b068fc378daa952ba7f163c4a11628f55a4df523b3ef906101f2908690610619565b600160a060020a03918216600090815260016020908152604080832093909416825291909152205490565b6000828211156104b35760e060020a634e487b7102600052600160045260246000fd5b6104bd8284610648565b9392505050565b6000806104d18385610630565b9050838110156104bd5760e060020a634e487b7102600052600160045260246000fd5b8035600160a060020a038116811461037657600080fd5b60006020828403121561051c578081fd5b6104bd826104f4565b60008060408385031215610537578081fd5b610540836104f4565b915061054e602084016104f4565b90509250929050565b60008060006060848603121561056b578081fd5b610574846104f4565b9250610582602085016104f4565b9150604084013590509250925092565b600080604083850312156105a4578182fd5b6105ad836104f4565b946020939093013593505050565b901515815260200190565b6000602080835283518082850152825b818110156105f2578581018301518582016040015282016105d6565b818111156106035783604083870101525b50601f01601f1916929092016040019392505050565b90815260200190565b60ff91909116815260200190565b600082198211156106435761064361065f565b500190565b60008282101561065a5761065a61065f565b500390565b60e060020a634e487b7102600052601160045260246000fdfea2646970667358221220d5ed501100d12a8a617d167fff523ae4aff9525763fc8664c38d85840a55dd3764736f6c63430008000033",
  "immutableReferences": {},
  "source": "pragma solidity >=0.4.0 <0.9.0;\n// support return struct in functions\npragma experimental ABIEncoderV2;\n\n// import \"../../node_modules/@openzeppelin/contracts/token/ERC20/ERC20.sol\";\n// import \"./MusicCoin.sol\";\nimport \"./MyERC20.sol\";\n\ncontract MusicDApp is DEX {\n    // Music metadata\n    struct Music {\n        // Music information\n        address uploader;\n        uint256 uploadTime;\n        uint256 count;\n        string name;\n        string artist;\n        // Music content\n        string ipfsHash;\n        string coverFrom;\n    }\n\n    struct User {\n        string[] upload_music_list;\n        string[] bought_music_list;\n        bool isValid;\n    }\n\n    // State variables\n    Music[] musics;\n\n    mapping(address => User) internal users;\n\n    // ipfs hash as index\n    mapping(string => Music) internal music_hash;\n\n    // (name, artist) as primary key\n    mapping(string => mapping(string => Music)) internal music;\n\n    // name as primary key\n    mapping(string => Music[]) internal music_artist_list;\n\n    // artist as primary key\n    mapping(string => Music[]) internal artist_music_list;\n\n    // events firing\n    // event OnMusicUpload(string ipfsHash);\n    // event OnMusicDownload(...)\n\n    // Modifiers\n\n    // Public methods\n\n    // Retrieve basic user information\n    function login() public returns (string[] memory) {\n        if (users[msg.sender].isValid) {\n            // User exists\n            return getUploadMusicList();\n        } else {\n            // Give 100 token for new user\n            uint256 dexBalance = token.balanceOf(address(this));\n            require(100 <= dexBalance, \"Not enough tokens in the reserve\");\n            token.transfer(msg.sender, 10000);\n            users[msg.sender].isValid = true;\n            return users[msg.sender].bought_music_list;\n        }\n    }\n\n    function getUploadMusicList() public view returns (string[] memory) {\n        return users[msg.sender].upload_music_list;\n    }\n\n    function getBoughtMusicList() public view returns (string[] memory) {\n        return users[msg.sender].bought_music_list;\n    }\n\n    function getUserInfo() public view returns (User memory) {\n        return users[msg.sender];\n    }\n\n    function getUserBalance() public view returns (uint256) {\n        return token.balanceOf(msg.sender);\n    }\n\n    function findUploadMusic(string memory _ipfsHash)\n        public\n        view\n        returns (bool)\n    {\n        User memory user = users[msg.sender];\n        string[] memory upload_list = user.upload_music_list;\n\n        for (uint256 i = 0; i < upload_list.length; i++) {\n            if (\n                keccak256(abi.encodePacked(_ipfsHash)) ==\n                keccak256(abi.encodePacked(upload_list[i]))\n            ) {\n                return true;\n            }\n        }\n\n        return false;\n    }\n\n    function findBoughtMusic(string memory _ipfsHash)\n        public\n        view\n        returns (bool)\n    {\n        User memory user = users[msg.sender];\n        string[] memory bought_list = user.bought_music_list;\n\n        for (uint256 i = 0; i < bought_list.length; i++) {\n            if (\n                keccak256(abi.encodePacked(_ipfsHash)) ==\n                keccak256(abi.encodePacked(bought_list[i]))\n            ) {\n                return true;\n            }\n        }\n\n        return false;\n    }\n\n    function uploadMusic(\n        string memory _ipfsHash,\n        string memory _name,\n        string memory _artist,\n        string memory _coverFrom\n    ) public {\n        users[msg.sender].upload_music_list.push(_ipfsHash);\n\n        Music memory _music =\n            Music(\n                msg.sender,\n                block.timestamp,\n                0,\n                _name,\n                _artist,\n                _ipfsHash,\n                _coverFrom\n            );\n\n        musics.push(_music);\n        music[_name][_artist] = _music;\n        music_hash[_ipfsHash] = _music;\n        music_artist_list[_name].push(_music);\n        artist_music_list[_artist].push(_music);\n    }\n\n    function getMusic(string memory _name, string memory _artist)\n        public\n        view\n        returns (Music memory)\n    {\n        Music memory _music = music[_name][_artist];\n\n        return _music;\n    }\n\n    function getMusicByHash(string memory _ipfsHash)\n        public\n        view\n        returns (Music memory)\n    {\n        Music memory _music = music_hash[_ipfsHash];\n\n        return _music;\n    }\n\n    function getMusicWithCountIncrement(\n        string memory _name,\n        string memory _artist\n    ) public returns (Music memory) {\n        music[_name][_artist].count += 1;\n        Music memory _music = music[_name][_artist];\n\n        return _music;\n    }\n\n    function getMusicArtistList(string memory _name)\n        public\n        view\n        returns (Music[] memory)\n    {\n        Music[] memory _music_list = music_artist_list[_name];\n\n        return _music_list;\n    }\n\n    function getArtistMusicList(string memory _artist)\n        public\n        view\n        returns (Music[] memory)\n    {\n        Music[] memory _artist_music_list = artist_music_list[_artist];\n\n        return _artist_music_list;\n    }\n\n    function buyMusic(string memory _name, string memory _artist) public {\n        address sender = msg.sender;\n        Music memory _music = music[_name][_artist];\n        string memory songHash = _music.ipfsHash;\n        address uploader = _music.uploader;\n        uint8[7] memory chain = [100, 50, 25, 12, 6, 3, 1];\n        uint256 count = 0;\n\n        // TODO: Uploader can listen to what he uploaded\n        if (findUploadMusic(songHash)) return;\n\n        // TODO: Buyer will not pay twice\n        if (findBoughtMusic(songHash)) return;\n        // transfer token to uploader at the beginning of the chain\n\n        while (true) {\n            // The depth excee the limit\n            if (count >= 7) {\n                break;\n            }\n\n            transferToken(sender, uploader, chain[count]);\n            // hit the end of the chain\n            if (\n                keccak256(abi.encodePacked((_music.coverFrom))) ==\n                keccak256(abi.encodePacked((\"None\")))\n            ) {\n                break;\n            }\n\n            sender = uploader;\n            _music = music_hash[_music.coverFrom];\n            uploader = _music.uploader;\n\n            count++;\n        }\n\n        // add music to listener list\n        users[msg.sender].bought_music_list.push(songHash);\n    }\n\n    function buyMusicByHash(string memory _ipfsHash) public {\n        address sender = msg.sender;\n        Music memory _music = music_hash[_ipfsHash];\n        string memory songHash = _ipfsHash;\n        address uploader = _music.uploader;\n        uint8[7] memory chain = [100, 50, 25, 12, 6, 3, 1];\n        uint256 count = 0;\n\n        // TODO: Uploader can listen to what he uploaded\n        if (findUploadMusic(songHash)) return;\n\n        // TODO: Buyer will not pay twice\n        if (findBoughtMusic(songHash)) return;\n\n        while (true) {\n            // The depth excee the limit\n            if (count >= 7) {\n                break;\n            }\n\n            transferToken(sender, uploader, chain[count]);\n            // hit the end of the chain\n            if (\n                keccak256(abi.encodePacked((_music.coverFrom))) ==\n                keccak256(abi.encodePacked((\"None\")))\n            ) {\n                break;\n            }\n\n            sender = uploader;\n            _music = music_hash[_music.coverFrom];\n            uploader = _music.uploader;\n\n            count++;\n        }\n\n        // add music to listener list\n        users[msg.sender].bought_music_list.push(songHash);\n    }\n\n    function getMusicChain(\n        string memory _name,\n        string memory _artist,\n        uint8 depth\n    ) public view returns (Music[] memory) {\n        Music memory _music = music[_name][_artist];\n        uint256 count = 0;\n        Music[] memory music_chain = new Music[](depth);\n\n        // transfer token to uploader at the beginning of the chain\n\n        while (true) {\n            // The depth excee the limit\n            if (count >= depth) {\n                break;\n            }\n            music_chain[count] = _music;\n            // hit the end of the chain\n            if (\n                keccak256(abi.encodePacked((_music.coverFrom))) ==\n                keccak256(abi.encodePacked((\"None\")))\n            ) {\n                break;\n            }\n\n            _music = music_hash[_music.coverFrom];\n\n            count++;\n        }\n\n        return music_chain;\n    }\n\n    function getMusicChainByHash(string memory _ipfsHash, uint8 depth)\n        public\n        view\n        returns (Music[] memory)\n    {\n        Music memory _music = music_hash[_ipfsHash];\n        uint256 count = 0;\n        Music[] memory music_chain = new Music[](depth);\n\n        while (true) {\n            // The depth excee the limit\n            if (count >= depth) {\n                break;\n            }\n            music_chain[count] = _music;\n            // hit the end of the chain\n            if (\n                keccak256(abi.encodePacked((_music.coverFrom))) ==\n                keccak256(abi.encodePacked((\"None\")))\n            ) {\n                break;\n            }\n\n            _music = music_hash[_music.coverFrom];\n\n            count++;\n        }\n\n        return music_chain;\n    }\n\n    // Private methods\n}\n",
  "sourcePath": "/Users/systemato/dev/nmlab-final/music-dapp/react/src/contracts/MusicDApp.sol",
  "compiler": {
    "name": "solc",
    "version": "0.8.0+commit.c7dfd78e.Emscripten.clang"
  },
  "schemaVersion": "3.4.0",
  "updatedAt": "2021-06-07T05:12:03.515Z",
  "networkType": "ethereum",
  "devdoc": {
    "kind": "dev",
    "methods": {},
    "version": 1
  },
  "userdoc": {
    "kind": "user",
    "methods": {},
    "version": 1
  }
}