{
  "contractName": "MusicDApp",
  "abi": [
    {
      "anonymous": false,
      "inputs": [
        {
          "indexed": false,
          "internalType": "uint256",
          "name": "amount",
          "type": "uint256"
        }
      ],
      "name": "Bought",
      "type": "event"
    },
    {
      "anonymous": false,
      "inputs": [
        {
          "indexed": false,
          "internalType": "uint256",
          "name": "amount",
          "type": "uint256"
        }
      ],
      "name": "Sold",
      "type": "event"
    },
    {
      "inputs": [],
      "name": "buy",
      "outputs": [],
      "stateMutability": "payable",
      "type": "function",
      "payable": true
    },
    {
      "inputs": [],
      "name": "exchange_rate",
      "outputs": [
        {
          "internalType": "uint256",
          "name": "",
          "type": "uint256"
        }
      ],
      "stateMutability": "view",
      "type": "function",
      "constant": true
    },
    {
      "inputs": [],
      "name": "getContractAddress",
      "outputs": [
        {
          "internalType": "address",
          "name": "",
          "type": "address"
        }
      ],
      "stateMutability": "view",
      "type": "function",
      "constant": true
    },
    {
      "inputs": [],
      "name": "getPoolEtherBalance",
      "outputs": [
        {
          "internalType": "uint256",
          "name": "",
          "type": "uint256"
        }
      ],
      "stateMutability": "view",
      "type": "function",
      "constant": true
    },
    {
      "inputs": [],
      "name": "getPoolTokenBalance",
      "outputs": [
        {
          "internalType": "uint256",
          "name": "",
          "type": "uint256"
        }
      ],
      "stateMutability": "view",
      "type": "function",
      "constant": true
    },
    {
      "inputs": [],
      "name": "getTokenSupply",
      "outputs": [
        {
          "internalType": "uint256",
          "name": "",
          "type": "uint256"
        }
      ],
      "stateMutability": "view",
      "type": "function",
      "constant": true
    },
    {
      "inputs": [],
      "name": "register",
      "outputs": [
        {
          "internalType": "bool",
          "name": "",
          "type": "bool"
        }
      ],
      "stateMutability": "nonpayable",
      "type": "function"
    },
    {
      "inputs": [
        {
          "internalType": "uint256",
          "name": "amount",
          "type": "uint256"
        }
      ],
      "name": "sell",
      "outputs": [],
      "stateMutability": "nonpayable",
      "type": "function"
    },
    {
      "inputs": [],
      "name": "token",
      "outputs": [
        {
          "internalType": "contract TokenPool",
          "name": "",
          "type": "address"
        }
      ],
      "stateMutability": "view",
      "type": "function",
      "constant": true
    },
    {
      "inputs": [
        {
          "internalType": "address",
          "name": "receiver",
          "type": "address"
        },
        {
          "internalType": "uint256",
          "name": "amount",
          "type": "uint256"
        }
      ],
      "name": "transferToken",
      "outputs": [],
      "stateMutability": "nonpayable",
      "type": "function"
    },
    {
      "inputs": [],
      "name": "userExists",
      "outputs": [
        {
          "internalType": "bool",
          "name": "",
          "type": "bool"
        }
      ],
      "stateMutability": "view",
      "type": "function",
      "constant": true
    },
    {
      "inputs": [],
      "name": "getUserInfo",
      "outputs": [
        {
          "components": [
            {
              "internalType": "string[]",
              "name": "upload_music_list",
              "type": "string[]"
            },
            {
              "internalType": "string[]",
              "name": "bought_music_list",
              "type": "string[]"
            },
            {
              "internalType": "bool",
              "name": "isValid",
              "type": "bool"
            }
          ],
          "internalType": "struct MusicDApp.User",
          "name": "",
          "type": "tuple"
        }
      ],
      "stateMutability": "view",
      "type": "function",
      "constant": true
    },
    {
      "inputs": [],
      "name": "getUserBalance",
      "outputs": [
        {
          "internalType": "uint256",
          "name": "",
          "type": "uint256"
        }
      ],
      "stateMutability": "view",
      "type": "function",
      "constant": true
    },
    {
      "inputs": [],
      "name": "getUploadMusicList",
      "outputs": [
        {
          "internalType": "string[]",
          "name": "",
          "type": "string[]"
        }
      ],
      "stateMutability": "view",
      "type": "function",
      "constant": true
    },
    {
      "inputs": [],
      "name": "getBoughtMusicList",
      "outputs": [
        {
          "internalType": "string[]",
          "name": "",
          "type": "string[]"
        }
      ],
      "stateMutability": "view",
      "type": "function",
      "constant": true
    },
    {
      "inputs": [
        {
          "internalType": "string",
          "name": "_ipfsHash",
          "type": "string"
        }
      ],
      "name": "findUploadMusic",
      "outputs": [
        {
          "internalType": "bool",
          "name": "",
          "type": "bool"
        }
      ],
      "stateMutability": "view",
      "type": "function",
      "constant": true
    },
    {
      "inputs": [
        {
          "internalType": "string",
          "name": "_ipfsHash",
          "type": "string"
        }
      ],
      "name": "findBoughtMusic",
      "outputs": [
        {
          "internalType": "bool",
          "name": "",
          "type": "bool"
        }
      ],
      "stateMutability": "view",
      "type": "function",
      "constant": true
    },
    {
      "inputs": [
        {
          "internalType": "string",
          "name": "_name",
          "type": "string"
        },
        {
          "internalType": "string",
          "name": "_artist",
          "type": "string"
        }
      ],
      "name": "musicExists",
      "outputs": [
        {
          "internalType": "bool",
          "name": "",
          "type": "bool"
        }
      ],
      "stateMutability": "view",
      "type": "function",
      "constant": true
    },
    {
      "inputs": [
        {
          "internalType": "string",
          "name": "_ipfsHash",
          "type": "string"
        },
        {
          "internalType": "string",
          "name": "_name",
          "type": "string"
        },
        {
          "internalType": "string",
          "name": "_artist",
          "type": "string"
        },
        {
          "internalType": "string",
          "name": "_coverFrom",
          "type": "string"
        }
      ],
      "name": "uploadMusic",
      "outputs": [],
      "stateMutability": "nonpayable",
      "type": "function"
    },
    {
      "inputs": [
        {
          "internalType": "string",
          "name": "_ipfsHash",
          "type": "string"
        },
        {
          "internalType": "string",
          "name": "_name",
          "type": "string"
        },
        {
          "internalType": "string",
          "name": "_artist",
          "type": "string"
        },
        {
          "internalType": "string",
          "name": "_coverFrom",
          "type": "string"
        },
        {
          "internalType": "address",
          "name": "uploader_addr",
          "type": "address"
        }
      ],
      "name": "uploadMusic_batch",
      "outputs": [],
      "stateMutability": "nonpayable",
      "type": "function"
    },
    {
      "inputs": [
        {
          "internalType": "string",
          "name": "_name",
          "type": "string"
        },
        {
          "internalType": "string",
          "name": "_artist",
          "type": "string"
        }
      ],
      "name": "getMusic",
      "outputs": [
        {
          "components": [
            {
              "internalType": "address",
              "name": "uploader",
              "type": "address"
            },
            {
              "internalType": "uint256",
              "name": "uploadTime",
              "type": "uint256"
            },
            {
              "internalType": "uint256",
              "name": "count",
              "type": "uint256"
            },
            {
              "internalType": "string",
              "name": "name",
              "type": "string"
            },
            {
              "internalType": "string",
              "name": "artist",
              "type": "string"
            },
            {
              "internalType": "string",
              "name": "ipfsHash",
              "type": "string"
            },
            {
              "internalType": "string",
              "name": "coverFrom",
              "type": "string"
            }
          ],
          "internalType": "struct MusicDApp.Music",
          "name": "",
          "type": "tuple"
        }
      ],
      "stateMutability": "view",
      "type": "function",
      "constant": true
    },
    {
      "inputs": [
        {
          "internalType": "string",
          "name": "_ipfsHash",
          "type": "string"
        }
      ],
      "name": "getMusicByHash",
      "outputs": [
        {
          "components": [
            {
              "internalType": "address",
              "name": "uploader",
              "type": "address"
            },
            {
              "internalType": "uint256",
              "name": "uploadTime",
              "type": "uint256"
            },
            {
              "internalType": "uint256",
              "name": "count",
              "type": "uint256"
            },
            {
              "internalType": "string",
              "name": "name",
              "type": "string"
            },
            {
              "internalType": "string",
              "name": "artist",
              "type": "string"
            },
            {
              "internalType": "string",
              "name": "ipfsHash",
              "type": "string"
            },
            {
              "internalType": "string",
              "name": "coverFrom",
              "type": "string"
            }
          ],
          "internalType": "struct MusicDApp.Music",
          "name": "",
          "type": "tuple"
        }
      ],
      "stateMutability": "view",
      "type": "function",
      "constant": true
    },
    {
      "inputs": [],
      "name": "getMusicList",
      "outputs": [
        {
          "components": [
            {
              "internalType": "address",
              "name": "uploader",
              "type": "address"
            },
            {
              "internalType": "uint256",
              "name": "uploadTime",
              "type": "uint256"
            },
            {
              "internalType": "uint256",
              "name": "count",
              "type": "uint256"
            },
            {
              "internalType": "string",
              "name": "name",
              "type": "string"
            },
            {
              "internalType": "string",
              "name": "artist",
              "type": "string"
            },
            {
              "internalType": "string",
              "name": "ipfsHash",
              "type": "string"
            },
            {
              "internalType": "string",
              "name": "coverFrom",
              "type": "string"
            }
          ],
          "internalType": "struct MusicDApp.Music[]",
          "name": "",
          "type": "tuple[]"
        }
      ],
      "stateMutability": "view",
      "type": "function",
      "constant": true
    },
    {
      "inputs": [
        {
          "internalType": "string",
          "name": "_name",
          "type": "string"
        }
      ],
      "name": "getMusicArtistList",
      "outputs": [
        {
          "components": [
            {
              "internalType": "address",
              "name": "uploader",
              "type": "address"
            },
            {
              "internalType": "uint256",
              "name": "uploadTime",
              "type": "uint256"
            },
            {
              "internalType": "uint256",
              "name": "count",
              "type": "uint256"
            },
            {
              "internalType": "string",
              "name": "name",
              "type": "string"
            },
            {
              "internalType": "string",
              "name": "artist",
              "type": "string"
            },
            {
              "internalType": "string",
              "name": "ipfsHash",
              "type": "string"
            },
            {
              "internalType": "string",
              "name": "coverFrom",
              "type": "string"
            }
          ],
          "internalType": "struct MusicDApp.Music[]",
          "name": "",
          "type": "tuple[]"
        }
      ],
      "stateMutability": "view",
      "type": "function",
      "constant": true
    },
    {
      "inputs": [
        {
          "internalType": "string",
          "name": "_artist",
          "type": "string"
        }
      ],
      "name": "getArtistMusicList",
      "outputs": [
        {
          "components": [
            {
              "internalType": "address",
              "name": "uploader",
              "type": "address"
            },
            {
              "internalType": "uint256",
              "name": "uploadTime",
              "type": "uint256"
            },
            {
              "internalType": "uint256",
              "name": "count",
              "type": "uint256"
            },
            {
              "internalType": "string",
              "name": "name",
              "type": "string"
            },
            {
              "internalType": "string",
              "name": "artist",
              "type": "string"
            },
            {
              "internalType": "string",
              "name": "ipfsHash",
              "type": "string"
            },
            {
              "internalType": "string",
              "name": "coverFrom",
              "type": "string"
            }
          ],
          "internalType": "struct MusicDApp.Music[]",
          "name": "",
          "type": "tuple[]"
        }
      ],
      "stateMutability": "view",
      "type": "function",
      "constant": true
    },
    {
      "inputs": [
        {
          "internalType": "string",
          "name": "_ipfsHash",
          "type": "string"
        }
      ],
      "name": "buyMusicByHash",
      "outputs": [],
      "stateMutability": "nonpayable",
      "type": "function"
    },
    {
      "inputs": [
        {
          "internalType": "string",
          "name": "_ipfsHash",
          "type": "string"
        },
        {
          "internalType": "uint8",
          "name": "depth",
          "type": "uint8"
        }
      ],
      "name": "getMusicChainByHash",
      "outputs": [
        {
          "components": [
            {
              "internalType": "address",
              "name": "uploader",
              "type": "address"
            },
            {
              "internalType": "uint256",
              "name": "uploadTime",
              "type": "uint256"
            },
            {
              "internalType": "uint256",
              "name": "count",
              "type": "uint256"
            },
            {
              "internalType": "string",
              "name": "name",
              "type": "string"
            },
            {
              "internalType": "string",
              "name": "artist",
              "type": "string"
            },
            {
              "internalType": "string",
              "name": "ipfsHash",
              "type": "string"
            },
            {
              "internalType": "string",
              "name": "coverFrom",
              "type": "string"
            }
          ],
          "internalType": "struct MusicDApp.Music[]",
          "name": "",
          "type": "tuple[]"
        }
      ],
      "stateMutability": "view",
      "type": "function",
      "constant": true
    },
    {
      "inputs": [
        {
          "internalType": "string",
          "name": "_name",
          "type": "string"
        },
        {
          "internalType": "string",
          "name": "_artist",
          "type": "string"
        },
        {
          "internalType": "uint256",
          "name": "_index",
          "type": "uint256"
        },
        {
          "internalType": "uint256",
          "name": "depth",
          "type": "uint256"
        }
      ],
      "name": "getRelevantMusicArtistList",
      "outputs": [
        {
          "components": [
            {
              "internalType": "address",
              "name": "uploader",
              "type": "address"
            },
            {
              "internalType": "uint256",
              "name": "uploadTime",
              "type": "uint256"
            },
            {
              "internalType": "uint256",
              "name": "count",
              "type": "uint256"
            },
            {
              "internalType": "string",
              "name": "name",
              "type": "string"
            },
            {
              "internalType": "string",
              "name": "artist",
              "type": "string"
            },
            {
              "internalType": "string",
              "name": "ipfsHash",
              "type": "string"
            },
            {
              "internalType": "string",
              "name": "coverFrom",
              "type": "string"
            }
          ],
          "internalType": "struct MusicDApp.Music[10]",
          "name": "",
          "type": "tuple[10]"
        },
        {
          "internalType": "uint256",
          "name": "",
          "type": "uint256"
        },
        {
          "internalType": "bool",
          "name": "",
          "type": "bool"
        }
      ],
      "stateMutability": "view",
      "type": "function",
      "constant": true
    }
  ],
  "bytecode": "0x6080604052655af3107a40006001553480156200001b57600080fd5b506040516200002a906200006e565b604051809103906000f08015801562000047573d6000803e3d6000fd5b5060008054600160a060020a031916600160a060020a03929092169190911790556200007c565b6104948062004cf083390190565b614c64806200008c6000396000f3fe60806040526004361061014a5760e060020a60003504631072cbea811461014f578063171ef0b2146101715780631aa3a0081461019c578063209af2dd146101be578063245fcb92146101eb57806332a2c5d0146102005780633854f10c1461022257806346c641f3146102515780635d8d15851461026657806360b377b8146102885780637fb95448146102aa57806380f3de65146102d75780638aa4342c146102f75780639146436b1461030c57806393154af71461032c578063a59789641461034c578063a678b8301461036c578063a6f2ae3a1461038c578063ad974f4c14610394578063b1ddeab0146103a9578063b7013dc1146103c9578063e41bfe6e146103de578063e4849b32146103fe578063e90fd8e71461041e578063eae6d4da1461043e578063f7f6bd7f14610453578063fc0c546a14610473578063ffda283514610488575b600080fd5b34801561015b57600080fd5b5061016f61016a3660046142fc565b61049d565b005b34801561017d57600080fd5b50610186610557565b6040516101939190614a7a565b60405180910390f35b3480156101a857600080fd5b506101b161055d565b60405161019391906148da565b3480156101ca57600080fd5b506101de6101d936600461434c565b61069f565b6040516101939190614887565b3480156101f757600080fd5b50610186610994565b34801561020c57600080fd5b50610215610999565b6040516101939190614790565b34801561022e57600080fd5b5061024261023d366004614545565b61099d565b60405161019393929190614828565b34801561025d57600080fd5b50610186610d3d565b34801561027257600080fd5b5061027b610dc6565b6040516101939190614a28565b34801561029457600080fd5b5061029d610fa8565b60405161019391906147c8565b3480156102b657600080fd5b506102ca6102c5366004614386565b61108c565b6040516101939190614a15565b3480156102e357600080fd5b506101b16102f236600461434c565b611358565b34801561030357600080fd5b5061029d6115e5565b34801561031857600080fd5b506102ca61032736600461434c565b6116c3565b34801561033857600080fd5b506101de6103473660046145b5565b611970565b34801561035857600080fd5b506101b1610367366004614386565b611fd1565b34801561037857600080fd5b5061016f61038736600461448d565b6122a0565b61016f612763565b3480156103a057600080fd5b50610186612905565b3480156103b557600080fd5b5061016f6103c43660046143e6565b612957565b3480156103d557600080fd5b50610186612e0f565b3480156103ea57600080fd5b5061016f6103f936600461434c565b612e43565b34801561040a57600080fd5b5061016f610419366004614609565b61354a565b34801561042a57600080fd5b506101de61043936600461434c565b6136c4565b34801561044a57600080fd5b506101b16139ab565b34801561045f57600080fd5b506101b161046e36600461434c565b6139c4565b34801561047f57600080fd5b50610215613c47565b34801561049457600080fd5b506101de613c56565b600081116104c95760405160e560020a62461bcd0281526004016104c090614964565b60405180910390fd5b60005460405160e060020a6323b872dd028152600160a060020a03909116906323b872dd90610500903390869086906004016147a4565b602060405180830381600087803b15801561051a57600080fd5b505af115801561052e573d6000803e3d6000fd5b505050506040513d601f19601f820116820180604052508101906105529190614325565b505050565b60015481565b6000805460405160e060020a6370a08231028152612710918391600160a060020a03909116906370a0823190610597903090600401614790565b60206040518083038186803b1580156105af57600080fd5b505afa1580156105c3573d6000803e3d6000fd5b505050506040513d601f19601f820116820180604052508101906105e79190614621565b90508082111561060c5760405160e560020a62461bcd0281526004016104c0906149e0565b60005460405160e060020a6323b872dd028152600160a060020a03909116906323b872dd90610643903090339087906004016147a4565b602060405180830381600087803b15801561065d57600080fd5b505af1158015610671573d6000803e3d6000fd5b505050506040513d601f19601f820116820180604052508101906106959190614325565b5060019250505090565b606060006006836040516106b3919061475e565b9081526020016040518091039020805480602002602001604051908101604052809291908181526020016000905b828210156109865760008481526020908190206040805160e081018252600786029092018054600160a060020a0316835260018101549383019390935260028301549082015260038201805491929160608401919061073f90614b20565b80601f016020809104026020016040519081016040528092919081815260200182805461076b90614b20565b80156107b85780601f1061078d576101008083540402835291602001916107b8565b820191906000526020600020905b81548152906001019060200180831161079b57829003601f168201915b505050505081526020016004820180546107d190614b20565b80601f01602080910402602001604051908101604052809291908181526020018280546107fd90614b20565b801561084a5780601f1061081f5761010080835404028352916020019161084a565b820191906000526020600020905b81548152906001019060200180831161082d57829003601f168201915b5050505050815260200160058201805461086390614b20565b80601f016020809104026020016040519081016040528092919081815260200182805461088f90614b20565b80156108dc5780601f106108b1576101008083540402835291602001916108dc565b820191906000526020600020905b8154815290600101906020018083116108bf57829003601f168201915b505050505081526020016006820180546108f590614b20565b80601f016020809104026020016040519081016040528092919081815260200182805461092190614b20565b801561096e5780601f106109435761010080835404028352916020019161096e565b820191906000526020600020905b81548152906001019060200180831161095157829003601f168201915b505050505081525050815260200190600101906106e1565b50929450505050505b919050565b303190565b3090565b6109a5614135565b6000806109b0614135565b6000806109bb614163565b88805b600254811015610d1c578985106109d457610d1c565b600281815481106109f85760e060020a634e487b7102600052603260045260246000fd5b90600052602060002090600702016040518060e00160405290816000820160009054906101000a9004600160a060020a0316600160a060020a0316600160a060020a031681526020016001820154815260200160028201548152602001600382018054610a6490614b20565b80601f0160208091040260200160405190810160405280929190818152602001828054610a9090614b20565b8015610add5780601f10610ab257610100808354040283529160200191610add565b820191906000526020600020905b815481529060010190602001808311610ac057829003601f168201915b50505050508152602001600482018054610af690614b20565b80601f0160208091040260200160405190810160405280929190818152602001828054610b2290614b20565b8015610b6f5780601f10610b4457610100808354040283529160200191610b6f565b820191906000526020600020905b815481529060010190602001808311610b5257829003601f168201915b50505050508152602001600582018054610b8890614b20565b80601f0160208091040260200160405190810160405280929190818152602001828054610bb490614b20565b8015610c015780601f10610bd657610100808354040283529160200191610c01565b820191906000526020600020905b815481529060010190602001808311610be457829003601f168201915b50505050508152602001600682018054610c1a90614b20565b80601f0160208091040260200160405190810160405280929190818152602001828054610c4690614b20565b8015610c935780601f10610c6857610100808354040283529160200191610c93565b820191906000526020600020905b815481529060010190602001808311610c7657829003601f168201915b5050505050815250509250610cac8d8460600151613f1f565b80610cc05750610cc08c8460800151613f1f565b15610cfc57828686600a8110610ce95760e060020a634e487b7102600052603260045260246000fd5b602002015284610cf881614b5f565b9550505b81610d0681614b5f565b9250508080610d1490614b5f565b9150506109be565b50600254811415610d2c57600192505b50929a919950975095505050505050565b6000805460405160e060020a6370a08231028152600160a060020a03909116906370a0823190610d71903090600401614790565b60206040518083038186803b158015610d8957600080fd5b505afa158015610d9d573d6000803e3d6000fd5b505050506040513d601f19601f82011682018060405250810190610dc19190614621565b905090565b610dce6141a9565b3360009081526003602090815260408083208151815460809481028201850190935260608101838152909491938593919285929185015b82821015610eb1578382906000526020600020018054610e2490614b20565b80601f0160208091040260200160405190810160405280929190818152602001828054610e5090614b20565b8015610e9d5780601f10610e7257610100808354040283529160200191610e9d565b820191906000526020600020905b815481529060010190602001808311610e8057829003601f168201915b505050505081526020019060010190610e05565b50505050815260200160018201805480602002602001604051908101604052809291908181526020016000905b82821015610f8a578382906000526020600020018054610efd90614b20565b80601f0160208091040260200160405190810160405280929190818152602001828054610f2990614b20565b8015610f765780601f10610f4b57610100808354040283529160200191610f76565b820191906000526020600020905b815481529060010190602001808311610f5957829003601f168201915b505050505081526020019060010190610ede565b505050908252506002919091015460ff161515602090910152905090565b336000908152600360209081526040808320805482518185028101850190935280835260609492939192909184015b82821015611083578382906000526020600020018054610ff690614b20565b80601f016020809104026020016040519081016040528092919081815260200182805461102290614b20565b801561106f5780601f106110445761010080835404028352916020019161106f565b820191906000526020600020905b81548152906001019060200180831161105257829003601f168201915b505050505081526020019060010190610fd7565b50505050905090565b611094614163565b60006005846040516110a6919061475e565b9081526020016040518091039020836040516110c2919061475e565b90815260408051918290036020908101832060e0840183528054600160a060020a0316845260018101549184019190915260028101549183019190915260038101805460608401919061111490614b20565b80601f016020809104026020016040519081016040528092919081815260200182805461114090614b20565b801561118d5780601f106111625761010080835404028352916020019161118d565b820191906000526020600020905b81548152906001019060200180831161117057829003601f168201915b505050505081526020016004820180546111a690614b20565b80601f01602080910402602001604051908101604052809291908181526020018280546111d290614b20565b801561121f5780601f106111f45761010080835404028352916020019161121f565b820191906000526020600020905b81548152906001019060200180831161120257829003601f168201915b5050505050815260200160058201805461123890614b20565b80601f016020809104026020016040519081016040528092919081815260200182805461126490614b20565b80156112b15780601f10611286576101008083540402835291602001916112b1565b820191906000526020600020905b81548152906001019060200180831161129457829003601f168201915b505050505081526020016006820180546112ca90614b20565b80601f01602080910402602001604051908101604052809291908181526020018280546112f690614b20565b80156113435780601f1061131857610100808354040283529160200191611343565b820191906000526020600020905b81548152906001019060200180831161132657829003601f168201915b50505091909252509193505050505b92915050565b3360009081526003602090815260408083208151815460809481028201850190935260608101838152859491938492849190879085015b8282101561143b5783829060005260206000200180546113ae90614b20565b80601f01602080910402602001604051908101604052809291908181526020018280546113da90614b20565b80156114275780601f106113fc57610100808354040283529160200191611427565b820191906000526020600020905b81548152906001019060200180831161140a57829003601f168201915b50505050508152602001906001019061138f565b50505050815260200160018201805480602002602001604051908101604052809291908181526020016000905b8282101561151457838290600052602060002001805461148790614b20565b80601f01602080910402602001604051908101604052809291908181526020018280546114b390614b20565b80156115005780601f106114d557610100808354040283529160200191611500565b820191906000526020600020905b8154815290600101906020018083116114e357829003601f168201915b505050505081526020019060010190611468565b505050908252506002919091015460ff161515602090910152805190915060005b81518110156115da578181815181106115615760e060020a634e487b7102600052603260045260246000fd5b6020026020010151604051602001611579919061475e565b60405160208183030381529060405280519060200120856040516020016115a0919061475e565b6040516020818303038152906040528051906020012014156115c8576001935050505061098f565b806115d281614b5f565b915050611535565b506000949350505050565b336000908152600360209081526040808320600101805482518185028101850190935280835260609492939192909184015b8282101561108357838290600052602060002001805461163690614b20565b80601f016020809104026020016040519081016040528092919081815260200182805461166290614b20565b80156116af5780601f10611684576101008083540402835291602001916116af565b820191906000526020600020905b81548152906001019060200180831161169257829003601f168201915b505050505081526020019060010190611617565b6116cb614163565b60006004836040516116dd919061475e565b90815260408051918290036020908101832060e0840183528054600160a060020a0316845260018101549184019190915260028101549183019190915260038101805460608401919061172f90614b20565b80601f016020809104026020016040519081016040528092919081815260200182805461175b90614b20565b80156117a85780601f1061177d576101008083540402835291602001916117a8565b820191906000526020600020905b81548152906001019060200180831161178b57829003601f168201915b505050505081526020016004820180546117c190614b20565b80601f01602080910402602001604051908101604052809291908181526020018280546117ed90614b20565b801561183a5780601f1061180f5761010080835404028352916020019161183a565b820191906000526020600020905b81548152906001019060200180831161181d57829003601f168201915b5050505050815260200160058201805461185390614b20565b80601f016020809104026020016040519081016040528092919081815260200182805461187f90614b20565b80156118cc5780601f106118a1576101008083540402835291602001916118cc565b820191906000526020600020905b8154815290600101906020018083116118af57829003601f168201915b505050505081526020016006820180546118e590614b20565b80601f016020809104026020016040519081016040528092919081815260200182805461191190614b20565b801561195e5780601f106119335761010080835404028352916020019161195e565b820191906000526020600020905b81548152906001019060200180831161194157829003601f168201915b50505091909252509195945050505050565b60606000600484604051611984919061475e565b90815260408051918290036020908101832060e0840183528054600160a060020a031684526001810154918401919091526002810154918301919091526003810180546060840191906119d690614b20565b80601f0160208091040260200160405190810160405280929190818152602001828054611a0290614b20565b8015611a4f5780601f10611a2457610100808354040283529160200191611a4f565b820191906000526020600020905b815481529060010190602001808311611a3257829003601f168201915b50505050508152602001600482018054611a6890614b20565b80601f0160208091040260200160405190810160405280929190818152602001828054611a9490614b20565b8015611ae15780601f10611ab657610100808354040283529160200191611ae1565b820191906000526020600020905b815481529060010190602001808311611ac457829003601f168201915b50505050508152602001600582018054611afa90614b20565b80601f0160208091040260200160405190810160405280929190818152602001828054611b2690614b20565b8015611b735780601f10611b4857610100808354040283529160200191611b73565b820191906000526020600020905b815481529060010190602001808311611b5657829003601f168201915b50505050508152602001600682018054611b8c90614b20565b80601f0160208091040260200160405190810160405280929190818152602001828054611bb890614b20565b8015611c055780601f10611bda57610100808354040283529160200191611c05565b820191906000526020600020905b815481529060010190602001808311611be857829003601f168201915b50505050508152505090506000808460ff166001604060020a03811115611c3f5760e060020a634e487b7102600052604160045260246000fd5b604051908082528060200260200182016040528015611c7857816020015b611c65614163565b815260200190600190039081611c5d5790505b5090505b8460ff168210611c8b57611fc8565b82818381518110611caf5760e060020a634e487b7102600052603260045260246000fd5b6020026020010181905250604051602001611cc99061477a565b604051602081830303815290604052805190602001208360c00151604051602001611cf4919061475e565b604051602081830303815290604052805190602001201415611d1557611fc8565b60048360c00151604051611d29919061475e565b90815260408051918290036020908101832060e0840183528054600160a060020a03168452600181015491840191909152600281015491830191909152600381018054606084019190611d7b90614b20565b80601f0160208091040260200160405190810160405280929190818152602001828054611da790614b20565b8015611df45780601f10611dc957610100808354040283529160200191611df4565b820191906000526020600020905b815481529060010190602001808311611dd757829003601f168201915b50505050508152602001600482018054611e0d90614b20565b80601f0160208091040260200160405190810160405280929190818152602001828054611e3990614b20565b8015611e865780601f10611e5b57610100808354040283529160200191611e86565b820191906000526020600020905b815481529060010190602001808311611e6957829003601f168201915b50505050508152602001600582018054611e9f90614b20565b80601f0160208091040260200160405190810160405280929190818152602001828054611ecb90614b20565b8015611f185780601f10611eed57610100808354040283529160200191611f18565b820191906000526020600020905b815481529060010190602001808311611efb57829003601f168201915b50505050508152602001600682018054611f3190614b20565b80601f0160208091040260200160405190810160405280929190818152602001828054611f5d90614b20565b8015611faa5780601f10611f7f57610100808354040283529160200191611faa565b820191906000526020600020905b815481529060010190602001808311611f8d57829003601f168201915b50505050508152505092508180611fc090614b5f565b925050611c7c565b95945050505050565b600080600584604051611fe4919061475e565b908152602001604051809103902083604051612000919061475e565b90815260408051918290036020908101832060e0840183528054600160a060020a0316845260018101549184019190915260028101549183019190915260038101805460608401919061205290614b20565b80601f016020809104026020016040519081016040528092919081815260200182805461207e90614b20565b80156120cb5780601f106120a0576101008083540402835291602001916120cb565b820191906000526020600020905b8154815290600101906020018083116120ae57829003601f168201915b505050505081526020016004820180546120e490614b20565b80601f016020809104026020016040519081016040528092919081815260200182805461211090614b20565b801561215d5780601f106121325761010080835404028352916020019161215d565b820191906000526020600020905b81548152906001019060200180831161214057829003601f168201915b5050505050815260200160058201805461217690614b20565b80601f01602080910402602001604051908101604052809291908181526020018280546121a290614b20565b80156121ef5780601f106121c4576101008083540402835291602001916121ef565b820191906000526020600020905b8154815290600101906020018083116121d257829003601f168201915b5050505050815260200160068201805461220890614b20565b80601f016020809104026020016040519081016040528092919081815260200182805461223490614b20565b80156122815780601f1061225657610100808354040283529160200191612281565b820191906000526020600020905b81548152906001019060200180831161226457829003601f168201915b5050509190925250509051600160a060020a0316151595945050505050565b6040805160e081018252600160a060020a0383811682524260208084019182526000948401858152606085018a8152608086018a905260a086018c905260c086018990526002805460018101825597528551600080516020614baf83398151915260079098029788018054600160a060020a031916919096161785559251600080516020614bcf83398151915287015551600080516020614bef833981519152860155905180519394859461236b93600080516020614c0f83398151915290920192909101906141cc565b50608082015180516123879160048401916020909101906141cc565b5060a082015180516123a39160058401916020909101906141cc565b5060c082015180516123bf9160068401916020909101906141cc565b505050806005866040516123d3919061475e565b9081526020016040518091039020856040516123ef919061475e565b908152604080516020928190038301902083518154600160a060020a031916600160a060020a03909116178155838301516001820155908301516002820155606083015180519192612449926003850192909101906141cc565b50608082015180516124659160048401916020909101906141cc565b5060a082015180516124819160058401916020909101906141cc565b5060c0820151805161249d9160068401916020909101906141cc565b50905050806004876040516124b2919061475e565b908152604080516020928190038301902083518154600160a060020a031916600160a060020a0390911617815583830151600182015590830151600282015560608301518051919261250c926003850192909101906141cc565b50608082015180516125289160048401916020909101906141cc565b5060a082015180516125449160058401916020909101906141cc565b5060c082015180516125609160068401916020909101906141cc565b50905050600685604051612574919061475e565b908152604080516020928190038301902080546001808201835560009283529184902085516007909202018054600160a060020a031916600160a060020a0390921691909117815584840151918101919091559083015160028201556060830151805184936125ea9260038501929101906141cc565b50608082015180516126069160048401916020909101906141cc565b5060a082015180516126229160058401916020909101906141cc565b5060c0820151805161263e9160068401916020909101906141cc565b505050600784604051612651919061475e565b908152604080516020928190038301902080546001808201835560009283529184902085516007909202018054600160a060020a031916600160a060020a0390921691909117815584840151918101919091559083015160028201556060830151805184936126c79260038501929101906141cc565b50608082015180516126e39160048401916020909101906141cc565b5060a082015180516126ff9160058401916020909101906141cc565b5060c0820151805161271b9160068401916020909101906141cc565b505050600160a060020a03821660009081526003602090815260408220805460018101825590835291819020885161275a9391909101918901906141cc565b50505050505050565b6000805460405160e060020a6370a08231028152349291600160a060020a0316906370a0823190612798903090600401614790565b60206040518083038186803b1580156127b057600080fd5b505afa1580156127c4573d6000803e3d6000fd5b505050506040513d601f19601f820116820180604052508101906127e89190614621565b90506000821161280d5760405160e560020a62461bcd0281526004016104c0906148e5565b808211156128305760405160e560020a62461bcd0281526004016104c0906149e0565b600054600154600160a060020a03909116906323b872dd90309033906128569087614a9b565b6040518463ffffffff1660e060020a028152600401612877939291906147a4565b602060405180830381600087803b15801561289157600080fd5b505af11580156128a5573d6000803e3d6000fd5b505050506040513d601f19601f820116820180604052508101906128c99190614325565b507f4e08ba899977cf7d4c2964bce71c6b9a7ef76ee5166a4c1249a1e08016e33ef1826040516128f99190614a7a565b60405180910390a15050565b60008060009054906101000a9004600160a060020a0316600160a060020a03166318160ddd6040518163ffffffff1660e060020a02815260040160206040518083038186803b158015610d8957600080fd5b6040805160e0810182523381524260208083019182526001938301848152606084018881526080850188905260a085018a905260c085018790526002805496870181556000528451600080516020614baf83398151915260079097029687018054600160a060020a031916600160a060020a039092169190911781559351600080516020614bcf8339815191528701559051600080516020614bef83398151915286015551805193948594612a2293600080516020614c0f83398151915290920192909101906141cc565b5060808201518051612a3e9160048401916020909101906141cc565b5060a08201518051612a5a9160058401916020909101906141cc565b5060c08201518051612a769160068401916020909101906141cc565b50505080600585604051612a8a919061475e565b908152602001604051809103902084604051612aa6919061475e565b908152604080516020928190038301902083518154600160a060020a031916600160a060020a03909116178155838301516001820155908301516002820155606083015180519192612b00926003850192909101906141cc565b5060808201518051612b1c9160048401916020909101906141cc565b5060a08201518051612b389160058401916020909101906141cc565b5060c08201518051612b549160068401916020909101906141cc565b5090505080600486604051612b69919061475e565b908152604080516020928190038301902083518154600160a060020a031916600160a060020a03909116178155838301516001820155908301516002820155606083015180519192612bc3926003850192909101906141cc565b5060808201518051612bdf9160048401916020909101906141cc565b5060a08201518051612bfb9160058401916020909101906141cc565b5060c08201518051612c179160068401916020909101906141cc565b50905050600684604051612c2b919061475e565b908152604080516020928190038301902080546001808201835560009283529184902085516007909202018054600160a060020a031916600160a060020a039092169190911781558484015191810191909155908301516002820155606083015180518493612ca19260038501929101906141cc565b5060808201518051612cbd9160048401916020909101906141cc565b5060a08201518051612cd99160058401916020909101906141cc565b5060c08201518051612cf59160068401916020909101906141cc565b505050600783604051612d08919061475e565b908152604080516020928190038301902080546001808201835560009283529184902085516007909202018054600160a060020a031916600160a060020a039092169190911781558484015191810191909155908301516002820155606083015180518493612d7e9260038501929101906141cc565b5060808201518051612d9a9160048401916020909101906141cc565b5060a08201518051612db69160058401916020909101906141cc565b5060c08201518051612dd29160068401916020909101906141cc565b505033600090815260036020908152604082208054600181018255908352918190208851612e079450920191908801906141cc565b505050505050565b6000805460405160e060020a6370a08231028152600160a060020a03909116906370a0823190610d71903390600401614790565b60003390506000600483604051612e5a919061475e565b90815260408051918290036020908101832060e0840183528054600160a060020a03168452600181015491840191909152600281015491830191909152600381018054606084019190612eac90614b20565b80601f0160208091040260200160405190810160405280929190818152602001828054612ed890614b20565b8015612f255780601f10612efa57610100808354040283529160200191612f25565b820191906000526020600020905b815481529060010190602001808311612f0857829003601f168201915b50505050508152602001600482018054612f3e90614b20565b80601f0160208091040260200160405190810160405280929190818152602001828054612f6a90614b20565b8015612fb75780601f10612f8c57610100808354040283529160200191612fb7565b820191906000526020600020905b815481529060010190602001808311612f9a57829003601f168201915b50505050508152602001600582018054612fd090614b20565b80601f0160208091040260200160405190810160405280929190818152602001828054612ffc90614b20565b80156130495780601f1061301e57610100808354040283529160200191613049565b820191906000526020600020905b81548152906001019060200180831161302c57829003601f168201915b5050505050815260200160068201805461306290614b20565b80601f016020809104026020016040519081016040528092919081815260200182805461308e90614b20565b80156130db5780601f106130b0576101008083540402835291602001916130db565b820191906000526020600020905b8154815290600101906020018083116130be57829003601f168201915b50505091909252505081516040805160e0810182526064815260326020820152601991810191909152600c606082015260066080820152600360a0820152600160c08201529293508592909150600061313384611358565b1561314357505050505050613547565b61314c846139c4565b1561315c57505050505050613547565b6007811061316957613509565b8260405160200161317a9190614744565b60405160208183030381529060405280519060200120866040516020016131a19190614744565b60405160208183030381529060405280519060200120146131f1576131f186848484600781106131e45760e060020a634e487b7102600052603260045260246000fd5b602002015160ff16614083565b6040516020016132009061477a565b604051602081830303815290604052805190602001208560c0015160405160200161322b919061475e565b60405160208183030381529060405280519060200120141561324c57613509565b82955060048560c00151604051613263919061475e565b90815260408051918290036020908101832060e0840183528054600160a060020a031684526001810154918401919091526002810154918301919091526003810180546060840191906132b590614b20565b80601f01602080910402602001604051908101604052809291908181526020018280546132e190614b20565b801561332e5780601f106133035761010080835404028352916020019161332e565b820191906000526020600020905b81548152906001019060200180831161331157829003601f168201915b5050505050815260200160048201805461334790614b20565b80601f016020809104026020016040519081016040528092919081815260200182805461337390614b20565b80156133c05780601f10613395576101008083540402835291602001916133c0565b820191906000526020600020905b8154815290600101906020018083116133a357829003601f168201915b505050505081526020016005820180546133d990614b20565b80601f016020809104026020016040519081016040528092919081815260200182805461340590614b20565b80156134525780601f1061342757610100808354040283529160200191613452565b820191906000526020600020905b81548152906001019060200180831161343557829003601f168201915b5050505050815260200160068201805461346b90614b20565b80601f016020809104026020016040519081016040528092919081815260200182805461349790614b20565b80156134e45780601f106134b9576101008083540402835291602001916134e4565b820191906000526020600020905b8154815290600101906020018083116134c757829003601f168201915b505050505081525050945084600001519250808061350190614b5f565b91505061315c565b3360009081526003602090815260408220600190810180549182018155835291819020865161353f9391909101918701906141cc565b505050505050505b50565b6000811161356d5760405160e560020a62461bcd0281526004016104c09061491c565b60005460405160e060020a6323b872dd028152600160a060020a03909116906323b872dd906135a4903390309086906004016147a4565b602060405180830381600087803b1580156135be57600080fd5b505af11580156135d2573d6000803e3d6000fd5b505050506040513d601f19601f820116820180604052508101906135f69190614325565b506000600154826136079190614abe565b9050600033600160a060020a0316826040516136229061478d565b60006040518083038185875af1925050503d806000811461365f576040519150601f19603f3d011682016040523d82523d6000602084013e613664565b606091505b50509050806136885760405160e560020a62461bcd0281526004016104c0906149ad565b7f92f64ca637d023f354075a4be751b169c1a8a9ccb6d33cdd0cb3520543995727836040516136b79190614a7a565b60405180910390a1505050565b606060006007836040516136d8919061475e565b9081526020016040518091039020805480602002602001604051908101604052809291908181526020016000905b828210156109865760008481526020908190206040805160e081018252600786029092018054600160a060020a0316835260018101549383019390935260028301549082015260038201805491929160608401919061376490614b20565b80601f016020809104026020016040519081016040528092919081815260200182805461379090614b20565b80156137dd5780601f106137b2576101008083540402835291602001916137dd565b820191906000526020600020905b8154815290600101906020018083116137c057829003601f168201915b505050505081526020016004820180546137f690614b20565b80601f016020809104026020016040519081016040528092919081815260200182805461382290614b20565b801561386f5780601f106138445761010080835404028352916020019161386f565b820191906000526020600020905b81548152906001019060200180831161385257829003601f168201915b5050505050815260200160058201805461388890614b20565b80601f01602080910402602001604051908101604052809291908181526020018280546138b490614b20565b80156139015780601f106138d657610100808354040283529160200191613901565b820191906000526020600020905b8154815290600101906020018083116138e457829003601f168201915b5050505050815260200160068201805461391a90614b20565b80601f016020809104026020016040519081016040528092919081815260200182805461394690614b20565b80156139935780601f1061396857610100808354040283529160200191613993565b820191906000526020600020905b81548152906001019060200180831161397657829003601f168201915b50505050508152505081526020019060010190613706565b3360009081526003602052604090206002015460ff1690565b3360009081526003602090815260408083208151815460809481028201850190935260608101838152859491938492849190879085015b82821015613aa7578382906000526020600020018054613a1a90614b20565b80601f0160208091040260200160405190810160405280929190818152602001828054613a4690614b20565b8015613a935780601f10613a6857610100808354040283529160200191613a93565b820191906000526020600020905b815481529060010190602001808311613a7657829003601f168201915b5050505050815260200190600101906139fb565b50505050815260200160018201805480602002602001604051908101604052809291908181526020016000905b82821015613b80578382906000526020600020018054613af390614b20565b80601f0160208091040260200160405190810160405280929190818152602001828054613b1f90614b20565b8015613b6c5780601f10613b4157610100808354040283529160200191613b6c565b820191906000526020600020905b815481529060010190602001808311613b4f57829003601f168201915b505050505081526020019060010190613ad4565b505050908252506002919091015460ff16151560209182015281015190915060005b81518110156115da57818181518110613bce5760e060020a634e487b7102600052603260045260246000fd5b6020026020010151604051602001613be6919061475e565b6040516020818303038152906040528051906020012085604051602001613c0d919061475e565b604051602081830303815290604052805190602001201415613c35576001935050505061098f565b80613c3f81614b5f565b915050613ba2565b600054600160a060020a031681565b60606002805480602002602001604051908101604052809291908181526020016000905b828210156110835760008481526020908190206040805160e081018252600786029092018054600160a060020a03168352600181015493830193909352600283015490820152600382018054919291606084019190613cd890614b20565b80601f0160208091040260200160405190810160405280929190818152602001828054613d0490614b20565b8015613d515780601f10613d2657610100808354040283529160200191613d51565b820191906000526020600020905b815481529060010190602001808311613d3457829003601f168201915b50505050508152602001600482018054613d6a90614b20565b80601f0160208091040260200160405190810160405280929190818152602001828054613d9690614b20565b8015613de35780601f10613db857610100808354040283529160200191613de3565b820191906000526020600020905b815481529060010190602001808311613dc657829003601f168201915b50505050508152602001600582018054613dfc90614b20565b80601f0160208091040260200160405190810160405280929190818152602001828054613e2890614b20565b8015613e755780601f10613e4a57610100808354040283529160200191613e75565b820191906000526020600020905b815481529060010190602001808311613e5857829003601f168201915b50505050508152602001600682018054613e8e90614b20565b80601f0160208091040260200160405190810160405280929190818152602001828054613eba90614b20565b8015613f075780601f10613edc57610100808354040283529160200191613f07565b820191906000526020600020905b815481529060010190602001808311613eea57829003601f168201915b50505050508152505081526020019060010190613c7a565b60405160009083908390613f3790829060200161475e565b6040516020818303038152906040528051906020012085604051602001613f5e919061475e565b604051602081830303815290604052805190602001201415613f8557600192505050611352565b6000805b83518351613f979190614add565b81101561407957600160005b855181101561405557858181518110613fcf5760e060020a634e487b7102600052603260045260246000fd5b602001015160f860020a900460f860020a02600160f860020a031916858285613ff89190614a83565b815181106140195760e060020a634e487b7102600052603260045260246000fd5b602001015160f860020a900460f860020a02600160f860020a031916146140435760009150614055565b8061404d81614b5f565b915050613fa3565b508015614066576001925050614079565b508061407181614b5f565b915050613f89565b5095945050505050565b600081116140a65760405160e560020a62461bcd0281526004016104c090614964565b60005460405160e060020a6323b872dd028152600160a060020a03909116906323b872dd906140dd908690869086906004016147a4565b602060405180830381600087803b1580156140f757600080fd5b505af115801561410b573d6000803e3d6000fd5b505050506040513d601f19601f8201168201806040525081019061412f9190614325565b50505050565b604051806101400160405280600a905b61414d614163565b8152602001906001900390816141455790505090565b6040518060e001604052806000600160a060020a031681526020016000815260200160008152602001606081526020016060815260200160608152602001606081525090565b604051806060016040528060608152602001606081526020016000151581525090565b8280546141d890614b20565b90600052602060002090601f0160209004810192826141fa5760008555614240565b82601f1061421357805160ff1916838001178555614240565b82800160010185558215614240579182015b82811115614240578251825591602001919060010190614225565b5061424c929150614250565b5090565b5b8082111561424c5760008155600101614251565b8035600160a060020a038116811461098f57600080fd5b600082601f83011261428c578081fd5b81356001604060020a03808211156142a6576142a6614b94565b604051601f8301601f1916810160200182811182821017156142ca576142ca614b94565b6040528281528483016020018610156142e1578384fd5b82602086016020830137918201602001929092529392505050565b6000806040838503121561430e578182fd5b61431783614265565b946020939093013593505050565b600060208284031215614336578081fd5b81518015158114614345578182fd5b9392505050565b60006020828403121561435d578081fd5b81356001604060020a03811115614372578182fd5b61437e8482850161427c565b949350505050565b60008060408385031215614398578182fd5b82356001604060020a03808211156143ae578384fd5b6143ba8683870161427c565b935060208501359150808211156143cf578283fd5b506143dc8582860161427c565b9150509250929050565b600080600080608085870312156143fb578182fd5b84356001604060020a0380821115614411578384fd5b61441d8883890161427c565b95506020870135915080821115614432578384fd5b61443e8883890161427c565b94506040870135915080821115614453578384fd5b61445f8883890161427c565b93506060870135915080821115614474578283fd5b506144818782880161427c565b91505092959194509250565b600080600080600060a086880312156144a4578081fd5b85356001604060020a03808211156144ba578283fd5b6144c689838a0161427c565b965060208801359150808211156144db578283fd5b6144e789838a0161427c565b955060408801359150808211156144fc578283fd5b61450889838a0161427c565b9450606088013591508082111561451d578283fd5b5061452a8882890161427c565b92505061453960808701614265565b90509295509295909350565b6000806000806080858703121561455a578384fd5b84356001604060020a0380821115614570578586fd5b61457c8883890161427c565b95506020870135915080821115614591578485fd5b5061459e8782880161427c565b949794965050505060408301359260600135919050565b600080604083850312156145c7578182fd5b82356001604060020a038111156145dc578283fd5b6145e88582860161427c565b925050602083013560ff811681146145fe578182fd5b809150509250929050565b60006020828403121561461a578081fd5b5035919050565b600060208284031215614632578081fd5b5051919050565b60008282518085526020808601955080818302840101818601855b8481101561468257601f1986840301895261467083835161468f565b98840198925090830190600101614654565b5090979650505050505050565b600081518084526146a7816020860160208601614af4565b601f01601f19169290920160200192915050565b6000600160a060020a0382511683526020820151602084015260408201516040840152606082015160e060608501526146f760e085018261468f565b905060808301518482036080860152614710828261468f565b91505060a083015184820360a086015261472a828261468f565b91505060c083015184820360c0860152611fc8828261468f565b600160a060020a0391909116606060020a02815260140190565b60008251614770818460208701614af4565b9190910192915050565b60e060020a634e6f6e6502815260040190565b90565b600160a060020a0391909116815260200190565b600160a060020a039384168152919092166020820152604081019190915260600190565b6000602080830181845280855180835260408601915060408482028701019250838701855b8281101561481b57603f1988860301845261480985835161468f565b945092850192908501906001016147ed565b5092979650505050505050565b60608082526000906101a0830190830186835b600a81101561486d57605f198685030183526148588483516146bb565b9350602092830192919091019060010161483b565b505050602083019490945250901515604090910152919050565b6000602080830181845280855180835260408601915060408482028701019250838701855b8281101561481b57603f198886030184526148c88583516146bb565b945092850192908501906001016148ac565b901515815260200190565b6020808252601b908201527f596f75206e65656420746f2073656e6420736f6d652045746865720000000000604082015260600190565b60208082526025908201527f596f75206e65656420746f2073656c6c206174206c6561737420736f6d652074604082015260d860020a646f6b656e7302606082015260800190565b60208082526026908201527f596f75206e65656420746f20656e746572206174206c6561737420736f6d6520604082015260d060020a65746f6b656e7302606082015260800190565b6020808252601690820152605160020a752a3930b739b332b91022ba3432b9103330b4b632b21702604082015260600190565b6020808252818101527f4e6f7420656e6f75676820746f6b656e7320696e207468652072657365727665604082015260600190565b60006020825261434560208301846146bb565b600060208252825160606020840152614a446080840182614639565b90506020840151601f19848303016040850152614a618282614639565b9150506040840151151560608401528091505092915050565b90815260200190565b60008219821115614a9657614a96614b7a565b500190565b600082614ab95760e060020a634e487b710281526012600452602481fd5b500490565b6000816000190483118215151615614ad857614ad8614b7a565b500290565b600082821015614aef57614aef614b7a565b500390565b60005b83811015614b0f578181015183820152602001614af7565b8381111561412f5750506000910152565b600281046001821680614b3457607f821691505b60208210811415614b595760e060020a634e487b710260009081526022600452602490fd5b50919050565b6000600019821415614b7357614b73614b7a565b5060010190565b60e060020a634e487b710260009081526011600452602490fd5b60e060020a634e487b710260009081526041600452602490fdfe405787fa12a823e0f2b7631cc41b3ba8828b3321ca811111fa75cd3aa3bb5ace405787fa12a823e0f2b7631cc41b3ba8828b3321ca811111fa75cd3aa3bb5acf405787fa12a823e0f2b7631cc41b3ba8828b3321ca811111fa75cd3aa3bb5ad0405787fa12a823e0f2b7631cc41b3ba8828b3321ca811111fa75cd3aa3bb5ad1a2646970667358221220e8074ad4170e3c4aa851d4d8f9d8f40c57d935d3bc85a322f0fb4d90763e12f364736f6c63430008000033608060405268056bc75e2d6310000060015534801561001d57600080fd5b5060015433600090815260208190526040902055610454806100406000396000f3fe608060405234801561001057600080fd5b50600436106100655760e060020a600035046306fdde03811461006a57806318160ddd1461008857806323b872dd1461009d578063313ce567146100bd57806370a08231146100d257806395d89b41146100e5575b600080fd5b6100726100ed565b60405161007f9190610336565b60405180910390f35b610090610115565b60405161007f91906103be565b6100b06100ab3660046102f0565b61011b565b60405161007f919061032b565b6100c5610215565b60405161007f91906103c7565b6100906100e03660046102d6565b61021a565b610072610239565b60405180604001604052806009815260200160b960020a6826bab9b4b1a1b7b4b70281525081565b60015490565b600160a060020a03831660009081526020819052604081205482111561015f5760405160e560020a62461bcd02815260040161015690610389565b60405180910390fd5b600160a060020a038416600090815260208190526040902054610182908361025b565b600160a060020a0380861660009081526020819052604080822093909355908516815220546101b1908361028f565b600160a060020a0380851660008181526020819052604090819020939093559151908616907fddf252ad1be2c89b69c2b068fc378daa952ba7f163c4a11628f55a4df523b3ef906102039086906103be565b60405180910390a35060019392505050565b600281565b600160a060020a0381166000908152602081905260409020545b919050565b60405180604001604052806003815260200160e860020a624d55430281525081565b60008282111561027e5760e060020a634e487b7102600052600160045260246000fd5b61028882846103ed565b9392505050565b60008061029c83856103d5565b9050838110156102885760e060020a634e487b7102600052600160045260246000fd5b8035600160a060020a038116811461023457600080fd5b6000602082840312156102e7578081fd5b610288826102bf565b600080600060608486031215610304578182fd5b61030d846102bf565b925061031b602085016102bf565b9150604084013590509250925092565b901515815260200190565b6000602080835283518082850152825b8181101561036257858101830151858201604001528201610346565b818111156103735783604083870101525b50601f01601f1916929092016040019392505050565b6020808252818101527f546865206f776e657220686173206e6f20656e6f7567682062616c616e636521604082015260600190565b90815260200190565b60ff91909116815260200190565b600082198211156103e8576103e8610404565b500190565b6000828210156103ff576103ff610404565b500390565b60e060020a634e487b710260009081526011600452602490fdfea264697066735822122010b7da222bf6e6f35ad8d62ad185e2af5bb4e71cd6d1be6e798de855fddf0cbe64736f6c63430008000033",
  "immutableReferences": {},
  "source": "pragma solidity >=0.4.0 <0.9.0;\n// support return struct in functions\npragma experimental ABIEncoderV2;\n\n// import \"../../node_modules/@openzeppelin/contracts/token/ERC20/ERC20.sol\";\n// import \"./MusicCoin.sol\";\nimport \"./MusicToken.sol\";\n\ncontract MusicDApp is DEX {\n    // Music metadata\n    struct Music {\n        // Music information\n        address uploader;\n        uint256 uploadTime;\n        uint256 count;\n        string name;\n        string artist;\n        // Music content\n        string ipfsHash;\n        string coverFrom;\n    }\n\n    struct User {\n        string[] upload_music_list;\n        string[] bought_music_list;\n        bool isValid;\n    }\n\n    // State variables\n    Music[] internal musics;\n\n    mapping(address => User) internal users;\n\n    // ipfs hash as index\n    mapping(string => Music) internal music_hash;\n\n    // (name, artist) as primary key\n    mapping(string => mapping(string => Music)) internal music;\n\n    // name as primary key\n    mapping(string => Music[]) internal music_artist_list;\n\n    // artist as primary key\n    mapping(string => Music[]) internal artist_music_list;\n\n\n    /* Public methods */\n    // Retrieve basic user information\n    function userExists() public view returns (bool) {\n        return users[msg.sender].isValid;\n    }\n\n    function getUserInfo() public view returns (User memory) {\n        return users[msg.sender];\n    }\n\n    function getUserBalance() public view returns (uint256) {\n        return token.balanceOf(msg.sender);\n    }\n\n    function getUploadMusicList() public view returns (string[] memory) {\n        return users[msg.sender].upload_music_list;\n    }\n\n    function getBoughtMusicList() public view returns (string[] memory) {\n        return users[msg.sender].bought_music_list;\n    }\n\n    // check if the user had upload this music\n    function findUploadMusic(string memory _ipfsHash)\n        public\n        view\n        returns (bool)\n    {\n        User memory user = users[msg.sender];\n        string[] memory upload_list = user.upload_music_list;\n\n        for (uint256 i = 0; i < upload_list.length; i++) {\n            if (\n                keccak256(abi.encodePacked(_ipfsHash)) ==\n                keccak256(abi.encodePacked(upload_list[i]))\n            ) {\n                return true;\n            }\n        }\n\n        return false;\n    }\n\n    // check if the user had bought this music\n    function findBoughtMusic(string memory _ipfsHash)\n        public\n        view\n        returns (bool)\n    {\n        User memory user = users[msg.sender];\n        string[] memory bought_list = user.bought_music_list;\n\n        for (uint256 i = 0; i < bought_list.length; i++) {\n            if (\n                keccak256(abi.encodePacked(_ipfsHash)) ==\n                keccak256(abi.encodePacked(bought_list[i]))\n            ) {\n                return true;\n            }\n        }\n\n        return false;\n    }\n\n    function musicExists(string memory _name, string memory _artist) \n        public \n        view\n        returns (bool)\n    {\n        Music memory _music = music[_name][_artist];\n        address _uploader = _music.uploader;\n        bool exists = _uploader != address(0);\n        return exists;\n    }\n\n    // upload music to the blockchain\n    function uploadMusic(\n        string memory _ipfsHash,\n        string memory _name,\n        string memory _artist,\n        string memory _coverFrom\n    ) public {\n        Music memory _music =\n            Music(\n                msg.sender,\n                block.timestamp,\n                1,\n                _name,\n                _artist,\n                _ipfsHash,\n                _coverFrom\n            );\n\n        // Global state update\n        musics.push(_music);\n        music[_name][_artist] = _music;\n        music_hash[_ipfsHash] = _music;\n        music_artist_list[_name].push(_music);\n        artist_music_list[_artist].push(_music);\n\n        // User state update\n        users[msg.sender].upload_music_list.push(_ipfsHash);\n    }\n\n    function uploadMusic_batch(\n        string memory _ipfsHash,\n        string memory _name,\n        string memory _artist,\n        string memory _coverFrom,\n        address uploader_addr\n    ) public {\n        Music memory _music =\n            Music(\n                uploader_addr,\n                block.timestamp,\n                0,\n                _name,\n                _artist,\n                _ipfsHash,\n                _coverFrom\n            );\n\n        // Global state update\n        musics.push(_music);\n        music[_name][_artist] = _music;\n        music_hash[_ipfsHash] = _music;\n        music_artist_list[_name].push(_music);\n        artist_music_list[_artist].push(_music);\n\n        // User state update\n        users[uploader_addr].upload_music_list.push(_ipfsHash);\n    }\n\n    function getMusic(string memory _name, string memory _artist)\n        public\n        view\n        returns (Music memory)\n    {\n        Music memory _music = music[_name][_artist];\n\n        return _music;\n    }\n\n    function getMusicByHash(string memory _ipfsHash)\n        public\n        view\n        returns (Music memory)\n    {\n        Music memory _music = music_hash[_ipfsHash];\n\n        return _music;\n    }\n\n    function getMusicList()\n        public \n        view \n        returns (Music[] memory) \n    {\n        return musics;\n    }\n\n    function getMusicArtistList(string memory _name)\n        public\n        view\n        returns (Music[] memory)\n    {\n        Music[] memory _music_list = music_artist_list[_name];\n\n        return _music_list;\n    }\n\n    function getArtistMusicList(string memory _artist)\n        public\n        view\n        returns (Music[] memory)\n    {\n        Music[] memory _artist_music_list = artist_music_list[_artist];\n\n        return _artist_music_list;\n    }       \n\n    function buyMusicByHash(string memory _ipfsHash) public {\n        address sender = msg.sender;\n        Music memory _music = music_hash[_ipfsHash];\n        string memory songHash = _ipfsHash;\n        address uploader = _music.uploader;\n        uint8[7] memory chain = [100, 50, 25, 12, 6, 3, 1];\n        uint256 count = 0;\n\n        // Uploader can listen to what he uploaded\n        if (findUploadMusic(songHash)) return;\n\n        // Buyer will not pay twice\n        if (findBoughtMusic(songHash)) return;\n\n        while (true) {\n            // The depth excee the limit\n            if (count >= 7) {\n                break;\n            }\n\n            // Send token only if the \n            if (\n                !(keccak256(abi.encodePacked(sender)) ==\n                keccak256(abi.encodePacked(uploader)))\n            ) {\n                transferTokenFrom(sender, uploader, chain[count]);\n            }\n            // hit the end of the chain\n            if (\n                keccak256(abi.encodePacked((_music.coverFrom))) ==\n                keccak256(abi.encodePacked((\"None\")))\n            ) {\n                break;\n            }\n\n            sender = uploader;\n            _music = music_hash[_music.coverFrom];\n            uploader = _music.uploader;\n\n            count++;\n        }\n\n        // add music to listener list\n        users[msg.sender].bought_music_list.push(songHash);\n    }\n\n    function getMusicChainByHash(string memory _ipfsHash, uint8 depth)\n        public\n        view\n        returns (Music[] memory)\n    {\n        Music memory _music = music_hash[_ipfsHash];\n        uint256 count = 0;\n        Music[] memory music_chain = new Music[](depth);\n\n        while (true) {\n            // The depth excee the limit\n            if (count >= depth) {\n                break;\n            }\n            music_chain[count] = _music;\n            // hit the end of the chain\n            if (\n                keccak256(abi.encodePacked((_music.coverFrom))) ==\n                keccak256(abi.encodePacked((\"None\")))\n            ) {\n                break;\n            }\n\n            _music = music_hash[_music.coverFrom];\n\n            count++;\n        }\n\n        return music_chain;\n    }\n\n    function getRelevantMusicArtistList(string memory _name, string memory _artist, uint _index, uint depth) \n        public \n        view \n        returns (Music[10] memory, uint, bool) \n    {\n        Music[10] memory returnList;\n        uint returnIndex = 0;\n        bool reachEnd = false;\n        Music memory _music;\n        uint index = _index;\n        \n        for(uint i = _index; i < musics.length; i++) {\n            if(returnIndex >= depth) break;\n            _music = musics[i];\n\n            // if a music name contains input name, put it into return list \n            if(str_contains(_name, _music.name) || str_contains(_artist, _music.artist)) {\n                returnList[returnIndex] = _music;\n                returnIndex++;\n            }\n\n            index++;\n        }\n\n        // tell frontend we had reach the end of the list\n        if (index == musics.length) {\n            reachEnd = true;\n        }\n\n        return (returnList, returnIndex, reachEnd);\n    }\n\n    \n\n    // Private methods\n    // check if string contains in other string\n    function str_contains (string memory what, string memory where) private pure returns (bool){\n        bytes memory whatBytes = bytes (what);\n        bytes memory whereBytes = bytes (where);\n        if (keccak256(abi.encodePacked((what))) == keccak256(abi.encodePacked((where))))\n        {\n            return true;\n        }\n        bool found = false;\n        for (uint i = 0; i < whereBytes.length - whatBytes.length; i++) {\n            bool flag = true;\n            for (uint j = 0; j < whatBytes.length; j++)\n                if (whereBytes [i + j] != whatBytes [j]) {\n                    flag = false;\n                    break;\n                }\n            if (flag) {\n                found = true;\n                break;\n            }\n        }\n        return (found);\n    }\n}\n",
  "sourcePath": "/Users/systemato/dev/nmlab-final/music-dapp/react/src/contracts/MusicDApp.sol",
  "compiler": {
    "name": "solc",
    "version": "0.8.0+commit.c7dfd78e.Emscripten.clang"
  },
  "schemaVersion": "3.4.0",
  "updatedAt": "2021-06-26T13:09:02.989Z",
  "networkType": "ethereum",
  "devdoc": {
    "kind": "dev",
    "methods": {},
    "version": 1
  },
  "userdoc": {
    "kind": "user",
    "methods": {},
    "version": 1
  }
}