{
  "contractName": "MusicCoin",
  "abi": [
    {
      "inputs": [],
      "stateMutability": "nonpayable",
      "type": "constructor"
    },
    {
      "anonymous": false,
      "inputs": [
        {
          "indexed": true,
          "internalType": "address",
          "name": "from",
          "type": "address"
        },
        {
          "indexed": true,
          "internalType": "address",
          "name": "to",
          "type": "address"
        },
        {
          "indexed": false,
          "internalType": "uint256",
          "name": "value",
          "type": "uint256"
        }
      ],
      "name": "Transfer",
      "type": "event"
    },
    {
      "inputs": [],
      "name": "decimals",
      "outputs": [
        {
          "internalType": "uint8",
          "name": "",
          "type": "uint8"
        }
      ],
      "stateMutability": "view",
      "type": "function"
    },
    {
      "inputs": [],
      "name": "name",
      "outputs": [
        {
          "internalType": "string",
          "name": "",
          "type": "string"
        }
      ],
      "stateMutability": "view",
      "type": "function"
    },
    {
      "inputs": [],
      "name": "symbol",
      "outputs": [
        {
          "internalType": "string",
          "name": "",
          "type": "string"
        }
      ],
      "stateMutability": "view",
      "type": "function"
    },
    {
      "inputs": [],
      "name": "totalSupply",
      "outputs": [
        {
          "internalType": "uint256",
          "name": "",
          "type": "uint256"
        }
      ],
      "stateMutability": "view",
      "type": "function"
    },
    {
      "inputs": [
        {
          "internalType": "address",
          "name": "tokenOwner",
          "type": "address"
        }
      ],
      "name": "balanceOf",
      "outputs": [
        {
          "internalType": "uint256",
          "name": "",
          "type": "uint256"
        }
      ],
      "stateMutability": "view",
      "type": "function"
    },
    {
      "inputs": [
        {
          "internalType": "address",
          "name": "owner",
          "type": "address"
        },
        {
          "internalType": "address",
          "name": "buyer",
          "type": "address"
        },
        {
          "internalType": "uint256",
          "name": "numTokens",
          "type": "uint256"
        }
      ],
      "name": "transferFrom",
      "outputs": [
        {
          "internalType": "bool",
          "name": "",
          "type": "bool"
        }
      ],
      "stateMutability": "nonpayable",
      "type": "function"
    }
  ],
  "bytecode": "0x608060405268056bc75e2d6310000060015534801561001d57600080fd5b50600154336000908152602081905260409020556104ab806100406000396000f3fe608060405234801561001057600080fd5b506004361061007e577c0100000000000000000000000000000000000000000000000000000000600035046306fdde03811461008357806318160ddd146100a157806323b872dd146100b6578063313ce567146100d657806370a08231146100eb57806395d89b41146100fe575b600080fd5b61008b610106565b604051610098919061038e565b60405180910390f35b6100a961013f565b6040516100989190610416565b6100c96100c4366004610348565b610145565b6040516100989190610383565b6100de610256565b604051610098919061041f565b6100a96100f936600461032e565b61025b565b61008b61027a565b6040518060400160405280600981526020017f4d75736963436f696e000000000000000000000000000000000000000000000081525081565b60015490565b600160a060020a0383166000908152602081905260408120548211156101a0576040517f08c379a0000000000000000000000000000000000000000000000000000000008152600401610197906103e1565b60405180910390fd5b600160a060020a0384166000908152602081905260409020546101c390836102b3565b600160a060020a0380861660009081526020819052604080822093909355908516815220546101f290836102e7565b600160a060020a0380851660008181526020819052604090819020939093559151908616907fddf252ad1be2c89b69c2b068fc378daa952ba7f163c4a11628f55a4df523b3ef90610244908690610416565b60405180910390a35060019392505050565b600281565b600160a060020a0381166000908152602081905260409020545b919050565b6040518060400160405280600381526020017f4d5543000000000000000000000000000000000000000000000000000000000081525081565b6000828211156102d65760e060020a634e487b7102600052600160045260246000fd5b6102e08284610445565b9392505050565b6000806102f4838561042d565b9050838110156102e05760e060020a634e487b7102600052600160045260246000fd5b8035600160a060020a038116811461027557600080fd5b60006020828403121561033f578081fd5b6102e082610317565b60008060006060848603121561035c578182fd5b61036584610317565b925061037360208501610317565b9150604084013590509250925092565b901515815260200190565b6000602080835283518082850152825b818110156103ba5785810183015185820160400152820161039e565b818111156103cb5783604083870101525b50601f01601f1916929092016040019392505050565b6020808252818101527f546865206f776e657220686173206e6f20656e6f7567682062616c616e636521604082015260600190565b90815260200190565b60ff91909116815260200190565b600082198211156104405761044061045c565b500190565b6000828210156104575761045761045c565b500390565b60e060020a634e487b7102600052601160045260246000fdfea2646970667358221220dd6487f38fb2355b01aa2007d24309987685c8b8c437448added730bc2852eba64736f6c63430008000033",
  "immutableReferences": {},
  "source": "pragma solidity >=0.4.0 <0.9.0;\n\ninterface TokenPool {\n    function totalSupply() external view returns (uint256);\n\n    function balanceOf(address account) external view returns (uint256);\n\n    function transferFrom(\n        address sender,\n        address recipient,\n        uint256 amount\n    ) external returns (bool);\n\n    event Transfer(address indexed from, address indexed to, uint256 value);\n    \n}\n\ncontract MusicCoin is TokenPool {\n    string public constant name = \"MusicCoin\";\n    string public constant symbol = \"MUC\";\n    uint8 public constant decimals = 2;\n\n    mapping(address => uint256) balances;\n\n    uint256 _totalSupply = 100 ether;\n\n    using SafeMath for uint256;\n\n    constructor() {\n        balances[msg.sender] = _totalSupply;\n    }\n\n    function totalSupply() public view override returns (uint256) {\n        return _totalSupply;\n    }\n\n    function balanceOf(address tokenOwner)\n        public\n        view\n        override\n        returns (uint256)\n    {\n        return balances[tokenOwner];\n    }\n\n    function transferFrom(\n        address owner,\n        address buyer,\n        uint256 numTokens\n    ) public override returns (bool) {\n        require(numTokens <= balances[owner], \"The owner has no enough balance!\");\n        balances[owner] = balances[owner].sub(numTokens);\n        balances[buyer] = balances[buyer].add(numTokens);\n        emit Transfer(owner, buyer, numTokens);\n        return true;\n    }\n}\n\nlibrary SafeMath {\n    function sub(uint256 a, uint256 b) internal pure returns (uint256) {\n        assert(b <= a);\n        return a - b;\n    }\n\n    function add(uint256 a, uint256 b) internal pure returns (uint256) {\n        uint256 c = a + b;\n        assert(c >= a);\n        return c;\n    }\n}\n\ncontract DEX {\n    event Bought(uint256 amount);\n    event Sold(uint256 amount);\n\n    TokenPool public token;\n    uint256 public exchange_rate = 10**14;\n\n    constructor() {\n        token = new MusicCoin();\n    }\n\n    function getTokenSupply() public view returns (uint256) {\n        return token.totalSupply();\n    }\n\n    function getContractAddress() public view returns (address) {\n        return address(this);\n    }\n\n    function getPoolTokenBalance() public view returns (uint256) {\n        return token.balanceOf(address(this));\n    }\n\n    function getPoolEtherBalance() public view returns (uint256) {\n        return address(this).balance;\n    }\n\n    function register() public returns (bool) {\n        uint amount = 10000;\n        uint256 dexBalance = token.balanceOf(address(this));\n        require(amount <= dexBalance, \"Not enough tokens in the reserve\");\n        token.transferFrom(address(this), msg.sender, amount);\n        return true;\n    }\n\n    function buy() public payable {\n        uint256 amountTobuy = msg.value;\n        uint256 dexBalance = token.balanceOf(address(this));\n        require(amountTobuy > 0, \"You need to send some Ether\");\n        require(amountTobuy <= dexBalance, \"Not enough tokens in the reserve\");\n        token.transferFrom(address(this), msg.sender, amountTobuy / exchange_rate);\n        emit Bought(amountTobuy);\n    }\n\n    function sell(uint256 amount) public {\n        require(amount > 0, \"You need to sell at least some tokens\");\n        token.transferFrom(msg.sender, address(this), amount);\n\n        // Send seller the sell price\n        uint256 weiAmount = amount * exchange_rate;\n\n        (bool success, ) = msg.sender.call{value: weiAmount}(\"\");\n        // payable(msg.sender).transfer(weiAmount);\n        require(success, \"Transfer Ether failed.\");\n        emit Sold(amount);\n    }\n\n    function transferToken(\n        address receiver,\n        uint256 amount\n    ) public {\n        require(amount > 0, \"You need to enter at least some tokens\");\n        token.transferFrom(msg.sender, receiver, amount);\n    }\n\n    function transferTokenFrom(\n        address sender,\n        address receiver,\n        uint256 amount\n    ) internal {\n        require(amount > 0, \"You need to enter at least some tokens\");\n        token.transferFrom(sender, receiver, amount);\n    }\n}\n",
  "sourcePath": "/Users/systemato/dev/nmlab-final/music-dapp/react/src/contracts/MusicToken.sol",
  "compiler": {
    "name": "solc",
    "version": "0.8.0+commit.c7dfd78e.Emscripten.clang"
  },
  "schemaVersion": "3.4.0",
  "updatedAt": "2021-06-24T15:41:56.440Z",
  "devdoc": {
    "kind": "dev",
    "methods": {},
    "version": 1
  },
  "userdoc": {
    "kind": "user",
    "methods": {},
    "version": 1
  }
}