{
  "contractName": "MusicDApp",
  "abi": [
    {
      "anonymous": false,
      "inputs": [
        {
          "indexed": false,
          "internalType": "uint256",
          "name": "amount",
          "type": "uint256"
        }
      ],
      "name": "Bought",
      "type": "event"
    },
    {
      "anonymous": false,
      "inputs": [
        {
          "indexed": false,
          "internalType": "uint256",
          "name": "amount",
          "type": "uint256"
        }
      ],
      "name": "Sold",
      "type": "event"
    },
    {
      "inputs": [],
      "name": "buy",
      "outputs": [],
      "stateMutability": "payable",
      "type": "function",
      "payable": true
    },
    {
      "inputs": [],
      "name": "exchange_rate",
      "outputs": [
        {
          "internalType": "uint256",
          "name": "",
          "type": "uint256"
        }
      ],
      "stateMutability": "view",
      "type": "function",
      "constant": true
    },
    {
      "inputs": [
        {
          "internalType": "uint256",
          "name": "amount",
          "type": "uint256"
        }
      ],
      "name": "sell",
      "outputs": [],
      "stateMutability": "nonpayable",
      "type": "function"
    },
    {
      "inputs": [],
      "name": "token",
      "outputs": [
        {
          "internalType": "contract IERC20",
          "name": "",
          "type": "address"
        }
      ],
      "stateMutability": "view",
      "type": "function",
      "constant": true
    },
    {
      "inputs": [
        {
          "internalType": "address",
          "name": "sender",
          "type": "address"
        },
        {
          "internalType": "address",
          "name": "receiver",
          "type": "address"
        },
        {
          "internalType": "uint256",
          "name": "amount",
          "type": "uint256"
        }
      ],
      "name": "transferToken",
      "outputs": [],
      "stateMutability": "nonpayable",
      "type": "function"
    },
    {
      "inputs": [],
      "name": "returnMsgSender",
      "outputs": [
        {
          "internalType": "address",
          "name": "",
          "type": "address"
        }
      ],
      "stateMutability": "view",
      "type": "function",
      "constant": true
    },
    {
      "inputs": [],
      "name": "userExists",
      "outputs": [
        {
          "internalType": "bool",
          "name": "",
          "type": "bool"
        }
      ],
      "stateMutability": "view",
      "type": "function",
      "constant": true
    },
    {
      "inputs": [],
      "name": "getUserInfo",
      "outputs": [
        {
          "components": [
            {
              "internalType": "string[]",
              "name": "upload_music_list",
              "type": "string[]"
            },
            {
              "internalType": "string[]",
              "name": "bought_music_list",
              "type": "string[]"
            },
            {
              "internalType": "bool",
              "name": "isValid",
              "type": "bool"
            }
          ],
          "internalType": "struct MusicDApp.User",
          "name": "",
          "type": "tuple"
        }
      ],
      "stateMutability": "view",
      "type": "function",
      "constant": true
    },
    {
      "inputs": [],
      "name": "getUserBalance",
      "outputs": [
        {
          "internalType": "uint256",
          "name": "",
          "type": "uint256"
        }
      ],
      "stateMutability": "view",
      "type": "function",
      "constant": true
    },
    {
      "inputs": [],
      "name": "register",
      "outputs": [
        {
          "components": [
            {
              "internalType": "string[]",
              "name": "upload_music_list",
              "type": "string[]"
            },
            {
              "internalType": "string[]",
              "name": "bought_music_list",
              "type": "string[]"
            },
            {
              "internalType": "bool",
              "name": "isValid",
              "type": "bool"
            }
          ],
          "internalType": "struct MusicDApp.User",
          "name": "",
          "type": "tuple"
        }
      ],
      "stateMutability": "nonpayable",
      "type": "function"
    },
    {
      "inputs": [],
      "name": "getUploadMusicList",
      "outputs": [
        {
          "internalType": "string[]",
          "name": "",
          "type": "string[]"
        }
      ],
      "stateMutability": "view",
      "type": "function",
      "constant": true
    },
    {
      "inputs": [],
      "name": "getBoughtMusicList",
      "outputs": [
        {
          "internalType": "string[]",
          "name": "",
          "type": "string[]"
        }
      ],
      "stateMutability": "view",
      "type": "function",
      "constant": true
    },
    {
      "inputs": [
        {
          "internalType": "string",
          "name": "_ipfsHash",
          "type": "string"
        }
      ],
      "name": "findUploadMusic",
      "outputs": [
        {
          "internalType": "bool",
          "name": "",
          "type": "bool"
        }
      ],
      "stateMutability": "view",
      "type": "function",
      "constant": true
    },
    {
      "inputs": [
        {
          "internalType": "string",
          "name": "_ipfsHash",
          "type": "string"
        }
      ],
      "name": "findBoughtMusic",
      "outputs": [
        {
          "internalType": "bool",
          "name": "",
          "type": "bool"
        }
      ],
      "stateMutability": "view",
      "type": "function",
      "constant": true
    },
    {
      "inputs": [
        {
          "internalType": "string",
          "name": "_ipfsHash",
          "type": "string"
        },
        {
          "internalType": "string",
          "name": "_name",
          "type": "string"
        },
        {
          "internalType": "string",
          "name": "_artist",
          "type": "string"
        },
        {
          "internalType": "string",
          "name": "_coverFrom",
          "type": "string"
        }
      ],
      "name": "uploadMusic",
      "outputs": [],
      "stateMutability": "nonpayable",
      "type": "function"
    },
    {
      "inputs": [
        {
          "internalType": "string",
          "name": "_name",
          "type": "string"
        },
        {
          "internalType": "string",
          "name": "_artist",
          "type": "string"
        }
      ],
      "name": "getMusic",
      "outputs": [
        {
          "components": [
            {
              "internalType": "address",
              "name": "uploader",
              "type": "address"
            },
            {
              "internalType": "uint256",
              "name": "uploadTime",
              "type": "uint256"
            },
            {
              "internalType": "uint256",
              "name": "count",
              "type": "uint256"
            },
            {
              "internalType": "string",
              "name": "name",
              "type": "string"
            },
            {
              "internalType": "string",
              "name": "artist",
              "type": "string"
            },
            {
              "internalType": "string",
              "name": "ipfsHash",
              "type": "string"
            },
            {
              "internalType": "string",
              "name": "coverFrom",
              "type": "string"
            }
          ],
          "internalType": "struct MusicDApp.Music",
          "name": "",
          "type": "tuple"
        }
      ],
      "stateMutability": "view",
      "type": "function",
      "constant": true
    },
    {
      "inputs": [
        {
          "internalType": "string",
          "name": "_name",
          "type": "string"
        },
        {
          "internalType": "string",
          "name": "_artist",
          "type": "string"
        }
      ],
      "name": "searchMusic",
      "outputs": [
        {
          "components": [
            {
              "internalType": "address",
              "name": "uploader",
              "type": "address"
            },
            {
              "internalType": "uint256",
              "name": "uploadTime",
              "type": "uint256"
            },
            {
              "internalType": "uint256",
              "name": "count",
              "type": "uint256"
            },
            {
              "internalType": "string",
              "name": "name",
              "type": "string"
            },
            {
              "internalType": "string",
              "name": "artist",
              "type": "string"
            },
            {
              "internalType": "string",
              "name": "ipfsHash",
              "type": "string"
            },
            {
              "internalType": "string",
              "name": "coverFrom",
              "type": "string"
            }
          ],
          "internalType": "struct MusicDApp.Music[]",
          "name": "",
          "type": "tuple[]"
        }
      ],
      "stateMutability": "view",
      "type": "function",
      "constant": true
    },
    {
      "inputs": [
        {
          "internalType": "string",
          "name": "_ipfsHash",
          "type": "string"
        }
      ],
      "name": "getMusicByHash",
      "outputs": [
        {
          "components": [
            {
              "internalType": "address",
              "name": "uploader",
              "type": "address"
            },
            {
              "internalType": "uint256",
              "name": "uploadTime",
              "type": "uint256"
            },
            {
              "internalType": "uint256",
              "name": "count",
              "type": "uint256"
            },
            {
              "internalType": "string",
              "name": "name",
              "type": "string"
            },
            {
              "internalType": "string",
              "name": "artist",
              "type": "string"
            },
            {
              "internalType": "string",
              "name": "ipfsHash",
              "type": "string"
            },
            {
              "internalType": "string",
              "name": "coverFrom",
              "type": "string"
            }
          ],
          "internalType": "struct MusicDApp.Music",
          "name": "",
          "type": "tuple"
        }
      ],
      "stateMutability": "view",
      "type": "function",
      "constant": true
    },
    {
      "inputs": [
        {
          "internalType": "string",
          "name": "_name",
          "type": "string"
        },
        {
          "internalType": "string",
          "name": "_artist",
          "type": "string"
        }
      ],
      "name": "getMusicWithCountIncrement",
      "outputs": [
        {
          "components": [
            {
              "internalType": "address",
              "name": "uploader",
              "type": "address"
            },
            {
              "internalType": "uint256",
              "name": "uploadTime",
              "type": "uint256"
            },
            {
              "internalType": "uint256",
              "name": "count",
              "type": "uint256"
            },
            {
              "internalType": "string",
              "name": "name",
              "type": "string"
            },
            {
              "internalType": "string",
              "name": "artist",
              "type": "string"
            },
            {
              "internalType": "string",
              "name": "ipfsHash",
              "type": "string"
            },
            {
              "internalType": "string",
              "name": "coverFrom",
              "type": "string"
            }
          ],
          "internalType": "struct MusicDApp.Music",
          "name": "",
          "type": "tuple"
        }
      ],
      "stateMutability": "nonpayable",
      "type": "function"
    },
    {
      "inputs": [
        {
          "internalType": "string",
          "name": "_name",
          "type": "string"
        }
      ],
      "name": "getMusicArtistList",
      "outputs": [
        {
          "components": [
            {
              "internalType": "address",
              "name": "uploader",
              "type": "address"
            },
            {
              "internalType": "uint256",
              "name": "uploadTime",
              "type": "uint256"
            },
            {
              "internalType": "uint256",
              "name": "count",
              "type": "uint256"
            },
            {
              "internalType": "string",
              "name": "name",
              "type": "string"
            },
            {
              "internalType": "string",
              "name": "artist",
              "type": "string"
            },
            {
              "internalType": "string",
              "name": "ipfsHash",
              "type": "string"
            },
            {
              "internalType": "string",
              "name": "coverFrom",
              "type": "string"
            }
          ],
          "internalType": "struct MusicDApp.Music[]",
          "name": "",
          "type": "tuple[]"
        }
      ],
      "stateMutability": "view",
      "type": "function",
      "constant": true
    },
    {
      "inputs": [
        {
          "internalType": "string",
          "name": "_artist",
          "type": "string"
        }
      ],
      "name": "getArtistMusicList",
      "outputs": [
        {
          "components": [
            {
              "internalType": "address",
              "name": "uploader",
              "type": "address"
            },
            {
              "internalType": "uint256",
              "name": "uploadTime",
              "type": "uint256"
            },
            {
              "internalType": "uint256",
              "name": "count",
              "type": "uint256"
            },
            {
              "internalType": "string",
              "name": "name",
              "type": "string"
            },
            {
              "internalType": "string",
              "name": "artist",
              "type": "string"
            },
            {
              "internalType": "string",
              "name": "ipfsHash",
              "type": "string"
            },
            {
              "internalType": "string",
              "name": "coverFrom",
              "type": "string"
            }
          ],
          "internalType": "struct MusicDApp.Music[]",
          "name": "",
          "type": "tuple[]"
        }
      ],
      "stateMutability": "view",
      "type": "function",
      "constant": true
    },
    {
      "inputs": [
        {
          "internalType": "string",
          "name": "_name",
          "type": "string"
        },
        {
          "internalType": "string",
          "name": "_artist",
          "type": "string"
        }
      ],
      "name": "buyMusic",
      "outputs": [],
      "stateMutability": "nonpayable",
      "type": "function"
    },
    {
      "inputs": [
        {
          "internalType": "string",
          "name": "_ipfsHash",
          "type": "string"
        }
      ],
      "name": "buyMusicByHash",
      "outputs": [],
      "stateMutability": "nonpayable",
      "type": "function"
    },
    {
      "inputs": [
        {
          "internalType": "string",
          "name": "_name",
          "type": "string"
        },
        {
          "internalType": "string",
          "name": "_artist",
          "type": "string"
        },
        {
          "internalType": "uint8",
          "name": "depth",
          "type": "uint8"
        }
      ],
      "name": "getMusicChain",
      "outputs": [
        {
          "components": [
            {
              "internalType": "address",
              "name": "uploader",
              "type": "address"
            },
            {
              "internalType": "uint256",
              "name": "uploadTime",
              "type": "uint256"
            },
            {
              "internalType": "uint256",
              "name": "count",
              "type": "uint256"
            },
            {
              "internalType": "string",
              "name": "name",
              "type": "string"
            },
            {
              "internalType": "string",
              "name": "artist",
              "type": "string"
            },
            {
              "internalType": "string",
              "name": "ipfsHash",
              "type": "string"
            },
            {
              "internalType": "string",
              "name": "coverFrom",
              "type": "string"
            }
          ],
          "internalType": "struct MusicDApp.Music[]",
          "name": "",
          "type": "tuple[]"
        }
      ],
      "stateMutability": "view",
      "type": "function",
      "constant": true
    },
    {
      "inputs": [
        {
          "internalType": "string",
          "name": "_ipfsHash",
          "type": "string"
        },
        {
          "internalType": "uint8",
          "name": "depth",
          "type": "uint8"
        }
      ],
      "name": "getMusicChainByHash",
      "outputs": [
        {
          "components": [
            {
              "internalType": "address",
              "name": "uploader",
              "type": "address"
            },
            {
              "internalType": "uint256",
              "name": "uploadTime",
              "type": "uint256"
            },
            {
              "internalType": "uint256",
              "name": "count",
              "type": "uint256"
            },
            {
              "internalType": "string",
              "name": "name",
              "type": "string"
            },
            {
              "internalType": "string",
              "name": "artist",
              "type": "string"
            },
            {
              "internalType": "string",
              "name": "ipfsHash",
              "type": "string"
            },
            {
              "internalType": "string",
              "name": "coverFrom",
              "type": "string"
            }
          ],
          "internalType": "struct MusicDApp.Music[]",
          "name": "",
          "type": "tuple[]"
        }
      ],
      "stateMutability": "view",
      "type": "function",
      "constant": true
    }
  ],
  "bytecode": "0x60806040526103e86001553480156200001757600080fd5b5060405162000026906200006a565b604051809103906000f08015801562000043573d6000803e3d6000fd5b5060008054600160a060020a031916600160a060020a039290921691909117905562000078565b6106f0806200534d83390190565b6152c580620000886000396000f3fe60806040526004361061015a5760003560e060020a900480639146436b116100c5578063e4849b321161007e578063e4849b32146103a0578063e90fd8e7146103c0578063eae6d4da146103e0578063f5537ede146103f5578063f7f6bd7f14610415578063fc0c546a14610435578063fdf743251461044a5761015a565b80639146436b1461030357806393154af714610323578063a6f2ae3a14610343578063b1ddeab01461034b578063b7013dc11461036b578063e41bfe6e146103805761015a565b806360b377b81161011757806360b377b81461023d57806370d97eca1461025f5780637176285a146102815780637fb95448146102a157806380f3de65146102c15780638aa4342c146102ee5761015a565b8063171ef0b21461015f5780631aa3a0081461018a5780631f4b04ea146101ac578063209af2dd146101d95780633d724a3f146102065780635d8d158514610228575b600080fd5b34801561016b57600080fd5b5061017461046a565b604051610181919061515e565b60405180910390f35b34801561019657600080fd5b5061019f610470565b604051610181919061510c565b3480156101b857600080fd5b506101cc6101c7366004614b53565b6109a1565b60405161018191906150f9565b3480156101e557600080fd5b506101f96101f4366004614b18565b610cc2565b6040516101819190614f64565b34801561021257600080fd5b5061021b610fb7565b6040516101819190614e99565b34801561023457600080fd5b5061019f610fbb565b34801561024957600080fd5b5061025261117f565b6040516101819190614f04565b34801561026b57600080fd5b5061027f61027a366004614b53565b611263565b005b34801561028d57600080fd5b506101f961029c366004614b53565b61193a565b3480156102ad57600080fd5b506101cc6102bc366004614b53565b611dec565b3480156102cd57600080fd5b506102e16102dc366004614b18565b611e06565b6040516101819190614fb7565b3480156102fa57600080fd5b50610252612093565b34801561030f57600080fd5b506101cc61031e366004614b18565b612171565b34801561032f57600080fd5b506101f961033e366004614ccd565b61241e565b61027f612a80565b34801561035757600080fd5b5061027f610366366004614bb4565b612c1f565b34801561037757600080fd5b5061017461311f565b34801561038c57600080fd5b5061027f61039b366004614b18565b6131a8565b3480156103ac57600080fd5b5061027f6103bb366004614d19565b613868565b3480156103cc57600080fd5b506101f96103db366004614b18565b613a41565b3480156103ec57600080fd5b506102e1613d28565b34801561040157600080fd5b5061027f610410366004614ab6565b613d41565b34801561042157600080fd5b506102e1610430366004614b18565b613e96565b34801561044157600080fd5b5061021b614119565b34801561045657600080fd5b506101f9610465366004614c5c565b614128565b60015481565b61047861490b565b610480613d28565b6107c6576000805460405160e060020a6370a08231028152600160a060020a03909116906370a08231906104b8903090600401614e99565b60206040518083038186803b1580156104d057600080fd5b505afa1580156104e4573d6000803e3d6000fd5b505050506040513d601f19601f820116820180604052508101906105089190614d31565b90508061271011156105385760405160e560020a62461bcd02815260040161052f9061508d565b60405180910390fd5b6000546040517fa9059cbb000000000000000000000000000000000000000000000000000000008152600160a060020a039091169063a9059cbb9061058590339061271090600401614eeb565b602060405180830381600087803b15801561059f57600080fd5b505af11580156105b3573d6000803e3d6000fd5b505050506040513d601f19601f820116820180604052508101906105d79190614af1565b5033600090815260036020908152604080832060028101805460ff191660011790558151815460809481028201850190935260608101838152909391928492849190879085015b828210156106ca57838290600052602060002001805461063d90615204565b80601f016020809104026020016040519081016040528092919081815260200182805461066990615204565b80156106b65780601f1061068b576101008083540402835291602001916106b6565b820191906000526020600020905b81548152906001019060200180831161069957829003601f168201915b50505050508152602001906001019061061e565b50505050815260200160018201805480602002602001604051908101604052809291908181526020016000905b828210156107a357838290600052602060002001805461071690615204565b80601f016020809104026020016040519081016040528092919081815260200182805461074290615204565b801561078f5780601f106107645761010080835404028352916020019161078f565b820191906000526020600020905b81548152906001019060200180831161077257829003601f168201915b5050505050815260200190600101906106f7565b505050908252506002919091015460ff161515602090910152925061099e915050565b3360009081526003602090815260408083208151815460809481028201850190935260608101838152909491938593919285929185015b828210156108a957838290600052602060002001805461081c90615204565b80601f016020809104026020016040519081016040528092919081815260200182805461084890615204565b80156108955780601f1061086a57610100808354040283529160200191610895565b820191906000526020600020905b81548152906001019060200180831161087857829003601f168201915b5050505050815260200190600101906107fd565b50505050815260200160018201805480602002602001604051908101604052809291908181526020016000905b828210156109825783829060005260206000200180546108f590615204565b80601f016020809104026020016040519081016040528092919081815260200182805461092190615204565b801561096e5780601f106109435761010080835404028352916020019161096e565b820191906000526020600020905b81548152906001019060200180831161095157829003601f168201915b5050505050815260200190600101906108d6565b505050908252506002919091015460ff16151560209091015290505b90565b6109a961492e565b60016005846040516109bb9190614e54565b9081526020016040518091039020836040516109d79190614e54565b908152602001604051809103902060020160008282546109f79190615167565b925050819055506000600584604051610a109190614e54565b908152602001604051809103902083604051610a2c9190614e54565b90815260408051918290036020908101832060e0840183528054600160a060020a03168452600181015491840191909152600281015491830191909152600381018054606084019190610a7e90615204565b80601f0160208091040260200160405190810160405280929190818152602001828054610aaa90615204565b8015610af75780601f10610acc57610100808354040283529160200191610af7565b820191906000526020600020905b815481529060010190602001808311610ada57829003601f168201915b50505050508152602001600482018054610b1090615204565b80601f0160208091040260200160405190810160405280929190818152602001828054610b3c90615204565b8015610b895780601f10610b5e57610100808354040283529160200191610b89565b820191906000526020600020905b815481529060010190602001808311610b6c57829003601f168201915b50505050508152602001600582018054610ba290615204565b80601f0160208091040260200160405190810160405280929190818152602001828054610bce90615204565b8015610c1b5780601f10610bf057610100808354040283529160200191610c1b565b820191906000526020600020905b815481529060010190602001808311610bfe57829003601f168201915b50505050508152602001600682018054610c3490615204565b80601f0160208091040260200160405190810160405280929190818152602001828054610c6090615204565b8015610cad5780601f10610c8257610100808354040283529160200191610cad565b820191906000526020600020905b815481529060010190602001808311610c9057829003601f168201915b50505091909252509193505050505b92915050565b60606000600683604051610cd69190614e54565b9081526020016040518091039020805480602002602001604051908101604052809291908181526020016000905b82821015610fa95760008481526020908190206040805160e081018252600786029092018054600160a060020a03168352600181015493830193909352600283015490820152600382018054919291606084019190610d6290615204565b80601f0160208091040260200160405190810160405280929190818152602001828054610d8e90615204565b8015610ddb5780601f10610db057610100808354040283529160200191610ddb565b820191906000526020600020905b815481529060010190602001808311610dbe57829003601f168201915b50505050508152602001600482018054610df490615204565b80601f0160208091040260200160405190810160405280929190818152602001828054610e2090615204565b8015610e6d5780601f10610e4257610100808354040283529160200191610e6d565b820191906000526020600020905b815481529060010190602001808311610e5057829003601f168201915b50505050508152602001600582018054610e8690615204565b80601f0160208091040260200160405190810160405280929190818152602001828054610eb290615204565b8015610eff5780601f10610ed457610100808354040283529160200191610eff565b820191906000526020600020905b815481529060010190602001808311610ee257829003601f168201915b50505050508152602001600682018054610f1890615204565b80601f0160208091040260200160405190810160405280929190818152602001828054610f4490615204565b8015610f915780601f10610f6657610100808354040283529160200191610f91565b820191906000526020600020905b815481529060010190602001808311610f7457829003601f168201915b50505050508152505081526020019060010190610d04565b50929450505050505b919050565b3390565b610fc361490b565b3360009081526003602090815260408083208151815460809481028201850190935260608101838152909491938593919285929185015b828210156110a657838290600052602060002001805461101990615204565b80601f016020809104026020016040519081016040528092919081815260200182805461104590615204565b80156110925780601f1061106757610100808354040283529160200191611092565b820191906000526020600020905b81548152906001019060200180831161107557829003601f168201915b505050505081526020019060010190610ffa565b50505050815260200160018201805480602002602001604051908101604052809291908181526020016000905b828210156109825783829060005260206000200180546110f290615204565b80601f016020809104026020016040519081016040528092919081815260200182805461111e90615204565b801561116b5780601f106111405761010080835404028352916020019161116b565b820191906000526020600020905b81548152906001019060200180831161114e57829003601f168201915b5050505050815260200190600101906110d3565b336000908152600360209081526040808320805482518185028101850190935280835260609492939192909184015b8282101561125a5783829060005260206000200180546111cd90615204565b80601f01602080910402602001604051908101604052809291908181526020018280546111f990615204565b80156112465780601f1061121b57610100808354040283529160200191611246565b820191906000526020600020905b81548152906001019060200180831161122957829003601f168201915b5050505050815260200190600101906111ae565b50505050905090565b6000339050600060058460405161127a9190614e54565b9081526020016040518091039020836040516112969190614e54565b90815260408051918290036020908101832060e0840183528054600160a060020a031684526001810154918401919091526002810154918301919091526003810180546060840191906112e890615204565b80601f016020809104026020016040519081016040528092919081815260200182805461131490615204565b80156113615780601f1061133657610100808354040283529160200191611361565b820191906000526020600020905b81548152906001019060200180831161134457829003601f168201915b5050505050815260200160048201805461137a90615204565b80601f01602080910402602001604051908101604052809291908181526020018280546113a690615204565b80156113f35780601f106113c8576101008083540402835291602001916113f3565b820191906000526020600020905b8154815290600101906020018083116113d657829003601f168201915b5050505050815260200160058201805461140c90615204565b80601f016020809104026020016040519081016040528092919081815260200182805461143890615204565b80156114855780601f1061145a57610100808354040283529160200191611485565b820191906000526020600020905b81548152906001019060200180831161146857829003601f168201915b5050505050815260200160068201805461149e90615204565b80601f01602080910402602001604051908101604052809291908181526020018280546114ca90615204565b80156115175780601f106114ec57610100808354040283529160200191611517565b820191906000526020600020905b8154815290600101906020018083116114fa57829003601f168201915b5050509190925250505060a08082015182516040805160e0810182526064815260326020820152601991810191909152600c606082015260066080820152600393810193909352600160c08401529293509190600061157584611e06565b1561158557505050505050611936565b61158e84613e96565b1561159e57505050505050611936565b600781106115ab576118f8565b6115e086848484600781106115d35760e060020a634e487b7102600052603260045260246000fd5b602002015160ff16613d41565b6040516020016115ef90614e70565b604051602081830303815290604052805190602001208560c0015160405160200161161a9190614e54565b60405160208183030381529060405280519060200120141561163b576118f8565b82955060048560c001516040516116529190614e54565b90815260408051918290036020908101832060e0840183528054600160a060020a031684526001810154918401919091526002810154918301919091526003810180546060840191906116a490615204565b80601f01602080910402602001604051908101604052809291908181526020018280546116d090615204565b801561171d5780601f106116f25761010080835404028352916020019161171d565b820191906000526020600020905b81548152906001019060200180831161170057829003601f168201915b5050505050815260200160048201805461173690615204565b80601f016020809104026020016040519081016040528092919081815260200182805461176290615204565b80156117af5780601f10611784576101008083540402835291602001916117af565b820191906000526020600020905b81548152906001019060200180831161179257829003601f168201915b505050505081526020016005820180546117c890615204565b80601f01602080910402602001604051908101604052809291908181526020018280546117f490615204565b80156118415780601f1061181657610100808354040283529160200191611841565b820191906000526020600020905b81548152906001019060200180831161182457829003601f168201915b5050505050815260200160068201805461185a90615204565b80601f016020809104026020016040519081016040528092919081815260200182805461188690615204565b80156118d35780601f106118a8576101008083540402835291602001916118d3565b820191906000526020600020905b8154815290600101906020018083116118b657829003601f168201915b50505050508152505094508460000151925080806118f090615242565b91505061159e565b3360009081526003602090815260408220600190810180549182018155835291819020865161192e939190910191870190614974565b505050505050505b5050565b60025460609060009067ffffffffffffffff81111561196c5760e060020a634e487b7102600052604160045260246000fd5b6040519080825280602002602001820160405280156119a557816020015b61199261492e565b81526020019060019003908161198a5790505b5090506000805b600254811015611de257611a7d86600283815481106119de5760e060020a634e487b7102600052603260045260246000fd5b906000526020600020906007020160030180546119fa90615204565b80601f0160208091040260200160405190810160405280929190818152602001828054611a2690615204565b8015611a735780601f10611a4857610100808354040283529160200191611a73565b820191906000526020600020905b815481529060010190602001808311611a5657829003601f168201915b50505050506147a7565b80611ac75750611ac78560028381548110611aab5760e060020a634e487b7102600052603260045260246000fd5b906000526020600020906007020160040180546119fa90615204565b15611dd05760028181548110611af05760e060020a634e487b7102600052603260045260246000fd5b90600052602060002090600702016040518060e00160405290816000820160009054906101000a9004600160a060020a0316600160a060020a0316600160a060020a031681526020016001820154815260200160028201548152602001600382018054611b5c90615204565b80601f0160208091040260200160405190810160405280929190818152602001828054611b8890615204565b8015611bd55780601f10611baa57610100808354040283529160200191611bd5565b820191906000526020600020905b815481529060010190602001808311611bb857829003601f168201915b50505050508152602001600482018054611bee90615204565b80601f0160208091040260200160405190810160405280929190818152602001828054611c1a90615204565b8015611c675780601f10611c3c57610100808354040283529160200191611c67565b820191906000526020600020905b815481529060010190602001808311611c4a57829003601f168201915b50505050508152602001600582018054611c8090615204565b80601f0160208091040260200160405190810160405280929190818152602001828054611cac90615204565b8015611cf95780601f10611cce57610100808354040283529160200191611cf9565b820191906000526020600020905b815481529060010190602001808311611cdc57829003601f168201915b50505050508152602001600682018054611d1290615204565b80601f0160208091040260200160405190810160405280929190818152602001828054611d3e90615204565b8015611d8b5780601f10611d6057610100808354040283529160200191611d8b565b820191906000526020600020905b815481529060010190602001808311611d6e57829003601f168201915b505050505081525050838381518110611db75760e060020a634e487b7102600052603260045260246000fd5b6020908102919091010152611dcd816001615167565b90505b80611dda81615242565b9150506119ac565b5090949350505050565b611df461492e565b6000600584604051610a109190614e54565b3360009081526003602090815260408083208151815460809481028201850190935260608101838152859491938492849190879085015b82821015611ee9578382906000526020600020018054611e5c90615204565b80601f0160208091040260200160405190810160405280929190818152602001828054611e8890615204565b8015611ed55780601f10611eaa57610100808354040283529160200191611ed5565b820191906000526020600020905b815481529060010190602001808311611eb857829003601f168201915b505050505081526020019060010190611e3d565b50505050815260200160018201805480602002602001604051908101604052809291908181526020016000905b82821015611fc2578382906000526020600020018054611f3590615204565b80601f0160208091040260200160405190810160405280929190818152602001828054611f6190615204565b8015611fae5780601f10611f8357610100808354040283529160200191611fae565b820191906000526020600020905b815481529060010190602001808311611f9157829003601f168201915b505050505081526020019060010190611f16565b505050908252506002919091015460ff161515602090910152805190915060005b81518110156120885781818151811061200f5760e060020a634e487b7102600052603260045260246000fd5b60200260200101516040516020016120279190614e54565b604051602081830303815290604052805190602001208560405160200161204e9190614e54565b6040516020818303038152906040528051906020012014156120765760019350505050610fb2565b8061208081615242565b915050611fe3565b506000949350505050565b336000908152600360209081526040808320600101805482518185028101850190935280835260609492939192909184015b8282101561125a5783829060005260206000200180546120e490615204565b80601f016020809104026020016040519081016040528092919081815260200182805461211090615204565b801561215d5780601f106121325761010080835404028352916020019161215d565b820191906000526020600020905b81548152906001019060200180831161214057829003601f168201915b5050505050815260200190600101906120c5565b61217961492e565b600060048360405161218b9190614e54565b90815260408051918290036020908101832060e0840183528054600160a060020a031684526001810154918401919091526002810154918301919091526003810180546060840191906121dd90615204565b80601f016020809104026020016040519081016040528092919081815260200182805461220990615204565b80156122565780601f1061222b57610100808354040283529160200191612256565b820191906000526020600020905b81548152906001019060200180831161223957829003601f168201915b5050505050815260200160048201805461226f90615204565b80601f016020809104026020016040519081016040528092919081815260200182805461229b90615204565b80156122e85780601f106122bd576101008083540402835291602001916122e8565b820191906000526020600020905b8154815290600101906020018083116122cb57829003601f168201915b5050505050815260200160058201805461230190615204565b80601f016020809104026020016040519081016040528092919081815260200182805461232d90615204565b801561237a5780601f1061234f5761010080835404028352916020019161237a565b820191906000526020600020905b81548152906001019060200180831161235d57829003601f168201915b5050505050815260200160068201805461239390615204565b80601f01602080910402602001604051908101604052809291908181526020018280546123bf90615204565b801561240c5780601f106123e15761010080835404028352916020019161240c565b820191906000526020600020905b8154815290600101906020018083116123ef57829003601f168201915b50505091909252509195945050505050565b606060006004846040516124329190614e54565b90815260408051918290036020908101832060e0840183528054600160a060020a0316845260018101549184019190915260028101549183019190915260038101805460608401919061248490615204565b80601f01602080910402602001604051908101604052809291908181526020018280546124b090615204565b80156124fd5780601f106124d2576101008083540402835291602001916124fd565b820191906000526020600020905b8154815290600101906020018083116124e057829003601f168201915b5050505050815260200160048201805461251690615204565b80601f016020809104026020016040519081016040528092919081815260200182805461254290615204565b801561258f5780601f106125645761010080835404028352916020019161258f565b820191906000526020600020905b81548152906001019060200180831161257257829003601f168201915b505050505081526020016005820180546125a890615204565b80601f01602080910402602001604051908101604052809291908181526020018280546125d490615204565b80156126215780601f106125f657610100808354040283529160200191612621565b820191906000526020600020905b81548152906001019060200180831161260457829003601f168201915b5050505050815260200160068201805461263a90615204565b80601f016020809104026020016040519081016040528092919081815260200182805461266690615204565b80156126b35780601f10612688576101008083540402835291602001916126b3565b820191906000526020600020905b81548152906001019060200180831161269657829003601f168201915b50505050508152505090506000808460ff1667ffffffffffffffff8111156126ee5760e060020a634e487b7102600052604160045260246000fd5b60405190808252806020026020018201604052801561272757816020015b61271461492e565b81526020019060019003908161270c5790505b5090505b8460ff16821061273a57612a77565b8281838151811061275e5760e060020a634e487b7102600052603260045260246000fd5b602002602001018190525060405160200161277890614e70565b604051602081830303815290604052805190602001208360c001516040516020016127a39190614e54565b6040516020818303038152906040528051906020012014156127c457612a77565b60048360c001516040516127d89190614e54565b90815260408051918290036020908101832060e0840183528054600160a060020a0316845260018101549184019190915260028101549183019190915260038101805460608401919061282a90615204565b80601f016020809104026020016040519081016040528092919081815260200182805461285690615204565b80156128a35780601f10612878576101008083540402835291602001916128a3565b820191906000526020600020905b81548152906001019060200180831161288657829003601f168201915b505050505081526020016004820180546128bc90615204565b80601f01602080910402602001604051908101604052809291908181526020018280546128e890615204565b80156129355780601f1061290a57610100808354040283529160200191612935565b820191906000526020600020905b81548152906001019060200180831161291857829003601f168201915b5050505050815260200160058201805461294e90615204565b80601f016020809104026020016040519081016040528092919081815260200182805461297a90615204565b80156129c75780601f1061299c576101008083540402835291602001916129c7565b820191906000526020600020905b8154815290600101906020018083116129aa57829003601f168201915b505050505081526020016006820180546129e090615204565b80601f0160208091040260200160405190810160405280929190818152602001828054612a0c90615204565b8015612a595780601f10612a2e57610100808354040283529160200191612a59565b820191906000526020600020905b815481529060010190602001808311612a3c57829003601f168201915b50505050508152505092508180612a6f90615242565b92505061272b565b95945050505050565b6000805460405160e060020a6370a08231028152349291600160a060020a0316906370a0823190612ab5903090600401614e99565b60206040518083038186803b158015612acd57600080fd5b505afa158015612ae1573d6000803e3d6000fd5b505050506040513d601f19601f82011682018060405250810190612b059190614d31565b905060008211612b2a5760405160e560020a62461bcd02815260040161052f90614fc2565b80821115612b4d5760405160e560020a62461bcd02815260040161052f9061508d565b600054600154600160a060020a039091169063a9059cbb903390612b7190866151a2565b6040518363ffffffff1660e060020a028152600401612b91929190614eeb565b602060405180830381600087803b158015612bab57600080fd5b505af1158015612bbf573d6000803e3d6000fd5b505050506040513d601f19601f82011682018060405250810190612be39190614af1565b507f4e08ba899977cf7d4c2964bce71c6b9a7ef76ee5166a4c1249a1e08016e33ef182604051612c13919061515e565b60405180910390a15050565b6040805160e0810182523381524260208083019182526000938301848152606084018881526080850188905260a085018a905260c0850187905260028054600181018255965284517f405787fa12a823e0f2b7631cc41b3ba8828b3321ca811111fa75cd3aa3bb5ace60079097029687018054600160a060020a031916600160a060020a0390921691909117815593517f405787fa12a823e0f2b7631cc41b3ba8828b3321ca811111fa75cd3aa3bb5acf87015590517f405787fa12a823e0f2b7631cc41b3ba8828b3321ca811111fa75cd3aa3bb5ad086015551805193948594612d32937f405787fa12a823e0f2b7631cc41b3ba8828b3321ca811111fa75cd3aa3bb5ad19092019290910190614974565b5060808201518051612d4e916004840191602090910190614974565b5060a08201518051612d6a916005840191602090910190614974565b5060c08201518051612d86916006840191602090910190614974565b50505080600585604051612d9a9190614e54565b908152602001604051809103902084604051612db69190614e54565b908152604080516020928190038301902083518154600160a060020a031916600160a060020a03909116178155838301516001820155908301516002820155606083015180519192612e1092600385019290910190614974565b5060808201518051612e2c916004840191602090910190614974565b5060a08201518051612e48916005840191602090910190614974565b5060c08201518051612e64916006840191602090910190614974565b5090505080600486604051612e799190614e54565b908152604080516020928190038301902083518154600160a060020a031916600160a060020a03909116178155838301516001820155908301516002820155606083015180519192612ed392600385019290910190614974565b5060808201518051612eef916004840191602090910190614974565b5060a08201518051612f0b916005840191602090910190614974565b5060c08201518051612f27916006840191602090910190614974565b50905050600684604051612f3b9190614e54565b908152604080516020928190038301902080546001808201835560009283529184902085516007909202018054600160a060020a031916600160a060020a039092169190911781558484015191810191909155908301516002820155606083015180518493612fb1926003850192910190614974565b5060808201518051612fcd916004840191602090910190614974565b5060a08201518051612fe9916005840191602090910190614974565b5060c08201518051613005916006840191602090910190614974565b5050506007836040516130189190614e54565b908152604080516020928190038301902080546001808201835560009283529184902085516007909202018054600160a060020a031916600160a060020a03909216919091178155848401519181019190915590830151600282015560608301518051849361308e926003850192910190614974565b50608082015180516130aa916004840191602090910190614974565b5060a082015180516130c6916005840191602090910190614974565b5060c082015180516130e2916006840191602090910190614974565b505033600090815260036020908152604082208054600181018255908352918190208851613117945092019190880190614974565b505050505050565b6000805460405160e060020a6370a08231028152600160a060020a03909116906370a0823190613153903390600401614e99565b60206040518083038186803b15801561316b57600080fd5b505afa15801561317f573d6000803e3d6000fd5b505050506040513d601f19601f820116820180604052508101906131a39190614d31565b905090565b600033905060006004836040516131bf9190614e54565b90815260408051918290036020908101832060e0840183528054600160a060020a0316845260018101549184019190915260028101549183019190915260038101805460608401919061321190615204565b80601f016020809104026020016040519081016040528092919081815260200182805461323d90615204565b801561328a5780601f1061325f5761010080835404028352916020019161328a565b820191906000526020600020905b81548152906001019060200180831161326d57829003601f168201915b505050505081526020016004820180546132a390615204565b80601f01602080910402602001604051908101604052809291908181526020018280546132cf90615204565b801561331c5780601f106132f15761010080835404028352916020019161331c565b820191906000526020600020905b8154815290600101906020018083116132ff57829003601f168201915b5050505050815260200160058201805461333590615204565b80601f016020809104026020016040519081016040528092919081815260200182805461336190615204565b80156133ae5780601f10613383576101008083540402835291602001916133ae565b820191906000526020600020905b81548152906001019060200180831161339157829003601f168201915b505050505081526020016006820180546133c790615204565b80601f01602080910402602001604051908101604052809291908181526020018280546133f390615204565b80156134405780601f1061341557610100808354040283529160200191613440565b820191906000526020600020905b81548152906001019060200180831161342357829003601f168201915b50505091909252505081516040805160e0810182526064815260326020820152601991810191909152600c606082015260066080820152600360a0820152600160c08201529293508592909150600061349884611e06565b156134a857505050505050613865565b6134b184613e96565b156134c157505050505050613865565b600781106134ce57613827565b82600160a060020a031686600160a060020a03161461350f5761350f86848484600781106115d35760e060020a634e487b7102600052603260045260246000fd5b60405160200161351e90614e70565b604051602081830303815290604052805190602001208560c001516040516020016135499190614e54565b60405160208183030381529060405280519060200120141561356a57613827565b82955060048560c001516040516135819190614e54565b90815260408051918290036020908101832060e0840183528054600160a060020a031684526001810154918401919091526002810154918301919091526003810180546060840191906135d390615204565b80601f01602080910402602001604051908101604052809291908181526020018280546135ff90615204565b801561364c5780601f106136215761010080835404028352916020019161364c565b820191906000526020600020905b81548152906001019060200180831161362f57829003601f168201915b5050505050815260200160048201805461366590615204565b80601f016020809104026020016040519081016040528092919081815260200182805461369190615204565b80156136de5780601f106136b3576101008083540402835291602001916136de565b820191906000526020600020905b8154815290600101906020018083116136c157829003601f168201915b505050505081526020016005820180546136f790615204565b80601f016020809104026020016040519081016040528092919081815260200182805461372390615204565b80156137705780601f1061374557610100808354040283529160200191613770565b820191906000526020600020905b81548152906001019060200180831161375357829003601f168201915b5050505050815260200160068201805461378990615204565b80601f01602080910402602001604051908101604052809291908181526020018280546137b590615204565b80156138025780601f106137d757610100808354040283529160200191613802565b820191906000526020600020905b8154815290600101906020018083116137e557829003601f168201915b505050505081525050945084600001519250808061381f90615242565b9150506134c1565b3360009081526003602090815260408220600190810180549182018155835291819020865161385d939190910191870190614974565b505050505050505b50565b6000811161388b5760405160e560020a62461bcd02815260040161052f90614ff9565b600080546040517fdd62ed3e000000000000000000000000000000000000000000000000000000008152600160a060020a039091169063dd62ed3e906138d79033903090600401614ead565b60206040518083038186803b1580156138ef57600080fd5b505afa158015613903573d6000803e3d6000fd5b505050506040513d601f19601f820116820180604052508101906139279190614d31565b90508181101561394c5760405160e560020a62461bcd02815260040161052f90615056565b60005460405160e060020a6323b872dd028152600160a060020a03909116906323b872dd9061398390339030908790600401614ec7565b602060405180830381600087803b15801561399d57600080fd5b505af11580156139b1573d6000803e3d6000fd5b505050506040513d601f19601f820116820180604052508101906139d59190614af1565b5060015433906108fc906139e9908561517f565b6040518115909202916000818181858888f19350505050158015613a11573d6000803e3d6000fd5b507f92f64ca637d023f354075a4be751b169c1a8a9ccb6d33cdd0cb352054399572782604051612c13919061515e565b60606000600783604051613a559190614e54565b9081526020016040518091039020805480602002602001604051908101604052809291908181526020016000905b82821015610fa95760008481526020908190206040805160e081018252600786029092018054600160a060020a03168352600181015493830193909352600283015490820152600382018054919291606084019190613ae190615204565b80601f0160208091040260200160405190810160405280929190818152602001828054613b0d90615204565b8015613b5a5780601f10613b2f57610100808354040283529160200191613b5a565b820191906000526020600020905b815481529060010190602001808311613b3d57829003601f168201915b50505050508152602001600482018054613b7390615204565b80601f0160208091040260200160405190810160405280929190818152602001828054613b9f90615204565b8015613bec5780601f10613bc157610100808354040283529160200191613bec565b820191906000526020600020905b815481529060010190602001808311613bcf57829003601f168201915b50505050508152602001600582018054613c0590615204565b80601f0160208091040260200160405190810160405280929190818152602001828054613c3190615204565b8015613c7e5780601f10613c5357610100808354040283529160200191613c7e565b820191906000526020600020905b815481529060010190602001808311613c6157829003601f168201915b50505050508152602001600682018054613c9790615204565b80601f0160208091040260200160405190810160405280929190818152602001828054613cc390615204565b8015613d105780601f10613ce557610100808354040283529160200191613d10565b820191906000526020600020905b815481529060010190602001808311613cf357829003601f168201915b50505050508152505081526020019060010190613a83565b3360009081526003602052604090206002015460ff1690565b60008111613d645760405160e560020a62461bcd02815260040161052f90614ff9565b60005460405160e060020a6370a082310281528291600160a060020a0316906370a0823190613d97908790600401614e99565b60206040518083038186803b158015613daf57600080fd5b505afa158015613dc3573d6000803e3d6000fd5b505050506040513d601f19601f82011682018060405250810190613de79190614d31565b11613e075760405160e560020a62461bcd02815260040161052f906150c2565b60005460405160e060020a6323b872dd028152600160a060020a03909116906323b872dd90613e3e90869086908690600401614ec7565b602060405180830381600087803b158015613e5857600080fd5b505af1158015613e6c573d6000803e3d6000fd5b505050506040513d601f19601f82011682018060405250810190613e909190614af1565b50505050565b3360009081526003602090815260408083208151815460809481028201850190935260608101838152859491938492849190879085015b82821015613f79578382906000526020600020018054613eec90615204565b80601f0160208091040260200160405190810160405280929190818152602001828054613f1890615204565b8015613f655780601f10613f3a57610100808354040283529160200191613f65565b820191906000526020600020905b815481529060010190602001808311613f4857829003601f168201915b505050505081526020019060010190613ecd565b50505050815260200160018201805480602002602001604051908101604052809291908181526020016000905b82821015614052578382906000526020600020018054613fc590615204565b80601f0160208091040260200160405190810160405280929190818152602001828054613ff190615204565b801561403e5780601f106140135761010080835404028352916020019161403e565b820191906000526020600020905b81548152906001019060200180831161402157829003601f168201915b505050505081526020019060010190613fa6565b505050908252506002919091015460ff16151560209182015281015190915060005b8151811015612088578181815181106140a05760e060020a634e487b7102600052603260045260246000fd5b60200260200101516040516020016140b89190614e54565b60405160208183030381529060405280519060200120856040516020016140df9190614e54565b6040516020818303038152906040528051906020012014156141075760019350505050610fb2565b8061411181615242565b915050614074565b600054600160a060020a031681565b6060600060058560405161413c9190614e54565b9081526020016040518091039020846040516141589190614e54565b90815260408051918290036020908101832060e0840183528054600160a060020a031684526001810154918401919091526002810154918301919091526003810180546060840191906141aa90615204565b80601f01602080910402602001604051908101604052809291908181526020018280546141d690615204565b80156142235780601f106141f857610100808354040283529160200191614223565b820191906000526020600020905b81548152906001019060200180831161420657829003601f168201915b5050505050815260200160048201805461423c90615204565b80601f016020809104026020016040519081016040528092919081815260200182805461426890615204565b80156142b55780601f1061428a576101008083540402835291602001916142b5565b820191906000526020600020905b81548152906001019060200180831161429857829003601f168201915b505050505081526020016005820180546142ce90615204565b80601f01602080910402602001604051908101604052809291908181526020018280546142fa90615204565b80156143475780601f1061431c57610100808354040283529160200191614347565b820191906000526020600020905b81548152906001019060200180831161432a57829003601f168201915b5050505050815260200160068201805461436090615204565b80601f016020809104026020016040519081016040528092919081815260200182805461438c90615204565b80156143d95780601f106143ae576101008083540402835291602001916143d9565b820191906000526020600020905b8154815290600101906020018083116143bc57829003601f168201915b50505050508152505090506000808460ff1667ffffffffffffffff8111156144145760e060020a634e487b7102600052604160045260246000fd5b60405190808252806020026020018201604052801561444d57816020015b61443a61492e565b8152602001906001900390816144325790505b5090505b8460ff1682106144605761479d565b828183815181106144845760e060020a634e487b7102600052603260045260246000fd5b602002602001018190525060405160200161449e90614e70565b604051602081830303815290604052805190602001208360c001516040516020016144c99190614e54565b6040516020818303038152906040528051906020012014156144ea5761479d565b60048360c001516040516144fe9190614e54565b90815260408051918290036020908101832060e0840183528054600160a060020a0316845260018101549184019190915260028101549183019190915260038101805460608401919061455090615204565b80601f016020809104026020016040519081016040528092919081815260200182805461457c90615204565b80156145c95780601f1061459e576101008083540402835291602001916145c9565b820191906000526020600020905b8154815290600101906020018083116145ac57829003601f168201915b505050505081526020016004820180546145e290615204565b80601f016020809104026020016040519081016040528092919081815260200182805461460e90615204565b801561465b5780601f106146305761010080835404028352916020019161465b565b820191906000526020600020905b81548152906001019060200180831161463e57829003601f168201915b5050505050815260200160058201805461467490615204565b80601f01602080910402602001604051908101604052809291908181526020018280546146a090615204565b80156146ed5780601f106146c2576101008083540402835291602001916146ed565b820191906000526020600020905b8154815290600101906020018083116146d057829003601f168201915b5050505050815260200160068201805461470690615204565b80601f016020809104026020016040519081016040528092919081815260200182805461473290615204565b801561477f5780601f106147545761010080835404028352916020019161477f565b820191906000526020600020905b81548152906001019060200180831161476257829003601f168201915b5050505050815250509250818061479590615242565b925050614451565b9695505050505050565b604051600090839083906147bf908290602001614e54565b60405160208183030381529060405280519060200120856040516020016147e69190614e54565b60405160208183030381529060405280519060200120141561480d57600192505050610cbc565b6000805b8351835161481f91906151c1565b81101561490157600160005b85518110156148dd578581815181106148575760e060020a634e487b7102600052603260045260246000fd5b602001015160f860020a900460f860020a02600160f860020a0319168582856148809190615167565b815181106148a15760e060020a634e487b7102600052603260045260246000fd5b602001015160f860020a900460f860020a02600160f860020a031916146148cb57600091506148dd565b806148d581615242565b91505061482b565b5080156148ee576001925050614901565b50806148f981615242565b915050614811565b5095945050505050565b604051806060016040528060608152602001606081526020016000151581525090565b6040518060e001604052806000600160a060020a031681526020016000815260200160008152602001606081526020016060815260200160608152602001606081525090565b82805461498090615204565b90600052602060002090601f0160209004810192826149a257600085556149e8565b82601f106149bb57805160ff19168380011785556149e8565b828001600101855582156149e8579182015b828111156149e85782518255916020019190600101906149cd565b506149f49291506149f8565b5090565b5b808211156149f457600081556001016149f9565b8035600160a060020a0381168114610fb257600080fd5b600082601f830112614a34578081fd5b813567ffffffffffffffff80821115614a4f57614a4f615276565b604051601f8301601f191681016020018281118282101715614a7357614a73615276565b604052828152848301602001861015614a8a578384fd5b82602086016020830137918201602001929092529392505050565b803560ff81168114610fb257600080fd5b600080600060608486031215614aca578283fd5b614ad384614a0d565b9250614ae160208501614a0d565b9150604084013590509250925092565b600060208284031215614b02578081fd5b81518015158114614b11578182fd5b9392505050565b600060208284031215614b29578081fd5b813567ffffffffffffffff811115614b3f578182fd5b614b4b84828501614a24565b949350505050565b60008060408385031215614b65578182fd5b823567ffffffffffffffff80821115614b7c578384fd5b614b8886838701614a24565b93506020850135915080821115614b9d578283fd5b50614baa85828601614a24565b9150509250929050565b60008060008060808587031215614bc9578081fd5b843567ffffffffffffffff80821115614be0578283fd5b614bec88838901614a24565b95506020870135915080821115614c01578283fd5b614c0d88838901614a24565b94506040870135915080821115614c22578283fd5b614c2e88838901614a24565b93506060870135915080821115614c43578283fd5b50614c5087828801614a24565b91505092959194509250565b600080600060608486031215614c70578283fd5b833567ffffffffffffffff80821115614c87578485fd5b614c9387838801614a24565b94506020860135915080821115614ca8578384fd5b50614cb586828701614a24565b925050614cc460408501614aa5565b90509250925092565b60008060408385031215614cdf578182fd5b823567ffffffffffffffff811115614cf5578283fd5b614d0185828601614a24565b925050614d1060208401614aa5565b90509250929050565b600060208284031215614d2a578081fd5b5035919050565b600060208284031215614d42578081fd5b5051919050565b60008282518085526020808601955080818302840101818601855b84811015614d9257601f19868403018952614d80838351614d9f565b98840198925090830190600101614d64565b5090979650505050505050565b60008151808452614db78160208601602086016151d8565b601f01601f19169290920160200192915050565b6000600160a060020a0382511683526020820151602084015260408201516040840152606082015160e06060850152614e0760e0850182614d9f565b905060808301518482036080860152614e208282614d9f565b91505060a083015184820360a0860152614e3a8282614d9f565b91505060c083015184820360c0860152612a778282614d9f565b60008251614e668184602087016151d8565b9190910192915050565b7f4e6f6e6500000000000000000000000000000000000000000000000000000000815260040190565b600160a060020a0391909116815260200190565b600160a060020a0392831681529116602082015260400190565b600160a060020a039384168152919092166020820152604081019190915260600190565b600160a060020a03929092168252602082015260400190565b6000602080830181845280855180835260408601915060408482028701019250838701855b82811015614f5757603f19888603018452614f45858351614d9f565b94509285019290850190600101614f29565b5092979650505050505050565b6000602080830181845280855180835260408601915060408482028701019250838701855b82811015614f5757603f19888603018452614fa5858351614dcb565b94509285019290850190600101614f89565b901515815260200190565b6020808252601b908201527f596f75206e65656420746f2073656e6420736f6d652045746865720000000000604082015260600190565b60208082526025908201527f596f75206e65656420746f2073656c6c206174206c6561737420736f6d65207460408201527f6f6b656e73000000000000000000000000000000000000000000000000000000606082015260800190565b60208082526019908201527f436865636b2074686520746f6b656e20616c6c6f77616e636500000000000000604082015260600190565b6020808252818101527f4e6f7420656e6f75676820746f6b656e7320696e207468652072657365727665604082015260600190565b6020808252601b908201527f596f75206861766520746f20656e6f7567682062616c616e6365210000000000604082015260600190565b600060208252614b116020830184614dcb565b6000602082528251606060208401526151286080840182614d49565b90506020840151601f198483030160408501526151458282614d49565b9150506040840151151560608401528091505092915050565b90815260200190565b6000821982111561517a5761517a61525d565b500190565b60008261519d5760e060020a634e487b710281526012600452602481fd5b500490565b60008160001904831182151516156151bc576151bc61525d565b500290565b6000828210156151d3576151d361525d565b500390565b60005b838110156151f35781810151838201526020016151db565b83811115613e905750506000910152565b60028104600182168061521857607f821691505b6020821081141561523c5760e060020a634e487b7102600052602260045260246000fd5b50919050565b60006000198214156152565761525661525d565b5060010190565b60e060020a634e487b7102600052601160045260246000fd5b60e060020a634e487b7102600052604160045260246000fdfea264697066735822122089fca0bf1aad56106f96e2f78dd48b081a5b44c3f6618563faa4abd20d87dd5764736f6c6343000800003360806040526a52b7d2dcc80cd2e400000060025534801561001f57600080fd5b50600254336000908152602081905260409020556106ae806100426000396000f3fe608060405234801561001057600080fd5b506004361061009f577c0100000000000000000000000000000000000000000000000000000000600035046306fdde0381146100a4578063095ea7b3146100c257806318160ddd146100e257806323b872dd146100f7578063313ce5671461010a57806370a082311461011f57806395d89b4114610132578063a9059cbb1461013a578063dd62ed3e1461014d575b600080fd5b6100ac610160565b6040516100b991906105c6565b60405180910390f35b6100d56100d0366004610592565b610199565b6040516100b991906105bb565b6100ea610203565b6040516100b99190610619565b6100d5610105366004610557565b610209565b610112610357565b6040516100b99190610622565b6100ea61012d36600461050b565b61035c565b6100ac61037b565b6100d5610148366004610592565b6103b4565b6100ea61015b366004610525565b610465565b6040518060400160405280600981526020017f4d75736963436f696e000000000000000000000000000000000000000000000081525081565b336000818152600160209081526040808320600160a060020a038716808552925280832085905551919290917f8c5be1e5ebec7d5bd14f71427d1e84f3dd0314c0f7b2291e5b200ac8c7c3b925906101f2908690610619565b60405180910390a350600192915050565b60025490565b600160a060020a03831660009081526020819052604081205482111561022e57600080fd5b600160a060020a038416600090815260016020908152604080832033845290915290205482111561025e57600080fd5b600160a060020a0384166000908152602081905260409020546102819083610490565b600160a060020a0385166000908152602081815260408083209390935560018152828220338352905220546102b69083610490565b600160a060020a03808616600090815260016020908152604080832033845282528083209490945591861681529081905220546102f390836104c4565b600160a060020a0380851660008181526020819052604090819020939093559151908616907fddf252ad1be2c89b69c2b068fc378daa952ba7f163c4a11628f55a4df523b3ef90610345908690610619565b60405180910390a35060019392505050565b600281565b600160a060020a0381166000908152602081905260409020545b919050565b6040518060400160405280600381526020017f4d5543000000000000000000000000000000000000000000000000000000000081525081565b336000908152602081905260408120548211156103d057600080fd5b336000908152602081905260409020546103ea9083610490565b3360009081526020819052604080822092909255600160a060020a0385168152205461041690836104c4565b600160a060020a0384166000818152602081905260409081902092909255905133907fddf252ad1be2c89b69c2b068fc378daa952ba7f163c4a11628f55a4df523b3ef906101f2908690610619565b600160a060020a03918216600090815260016020908152604080832093909416825291909152205490565b6000828211156104b35760e060020a634e487b7102600052600160045260246000fd5b6104bd8284610648565b9392505050565b6000806104d18385610630565b9050838110156104bd5760e060020a634e487b7102600052600160045260246000fd5b8035600160a060020a038116811461037657600080fd5b60006020828403121561051c578081fd5b6104bd826104f4565b60008060408385031215610537578081fd5b610540836104f4565b915061054e602084016104f4565b90509250929050565b60008060006060848603121561056b578081fd5b610574846104f4565b9250610582602085016104f4565b9150604084013590509250925092565b600080604083850312156105a4578182fd5b6105ad836104f4565b946020939093013593505050565b901515815260200190565b6000602080835283518082850152825b818110156105f2578581018301518582016040015282016105d6565b818111156106035783604083870101525b50601f01601f1916929092016040019392505050565b90815260200190565b60ff91909116815260200190565b600082198211156106435761064361065f565b500190565b60008282101561065a5761065a61065f565b500390565b60e060020a634e487b7102600052601160045260246000fdfea2646970667358221220d5ed501100d12a8a617d167fff523ae4aff9525763fc8664c38d85840a55dd3764736f6c63430008000033",
  "immutableReferences": {},
  "source": "pragma solidity >=0.4.0 <0.9.0;\n// support return struct in functions\npragma experimental ABIEncoderV2;\n\n// import \"../../node_modules/@openzeppelin/contracts/token/ERC20/ERC20.sol\";\n// import \"./MusicCoin.sol\";\nimport \"./MyERC20.sol\";\n\ncontract MusicDApp is DEX {\n    // Music metadata\n    struct Music {\n        // Music information\n        address uploader;\n        uint256 uploadTime;\n        uint256 count;\n        string name;\n        string artist;\n        // Music content\n        string ipfsHash;\n        string coverFrom;\n    }\n\n    struct User {\n        string[] upload_music_list;\n        string[] bought_music_list;\n        bool isValid;\n    }\n\n    // State variables\n    Music[] musics;\n\n    mapping(address => User) internal users;\n\n    // ipfs hash as index\n    mapping(string => Music) internal music_hash;\n\n    // (name, artist) as primary key\n    mapping(string => mapping(string => Music)) internal music;\n\n    // name as primary key\n    mapping(string => Music[]) internal music_artist_list;\n\n    // artist as primary key\n    mapping(string => Music[]) internal artist_music_list;\n\n    // events firing\n    // event OnMusicUpload(string ipfsHash);\n    // event OnMusicDownload(...)\n\n    // Modifiers\n\n    // Public methods\n\n    // Retrieve basic user information\n    function returnMsgSender() public view returns (address) {\n        return msg.sender;\n    }\n\n    function userExists() public view returns (bool) {\n        return users[msg.sender].isValid;\n    }\n\n    function getUserInfo() public view returns (User memory) {\n        return users[msg.sender];\n    }\n\n    function getUserBalance() public view returns (uint256) {\n        return token.balanceOf(msg.sender);\n    }\n\n    function register() public returns (User memory) {\n        if (!userExists()) {\n            // Give 100 token for new user\n            uint256 dexBalance = token.balanceOf(address(this));\n            require(10000 <= dexBalance, \"Not enough tokens in the reserve\");\n            token.transfer(msg.sender, 10000);\n            users[msg.sender].isValid = true;\n            User memory user = users[msg.sender];\n            return user;\n        } else {\n            return users[msg.sender];\n        }\n    }\n\n    function getUploadMusicList() public view returns (string[] memory) {\n        return users[msg.sender].upload_music_list;\n    }\n\n    function getBoughtMusicList() public view returns (string[] memory) {\n        return users[msg.sender].bought_music_list;\n    }\n\n    function findUploadMusic(string memory _ipfsHash)\n        public\n        view\n        returns (bool)\n    {\n        User memory user = users[msg.sender];\n        string[] memory upload_list = user.upload_music_list;\n\n        for (uint256 i = 0; i < upload_list.length; i++) {\n            if (\n                keccak256(abi.encodePacked(_ipfsHash)) ==\n                keccak256(abi.encodePacked(upload_list[i]))\n            ) {\n                return true;\n            }\n        }\n\n        return false;\n    }\n\n    function findBoughtMusic(string memory _ipfsHash)\n        public\n        view\n        returns (bool)\n    {\n        User memory user = users[msg.sender];\n        string[] memory bought_list = user.bought_music_list;\n\n        for (uint256 i = 0; i < bought_list.length; i++) {\n            if (\n                keccak256(abi.encodePacked(_ipfsHash)) ==\n                keccak256(abi.encodePacked(bought_list[i]))\n            ) {\n                return true;\n            }\n        }\n\n        return false;\n    }\n\n    function uploadMusic(\n        string memory _ipfsHash,\n        string memory _name,\n        string memory _artist,\n        string memory _coverFrom\n    ) public {\n        Music memory _music =\n            Music(\n                msg.sender,\n                block.timestamp,\n                0,\n                _name,\n                _artist,\n                _ipfsHash,\n                _coverFrom\n            );\n\n        // Global state update\n        musics.push(_music);\n        music[_name][_artist] = _music;\n        music_hash[_ipfsHash] = _music;\n        music_artist_list[_name].push(_music);\n        artist_music_list[_artist].push(_music);\n\n        // User state update\n        users[msg.sender].upload_music_list.push(_ipfsHash);\n    }\n\n    function getMusic(string memory _name, string memory _artist)\n        public\n        view\n        returns (Music memory)\n    {\n        Music memory _music = music[_name][_artist];\n\n        return _music;\n    }\n\n    function searchMusic(string memory _name, string memory _artist)\n        public\n        view\n        returns (Music[] memory)\n    {\n        Music[] memory returnList = new Music[](musics.length);\n        uint ind = 0;\n        for (uint i=0; i<musics.length; i++) {\n            if (str_contains(_name,musics[i].name) || str_contains(_artist,musics[i].artist))\n            {\n                returnList[ind] = musics[i];\n                i = i + 1;\n            }\n        }\n        return returnList;\n    }\n\n    function getMusicByHash(string memory _ipfsHash)\n        public\n        view\n        returns (Music memory)\n    {\n        Music memory _music = music_hash[_ipfsHash];\n\n        return _music;\n    }\n\n    function getMusicWithCountIncrement(\n        string memory _name,\n        string memory _artist\n    ) public returns (Music memory) {\n        music[_name][_artist].count += 1;\n        Music memory _music = music[_name][_artist];\n\n        return _music;\n    }\n\n    function getMusicArtistList(string memory _name)\n        public\n        view\n        returns (Music[] memory)\n    {\n        Music[] memory _music_list = music_artist_list[_name];\n\n        return _music_list;\n    }\n\n    function getArtistMusicList(string memory _artist)\n        public\n        view\n        returns (Music[] memory)\n    {\n        Music[] memory _artist_music_list = artist_music_list[_artist];\n\n        return _artist_music_list;\n    }\n\n    function buyMusic(string memory _name, string memory _artist) public {\n        address sender = msg.sender;\n        Music memory _music = music[_name][_artist];\n        string memory songHash = _music.ipfsHash;\n        address uploader = _music.uploader;\n        uint8[7] memory chain = [100, 50, 25, 12, 6, 3, 1];\n        uint256 count = 0;\n\n        // TODO: Uploader can listen to what he uploaded\n        if (findUploadMusic(songHash)) return;\n\n        // TODO: Buyer will not pay twice\n        if (findBoughtMusic(songHash)) return;\n        // transfer token to uploader at the beginning of the chain\n\n        while (true) {\n            // The depth excee the limit\n            if (count >= 7) {\n                break;\n            }\n\n            transferToken(sender, uploader, chain[count]);\n            // hit the end of the chain\n            if (\n                keccak256(abi.encodePacked((_music.coverFrom))) ==\n                keccak256(abi.encodePacked((\"None\")))\n            ) {\n                break;\n            }\n\n            sender = uploader;\n            _music = music_hash[_music.coverFrom];\n            uploader = _music.uploader;\n\n            count++;\n        }\n\n        // add music to listener list\n        users[msg.sender].bought_music_list.push(songHash);\n    }\n\n    function buyMusicByHash(string memory _ipfsHash) public {\n        address sender = msg.sender;\n        Music memory _music = music_hash[_ipfsHash];\n        string memory songHash = _ipfsHash;\n        address uploader = _music.uploader;\n        uint8[7] memory chain = [100, 50, 25, 12, 6, 3, 1];\n        uint256 count = 0;\n\n        // TODO: Uploader can listen to what he uploaded\n        if (findUploadMusic(songHash)) return;\n\n        // TODO: Buyer will not pay twice\n        if (findBoughtMusic(songHash)) return;\n\n        while (true) {\n            // The depth excee the limit\n            if (count >= 7) {\n                break;\n            }\n            if (!(sender==uploader)) {\n                transferToken(sender, uploader, chain[count]);\n            }\n            // hit the end of the chain\n            if (\n                keccak256(abi.encodePacked((_music.coverFrom))) ==\n                keccak256(abi.encodePacked((\"None\")))\n            ) {\n                break;\n            }\n\n            sender = uploader;\n            _music = music_hash[_music.coverFrom];\n            uploader = _music.uploader;\n\n            count++;\n        }\n\n        // add music to listener list\n        users[msg.sender].bought_music_list.push(songHash);\n    }\n\n    function getMusicChain(\n        string memory _name,\n        string memory _artist,\n        uint8 depth\n    ) public view returns (Music[] memory) {\n        Music memory _music = music[_name][_artist];\n        uint256 count = 0;\n        Music[] memory music_chain = new Music[](depth);\n\n        // transfer token to uploader at the beginning of the chain\n\n        while (true) {\n            // The depth excee the limit\n            if (count >= depth) {\n                break;\n            }\n            music_chain[count] = _music;\n            // hit the end of the chain\n            if (\n                keccak256(abi.encodePacked((_music.coverFrom))) ==\n                keccak256(abi.encodePacked((\"None\")))\n            ) {\n                break;\n            }\n\n            _music = music_hash[_music.coverFrom];\n\n            count++;\n        }\n\n        return music_chain;\n    }\n\n    function getMusicChainByHash(string memory _ipfsHash, uint8 depth)\n        public\n        view\n        returns (Music[] memory)\n    {\n        Music memory _music = music_hash[_ipfsHash];\n        uint256 count = 0;\n        Music[] memory music_chain = new Music[](depth);\n\n        while (true) {\n            // The depth excee the limit\n            if (count >= depth) {\n                break;\n            }\n            music_chain[count] = _music;\n            // hit the end of the chain\n            if (\n                keccak256(abi.encodePacked((_music.coverFrom))) ==\n                keccak256(abi.encodePacked((\"None\")))\n            ) {\n                break;\n            }\n\n            _music = music_hash[_music.coverFrom];\n\n            count++;\n        }\n\n        return music_chain;\n    }\n\n    // Private methods\n    // check if string contains in other string\n    function str_contains (string memory what, string memory where) private pure returns (bool){\n        bytes memory whatBytes = bytes (what);\n        bytes memory whereBytes = bytes (where);\n        if (keccak256(abi.encodePacked((what))) == keccak256(abi.encodePacked((where))))\n        {\n            return true;\n        }\n        bool found = false;\n        for (uint i = 0; i < whereBytes.length - whatBytes.length; i++) {\n            bool flag = true;\n            for (uint j = 0; j < whatBytes.length; j++)\n                if (whereBytes [i + j] != whatBytes [j]) {\n                    flag = false;\n                    break;\n                }\n            if (flag) {\n                found = true;\n                break;\n            }\n        }\n        return (found);\n    }\n}\n",
  "sourcePath": "/Users/systemato/dev/nmlab-final/music-dapp/react/src/contracts/MusicDApp.sol",
  "compiler": {
    "name": "solc",
    "version": "0.8.0+commit.c7dfd78e.Emscripten.clang"
  },
  "schemaVersion": "3.4.0",
  "updatedAt": "2021-06-09T17:54:35.641Z",
  "networkType": "ethereum",
  "devdoc": {
    "kind": "dev",
    "methods": {},
    "version": 1
  },
  "userdoc": {
    "kind": "user",
    "methods": {},
    "version": 1
  }
}