{
  "contractName": "MusicDApp",
  "abi": [
    {
      "inputs": [
        {
          "internalType": "string",
          "name": "_ipfsHash",
          "type": "string"
        },
        {
          "internalType": "string",
          "name": "_name",
          "type": "string"
        },
        {
          "internalType": "string",
          "name": "_artist",
          "type": "string"
        },
        {
          "internalType": "string",
          "name": "_coverFrom",
          "type": "string"
        }
      ],
      "name": "uploadMusic",
      "outputs": [],
      "stateMutability": "nonpayable",
      "type": "function"
    },
    {
      "inputs": [
        {
          "internalType": "string",
          "name": "_name",
          "type": "string"
        },
        {
          "internalType": "string",
          "name": "_artist",
          "type": "string"
        }
      ],
      "name": "getMusic",
      "outputs": [
        {
          "components": [
            {
              "internalType": "address",
              "name": "uploader",
              "type": "address"
            },
            {
              "internalType": "uint256",
              "name": "uploadTime",
              "type": "uint256"
            },
            {
              "internalType": "uint256",
              "name": "count",
              "type": "uint256"
            },
            {
              "internalType": "string",
              "name": "name",
              "type": "string"
            },
            {
              "internalType": "string",
              "name": "artist",
              "type": "string"
            },
            {
              "internalType": "string",
              "name": "ipfsHash",
              "type": "string"
            },
            {
              "internalType": "string",
              "name": "coverFrom",
              "type": "string"
            }
          ],
          "internalType": "struct MusicDApp.Music",
          "name": "",
          "type": "tuple"
        }
      ],
      "stateMutability": "view",
      "type": "function",
      "constant": true
    },
    {
      "inputs": [
        {
          "internalType": "string",
          "name": "_name",
          "type": "string"
        },
        {
          "internalType": "string",
          "name": "_artist",
          "type": "string"
        }
      ],
      "name": "getMusicWithCountIncrement",
      "outputs": [
        {
          "components": [
            {
              "internalType": "address",
              "name": "uploader",
              "type": "address"
            },
            {
              "internalType": "uint256",
              "name": "uploadTime",
              "type": "uint256"
            },
            {
              "internalType": "uint256",
              "name": "count",
              "type": "uint256"
            },
            {
              "internalType": "string",
              "name": "name",
              "type": "string"
            },
            {
              "internalType": "string",
              "name": "artist",
              "type": "string"
            },
            {
              "internalType": "string",
              "name": "ipfsHash",
              "type": "string"
            },
            {
              "internalType": "string",
              "name": "coverFrom",
              "type": "string"
            }
          ],
          "internalType": "struct MusicDApp.Music",
          "name": "",
          "type": "tuple"
        }
      ],
      "stateMutability": "nonpayable",
      "type": "function"
    },
    {
      "inputs": [
        {
          "internalType": "string",
          "name": "_name",
          "type": "string"
        }
      ],
      "name": "getMusicArtistList",
      "outputs": [
        {
          "components": [
            {
              "internalType": "address",
              "name": "uploader",
              "type": "address"
            },
            {
              "internalType": "uint256",
              "name": "uploadTime",
              "type": "uint256"
            },
            {
              "internalType": "uint256",
              "name": "count",
              "type": "uint256"
            },
            {
              "internalType": "string",
              "name": "name",
              "type": "string"
            },
            {
              "internalType": "string",
              "name": "artist",
              "type": "string"
            },
            {
              "internalType": "string",
              "name": "ipfsHash",
              "type": "string"
            },
            {
              "internalType": "string",
              "name": "coverFrom",
              "type": "string"
            }
          ],
          "internalType": "struct MusicDApp.Music[]",
          "name": "",
          "type": "tuple[]"
        }
      ],
      "stateMutability": "view",
      "type": "function",
      "constant": true
    },
    {
      "inputs": [
        {
          "internalType": "string",
          "name": "_artist",
          "type": "string"
        }
      ],
      "name": "getArtistMusicList",
      "outputs": [
        {
          "components": [
            {
              "internalType": "address",
              "name": "uploader",
              "type": "address"
            },
            {
              "internalType": "uint256",
              "name": "uploadTime",
              "type": "uint256"
            },
            {
              "internalType": "uint256",
              "name": "count",
              "type": "uint256"
            },
            {
              "internalType": "string",
              "name": "name",
              "type": "string"
            },
            {
              "internalType": "string",
              "name": "artist",
              "type": "string"
            },
            {
              "internalType": "string",
              "name": "ipfsHash",
              "type": "string"
            },
            {
              "internalType": "string",
              "name": "coverFrom",
              "type": "string"
            }
          ],
          "internalType": "struct MusicDApp.Music[]",
          "name": "",
          "type": "tuple[]"
        }
      ],
      "stateMutability": "view",
      "type": "function",
      "constant": true
    }
  ],
  "bytecode": "0x608060405234801561001057600080fd5b50611b59806100206000396000f3fe608060405234801561001057600080fd5b5060043610610074576000357c0100000000000000000000000000000000000000000000000000000000900480631f4b04ea14610079578063209af2dd146100a95780637fb95448146100d9578063b1ddeab014610109578063e90fd8e714610125575b600080fd5b610093600480360381019061008e91906114c1565b610155565b6040516100a0919061189c565b60405180910390f35b6100c360048036038101906100be9190611480565b6104b7565b6040516100d0919061187a565b60405180910390f35b6100f360048036038101906100ee91906114c1565b6107ec565b604051610100919061189c565b60405180910390f35b610123600480360381019061011e919061152d565b610af9565b005b61013f600480360381019061013a9190611480565b610fed565b60405161014c919061187a565b60405180910390f35b61015d611322565b600160028460405161016f9190611863565b90815260200160405180910390208360405161018b9190611863565b908152602001604051809103902060020160008282546101ab919061197f565b9250508190555060006002846040516101c49190611863565b9081526020016040518091039020836040516101e09190611863565b90815260200160405180910390206040518060e00160405290816000820160009054906101000a900473ffffffffffffffffffffffffffffffffffffffff1673ffffffffffffffffffffffffffffffffffffffff1673ffffffffffffffffffffffffffffffffffffffff168152602001600182015481526020016002820154815260200160038201805461027390611a53565b80601f016020809104026020016040519081016040528092919081815260200182805461029f90611a53565b80156102ec5780601f106102c1576101008083540402835291602001916102ec565b820191906000526020600020905b8154815290600101906020018083116102cf57829003601f168201915b5050505050815260200160048201805461030590611a53565b80601f016020809104026020016040519081016040528092919081815260200182805461033190611a53565b801561037e5780601f106103535761010080835404028352916020019161037e565b820191906000526020600020905b81548152906001019060200180831161036157829003601f168201915b5050505050815260200160058201805461039790611a53565b80601f01602080910402602001604051908101604052809291908181526020018280546103c390611a53565b80156104105780601f106103e557610100808354040283529160200191610410565b820191906000526020600020905b8154815290600101906020018083116103f357829003601f168201915b5050505050815260200160068201805461042990611a53565b80601f016020809104026020016040519081016040528092919081815260200182805461045590611a53565b80156104a25780601f10610477576101008083540402835291602001916104a2565b820191906000526020600020905b81548152906001019060200180831161048557829003601f168201915b50505050508152505090508091505092915050565b606060006003836040516104cb9190611863565b9081526020016040518091039020805480602002602001604051908101604052809291908181526020016000905b828210156107dd57838290600052602060002090600702016040518060e00160405290816000820160009054906101000a900473ffffffffffffffffffffffffffffffffffffffff1673ffffffffffffffffffffffffffffffffffffffff1673ffffffffffffffffffffffffffffffffffffffff168152602001600182015481526020016002820154815260200160038201805461059690611a53565b80601f01602080910402602001604051908101604052809291908181526020018280546105c290611a53565b801561060f5780601f106105e45761010080835404028352916020019161060f565b820191906000526020600020905b8154815290600101906020018083116105f257829003601f168201915b5050505050815260200160048201805461062890611a53565b80601f016020809104026020016040519081016040528092919081815260200182805461065490611a53565b80156106a15780601f10610676576101008083540402835291602001916106a1565b820191906000526020600020905b81548152906001019060200180831161068457829003601f168201915b505050505081526020016005820180546106ba90611a53565b80601f01602080910402602001604051908101604052809291908181526020018280546106e690611a53565b80156107335780601f1061070857610100808354040283529160200191610733565b820191906000526020600020905b81548152906001019060200180831161071657829003601f168201915b5050505050815260200160068201805461074c90611a53565b80601f016020809104026020016040519081016040528092919081815260200182805461077890611a53565b80156107c55780601f1061079a576101008083540402835291602001916107c5565b820191906000526020600020905b8154815290600101906020018083116107a857829003601f168201915b505050505081525050815260200190600101906104f9565b50505050905080915050919050565b6107f4611322565b60006002846040516108069190611863565b9081526020016040518091039020836040516108229190611863565b90815260200160405180910390206040518060e00160405290816000820160009054906101000a900473ffffffffffffffffffffffffffffffffffffffff1673ffffffffffffffffffffffffffffffffffffffff1673ffffffffffffffffffffffffffffffffffffffff16815260200160018201548152602001600282015481526020016003820180546108b590611a53565b80601f01602080910402602001604051908101604052809291908181526020018280546108e190611a53565b801561092e5780601f106109035761010080835404028352916020019161092e565b820191906000526020600020905b81548152906001019060200180831161091157829003601f168201915b5050505050815260200160048201805461094790611a53565b80601f016020809104026020016040519081016040528092919081815260200182805461097390611a53565b80156109c05780601f10610995576101008083540402835291602001916109c0565b820191906000526020600020905b8154815290600101906020018083116109a357829003601f168201915b505050505081526020016005820180546109d990611a53565b80601f0160208091040260200160405190810160405280929190818152602001828054610a0590611a53565b8015610a525780601f10610a2757610100808354040283529160200191610a52565b820191906000526020600020905b815481529060010190602001808311610a3557829003601f168201915b50505050508152602001600682018054610a6b90611a53565b80601f0160208091040260200160405190810160405280929190818152602001828054610a9790611a53565b8015610ae45780601f10610ab957610100808354040283529160200191610ae4565b820191906000526020600020905b815481529060010190602001808311610ac757829003601f168201915b50505050508152505090508091505092915050565b6000339080600181540180825580915050600190039060005260206000200160009091909190916101000a81548173ffffffffffffffffffffffffffffffffffffffff021916908373ffffffffffffffffffffffffffffffffffffffff16021790555060006040518060e001604052803373ffffffffffffffffffffffffffffffffffffffff16815260200142815260200160008152602001858152602001848152602001868152602001838152509050600181908060018154018082558091505060019003906000526020600020906007020160009091909190915060008201518160000160006101000a81548173ffffffffffffffffffffffffffffffffffffffff021916908373ffffffffffffffffffffffffffffffffffffffff16021790555060208201518160010155604082015181600201556060820151816003019080519060200190610c4d929190611375565b506080820151816004019080519060200190610c6a929190611375565b5060a0820151816005019080519060200190610c87929190611375565b5060c0820151816006019080519060200190610ca4929190611375565b50505080600285604051610cb89190611863565b908152602001604051809103902084604051610cd49190611863565b908152602001604051809103902060008201518160000160006101000a81548173ffffffffffffffffffffffffffffffffffffffff021916908373ffffffffffffffffffffffffffffffffffffffff16021790555060208201518160010155604082015181600201556060820151816003019080519060200190610d59929190611375565b506080820151816004019080519060200190610d76929190611375565b5060a0820151816005019080519060200190610d93929190611375565b5060c0820151816006019080519060200190610db0929190611375565b50905050600384604051610dc49190611863565b908152602001604051809103902081908060018154018082558091505060019003906000526020600020906007020160009091909190915060008201518160000160006101000a81548173ffffffffffffffffffffffffffffffffffffffff021916908373ffffffffffffffffffffffffffffffffffffffff16021790555060208201518160010155604082015181600201556060820151816003019080519060200190610e73929190611375565b506080820151816004019080519060200190610e90929190611375565b5060a0820151816005019080519060200190610ead929190611375565b5060c0820151816006019080519060200190610eca929190611375565b505050600483604051610edd9190611863565b908152602001604051809103902081908060018154018082558091505060019003906000526020600020906007020160009091909190915060008201518160000160006101000a81548173ffffffffffffffffffffffffffffffffffffffff021916908373ffffffffffffffffffffffffffffffffffffffff16021790555060208201518160010155604082015181600201556060820151816003019080519060200190610f8c929190611375565b506080820151816004019080519060200190610fa9929190611375565b5060a0820151816005019080519060200190610fc6929190611375565b5060c0820151816006019080519060200190610fe3929190611375565b5050505050505050565b606060006004836040516110019190611863565b9081526020016040518091039020805480602002602001604051908101604052809291908181526020016000905b8282101561131357838290600052602060002090600702016040518060e00160405290816000820160009054906101000a900473ffffffffffffffffffffffffffffffffffffffff1673ffffffffffffffffffffffffffffffffffffffff1673ffffffffffffffffffffffffffffffffffffffff16815260200160018201548152602001600282015481526020016003820180546110cc90611a53565b80601f01602080910402602001604051908101604052809291908181526020018280546110f890611a53565b80156111455780601f1061111a57610100808354040283529160200191611145565b820191906000526020600020905b81548152906001019060200180831161112857829003601f168201915b5050505050815260200160048201805461115e90611a53565b80601f016020809104026020016040519081016040528092919081815260200182805461118a90611a53565b80156111d75780601f106111ac576101008083540402835291602001916111d7565b820191906000526020600020905b8154815290600101906020018083116111ba57829003601f168201915b505050505081526020016005820180546111f090611a53565b80601f016020809104026020016040519081016040528092919081815260200182805461121c90611a53565b80156112695780601f1061123e57610100808354040283529160200191611269565b820191906000526020600020905b81548152906001019060200180831161124c57829003601f168201915b5050505050815260200160068201805461128290611a53565b80601f01602080910402602001604051908101604052809291908181526020018280546112ae90611a53565b80156112fb5780601f106112d0576101008083540402835291602001916112fb565b820191906000526020600020905b8154815290600101906020018083116112de57829003601f168201915b5050505050815250508152602001906001019061102f565b50505050905080915050919050565b6040518060e00160405280600073ffffffffffffffffffffffffffffffffffffffff1681526020016000815260200160008152602001606081526020016060815260200160608152602001606081525090565b82805461138190611a53565b90600052602060002090601f0160209004810192826113a357600085556113ea565b82601f106113bc57805160ff19168380011785556113ea565b828001600101855582156113ea579182015b828111156113e95782518255916020019190600101906113ce565b5b5090506113f791906113fb565b5090565b5b808211156114145760008160009055506001016113fc565b5090565b600061142b611426846118ef565b6118be565b90508281526020810184848401111561144357600080fd5b61144e848285611a11565b509392505050565b600082601f83011261146757600080fd5b8135611477848260208601611418565b91505092915050565b60006020828403121561149257600080fd5b600082013567ffffffffffffffff8111156114ac57600080fd5b6114b884828501611456565b91505092915050565b600080604083850312156114d457600080fd5b600083013567ffffffffffffffff8111156114ee57600080fd5b6114fa85828601611456565b925050602083013567ffffffffffffffff81111561151757600080fd5b61152385828601611456565b9150509250929050565b6000806000806080858703121561154357600080fd5b600085013567ffffffffffffffff81111561155d57600080fd5b61156987828801611456565b945050602085013567ffffffffffffffff81111561158657600080fd5b61159287828801611456565b935050604085013567ffffffffffffffff8111156115af57600080fd5b6115bb87828801611456565b925050606085013567ffffffffffffffff8111156115d857600080fd5b6115e487828801611456565b91505092959194509250565b60006115fc83836116f2565b905092915050565b61160d816119d5565b82525050565b600061161e8261192f565b6116288185611952565b93508360208202850161163a8561191f565b8060005b85811015611676578484038952815161165785826115f0565b945061166283611945565b925060208a0199505060018101905061163e565b50829750879550505050505092915050565b60006116938261193a565b61169d8185611963565b93506116ad818560208601611a20565b6116b681611b12565b840191505092915050565b60006116cc8261193a565b6116d68185611974565b93506116e6818560208601611a20565b80840191505092915050565b600060e08301600083015161170a6000860182611604565b50602083015161171d6020860182611854565b5060408301516117306040860182611854565b50606083015184820360608601526117488282611688565b915050608083015184820360808601526117628282611688565b91505060a083015184820360a086015261177c8282611688565b91505060c083015184820360c08601526117968282611688565b9150508091505092915050565b600060e0830160008301516117bb6000860182611604565b5060208301516117ce6020860182611854565b5060408301516117e16040860182611854565b50606083015184820360608601526117f98282611688565b915050608083015184820360808601526118138282611688565b91505060a083015184820360a086015261182d8282611688565b91505060c083015184820360c08601526118478282611688565b9150508091505092915050565b61185d81611a07565b82525050565b600061186f82846116c1565b915081905092915050565b600060208201905081810360008301526118948184611613565b905092915050565b600060208201905081810360008301526118b681846117a3565b905092915050565b6000604051905081810181811067ffffffffffffffff821117156118e5576118e4611ae3565b5b8060405250919050565b600067ffffffffffffffff82111561190a57611909611ae3565b5b601f19601f8301169050602081019050919050565b6000819050602082019050919050565b600081519050919050565b600081519050919050565b6000602082019050919050565b600082825260208201905092915050565b600082825260208201905092915050565b600081905092915050565b600061198a82611a07565b915061199583611a07565b9250827fffffffffffffffffffffffffffffffffffffffffffffffffffffffffffffffff038211156119ca576119c9611a85565b5b828201905092915050565b60006119e0826119e7565b9050919050565b600073ffffffffffffffffffffffffffffffffffffffff82169050919050565b6000819050919050565b82818337600083830152505050565b60005b83811015611a3e578082015181840152602081019050611a23565b83811115611a4d576000848401525b50505050565b60006002820490506001821680611a6b57607f821691505b60208210811415611a7f57611a7e611ab4565b5b50919050565b7f4e487b7100000000000000000000000000000000000000000000000000000000600052601160045260246000fd5b7f4e487b7100000000000000000000000000000000000000000000000000000000600052602260045260246000fd5b7f4e487b7100000000000000000000000000000000000000000000000000000000600052604160045260246000fd5b6000601f19601f830116905091905056fea26469706673582212209a6cd3c282c1919afac0e68f4b2f7d15d5a27743ea75b0fad3d9cc79891ca31964736f6c63430008000033",
  "immutableReferences": {},
  "source": "pragma solidity >=0.4.0 <0.9.0;\n// support return struct in functions\npragma experimental ABIEncoderV2;\n\n// import \"../node_modules/@openzeppelin/contracts/token/ERC20/ERC20.sol\";\n\ncontract MusicDApp {\n    // Basic storage unit\n    struct Music {\n        // Music information\n        address uploader;\n        uint256 uploadTime;\n        uint256 count;\n        string name;\n        string artist;\n        // Music content\n        string ipfsHash;\n        string coverFrom;\n    }\n\n    // State variables\n    address[] uploaderIndexes;\n    Music[] musics;\n\n    // (name, artist) as primary key\n    mapping(string => mapping(string => Music)) internal music;\n\n    // name as primary key\n    mapping(string => Music[]) internal music_artist_list;\n\n    // artist as primary key\n    mapping(string => Music[]) internal artist_music_list;\n\n    // events firing\n    // event OnMusicUpload(string ipfsHash);\n    // event OnMusicDownload(...)\n\n    // Modifiers\n\n    // Public methods\n    function uploadMusic(\n        string memory _ipfsHash,\n        string memory _name,\n        string memory _artist,\n        string memory _coverFrom\n    ) public {\n        uploaderIndexes.push(msg.sender);\n        Music memory _music =\n            Music(\n                msg.sender,\n                block.timestamp,\n                0,\n                _name,\n                _artist,\n                _ipfsHash,\n                _coverFrom\n            );\n\n        musics.push(_music);\n        music[_name][_artist] = _music;\n        music_artist_list[_name].push(_music);\n        artist_music_list[_artist].push(_music);\n    }\n\n    function getMusic(string memory _name, string memory _artist)\n        public\n        view\n        returns (Music memory)\n    {\n        Music memory _music = music[_name][_artist];\n\n        return _music;\n    }\n\n    function getMusicWithCountIncrement(\n        string memory _name,\n        string memory _artist\n    ) public returns (Music memory) {\n        music[_name][_artist].count += 1;\n        Music memory _music = music[_name][_artist];\n\n        return _music;\n    }\n\n    function getMusicArtistList(string memory _name)\n        public\n        view\n        returns (Music[] memory)\n    {\n        Music[] memory _music_list = music_artist_list[_name];\n\n        return _music_list;\n    }\n\n    function getArtistMusicList(string memory _artist)\n        public\n        view\n        returns (Music[] memory)\n    {\n        Music[] memory _artist_music_list = artist_music_list[_artist];\n\n        return _artist_music_list;\n    }\n\n    // Private methods\n}\n",
  "sourcePath": "/Users/systemato/dev/nmlab-final/music-dapp/react/src/contracts/MusicDApp.sol",
  "compiler": {
    "name": "solc",
    "version": "0.8.0+commit.c7dfd78e.Emscripten.clang"
  },
  "schemaVersion": "3.4.0",
  "updatedAt": "2021-06-02T05:56:22.609Z",
  "networkType": "ethereum",
  "devdoc": {
    "kind": "dev",
    "methods": {},
    "version": 1
  },
  "userdoc": {
    "kind": "user",
    "methods": {},
    "version": 1
  }
}