{
  "contractName": "MusicDApp",
  "abi": [
    {
      "anonymous": false,
      "inputs": [
        {
          "indexed": false,
          "internalType": "uint256",
          "name": "amount",
          "type": "uint256"
        }
      ],
      "name": "Bought",
      "type": "event"
    },
    {
      "anonymous": false,
      "inputs": [
        {
          "indexed": false,
          "internalType": "uint256",
          "name": "amount",
          "type": "uint256"
        }
      ],
      "name": "Sold",
      "type": "event"
    },
    {
      "inputs": [],
      "name": "buy",
      "outputs": [],
      "stateMutability": "payable",
      "type": "function"
    },
    {
      "inputs": [],
      "name": "exchange_rate",
      "outputs": [
        {
          "internalType": "uint256",
          "name": "",
          "type": "uint256"
        }
      ],
      "stateMutability": "view",
      "type": "function"
    },
    {
      "inputs": [],
      "name": "getContractAddress",
      "outputs": [
        {
          "internalType": "address",
          "name": "",
          "type": "address"
        }
      ],
      "stateMutability": "view",
      "type": "function"
    },
    {
      "inputs": [],
      "name": "getPoolEtherBalance",
      "outputs": [
        {
          "internalType": "uint256",
          "name": "",
          "type": "uint256"
        }
      ],
      "stateMutability": "view",
      "type": "function"
    },
    {
      "inputs": [],
      "name": "getPoolTokenBalance",
      "outputs": [
        {
          "internalType": "uint256",
          "name": "",
          "type": "uint256"
        }
      ],
      "stateMutability": "view",
      "type": "function"
    },
    {
      "inputs": [],
      "name": "getTokenSupply",
      "outputs": [
        {
          "internalType": "uint256",
          "name": "",
          "type": "uint256"
        }
      ],
      "stateMutability": "view",
      "type": "function"
    },
    {
      "inputs": [],
      "name": "register",
      "outputs": [
        {
          "internalType": "bool",
          "name": "",
          "type": "bool"
        }
      ],
      "stateMutability": "nonpayable",
      "type": "function"
    },
    {
      "inputs": [
        {
          "internalType": "uint256",
          "name": "amount",
          "type": "uint256"
        }
      ],
      "name": "sell",
      "outputs": [],
      "stateMutability": "nonpayable",
      "type": "function"
    },
    {
      "inputs": [],
      "name": "token",
      "outputs": [
        {
          "internalType": "contract TokenPool",
          "name": "",
          "type": "address"
        }
      ],
      "stateMutability": "view",
      "type": "function"
    },
    {
      "inputs": [
        {
          "internalType": "address",
          "name": "receiver",
          "type": "address"
        },
        {
          "internalType": "uint256",
          "name": "amount",
          "type": "uint256"
        }
      ],
      "name": "transferToken",
      "outputs": [],
      "stateMutability": "nonpayable",
      "type": "function"
    },
    {
      "inputs": [],
      "name": "userExists",
      "outputs": [
        {
          "internalType": "bool",
          "name": "",
          "type": "bool"
        }
      ],
      "stateMutability": "view",
      "type": "function"
    },
    {
      "inputs": [],
      "name": "getUserInfo",
      "outputs": [
        {
          "components": [
            {
              "internalType": "string[]",
              "name": "upload_music_list",
              "type": "string[]"
            },
            {
              "internalType": "string[]",
              "name": "bought_music_list",
              "type": "string[]"
            },
            {
              "internalType": "bool",
              "name": "isValid",
              "type": "bool"
            }
          ],
          "internalType": "struct MusicDApp.User",
          "name": "",
          "type": "tuple"
        }
      ],
      "stateMutability": "view",
      "type": "function"
    },
    {
      "inputs": [],
      "name": "getUserBalance",
      "outputs": [
        {
          "internalType": "uint256",
          "name": "",
          "type": "uint256"
        }
      ],
      "stateMutability": "view",
      "type": "function"
    },
    {
      "inputs": [],
      "name": "registerUser",
      "outputs": [
        {
          "components": [
            {
              "internalType": "string[]",
              "name": "upload_music_list",
              "type": "string[]"
            },
            {
              "internalType": "string[]",
              "name": "bought_music_list",
              "type": "string[]"
            },
            {
              "internalType": "bool",
              "name": "isValid",
              "type": "bool"
            }
          ],
          "internalType": "struct MusicDApp.User",
          "name": "",
          "type": "tuple"
        }
      ],
      "stateMutability": "nonpayable",
      "type": "function"
    },
    {
      "inputs": [],
      "name": "getUploadMusicList",
      "outputs": [
        {
          "internalType": "string[]",
          "name": "",
          "type": "string[]"
        }
      ],
      "stateMutability": "view",
      "type": "function"
    },
    {
      "inputs": [],
      "name": "getBoughtMusicList",
      "outputs": [
        {
          "internalType": "string[]",
          "name": "",
          "type": "string[]"
        }
      ],
      "stateMutability": "view",
      "type": "function"
    },
    {
      "inputs": [
        {
          "internalType": "string",
          "name": "_ipfsHash",
          "type": "string"
        }
      ],
      "name": "findUploadMusic",
      "outputs": [
        {
          "internalType": "bool",
          "name": "",
          "type": "bool"
        }
      ],
      "stateMutability": "view",
      "type": "function"
    },
    {
      "inputs": [
        {
          "internalType": "string",
          "name": "_ipfsHash",
          "type": "string"
        }
      ],
      "name": "findBoughtMusic",
      "outputs": [
        {
          "internalType": "bool",
          "name": "",
          "type": "bool"
        }
      ],
      "stateMutability": "view",
      "type": "function"
    },
    {
      "inputs": [
        {
          "internalType": "string",
          "name": "_name",
          "type": "string"
        },
        {
          "internalType": "string",
          "name": "_artist",
          "type": "string"
        }
      ],
      "name": "musicExists",
      "outputs": [
        {
          "internalType": "bool",
          "name": "",
          "type": "bool"
        }
      ],
      "stateMutability": "view",
      "type": "function"
    },
    {
      "inputs": [
        {
          "internalType": "string",
          "name": "_ipfsHash",
          "type": "string"
        },
        {
          "internalType": "string",
          "name": "_name",
          "type": "string"
        },
        {
          "internalType": "string",
          "name": "_artist",
          "type": "string"
        },
        {
          "internalType": "string",
          "name": "_coverFrom",
          "type": "string"
        }
      ],
      "name": "uploadMusic",
      "outputs": [],
      "stateMutability": "nonpayable",
      "type": "function"
    },
    {
      "inputs": [
        {
          "internalType": "string",
          "name": "_ipfsHash",
          "type": "string"
        },
        {
          "internalType": "string",
          "name": "_name",
          "type": "string"
        },
        {
          "internalType": "string",
          "name": "_artist",
          "type": "string"
        },
        {
          "internalType": "string",
          "name": "_coverFrom",
          "type": "string"
        },
        {
          "internalType": "address",
          "name": "uploader_addr",
          "type": "address"
        }
      ],
      "name": "uploadMusic_batch",
      "outputs": [],
      "stateMutability": "nonpayable",
      "type": "function"
    },
    {
      "inputs": [
        {
          "internalType": "string",
          "name": "_name",
          "type": "string"
        },
        {
          "internalType": "string",
          "name": "_artist",
          "type": "string"
        }
      ],
      "name": "getMusic",
      "outputs": [
        {
          "components": [
            {
              "internalType": "address",
              "name": "uploader",
              "type": "address"
            },
            {
              "internalType": "uint256",
              "name": "uploadTime",
              "type": "uint256"
            },
            {
              "internalType": "uint256",
              "name": "count",
              "type": "uint256"
            },
            {
              "internalType": "string",
              "name": "name",
              "type": "string"
            },
            {
              "internalType": "string",
              "name": "artist",
              "type": "string"
            },
            {
              "internalType": "string",
              "name": "ipfsHash",
              "type": "string"
            },
            {
              "internalType": "string",
              "name": "coverFrom",
              "type": "string"
            }
          ],
          "internalType": "struct MusicDApp.Music",
          "name": "",
          "type": "tuple"
        }
      ],
      "stateMutability": "view",
      "type": "function"
    },
    {
      "inputs": [
        {
          "internalType": "string",
          "name": "_name",
          "type": "string"
        },
        {
          "internalType": "string",
          "name": "_artist",
          "type": "string"
        }
      ],
      "name": "searchMusic",
      "outputs": [
        {
          "components": [
            {
              "internalType": "address",
              "name": "uploader",
              "type": "address"
            },
            {
              "internalType": "uint256",
              "name": "uploadTime",
              "type": "uint256"
            },
            {
              "internalType": "uint256",
              "name": "count",
              "type": "uint256"
            },
            {
              "internalType": "string",
              "name": "name",
              "type": "string"
            },
            {
              "internalType": "string",
              "name": "artist",
              "type": "string"
            },
            {
              "internalType": "string",
              "name": "ipfsHash",
              "type": "string"
            },
            {
              "internalType": "string",
              "name": "coverFrom",
              "type": "string"
            }
          ],
          "internalType": "struct MusicDApp.Music[]",
          "name": "",
          "type": "tuple[]"
        }
      ],
      "stateMutability": "view",
      "type": "function"
    },
    {
      "inputs": [
        {
          "internalType": "string",
          "name": "_ipfsHash",
          "type": "string"
        }
      ],
      "name": "getMusicByHash",
      "outputs": [
        {
          "components": [
            {
              "internalType": "address",
              "name": "uploader",
              "type": "address"
            },
            {
              "internalType": "uint256",
              "name": "uploadTime",
              "type": "uint256"
            },
            {
              "internalType": "uint256",
              "name": "count",
              "type": "uint256"
            },
            {
              "internalType": "string",
              "name": "name",
              "type": "string"
            },
            {
              "internalType": "string",
              "name": "artist",
              "type": "string"
            },
            {
              "internalType": "string",
              "name": "ipfsHash",
              "type": "string"
            },
            {
              "internalType": "string",
              "name": "coverFrom",
              "type": "string"
            }
          ],
          "internalType": "struct MusicDApp.Music",
          "name": "",
          "type": "tuple"
        }
      ],
      "stateMutability": "view",
      "type": "function"
    },
    {
      "inputs": [
        {
          "internalType": "string",
          "name": "_name",
          "type": "string"
        }
      ],
      "name": "getMusicArtistList",
      "outputs": [
        {
          "components": [
            {
              "internalType": "address",
              "name": "uploader",
              "type": "address"
            },
            {
              "internalType": "uint256",
              "name": "uploadTime",
              "type": "uint256"
            },
            {
              "internalType": "uint256",
              "name": "count",
              "type": "uint256"
            },
            {
              "internalType": "string",
              "name": "name",
              "type": "string"
            },
            {
              "internalType": "string",
              "name": "artist",
              "type": "string"
            },
            {
              "internalType": "string",
              "name": "ipfsHash",
              "type": "string"
            },
            {
              "internalType": "string",
              "name": "coverFrom",
              "type": "string"
            }
          ],
          "internalType": "struct MusicDApp.Music[]",
          "name": "",
          "type": "tuple[]"
        }
      ],
      "stateMutability": "view",
      "type": "function"
    },
    {
      "inputs": [
        {
          "internalType": "string",
          "name": "_artist",
          "type": "string"
        }
      ],
      "name": "getArtistMusicList",
      "outputs": [
        {
          "components": [
            {
              "internalType": "address",
              "name": "uploader",
              "type": "address"
            },
            {
              "internalType": "uint256",
              "name": "uploadTime",
              "type": "uint256"
            },
            {
              "internalType": "uint256",
              "name": "count",
              "type": "uint256"
            },
            {
              "internalType": "string",
              "name": "name",
              "type": "string"
            },
            {
              "internalType": "string",
              "name": "artist",
              "type": "string"
            },
            {
              "internalType": "string",
              "name": "ipfsHash",
              "type": "string"
            },
            {
              "internalType": "string",
              "name": "coverFrom",
              "type": "string"
            }
          ],
          "internalType": "struct MusicDApp.Music[]",
          "name": "",
          "type": "tuple[]"
        }
      ],
      "stateMutability": "view",
      "type": "function"
    },
    {
      "inputs": [
        {
          "internalType": "string",
          "name": "_ipfsHash",
          "type": "string"
        }
      ],
      "name": "buyMusicByHash",
      "outputs": [],
      "stateMutability": "nonpayable",
      "type": "function"
    },
    {
      "inputs": [
        {
          "internalType": "string",
          "name": "_name",
          "type": "string"
        },
        {
          "internalType": "string",
          "name": "_artist",
          "type": "string"
        },
        {
          "internalType": "uint8",
          "name": "depth",
          "type": "uint8"
        }
      ],
      "name": "getMusicChain",
      "outputs": [
        {
          "components": [
            {
              "internalType": "address",
              "name": "uploader",
              "type": "address"
            },
            {
              "internalType": "uint256",
              "name": "uploadTime",
              "type": "uint256"
            },
            {
              "internalType": "uint256",
              "name": "count",
              "type": "uint256"
            },
            {
              "internalType": "string",
              "name": "name",
              "type": "string"
            },
            {
              "internalType": "string",
              "name": "artist",
              "type": "string"
            },
            {
              "internalType": "string",
              "name": "ipfsHash",
              "type": "string"
            },
            {
              "internalType": "string",
              "name": "coverFrom",
              "type": "string"
            }
          ],
          "internalType": "struct MusicDApp.Music[]",
          "name": "",
          "type": "tuple[]"
        }
      ],
      "stateMutability": "view",
      "type": "function"
    },
    {
      "inputs": [
        {
          "internalType": "string",
          "name": "_ipfsHash",
          "type": "string"
        },
        {
          "internalType": "uint8",
          "name": "depth",
          "type": "uint8"
        }
      ],
      "name": "getMusicChainByHash",
      "outputs": [
        {
          "components": [
            {
              "internalType": "address",
              "name": "uploader",
              "type": "address"
            },
            {
              "internalType": "uint256",
              "name": "uploadTime",
              "type": "uint256"
            },
            {
              "internalType": "uint256",
              "name": "count",
              "type": "uint256"
            },
            {
              "internalType": "string",
              "name": "name",
              "type": "string"
            },
            {
              "internalType": "string",
              "name": "artist",
              "type": "string"
            },
            {
              "internalType": "string",
              "name": "ipfsHash",
              "type": "string"
            },
            {
              "internalType": "string",
              "name": "coverFrom",
              "type": "string"
            }
          ],
          "internalType": "struct MusicDApp.Music[]",
          "name": "",
          "type": "tuple[]"
        }
      ],
      "stateMutability": "view",
      "type": "function"
    },
    {
      "inputs": [
        {
          "internalType": "string",
          "name": "_name",
          "type": "string"
        },
        {
          "internalType": "uint256",
          "name": "_index",
          "type": "uint256"
        },
        {
          "internalType": "uint256",
          "name": "depth",
          "type": "uint256"
        }
      ],
      "name": "getRelevantMusicNameList",
      "outputs": [
        {
          "components": [
            {
              "internalType": "address",
              "name": "uploader",
              "type": "address"
            },
            {
              "internalType": "uint256",
              "name": "uploadTime",
              "type": "uint256"
            },
            {
              "internalType": "uint256",
              "name": "count",
              "type": "uint256"
            },
            {
              "internalType": "string",
              "name": "name",
              "type": "string"
            },
            {
              "internalType": "string",
              "name": "artist",
              "type": "string"
            },
            {
              "internalType": "string",
              "name": "ipfsHash",
              "type": "string"
            },
            {
              "internalType": "string",
              "name": "coverFrom",
              "type": "string"
            }
          ],
          "internalType": "struct MusicDApp.Music[10]",
          "name": "",
          "type": "tuple[10]"
        },
        {
          "internalType": "uint256",
          "name": "",
          "type": "uint256"
        },
        {
          "internalType": "bool",
          "name": "",
          "type": "bool"
        }
      ],
      "stateMutability": "view",
      "type": "function"
    },
    {
      "inputs": [
        {
          "internalType": "string",
          "name": "_artist",
          "type": "string"
        },
        {
          "internalType": "uint256",
          "name": "_index",
          "type": "uint256"
        },
        {
          "internalType": "uint256",
          "name": "depth",
          "type": "uint256"
        }
      ],
      "name": "getRelevantArtistNameList",
      "outputs": [
        {
          "components": [
            {
              "internalType": "address",
              "name": "uploader",
              "type": "address"
            },
            {
              "internalType": "uint256",
              "name": "uploadTime",
              "type": "uint256"
            },
            {
              "internalType": "uint256",
              "name": "count",
              "type": "uint256"
            },
            {
              "internalType": "string",
              "name": "name",
              "type": "string"
            },
            {
              "internalType": "string",
              "name": "artist",
              "type": "string"
            },
            {
              "internalType": "string",
              "name": "ipfsHash",
              "type": "string"
            },
            {
              "internalType": "string",
              "name": "coverFrom",
              "type": "string"
            }
          ],
          "internalType": "struct MusicDApp.Music[10]",
          "name": "",
          "type": "tuple[10]"
        },
        {
          "internalType": "uint256",
          "name": "",
          "type": "uint256"
        },
        {
          "internalType": "bool",
          "name": "",
          "type": "bool"
        }
      ],
      "stateMutability": "view",
      "type": "function"
    },
    {
      "inputs": [
        {
          "internalType": "string",
          "name": "_name",
          "type": "string"
        },
        {
          "internalType": "string",
          "name": "_artist",
          "type": "string"
        },
        {
          "internalType": "uint256",
          "name": "_index",
          "type": "uint256"
        },
        {
          "internalType": "uint256",
          "name": "depth",
          "type": "uint256"
        }
      ],
      "name": "getRelevantMusicArtistList",
      "outputs": [
        {
          "components": [
            {
              "internalType": "address",
              "name": "uploader",
              "type": "address"
            },
            {
              "internalType": "uint256",
              "name": "uploadTime",
              "type": "uint256"
            },
            {
              "internalType": "uint256",
              "name": "count",
              "type": "uint256"
            },
            {
              "internalType": "string",
              "name": "name",
              "type": "string"
            },
            {
              "internalType": "string",
              "name": "artist",
              "type": "string"
            },
            {
              "internalType": "string",
              "name": "ipfsHash",
              "type": "string"
            },
            {
              "internalType": "string",
              "name": "coverFrom",
              "type": "string"
            }
          ],
          "internalType": "struct MusicDApp.Music[10]",
          "name": "",
          "type": "tuple[10]"
        },
        {
          "internalType": "uint256",
          "name": "",
          "type": "uint256"
        },
        {
          "internalType": "bool",
          "name": "",
          "type": "bool"
        }
      ],
      "stateMutability": "view",
      "type": "function"
    }
  ],
  "bytecode": "0x6080604052655af3107a40006001553480156200001b57600080fd5b506040516200002a906200006e565b604051809103906000f08015801562000047573d6000803e3d6000fd5b5060008054600160a060020a031916600160a060020a03929092169190911790556200007c565b61057b80620063a983390190565b61631d806200008c6000396000f3fe6080604052600436106101e75760003560e060020a900480638aa4342c11610106578063b7013dc111610099578063eae6d4da11610068578063eae6d4da14610550578063f7f6bd7f14610565578063fc0c546a14610585578063fdf743251461059a576101e7565b8063b7013dc1146104db578063e41bfe6e146104f0578063e4849b3214610510578063e90fd8e714610530576101e7565b8063a678b830116100d5578063a678b8301461047e578063a6f2ae3a1461049e578063ad974f4c146104a6578063b1ddeab0146104bb576101e7565b80638aa4342c146104095780639146436b1461041e57806393154af71461043e578063a59789641461045e576101e7565b80633854f10c1161017e57806360b377b81161014d57806360b377b81461037a5780637176285a1461039c5780637fb95448146103bc57806380f3de65146103e9576101e7565b80633854f10c1461030e57806346c641f31461032e5780634d3820eb146103435780635d8d158514610365576101e7565b8063209af2dd116101ba578063209af2dd1461028a578063245fcb92146102b757806327547450146102cc57806332a2c5d0146102ec576101e7565b80630495640c146101ec5780631072cbea14610224578063171ef0b2146102465780631aa3a00814610268575b600080fd5b3480156101f857600080fd5b5061020c610207366004615c30565b6105ba565b60405161021b93929190615f00565b60405180910390f35b34801561023057600080fd5b5061024461023f366004615901565b610945565b005b34801561025257600080fd5b5061025b6109ff565b60405161021b91906161b6565b34801561027457600080fd5b5061027d610a05565b60405161021b9190615fb2565b34801561029657600080fd5b506102aa6102a5366004615951565b610b48565b60405161021b9190615f5f565b3480156102c357600080fd5b5061025b610e3d565b3480156102d857600080fd5b5061020c6102e7366004615c30565b610e42565b3480156102f857600080fd5b506103016111ad565b60405161021b9190615e68565b34801561031a57600080fd5b5061020c610329366004615b4e565b6111b1565b34801561033a57600080fd5b5061025b611551565b34801561034f57600080fd5b506103586115da565b60405161021b9190616164565b34801561037157600080fd5b50610358611a90565b34801561038657600080fd5b5061038f611c72565b60405161021b9190615ea0565b3480156103a857600080fd5b506102aa6103b736600461598c565b611d56565b3480156103c857600080fd5b506103dc6103d736600461598c565b61220a565b60405161021b9190616151565b3480156103f557600080fd5b5061027d610404366004615951565b6124d4565b34801561041557600080fd5b5061038f612761565b34801561042a57600080fd5b506103dc610439366004615951565b61283f565b34801561044a57600080fd5b506102aa610459366004615c7c565b612aec565b34801561046a57600080fd5b5061027d61047936600461598c565b61314e565b34801561048a57600080fd5b50610244610499366004615a95565b61341d565b610244613928565b3480156104b257600080fd5b5061025b613aca565b3480156104c757600080fd5b506102446104d63660046159ed565b613b1c565b3480156104e757600080fd5b5061025b61401c565b3480156104fc57600080fd5b5061024461050b366004615951565b614050565b34801561051c57600080fd5b5061024461052b366004615cc8565b614757565b34801561053c57600080fd5b506102aa61054b366004615951565b6148d1565b34801561055c57600080fd5b5061027d614bb8565b34801561057157600080fd5b5061027d610580366004615951565b614bd1565b34801561059157600080fd5b50610301614e54565b3480156105a657600080fd5b506102aa6105b5366004615bbf565b614e63565b6105c2615728565b6000806105cd615728565b6000806105d8615756565b88805b600254811015610925578985106105f157610925565b600281815481106106155760e060020a634e487b7102600052603260045260246000fd5b90600052602060002090600702016040518060e00160405290816000820160009054906101000a9004600160a060020a0316600160a060020a0316600160a060020a0316815260200160018201548152602001600282015481526020016003820180546106819061625c565b80601f01602080910402602001604051908101604052809291908181526020018280546106ad9061625c565b80156106fa5780601f106106cf576101008083540402835291602001916106fa565b820191906000526020600020905b8154815290600101906020018083116106dd57829003601f168201915b505050505081526020016004820180546107139061625c565b80601f016020809104026020016040519081016040528092919081815260200182805461073f9061625c565b801561078c5780601f106107615761010080835404028352916020019161078c565b820191906000526020600020905b81548152906001019060200180831161076f57829003601f168201915b505050505081526020016005820180546107a59061625c565b80601f01602080910402602001604051908101604052809291908181526020018280546107d19061625c565b801561081e5780601f106107f35761010080835404028352916020019161081e565b820191906000526020600020905b81548152906001019060200180831161080157829003601f168201915b505050505081526020016006820180546108379061625c565b80601f01602080910402602001604051908101604052809291908181526020018280546108639061625c565b80156108b05780601f10610885576101008083540402835291602001916108b0565b820191906000526020600020905b81548152906001019060200180831161089357829003601f168201915b50505050508152505092506108c98c84606001516154e2565b1561090557828686600a81106108f25760e060020a634e487b7102600052603260045260246000fd5b6020020152846109018161629a565b9550505b8161090f8161629a565b925050808061091d9061629a565b9150506105db565b5060025481141561093557600192505b5092999198509650945050505050565b600081116109715760405160e560020a62461bcd02815260040161096890616051565b60405180910390fd5b60005460405160e060020a6323b872dd028152600160a060020a03909116906323b872dd906109a890339086908690600401615e7c565b602060405180830381600087803b1580156109c257600080fd5b505af11580156109d6573d6000803e3d6000fd5b505050506040513d601f19601f820116820180604052508101906109fa919061592a565b505050565b60015481565b6000805460405160e060020a6370a08231028152612710918391600160a060020a03909116906370a0823190610a3f903090600401615e68565b60206040518083038186803b158015610a5757600080fd5b505afa158015610a6b573d6000803e3d6000fd5b505050506040513d601f19601f82011682018060405250810190610a8f9190615ce0565b905080821115610ab45760405160e560020a62461bcd0281526004016109689061611c565b60005460405160e060020a6323b872dd028152600160a060020a03909116906323b872dd90610aeb90309033908790600401615e7c565b602060405180830381600087803b158015610b0557600080fd5b505af1158015610b19573d6000803e3d6000fd5b505050506040513d601f19601f82011682018060405250810190610b3d919061592a565b506001925050505b90565b60606000600683604051610b5c9190615e23565b9081526020016040518091039020805480602002602001604051908101604052809291908181526020016000905b82821015610e2f5760008481526020908190206040805160e081018252600786029092018054600160a060020a03168352600181015493830193909352600283015490820152600382018054919291606084019190610be89061625c565b80601f0160208091040260200160405190810160405280929190818152602001828054610c149061625c565b8015610c615780601f10610c3657610100808354040283529160200191610c61565b820191906000526020600020905b815481529060010190602001808311610c4457829003601f168201915b50505050508152602001600482018054610c7a9061625c565b80601f0160208091040260200160405190810160405280929190818152602001828054610ca69061625c565b8015610cf35780601f10610cc857610100808354040283529160200191610cf3565b820191906000526020600020905b815481529060010190602001808311610cd657829003601f168201915b50505050508152602001600582018054610d0c9061625c565b80601f0160208091040260200160405190810160405280929190818152602001828054610d389061625c565b8015610d855780601f10610d5a57610100808354040283529160200191610d85565b820191906000526020600020905b815481529060010190602001808311610d6857829003601f168201915b50505050508152602001600682018054610d9e9061625c565b80601f0160208091040260200160405190810160405280929190818152602001828054610dca9061625c565b8015610e175780601f10610dec57610100808354040283529160200191610e17565b820191906000526020600020905b815481529060010190602001808311610dfa57829003601f168201915b50505050508152505081526020019060010190610b8a565b50929450505050505b919050565b303190565b610e4a615728565b600080610e55615728565b600080610e60615756565b88805b60025481101561092557898510610e7957610925565b60028181548110610e9d5760e060020a634e487b7102600052603260045260246000fd5b90600052602060002090600702016040518060e00160405290816000820160009054906101000a9004600160a060020a0316600160a060020a0316600160a060020a031681526020016001820154815260200160028201548152602001600382018054610f099061625c565b80601f0160208091040260200160405190810160405280929190818152602001828054610f359061625c565b8015610f825780601f10610f5757610100808354040283529160200191610f82565b820191906000526020600020905b815481529060010190602001808311610f6557829003601f168201915b50505050508152602001600482018054610f9b9061625c565b80601f0160208091040260200160405190810160405280929190818152602001828054610fc79061625c565b80156110145780601f10610fe957610100808354040283529160200191611014565b820191906000526020600020905b815481529060010190602001808311610ff757829003601f168201915b5050505050815260200160058201805461102d9061625c565b80601f01602080910402602001604051908101604052809291908181526020018280546110599061625c565b80156110a65780601f1061107b576101008083540402835291602001916110a6565b820191906000526020600020905b81548152906001019060200180831161108957829003601f168201915b505050505081526020016006820180546110bf9061625c565b80601f01602080910402602001604051908101604052809291908181526020018280546110eb9061625c565b80156111385780601f1061110d57610100808354040283529160200191611138565b820191906000526020600020905b81548152906001019060200180831161111b57829003601f168201915b50505050508152505092506111518c84608001516154e2565b1561118d57828686600a811061117a5760e060020a634e487b7102600052603260045260246000fd5b6020020152846111898161629a565b9550505b816111978161629a565b92505080806111a59061629a565b915050610e63565b3090565b6111b9615728565b6000806111c4615728565b6000806111cf615756565b88805b600254811015611530578985106111e857611530565b6002818154811061120c5760e060020a634e487b7102600052603260045260246000fd5b90600052602060002090600702016040518060e00160405290816000820160009054906101000a9004600160a060020a0316600160a060020a0316600160a060020a0316815260200160018201548152602001600282015481526020016003820180546112789061625c565b80601f01602080910402602001604051908101604052809291908181526020018280546112a49061625c565b80156112f15780601f106112c6576101008083540402835291602001916112f1565b820191906000526020600020905b8154815290600101906020018083116112d457829003601f168201915b5050505050815260200160048201805461130a9061625c565b80601f01602080910402602001604051908101604052809291908181526020018280546113369061625c565b80156113835780601f1061135857610100808354040283529160200191611383565b820191906000526020600020905b81548152906001019060200180831161136657829003601f168201915b5050505050815260200160058201805461139c9061625c565b80601f01602080910402602001604051908101604052809291908181526020018280546113c89061625c565b80156114155780601f106113ea57610100808354040283529160200191611415565b820191906000526020600020905b8154815290600101906020018083116113f857829003601f168201915b5050505050815260200160068201805461142e9061625c565b80601f016020809104026020016040519081016040528092919081815260200182805461145a9061625c565b80156114a75780601f1061147c576101008083540402835291602001916114a7565b820191906000526020600020905b81548152906001019060200180831161148a57829003601f168201915b50505050508152505092506114c08d84606001516154e2565b806114d457506114d48c84608001516154e2565b1561151057828686600a81106114fd5760e060020a634e487b7102600052603260045260246000fd5b60200201528461150c8161629a565b9550505b8161151a8161629a565b92505080806115289061629a565b9150506111d2565b5060025481141561154057600192505b50929a919950975095505050505050565b6000805460405160e060020a6370a08231028152600160a060020a03909116906370a0823190611585903090600401615e68565b60206040518083038186803b15801561159d57600080fd5b505afa1580156115b1573d6000803e3d6000fd5b505050506040513d601f19601f820116820180604052508101906115d59190615ce0565b905090565b6115e261579c565b6115ea614bb8565b6118b4576000805460405160e060020a6370a08231028152600160a060020a03909116906370a0823190611622903090600401615e68565b60206040518083038186803b15801561163a57600080fd5b505afa15801561164e573d6000803e3d6000fd5b505050506040513d601f19601f820116820180604052508101906116729190615ce0565b90508061271011156116995760405160e560020a62461bcd0281526004016109689061611c565b60006116a3610a05565b9050806116c55760405160e560020a62461bcd028152600401610968906160ae565b33600090815260036020908152604080832060028101805460ff191660011790558151815460809481028201850190935260608101838152909391928492849190879085015b828210156117b757838290600052602060002001805461172a9061625c565b80601f01602080910402602001604051908101604052809291908181526020018280546117569061625c565b80156117a35780601f10611778576101008083540402835291602001916117a3565b820191906000526020600020905b81548152906001019060200180831161178657829003601f168201915b50505050508152602001906001019061170b565b50505050815260200160018201805480602002602001604051908101604052809291908181526020016000905b828210156118905783829060005260206000200180546118039061625c565b80601f016020809104026020016040519081016040528092919081815260200182805461182f9061625c565b801561187c5780601f106118515761010080835404028352916020019161187c565b820191906000526020600020905b81548152906001019060200180831161185f57829003601f168201915b5050505050815260200190600101906117e4565b505050908252506002919091015460ff1615156020909101529350610b4592505050565b3360009081526003602090815260408083208151815460809481028201850190935260608101838152909491938593919285929185015b8282101561199757838290600052602060002001805461190a9061625c565b80601f01602080910402602001604051908101604052809291908181526020018280546119369061625c565b80156119835780601f1061195857610100808354040283529160200191611983565b820191906000526020600020905b81548152906001019060200180831161196657829003601f168201915b5050505050815260200190600101906118eb565b50505050815260200160018201805480602002602001604051908101604052809291908181526020016000905b82821015611a705783829060005260206000200180546119e39061625c565b80601f0160208091040260200160405190810160405280929190818152602001828054611a0f9061625c565b8015611a5c5780601f10611a3157610100808354040283529160200191611a5c565b820191906000526020600020905b815481529060010190602001808311611a3f57829003601f168201915b5050505050815260200190600101906119c4565b505050908252506002919091015460ff1615156020909101529050610b45565b611a9861579c565b3360009081526003602090815260408083208151815460809481028201850190935260608101838152909491938593919285929185015b82821015611b7b578382906000526020600020018054611aee9061625c565b80601f0160208091040260200160405190810160405280929190818152602001828054611b1a9061625c565b8015611b675780601f10611b3c57610100808354040283529160200191611b67565b820191906000526020600020905b815481529060010190602001808311611b4a57829003601f168201915b505050505081526020019060010190611acf565b50505050815260200160018201805480602002602001604051908101604052809291908181526020016000905b82821015611c54578382906000526020600020018054611bc79061625c565b80601f0160208091040260200160405190810160405280929190818152602001828054611bf39061625c565b8015611c405780601f10611c1557610100808354040283529160200191611c40565b820191906000526020600020905b815481529060010190602001808311611c2357829003601f168201915b505050505081526020019060010190611ba8565b505050908252506002919091015460ff161515602090910152905090565b336000908152600360209081526040808320805482518185028101850190935280835260609492939192909184015b82821015611d4d578382906000526020600020018054611cc09061625c565b80601f0160208091040260200160405190810160405280929190818152602001828054611cec9061625c565b8015611d395780601f10611d0e57610100808354040283529160200191611d39565b820191906000526020600020905b815481529060010190602001808311611d1c57829003601f168201915b505050505081526020019060010190611ca1565b50505050905090565b60025460609060009067ffffffffffffffff811115611d885760e060020a634e487b7102600052604160045260246000fd5b604051908082528060200260200182016040528015611dc157816020015b611dae615756565b815260200190600190039081611da65790505b5090506000805b6002548110156121fe57611e998660028381548110611dfa5760e060020a634e487b7102600052603260045260246000fd5b90600052602060002090600702016003018054611e169061625c565b80601f0160208091040260200160405190810160405280929190818152602001828054611e429061625c565b8015611e8f5780601f10611e6457610100808354040283529160200191611e8f565b820191906000526020600020905b815481529060010190602001808311611e7257829003601f168201915b50505050506154e2565b80611ee35750611ee38560028381548110611ec75760e060020a634e487b7102600052603260045260246000fd5b90600052602060002090600702016004018054611e169061625c565b156121ec5760028181548110611f0c5760e060020a634e487b7102600052603260045260246000fd5b90600052602060002090600702016040518060e00160405290816000820160009054906101000a9004600160a060020a0316600160a060020a0316600160a060020a031681526020016001820154815260200160028201548152602001600382018054611f789061625c565b80601f0160208091040260200160405190810160405280929190818152602001828054611fa49061625c565b8015611ff15780601f10611fc657610100808354040283529160200191611ff1565b820191906000526020600020905b815481529060010190602001808311611fd457829003601f168201915b5050505050815260200160048201805461200a9061625c565b80601f01602080910402602001604051908101604052809291908181526020018280546120369061625c565b80156120835780601f1061205857610100808354040283529160200191612083565b820191906000526020600020905b81548152906001019060200180831161206657829003601f168201915b5050505050815260200160058201805461209c9061625c565b80601f01602080910402602001604051908101604052809291908181526020018280546120c89061625c565b80156121155780601f106120ea57610100808354040283529160200191612115565b820191906000526020600020905b8154815290600101906020018083116120f857829003601f168201915b5050505050815260200160068201805461212e9061625c565b80601f016020809104026020016040519081016040528092919081815260200182805461215a9061625c565b80156121a75780601f1061217c576101008083540402835291602001916121a7565b820191906000526020600020905b81548152906001019060200180831161218a57829003601f168201915b5050505050815250508383815181106121d35760e060020a634e487b7102600052603260045260246000fd5b60209081029190910101526121e98160016161bf565b90505b806121f68161629a565b915050611dc8565b50909150505b92915050565b612212615756565b60006005846040516122249190615e23565b9081526020016040518091039020836040516122409190615e23565b90815260408051918290036020908101832060e0840183528054600160a060020a031684526001810154918401919091526002810154918301919091526003810180546060840191906122929061625c565b80601f01602080910402602001604051908101604052809291908181526020018280546122be9061625c565b801561230b5780601f106122e05761010080835404028352916020019161230b565b820191906000526020600020905b8154815290600101906020018083116122ee57829003601f168201915b505050505081526020016004820180546123249061625c565b80601f01602080910402602001604051908101604052809291908181526020018280546123509061625c565b801561239d5780601f106123725761010080835404028352916020019161239d565b820191906000526020600020905b81548152906001019060200180831161238057829003601f168201915b505050505081526020016005820180546123b69061625c565b80601f01602080910402602001604051908101604052809291908181526020018280546123e29061625c565b801561242f5780601f106124045761010080835404028352916020019161242f565b820191906000526020600020905b81548152906001019060200180831161241257829003601f168201915b505050505081526020016006820180546124489061625c565b80601f01602080910402602001604051908101604052809291908181526020018280546124749061625c565b80156124c15780601f10612496576101008083540402835291602001916124c1565b820191906000526020600020905b8154815290600101906020018083116124a457829003601f168201915b5050509190925250919695505050505050565b3360009081526003602090815260408083208151815460809481028201850190935260608101838152859491938492849190879085015b828210156125b757838290600052602060002001805461252a9061625c565b80601f01602080910402602001604051908101604052809291908181526020018280546125569061625c565b80156125a35780601f10612578576101008083540402835291602001916125a3565b820191906000526020600020905b81548152906001019060200180831161258657829003601f168201915b50505050508152602001906001019061250b565b50505050815260200160018201805480602002602001604051908101604052809291908181526020016000905b828210156126905783829060005260206000200180546126039061625c565b80601f016020809104026020016040519081016040528092919081815260200182805461262f9061625c565b801561267c5780601f106126515761010080835404028352916020019161267c565b820191906000526020600020905b81548152906001019060200180831161265f57829003601f168201915b5050505050815260200190600101906125e4565b505050908252506002919091015460ff161515602090910152805190915060005b8151811015612756578181815181106126dd5760e060020a634e487b7102600052603260045260246000fd5b60200260200101516040516020016126f59190615e23565b604051602081830303815290604052805190602001208560405160200161271c9190615e23565b6040516020818303038152906040528051906020012014156127445760019350505050610e38565b8061274e8161629a565b9150506126b1565b506000949350505050565b336000908152600360209081526040808320600101805482518185028101850190935280835260609492939192909184015b82821015611d4d5783829060005260206000200180546127b29061625c565b80601f01602080910402602001604051908101604052809291908181526020018280546127de9061625c565b801561282b5780601f106128005761010080835404028352916020019161282b565b820191906000526020600020905b81548152906001019060200180831161280e57829003601f168201915b505050505081526020019060010190612793565b612847615756565b60006004836040516128599190615e23565b90815260408051918290036020908101832060e0840183528054600160a060020a031684526001810154918401919091526002810154918301919091526003810180546060840191906128ab9061625c565b80601f01602080910402602001604051908101604052809291908181526020018280546128d79061625c565b80156129245780601f106128f957610100808354040283529160200191612924565b820191906000526020600020905b81548152906001019060200180831161290757829003601f168201915b5050505050815260200160048201805461293d9061625c565b80601f01602080910402602001604051908101604052809291908181526020018280546129699061625c565b80156129b65780601f1061298b576101008083540402835291602001916129b6565b820191906000526020600020905b81548152906001019060200180831161299957829003601f168201915b505050505081526020016005820180546129cf9061625c565b80601f01602080910402602001604051908101604052809291908181526020018280546129fb9061625c565b8015612a485780601f10612a1d57610100808354040283529160200191612a48565b820191906000526020600020905b815481529060010190602001808311612a2b57829003601f168201915b50505050508152602001600682018054612a619061625c565b80601f0160208091040260200160405190810160405280929190818152602001828054612a8d9061625c565b8015612ada5780601f10612aaf57610100808354040283529160200191612ada565b820191906000526020600020905b815481529060010190602001808311612abd57829003601f168201915b50505091909252509195945050505050565b60606000600484604051612b009190615e23565b90815260408051918290036020908101832060e0840183528054600160a060020a03168452600181015491840191909152600281015491830191909152600381018054606084019190612b529061625c565b80601f0160208091040260200160405190810160405280929190818152602001828054612b7e9061625c565b8015612bcb5780601f10612ba057610100808354040283529160200191612bcb565b820191906000526020600020905b815481529060010190602001808311612bae57829003601f168201915b50505050508152602001600482018054612be49061625c565b80601f0160208091040260200160405190810160405280929190818152602001828054612c109061625c565b8015612c5d5780601f10612c3257610100808354040283529160200191612c5d565b820191906000526020600020905b815481529060010190602001808311612c4057829003601f168201915b50505050508152602001600582018054612c769061625c565b80601f0160208091040260200160405190810160405280929190818152602001828054612ca29061625c565b8015612cef5780601f10612cc457610100808354040283529160200191612cef565b820191906000526020600020905b815481529060010190602001808311612cd257829003601f168201915b50505050508152602001600682018054612d089061625c565b80601f0160208091040260200160405190810160405280929190818152602001828054612d349061625c565b8015612d815780601f10612d5657610100808354040283529160200191612d81565b820191906000526020600020905b815481529060010190602001808311612d6457829003601f168201915b50505050508152505090506000808460ff1667ffffffffffffffff811115612dbc5760e060020a634e487b7102600052604160045260246000fd5b604051908082528060200260200182016040528015612df557816020015b612de2615756565b815260200190600190039081612dda5790505b5090505b8460ff168210612e0857613145565b82818381518110612e2c5760e060020a634e487b7102600052603260045260246000fd5b6020026020010181905250604051602001612e4690615e3f565b604051602081830303815290604052805190602001208360c00151604051602001612e719190615e23565b604051602081830303815290604052805190602001201415612e9257613145565b60048360c00151604051612ea69190615e23565b90815260408051918290036020908101832060e0840183528054600160a060020a03168452600181015491840191909152600281015491830191909152600381018054606084019190612ef89061625c565b80601f0160208091040260200160405190810160405280929190818152602001828054612f249061625c565b8015612f715780601f10612f4657610100808354040283529160200191612f71565b820191906000526020600020905b815481529060010190602001808311612f5457829003601f168201915b50505050508152602001600482018054612f8a9061625c565b80601f0160208091040260200160405190810160405280929190818152602001828054612fb69061625c565b80156130035780601f10612fd857610100808354040283529160200191613003565b820191906000526020600020905b815481529060010190602001808311612fe657829003601f168201915b5050505050815260200160058201805461301c9061625c565b80601f01602080910402602001604051908101604052809291908181526020018280546130489061625c565b80156130955780601f1061306a57610100808354040283529160200191613095565b820191906000526020600020905b81548152906001019060200180831161307857829003601f168201915b505050505081526020016006820180546130ae9061625c565b80601f01602080910402602001604051908101604052809291908181526020018280546130da9061625c565b80156131275780601f106130fc57610100808354040283529160200191613127565b820191906000526020600020905b81548152906001019060200180831161310a57829003601f168201915b5050505050815250509250818061313d9061629a565b925050612df9565b95945050505050565b6000806005846040516131619190615e23565b90815260200160405180910390208360405161317d9190615e23565b90815260408051918290036020908101832060e0840183528054600160a060020a031684526001810154918401919091526002810154918301919091526003810180546060840191906131cf9061625c565b80601f01602080910402602001604051908101604052809291908181526020018280546131fb9061625c565b80156132485780601f1061321d57610100808354040283529160200191613248565b820191906000526020600020905b81548152906001019060200180831161322b57829003601f168201915b505050505081526020016004820180546132619061625c565b80601f016020809104026020016040519081016040528092919081815260200182805461328d9061625c565b80156132da5780601f106132af576101008083540402835291602001916132da565b820191906000526020600020905b8154815290600101906020018083116132bd57829003601f168201915b505050505081526020016005820180546132f39061625c565b80601f016020809104026020016040519081016040528092919081815260200182805461331f9061625c565b801561336c5780601f106133415761010080835404028352916020019161336c565b820191906000526020600020905b81548152906001019060200180831161334f57829003601f168201915b505050505081526020016006820180546133859061625c565b80601f01602080910402602001604051908101604052809291908181526020018280546133b19061625c565b80156133fe5780601f106133d3576101008083540402835291602001916133fe565b820191906000526020600020905b8154815290600101906020018083116133e157829003601f168201915b5050509190925250509051600160a060020a0316151595945050505050565b6040805160e081018252600160a060020a0383811682524260208084019182526000948401858152606085018a8152608086018a905260a086018c905260c0860189905260028054600181018255975285517f405787fa12a823e0f2b7631cc41b3ba8828b3321ca811111fa75cd3aa3bb5ace60079098029788018054600160a060020a0319169190961617855592517f405787fa12a823e0f2b7631cc41b3ba8828b3321ca811111fa75cd3aa3bb5acf870155517f405787fa12a823e0f2b7631cc41b3ba8828b3321ca811111fa75cd3aa3bb5ad08601559051805193948594613530937f405787fa12a823e0f2b7631cc41b3ba8828b3321ca811111fa75cd3aa3bb5ad190920192909101906157bf565b506080820151805161354c9160048401916020909101906157bf565b5060a082015180516135689160058401916020909101906157bf565b5060c082015180516135849160068401916020909101906157bf565b505050806005866040516135989190615e23565b9081526020016040518091039020856040516135b49190615e23565b908152604080516020928190038301902083518154600160a060020a031916600160a060020a0390911617815583830151600182015590830151600282015560608301518051919261360e926003850192909101906157bf565b506080820151805161362a9160048401916020909101906157bf565b5060a082015180516136469160058401916020909101906157bf565b5060c082015180516136629160068401916020909101906157bf565b50905050806004876040516136779190615e23565b908152604080516020928190038301902083518154600160a060020a031916600160a060020a039091161781558383015160018201559083015160028201556060830151805191926136d1926003850192909101906157bf565b50608082015180516136ed9160048401916020909101906157bf565b5060a082015180516137099160058401916020909101906157bf565b5060c082015180516137259160068401916020909101906157bf565b509050506006856040516137399190615e23565b908152604080516020928190038301902080546001808201835560009283529184902085516007909202018054600160a060020a031916600160a060020a0390921691909117815584840151918101919091559083015160028201556060830151805184936137af9260038501929101906157bf565b50608082015180516137cb9160048401916020909101906157bf565b5060a082015180516137e79160058401916020909101906157bf565b5060c082015180516138039160068401916020909101906157bf565b5050506007846040516138169190615e23565b908152604080516020928190038301902080546001808201835560009283529184902085516007909202018054600160a060020a031916600160a060020a03909216919091178155848401519181019190915590830151600282015560608301518051849361388c9260038501929101906157bf565b50608082015180516138a89160048401916020909101906157bf565b5060a082015180516138c49160058401916020909101906157bf565b5060c082015180516138e09160068401916020909101906157bf565b505050600160a060020a03821660009081526003602090815260408220805460018101825590835291819020885161391f9391909101918901906157bf565b50505050505050565b6000805460405160e060020a6370a08231028152349291600160a060020a0316906370a082319061395d903090600401615e68565b60206040518083038186803b15801561397557600080fd5b505afa158015613989573d6000803e3d6000fd5b505050506040513d601f19601f820116820180604052508101906139ad9190615ce0565b9050600082116139d25760405160e560020a62461bcd02815260040161096890615fbd565b808211156139f55760405160e560020a62461bcd0281526004016109689061611c565b600054600154600160a060020a03909116906323b872dd9030903390613a1b90876161d7565b6040518463ffffffff1660e060020a028152600401613a3c93929190615e7c565b602060405180830381600087803b158015613a5657600080fd5b505af1158015613a6a573d6000803e3d6000fd5b505050506040513d601f19601f82011682018060405250810190613a8e919061592a565b507f4e08ba899977cf7d4c2964bce71c6b9a7ef76ee5166a4c1249a1e08016e33ef182604051613abe91906161b6565b60405180910390a15050565b60008060009054906101000a9004600160a060020a0316600160a060020a03166318160ddd6040518163ffffffff1660e060020a02815260040160206040518083038186803b15801561159d57600080fd5b6040805160e0810182523381524260208083019182526001938301848152606084018881526080850188905260a085018a905260c0850187905260028054968701815560005284517f405787fa12a823e0f2b7631cc41b3ba8828b3321ca811111fa75cd3aa3bb5ace60079097029687018054600160a060020a031916600160a060020a0390921691909117815593517f405787fa12a823e0f2b7631cc41b3ba8828b3321ca811111fa75cd3aa3bb5acf87015590517f405787fa12a823e0f2b7631cc41b3ba8828b3321ca811111fa75cd3aa3bb5ad086015551805193948594613c2f937f405787fa12a823e0f2b7631cc41b3ba8828b3321ca811111fa75cd3aa3bb5ad190920192909101906157bf565b5060808201518051613c4b9160048401916020909101906157bf565b5060a08201518051613c679160058401916020909101906157bf565b5060c08201518051613c839160068401916020909101906157bf565b50505080600585604051613c979190615e23565b908152602001604051809103902084604051613cb39190615e23565b908152604080516020928190038301902083518154600160a060020a031916600160a060020a03909116178155838301516001820155908301516002820155606083015180519192613d0d926003850192909101906157bf565b5060808201518051613d299160048401916020909101906157bf565b5060a08201518051613d459160058401916020909101906157bf565b5060c08201518051613d619160068401916020909101906157bf565b5090505080600486604051613d769190615e23565b908152604080516020928190038301902083518154600160a060020a031916600160a060020a03909116178155838301516001820155908301516002820155606083015180519192613dd0926003850192909101906157bf565b5060808201518051613dec9160048401916020909101906157bf565b5060a08201518051613e089160058401916020909101906157bf565b5060c08201518051613e249160068401916020909101906157bf565b50905050600684604051613e389190615e23565b908152604080516020928190038301902080546001808201835560009283529184902085516007909202018054600160a060020a031916600160a060020a039092169190911781558484015191810191909155908301516002820155606083015180518493613eae9260038501929101906157bf565b5060808201518051613eca9160048401916020909101906157bf565b5060a08201518051613ee69160058401916020909101906157bf565b5060c08201518051613f029160068401916020909101906157bf565b505050600783604051613f159190615e23565b908152604080516020928190038301902080546001808201835560009283529184902085516007909202018054600160a060020a031916600160a060020a039092169190911781558484015191810191909155908301516002820155606083015180518493613f8b9260038501929101906157bf565b5060808201518051613fa79160048401916020909101906157bf565b5060a08201518051613fc39160058401916020909101906157bf565b5060c08201518051613fdf9160068401916020909101906157bf565b5050336000908152600360209081526040822080546001810182559083529181902088516140149450920191908801906157bf565b505050505050565b6000805460405160e060020a6370a08231028152600160a060020a03909116906370a0823190611585903390600401615e68565b600033905060006004836040516140679190615e23565b90815260408051918290036020908101832060e0840183528054600160a060020a031684526001810154918401919091526002810154918301919091526003810180546060840191906140b99061625c565b80601f01602080910402602001604051908101604052809291908181526020018280546140e59061625c565b80156141325780601f1061410757610100808354040283529160200191614132565b820191906000526020600020905b81548152906001019060200180831161411557829003601f168201915b5050505050815260200160048201805461414b9061625c565b80601f01602080910402602001604051908101604052809291908181526020018280546141779061625c565b80156141c45780601f10614199576101008083540402835291602001916141c4565b820191906000526020600020905b8154815290600101906020018083116141a757829003601f168201915b505050505081526020016005820180546141dd9061625c565b80601f01602080910402602001604051908101604052809291908181526020018280546142099061625c565b80156142565780601f1061422b57610100808354040283529160200191614256565b820191906000526020600020905b81548152906001019060200180831161423957829003601f168201915b5050505050815260200160068201805461426f9061625c565b80601f016020809104026020016040519081016040528092919081815260200182805461429b9061625c565b80156142e85780601f106142bd576101008083540402835291602001916142e8565b820191906000526020600020905b8154815290600101906020018083116142cb57829003601f168201915b50505091909252505081516040805160e0810182526064815260326020820152601991810191909152600c606082015260066080820152600360a0820152600160c082015292935085929091506000614340846124d4565b1561435057505050505050614754565b61435984614bd1565b1561436957505050505050614754565b6007811061437657614716565b826040516020016143879190615e00565b60405160208183030381529060405280519060200120866040516020016143ae9190615e00565b60405160208183030381529060405280519060200120146143fe576143fe86848484600781106143f15760e060020a634e487b7102600052603260045260246000fd5b602002015160ff16615676565b60405160200161440d90615e3f565b604051602081830303815290604052805190602001208560c001516040516020016144389190615e23565b60405160208183030381529060405280519060200120141561445957614716565b82955060048560c001516040516144709190615e23565b90815260408051918290036020908101832060e0840183528054600160a060020a031684526001810154918401919091526002810154918301919091526003810180546060840191906144c29061625c565b80601f01602080910402602001604051908101604052809291908181526020018280546144ee9061625c565b801561453b5780601f106145105761010080835404028352916020019161453b565b820191906000526020600020905b81548152906001019060200180831161451e57829003601f168201915b505050505081526020016004820180546145549061625c565b80601f01602080910402602001604051908101604052809291908181526020018280546145809061625c565b80156145cd5780601f106145a2576101008083540402835291602001916145cd565b820191906000526020600020905b8154815290600101906020018083116145b057829003601f168201915b505050505081526020016005820180546145e69061625c565b80601f01602080910402602001604051908101604052809291908181526020018280546146129061625c565b801561465f5780601f106146345761010080835404028352916020019161465f565b820191906000526020600020905b81548152906001019060200180831161464257829003601f168201915b505050505081526020016006820180546146789061625c565b80601f01602080910402602001604051908101604052809291908181526020018280546146a49061625c565b80156146f15780601f106146c6576101008083540402835291602001916146f1565b820191906000526020600020905b8154815290600101906020018083116146d457829003601f168201915b505050505081525050945084600001519250808061470e9061629a565b915050614369565b3360009081526003602090815260408220600190810180549182018155835291819020865161474c9391909101918701906157bf565b505050505050505b50565b6000811161477a5760405160e560020a62461bcd02815260040161096890615ff4565b60005460405160e060020a6323b872dd028152600160a060020a03909116906323b872dd906147b190339030908690600401615e7c565b602060405180830381600087803b1580156147cb57600080fd5b505af11580156147df573d6000803e3d6000fd5b505050506040513d601f19601f82011682018060405250810190614803919061592a565b5060006001548261481491906161fa565b9050600033600160a060020a03168260405161482f90610b45565b60006040518083038185875af1925050503d806000811461486c576040519150601f19603f3d011682016040523d82523d6000602084013e614871565b606091505b50509050806148955760405160e560020a62461bcd028152600401610968906160e5565b7f92f64ca637d023f354075a4be751b169c1a8a9ccb6d33cdd0cb3520543995727836040516148c491906161b6565b60405180910390a1505050565b606060006007836040516148e59190615e23565b9081526020016040518091039020805480602002602001604051908101604052809291908181526020016000905b82821015610e2f5760008481526020908190206040805160e081018252600786029092018054600160a060020a031683526001810154938301939093526002830154908201526003820180549192916060840191906149719061625c565b80601f016020809104026020016040519081016040528092919081815260200182805461499d9061625c565b80156149ea5780601f106149bf576101008083540402835291602001916149ea565b820191906000526020600020905b8154815290600101906020018083116149cd57829003601f168201915b50505050508152602001600482018054614a039061625c565b80601f0160208091040260200160405190810160405280929190818152602001828054614a2f9061625c565b8015614a7c5780601f10614a5157610100808354040283529160200191614a7c565b820191906000526020600020905b815481529060010190602001808311614a5f57829003601f168201915b50505050508152602001600582018054614a959061625c565b80601f0160208091040260200160405190810160405280929190818152602001828054614ac19061625c565b8015614b0e5780601f10614ae357610100808354040283529160200191614b0e565b820191906000526020600020905b815481529060010190602001808311614af157829003601f168201915b50505050508152602001600682018054614b279061625c565b80601f0160208091040260200160405190810160405280929190818152602001828054614b539061625c565b8015614ba05780601f10614b7557610100808354040283529160200191614ba0565b820191906000526020600020905b815481529060010190602001808311614b8357829003601f168201915b50505050508152505081526020019060010190614913565b3360009081526003602052604090206002015460ff1690565b3360009081526003602090815260408083208151815460809481028201850190935260608101838152859491938492849190879085015b82821015614cb4578382906000526020600020018054614c279061625c565b80601f0160208091040260200160405190810160405280929190818152602001828054614c539061625c565b8015614ca05780601f10614c7557610100808354040283529160200191614ca0565b820191906000526020600020905b815481529060010190602001808311614c8357829003601f168201915b505050505081526020019060010190614c08565b50505050815260200160018201805480602002602001604051908101604052809291908181526020016000905b82821015614d8d578382906000526020600020018054614d009061625c565b80601f0160208091040260200160405190810160405280929190818152602001828054614d2c9061625c565b8015614d795780601f10614d4e57610100808354040283529160200191614d79565b820191906000526020600020905b815481529060010190602001808311614d5c57829003601f168201915b505050505081526020019060010190614ce1565b505050908252506002919091015460ff16151560209182015281015190915060005b815181101561275657818181518110614ddb5760e060020a634e487b7102600052603260045260246000fd5b6020026020010151604051602001614df39190615e23565b6040516020818303038152906040528051906020012085604051602001614e1a9190615e23565b604051602081830303815290604052805190602001201415614e425760019350505050610e38565b80614e4c8161629a565b915050614daf565b600054600160a060020a031681565b60606000600585604051614e779190615e23565b908152602001604051809103902084604051614e939190615e23565b90815260408051918290036020908101832060e0840183528054600160a060020a03168452600181015491840191909152600281015491830191909152600381018054606084019190614ee59061625c565b80601f0160208091040260200160405190810160405280929190818152602001828054614f119061625c565b8015614f5e5780601f10614f3357610100808354040283529160200191614f5e565b820191906000526020600020905b815481529060010190602001808311614f4157829003601f168201915b50505050508152602001600482018054614f779061625c565b80601f0160208091040260200160405190810160405280929190818152602001828054614fa39061625c565b8015614ff05780601f10614fc557610100808354040283529160200191614ff0565b820191906000526020600020905b815481529060010190602001808311614fd357829003601f168201915b505050505081526020016005820180546150099061625c565b80601f01602080910402602001604051908101604052809291908181526020018280546150359061625c565b80156150825780601f1061505757610100808354040283529160200191615082565b820191906000526020600020905b81548152906001019060200180831161506557829003601f168201915b5050505050815260200160068201805461509b9061625c565b80601f01602080910402602001604051908101604052809291908181526020018280546150c79061625c565b80156151145780601f106150e957610100808354040283529160200191615114565b820191906000526020600020905b8154815290600101906020018083116150f757829003601f168201915b50505050508152505090506000808460ff1667ffffffffffffffff81111561514f5760e060020a634e487b7102600052604160045260246000fd5b60405190808252806020026020018201604052801561518857816020015b615175615756565b81526020019060019003908161516d5790505b5090505b8460ff16821061519b576154d8565b828183815181106151bf5760e060020a634e487b7102600052603260045260246000fd5b60200260200101819052506040516020016151d990615e3f565b604051602081830303815290604052805190602001208360c001516040516020016152049190615e23565b604051602081830303815290604052805190602001201415615225576154d8565b60048360c001516040516152399190615e23565b90815260408051918290036020908101832060e0840183528054600160a060020a0316845260018101549184019190915260028101549183019190915260038101805460608401919061528b9061625c565b80601f01602080910402602001604051908101604052809291908181526020018280546152b79061625c565b80156153045780601f106152d957610100808354040283529160200191615304565b820191906000526020600020905b8154815290600101906020018083116152e757829003601f168201915b5050505050815260200160048201805461531d9061625c565b80601f01602080910402602001604051908101604052809291908181526020018280546153499061625c565b80156153965780601f1061536b57610100808354040283529160200191615396565b820191906000526020600020905b81548152906001019060200180831161537957829003601f168201915b505050505081526020016005820180546153af9061625c565b80601f01602080910402602001604051908101604052809291908181526020018280546153db9061625c565b80156154285780601f106153fd57610100808354040283529160200191615428565b820191906000526020600020905b81548152906001019060200180831161540b57829003601f168201915b505050505081526020016006820180546154419061625c565b80601f016020809104026020016040519081016040528092919081815260200182805461546d9061625c565b80156154ba5780601f1061548f576101008083540402835291602001916154ba565b820191906000526020600020905b81548152906001019060200180831161549d57829003601f168201915b505050505081525050925081806154d09061629a565b92505061518c565b9695505050505050565b604051600090839083906154fa908290602001615e23565b60405160208183030381529060405280519060200120856040516020016155219190615e23565b60405160208183030381529060405280519060200120141561554857600192505050612204565b6000805b8351835161555a9190616219565b81101561566c57600160005b8551811015615648578581815181106155925760e060020a634e487b7102600052603260045260246000fd5b602001015160f860020a900460f860020a027effffffffffffffffffffffffffffffffffffffffffffffffffffffffffffff19168582856155d391906161bf565b815181106155f45760e060020a634e487b7102600052603260045260246000fd5b602001015160f860020a900460f860020a027effffffffffffffffffffffffffffffffffffffffffffffffffffffffffffff1916146156365760009150615648565b806156408161629a565b915050615566565b50801561565957600192505061566c565b50806156648161629a565b91505061554c565b5095945050505050565b600081116156995760405160e560020a62461bcd02815260040161096890616051565b60005460405160e060020a6323b872dd028152600160a060020a03909116906323b872dd906156d090869086908690600401615e7c565b602060405180830381600087803b1580156156ea57600080fd5b505af11580156156fe573d6000803e3d6000fd5b505050506040513d601f19601f82011682018060405250810190615722919061592a565b50505050565b604051806101400160405280600a905b615740615756565b8152602001906001900390816157385790505090565b6040518060e001604052806000600160a060020a031681526020016000815260200160008152602001606081526020016060815260200160608152602001606081525090565b604051806060016040528060608152602001606081526020016000151581525090565b8280546157cb9061625c565b90600052602060002090601f0160209004810192826157ed5760008555615833565b82601f1061580657805160ff1916838001178555615833565b82800160010185558215615833579182015b82811115615833578251825591602001919060010190615818565b5061583f929150615843565b5090565b5b8082111561583f5760008155600101615844565b8035600160a060020a0381168114610e3857600080fd5b600082601f83011261587f578081fd5b813567ffffffffffffffff8082111561589a5761589a6162ce565b604051601f8301601f1916810160200182811182821017156158be576158be6162ce565b6040528281528483016020018610156158d5578384fd5b82602086016020830137918201602001929092529392505050565b803560ff81168114610e3857600080fd5b60008060408385031215615913578182fd5b61591c83615858565b946020939093013593505050565b60006020828403121561593b578081fd5b8151801515811461594a578182fd5b9392505050565b600060208284031215615962578081fd5b813567ffffffffffffffff811115615978578182fd5b6159848482850161586f565b949350505050565b6000806040838503121561599e578182fd5b823567ffffffffffffffff808211156159b5578384fd5b6159c18683870161586f565b935060208501359150808211156159d6578283fd5b506159e38582860161586f565b9150509250929050565b60008060008060808587031215615a02578182fd5b843567ffffffffffffffff80821115615a19578384fd5b615a258883890161586f565b95506020870135915080821115615a3a578384fd5b615a468883890161586f565b94506040870135915080821115615a5b578384fd5b615a678883890161586f565b93506060870135915080821115615a7c578283fd5b50615a898782880161586f565b91505092959194509250565b600080600080600060a08688031215615aac578081fd5b853567ffffffffffffffff80821115615ac3578283fd5b615acf89838a0161586f565b96506020880135915080821115615ae4578283fd5b615af089838a0161586f565b95506040880135915080821115615b05578283fd5b615b1189838a0161586f565b94506060880135915080821115615b26578283fd5b50615b338882890161586f565b925050615b4260808701615858565b90509295509295909350565b60008060008060808587031215615b63578384fd5b843567ffffffffffffffff80821115615b7a578586fd5b615b868883890161586f565b95506020870135915080821115615b9b578485fd5b50615ba88782880161586f565b949794965050505060408301359260600135919050565b600080600060608486031215615bd3578283fd5b833567ffffffffffffffff80821115615bea578485fd5b615bf68783880161586f565b94506020860135915080821115615c0b578384fd5b50615c188682870161586f565b925050615c27604085016158f0565b90509250925092565b600080600060608486031215615c44578283fd5b833567ffffffffffffffff811115615c5a578384fd5b615c668682870161586f565b9660208601359650604090950135949350505050565b60008060408385031215615c8e578182fd5b823567ffffffffffffffff811115615ca4578283fd5b615cb08582860161586f565b925050615cbf602084016158f0565b90509250929050565b600060208284031215615cd9578081fd5b5035919050565b600060208284031215615cf1578081fd5b5051919050565b6000815180845260208085018081965082840281019150828601855b85811015615d3e578284038952615d2c848351615d4b565b98850198935090840190600101615d14565b5091979650505050505050565b60008151808452615d63816020860160208601616230565b601f01601f19169290920160200192915050565b6000600160a060020a0382511683526020820151602084015260408201516040840152606082015160e06060850152615db360e0850182615d4b565b905060808301518482036080860152615dcc8282615d4b565b91505060a083015184820360a0860152615de68282615d4b565b91505060c083015184820360c08601526131458282615d4b565b600160a060020a03919091166c0100000000000000000000000002815260140190565b60008251615e35818460208701616230565b9190910192915050565b7f4e6f6e6500000000000000000000000000000000000000000000000000000000815260040190565b600160a060020a0391909116815260200190565b600160a060020a039384168152919092166020820152604081019190915260600190565b6000602080830181845280855180835260408601915060408482028701019250838701855b82811015615ef357603f19888603018452615ee1858351615d4b565b94509285019290850190600101615ec5565b5092979650505050505050565b60608082526000906101a0830190830186835b600a811015615f4557605f19868503018352615f30848351615d77565b93506020928301929190910190600101615f13565b505050602083019490945250901515604090910152919050565b6000602080830181845280855180835260408601915060408482028701019250838701855b82811015615ef357603f19888603018452615fa0858351615d77565b94509285019290850190600101615f84565b901515815260200190565b6020808252601b908201527f596f75206e65656420746f2073656e6420736f6d652045746865720000000000604082015260600190565b60208082526025908201527f596f75206e65656420746f2073656c6c206174206c6561737420736f6d65207460408201527f6f6b656e73000000000000000000000000000000000000000000000000000000606082015260800190565b60208082526026908201527f596f75206e65656420746f20656e746572206174206c6561737420736f6d652060408201527f746f6b656e730000000000000000000000000000000000000000000000000000606082015260800190565b60208082526018908201527f52656769737465722050726f63657373206661696c65642e0000000000000000604082015260600190565b60208082526016908201527f5472616e73666572204574686572206661696c65642e00000000000000000000604082015260600190565b6020808252818101527f4e6f7420656e6f75676820746f6b656e7320696e207468652072657365727665604082015260600190565b60006020825261594a6020830184615d77565b6000602082528251606060208401526161806080840182615cf8565b90506020840151601f1984830301604085015261619d8282615cf8565b9150506040840151151560608401528091505092915050565b90815260200190565b600082198211156161d2576161d26162b5565b500190565b6000826161f55760e060020a634e487b710281526012600452602481fd5b500490565b6000816000190483118215151615616214576162146162b5565b500290565b60008282101561622b5761622b6162b5565b500390565b60005b8381101561624b578181015183820152602001616233565b838111156157225750506000910152565b60028104600182168061627057607f821691505b602082108114156162945760e060020a634e487b7102600052602260045260246000fd5b50919050565b60006000198214156162ae576162ae6162b5565b5060010190565b60e060020a634e487b7102600052601160045260246000fd5b60e060020a634e487b7102600052604160045260246000fdfea264697066735822122082fd5f04e583eebd0f694710b94e2f5da181710fb25965c58b6ed5d1609e27cb64736f6c63430008000033608060405268056bc75e2d6310000060015534801561001d57600080fd5b506001543360009081526020819052604090205561053b806100406000396000f3fe608060405234801561001057600080fd5b506004361061007e577c0100000000000000000000000000000000000000000000000000000000600035046306fdde03811461008357806318160ddd146100a157806323b872dd146100b6578063313ce567146100d657806370a08231146100eb57806395d89b41146100fe575b600080fd5b61008b610106565b6040516100989190610408565b60405180910390f35b6100a961013f565b6040516100989190610490565b6100c96100c43660046103c2565b610145565b60405161009891906103fd565b6100de61028a565b6040516100989190610499565b6100a96100f93660046103a8565b61028f565b61008b6102bb565b6040518060400160405280600981526020017f4d75736963436f696e000000000000000000000000000000000000000000000081525081565b60015490565b73ffffffffffffffffffffffffffffffffffffffff83166000908152602081905260408120548211156101ad576040517f08c379a00000000000000000000000000000000000000000000000000000000081526004016101a49061045b565b60405180910390fd5b73ffffffffffffffffffffffffffffffffffffffff84166000908152602081905260409020546101dd90836102f4565b73ffffffffffffffffffffffffffffffffffffffff8086166000908152602081905260408082209390935590851681522054610219908361033e565b73ffffffffffffffffffffffffffffffffffffffff80851660008181526020819052604090819020939093559151908616907fddf252ad1be2c89b69c2b068fc378daa952ba7f163c4a11628f55a4df523b3ef90610278908690610490565b60405180910390a35060019392505050565b600281565b73ffffffffffffffffffffffffffffffffffffffff81166000908152602081905260409020545b919050565b6040518060400160405280600381526020017f4d5543000000000000000000000000000000000000000000000000000000000081525081565b60008282111561032d577f4e487b7100000000000000000000000000000000000000000000000000000000600052600160045260246000fd5b61033782846104bf565b9392505050565b60008061034b83856104a7565b905083811015610337577f4e487b7100000000000000000000000000000000000000000000000000000000600052600160045260246000fd5b803573ffffffffffffffffffffffffffffffffffffffff811681146102b657600080fd5b6000602082840312156103b9578081fd5b61033782610384565b6000806000606084860312156103d6578182fd5b6103df84610384565b92506103ed60208501610384565b9150604084013590509250925092565b901515815260200190565b6000602080835283518082850152825b8181101561043457858101830151858201604001528201610418565b818111156104455783604083870101525b50601f01601f1916929092016040019392505050565b6020808252818101527f546865206f776e657220686173206e6f20656e6f7567682062616c616e636521604082015260600190565b90815260200190565b60ff91909116815260200190565b600082198211156104ba576104ba6104d6565b500190565b6000828210156104d1576104d16104d6565b500390565b7f4e487b7100000000000000000000000000000000000000000000000000000000600052601160045260246000fdfea2646970667358221220a5b3dbfa5d0de21fb307a24a050961341cc40bec6e5d25ae78b18ae13de3b97564736f6c63430008000033",
  "immutableReferences": {},
  "source": "pragma solidity >=0.4.0 <0.9.0;\n// support return struct in functions\npragma experimental ABIEncoderV2;\n\n// import \"../../node_modules/@openzeppelin/contracts/token/ERC20/ERC20.sol\";\n// import \"./MusicCoin.sol\";\nimport \"./MusicToken.sol\";\n\ncontract MusicDApp is DEX {\n    // Music metadata\n    struct Music {\n        // Music information\n        address uploader;\n        uint256 uploadTime;\n        uint256 count;\n        string name;\n        string artist;\n        // Music content\n        string ipfsHash;\n        string coverFrom;\n    }\n\n    struct User {\n        string[] upload_music_list;\n        string[] bought_music_list;\n        bool isValid;\n    }\n\n    // State variables\n    Music[] internal musics;\n\n    mapping(address => User) internal users;\n\n    // ipfs hash as index\n    mapping(string => Music) internal music_hash;\n\n    // (name, artist) as primary key\n    mapping(string => mapping(string => Music)) internal music;\n\n    // name as primary key\n    mapping(string => Music[]) internal music_artist_list;\n\n    // artist as primary key\n    mapping(string => Music[]) internal artist_music_list;\n\n    // Modifiers\n\n    // Public methods\n\n    // Retrieve basic user information\n    function userExists() public view returns (bool) {\n        return users[msg.sender].isValid;\n    }\n\n    function getUserInfo() public view returns (User memory) {\n        return users[msg.sender];\n    }\n\n    function getUserBalance() public view returns (uint256) {\n        return token.balanceOf(msg.sender);\n    }\n\n    function registerUser() public returns (User memory) {\n        if (!userExists()) {\n            // Give 10000 token for new user\n            uint256 dexBalance = token.balanceOf(address(this));\n            require(10000 <= dexBalance, \"Not enough tokens in the reserve\");\n            bool success = register();\n            require(success, \"Register Process failed.\");\n            // token.transfer(msg.sender, 10000);\n            users[msg.sender].isValid = true;\n            User memory user = users[msg.sender];\n            return user;\n        } else {\n            return users[msg.sender];\n        }\n    }\n\n    function getUploadMusicList() public view returns (string[] memory) {\n        return users[msg.sender].upload_music_list;\n    }\n\n    function getBoughtMusicList() public view returns (string[] memory) {\n        return users[msg.sender].bought_music_list;\n    }\n\n    // check if the user had upload this music\n    function findUploadMusic(string memory _ipfsHash)\n        public\n        view\n        returns (bool)\n    {\n        User memory user = users[msg.sender];\n        string[] memory upload_list = user.upload_music_list;\n\n        for (uint256 i = 0; i < upload_list.length; i++) {\n            if (\n                keccak256(abi.encodePacked(_ipfsHash)) ==\n                keccak256(abi.encodePacked(upload_list[i]))\n            ) {\n                return true;\n            }\n        }\n\n        return false;\n    }\n\n    // check if the user had bought this music\n    function findBoughtMusic(string memory _ipfsHash)\n        public\n        view\n        returns (bool)\n    {\n        User memory user = users[msg.sender];\n        string[] memory bought_list = user.bought_music_list;\n\n        for (uint256 i = 0; i < bought_list.length; i++) {\n            if (\n                keccak256(abi.encodePacked(_ipfsHash)) ==\n                keccak256(abi.encodePacked(bought_list[i]))\n            ) {\n                return true;\n            }\n        }\n\n        return false;\n    }\n\n    function musicExists(string memory _name, string memory _artist) \n        public \n        view\n        returns (bool)\n    {\n        Music memory _music = music[_name][_artist];\n        address _uploader = _music.uploader;\n        bool exists = _uploader != address(0);\n        return exists;\n    }\n\n    // upload music to the blockchain\n    function uploadMusic(\n        string memory _ipfsHash,\n        string memory _name,\n        string memory _artist,\n        string memory _coverFrom\n    ) public {\n        Music memory _music =\n            Music(\n                msg.sender,\n                block.timestamp,\n                1,\n                _name,\n                _artist,\n                _ipfsHash,\n                _coverFrom\n            );\n\n        // Global state update\n        musics.push(_music);\n        music[_name][_artist] = _music;\n        music_hash[_ipfsHash] = _music;\n        music_artist_list[_name].push(_music);\n        artist_music_list[_artist].push(_music);\n\n        // User state update\n        users[msg.sender].upload_music_list.push(_ipfsHash);\n    }\n\n    function uploadMusic_batch(\n        string memory _ipfsHash,\n        string memory _name,\n        string memory _artist,\n        string memory _coverFrom,\n        address uploader_addr\n    ) public {\n        Music memory _music =\n            Music(\n                uploader_addr,\n                block.timestamp,\n                0,\n                _name,\n                _artist,\n                _ipfsHash,\n                _coverFrom\n            );\n\n        // Global state update\n        musics.push(_music);\n        music[_name][_artist] = _music;\n        music_hash[_ipfsHash] = _music;\n        music_artist_list[_name].push(_music);\n        artist_music_list[_artist].push(_music);\n\n        // User state update\n        users[uploader_addr].upload_music_list.push(_ipfsHash);\n    }\n\n    function getMusic(string memory _name, string memory _artist)\n        public\n        view\n        returns (Music memory)\n    {\n        Music memory _music = music[_name][_artist];\n\n        return _music;\n    }\n\n    function searchMusic(string memory _name, string memory _artist)\n        public\n        view\n        returns (Music[] memory)\n    {\n        Music[] memory returnList = new Music[](musics.length);\n        uint ind = 0;\n        for (uint i=0; i<musics.length; i++) {\n            if (str_contains(_name,musics[i].name) || str_contains(_artist,musics[i].artist))\n            {\n                returnList[ind] = musics[i];\n                i = i + 1;\n            }\n        }\n        return returnList;\n    }\n\n    function getMusicByHash(string memory _ipfsHash)\n        public\n        view\n        returns (Music memory)\n    {\n        Music memory _music = music_hash[_ipfsHash];\n\n        return _music;\n    }\n\n    function getMusicArtistList(string memory _name)\n        public\n        view\n        returns (Music[] memory)\n    {\n        Music[] memory _music_list = music_artist_list[_name];\n\n        return _music_list;\n    }\n\n    function getArtistMusicList(string memory _artist)\n        public\n        view\n        returns (Music[] memory)\n    {\n        Music[] memory _artist_music_list = artist_music_list[_artist];\n\n        return _artist_music_list;\n    }       \n\n    function buyMusicByHash(string memory _ipfsHash) public {\n        address sender = msg.sender;\n        Music memory _music = music_hash[_ipfsHash];\n        string memory songHash = _ipfsHash;\n        address uploader = _music.uploader;\n        uint8[7] memory chain = [100, 50, 25, 12, 6, 3, 1];\n        uint256 count = 0;\n\n        // Uploader can listen to what he uploaded\n        if (findUploadMusic(songHash)) return;\n\n        // Buyer will not pay twice\n        if (findBoughtMusic(songHash)) return;\n\n        while (true) {\n            // The depth excee the limit\n            if (count >= 7) {\n                break;\n            }\n\n            // Send token only if the \n            if (\n                !(keccak256(abi.encodePacked(sender)) ==\n                keccak256(abi.encodePacked(uploader)))\n            ) {\n                transferTokenFrom(sender, uploader, chain[count]);\n            }\n            // hit the end of the chain\n            if (\n                keccak256(abi.encodePacked((_music.coverFrom))) ==\n                keccak256(abi.encodePacked((\"None\")))\n            ) {\n                break;\n            }\n\n            sender = uploader;\n            _music = music_hash[_music.coverFrom];\n            uploader = _music.uploader;\n\n            count++;\n        }\n\n        // add music to listener list\n        users[msg.sender].bought_music_list.push(songHash);\n    }\n\n    function getMusicChain(\n        string memory _name,\n        string memory _artist,\n        uint8 depth\n    ) public view returns (Music[] memory) {\n        Music memory _music = music[_name][_artist];\n        uint256 count = 0;\n        Music[] memory music_chain = new Music[](depth);\n\n        // transfer token to uploader at the beginning of the chain\n\n        while (true) {\n            // The depth excee the limit\n            if (count >= depth) {\n                break;\n            }\n            music_chain[count] = _music;\n            // hit the end of the chain\n            if (\n                keccak256(abi.encodePacked((_music.coverFrom))) ==\n                keccak256(abi.encodePacked((\"None\")))\n            ) {\n                break;\n            }\n\n            _music = music_hash[_music.coverFrom];\n\n            count++;\n        }\n\n        return music_chain;\n    }\n\n    function getMusicChainByHash(string memory _ipfsHash, uint8 depth)\n        public\n        view\n        returns (Music[] memory)\n    {\n        Music memory _music = music_hash[_ipfsHash];\n        uint256 count = 0;\n        Music[] memory music_chain = new Music[](depth);\n\n        while (true) {\n            // The depth excee the limit\n            if (count >= depth) {\n                break;\n            }\n            music_chain[count] = _music;\n            // hit the end of the chain\n            if (\n                keccak256(abi.encodePacked((_music.coverFrom))) ==\n                keccak256(abi.encodePacked((\"None\")))\n            ) {\n                break;\n            }\n\n            _music = music_hash[_music.coverFrom];\n\n            count++;\n        }\n\n        return music_chain;\n    }\n\n    function getRelevantMusicNameList(string memory _name, uint _index, uint depth) \n        public \n        view \n        returns (Music[10] memory, uint, bool) \n    {\n        Music[10] memory returnList;\n        uint returnIndex = 0;\n        bool reachEnd = false;\n        Music memory _music;\n        uint index = _index;\n        \n        for(uint i = _index; i < musics.length; i++) {\n            if(returnIndex >= depth) break;\n            _music = musics[i];\n\n            // if a music name contains input name, put it into return list \n            if(str_contains(_name, _music.name)) {\n                returnList[returnIndex] = _music;\n                returnIndex++;\n            }\n\n            index++;\n        }\n\n        // tell frontend we had reach the end of the list\n        if (index == musics.length) {\n            reachEnd = true;\n        }\n\n        return (returnList, returnIndex, reachEnd);\n    }\n\n    function getRelevantArtistNameList(string memory _artist, uint _index, uint depth) \n        public \n        view \n        returns (Music[10] memory, uint, bool) \n    {\n        Music[10] memory returnList;\n        uint returnIndex = 0;\n        bool reachEnd = false;\n        Music memory _music;\n        uint index = _index;\n        \n        for(uint i = _index; i < musics.length; i++) {\n            if(returnIndex >= depth) break;\n            _music = musics[i];\n\n            // if a music name contains input name, put it into return list \n            if(str_contains(_artist, _music.artist)) {\n                returnList[returnIndex] = _music;\n                returnIndex++;\n            }\n\n            index++;\n        }\n\n        // tell frontend we had reach the end of the list\n        if (index == musics.length) {\n            reachEnd = true;\n        }\n\n        return (returnList, returnIndex, reachEnd);\n    }\n\n    function getRelevantMusicArtistList(string memory _name, string memory _artist, uint _index, uint depth) \n        public \n        view \n        returns (Music[10] memory, uint, bool) \n    {\n        Music[10] memory returnList;\n        uint returnIndex = 0;\n        bool reachEnd = false;\n        Music memory _music;\n        uint index = _index;\n        \n        for(uint i = _index; i < musics.length; i++) {\n            if(returnIndex >= depth) break;\n            _music = musics[i];\n\n            // if a music name contains input name, put it into return list \n            if(str_contains(_name, _music.name) || str_contains(_artist, _music.artist)) {\n                returnList[returnIndex] = _music;\n                returnIndex++;\n            }\n\n            index++;\n        }\n\n        // tell frontend we had reach the end of the list\n        if (index == musics.length) {\n            reachEnd = true;\n        }\n\n        return (returnList, returnIndex, reachEnd);\n    }\n\n    \n\n    // Private methods\n    // check if string contains in other string\n    function str_contains (string memory what, string memory where) private pure returns (bool){\n        bytes memory whatBytes = bytes (what);\n        bytes memory whereBytes = bytes (where);\n        if (keccak256(abi.encodePacked((what))) == keccak256(abi.encodePacked((where))))\n        {\n            return true;\n        }\n        bool found = false;\n        for (uint i = 0; i < whereBytes.length - whatBytes.length; i++) {\n            bool flag = true;\n            for (uint j = 0; j < whatBytes.length; j++)\n                if (whereBytes [i + j] != whatBytes [j]) {\n                    flag = false;\n                    break;\n                }\n            if (flag) {\n                found = true;\n                break;\n            }\n        }\n        return (found);\n    }\n}\n",
  "sourcePath": "/Users/chiao1/Desktop/NM-Lab/project/nmlab-final/music-dapp/react/src/contracts/MusicDApp.sol",
  "compiler": {
    "name": "solc",
    "version": "0.8.0+commit.c7dfd78e.Emscripten.clang"
  },
  "schemaVersion": "3.4.0",
  "updatedAt": "2021-06-24T23:52:10.613Z",
  "devdoc": {
    "kind": "dev",
    "methods": {},
    "version": 1
  },
  "userdoc": {
    "kind": "user",
    "methods": {},
    "version": 1
  }
}