{
  "contractName": "MusicDApp",
  "abi": [
    {
      "anonymous": false,
      "inputs": [
        {
          "indexed": false,
          "internalType": "uint256",
          "name": "amount",
          "type": "uint256"
        }
      ],
      "name": "Bought",
      "type": "event"
    },
    {
      "anonymous": false,
      "inputs": [
        {
          "indexed": false,
          "internalType": "uint256",
          "name": "amount",
          "type": "uint256"
        }
      ],
      "name": "Sold",
      "type": "event"
    },
    {
      "inputs": [],
      "name": "buy",
      "outputs": [],
      "stateMutability": "payable",
      "type": "function",
      "payable": true
    },
    {
      "inputs": [],
      "name": "exchange_rate",
      "outputs": [
        {
          "internalType": "uint256",
          "name": "",
          "type": "uint256"
        }
      ],
      "stateMutability": "view",
      "type": "function",
      "constant": true
    },
    {
      "inputs": [],
      "name": "getContractAddress",
      "outputs": [
        {
          "internalType": "address",
          "name": "",
          "type": "address"
        }
      ],
      "stateMutability": "view",
      "type": "function",
      "constant": true
    },
    {
      "inputs": [],
      "name": "getPoolEtherBalance",
      "outputs": [
        {
          "internalType": "uint256",
          "name": "",
          "type": "uint256"
        }
      ],
      "stateMutability": "view",
      "type": "function",
      "constant": true
    },
    {
      "inputs": [],
      "name": "getPoolTokenBalance",
      "outputs": [
        {
          "internalType": "uint256",
          "name": "",
          "type": "uint256"
        }
      ],
      "stateMutability": "view",
      "type": "function",
      "constant": true
    },
    {
      "inputs": [],
      "name": "getTokenSupply",
      "outputs": [
        {
          "internalType": "uint256",
          "name": "",
          "type": "uint256"
        }
      ],
      "stateMutability": "view",
      "type": "function",
      "constant": true
    },
    {
      "inputs": [],
      "name": "register",
      "outputs": [
        {
          "internalType": "bool",
          "name": "",
          "type": "bool"
        }
      ],
      "stateMutability": "nonpayable",
      "type": "function"
    },
    {
      "inputs": [
        {
          "internalType": "uint256",
          "name": "amount",
          "type": "uint256"
        }
      ],
      "name": "sell",
      "outputs": [],
      "stateMutability": "nonpayable",
      "type": "function"
    },
    {
      "inputs": [],
      "name": "token",
      "outputs": [
        {
          "internalType": "contract TokenPool",
          "name": "",
          "type": "address"
        }
      ],
      "stateMutability": "view",
      "type": "function",
      "constant": true
    },
    {
      "inputs": [
        {
          "internalType": "address",
          "name": "receiver",
          "type": "address"
        },
        {
          "internalType": "uint256",
          "name": "amount",
          "type": "uint256"
        }
      ],
      "name": "transferToken",
      "outputs": [],
      "stateMutability": "nonpayable",
      "type": "function"
    },
    {
      "inputs": [],
      "name": "returnMsgSender",
      "outputs": [
        {
          "internalType": "address",
          "name": "",
          "type": "address"
        }
      ],
      "stateMutability": "view",
      "type": "function",
      "constant": true
    },
    {
      "inputs": [],
      "name": "userExists",
      "outputs": [
        {
          "internalType": "bool",
          "name": "",
          "type": "bool"
        }
      ],
      "stateMutability": "view",
      "type": "function",
      "constant": true
    },
    {
      "inputs": [],
      "name": "getUserInfo",
      "outputs": [
        {
          "components": [
            {
              "internalType": "string[]",
              "name": "upload_music_list",
              "type": "string[]"
            },
            {
              "internalType": "string[]",
              "name": "bought_music_list",
              "type": "string[]"
            },
            {
              "internalType": "bool",
              "name": "isValid",
              "type": "bool"
            }
          ],
          "internalType": "struct MusicDApp.User",
          "name": "",
          "type": "tuple"
        }
      ],
      "stateMutability": "view",
      "type": "function",
      "constant": true
    },
    {
      "inputs": [],
      "name": "getUserBalance",
      "outputs": [
        {
          "internalType": "uint256",
          "name": "",
          "type": "uint256"
        }
      ],
      "stateMutability": "view",
      "type": "function",
      "constant": true
    },
    {
      "inputs": [],
      "name": "registerUser",
      "outputs": [
        {
          "components": [
            {
              "internalType": "string[]",
              "name": "upload_music_list",
              "type": "string[]"
            },
            {
              "internalType": "string[]",
              "name": "bought_music_list",
              "type": "string[]"
            },
            {
              "internalType": "bool",
              "name": "isValid",
              "type": "bool"
            }
          ],
          "internalType": "struct MusicDApp.User",
          "name": "",
          "type": "tuple"
        }
      ],
      "stateMutability": "nonpayable",
      "type": "function"
    },
    {
      "inputs": [],
      "name": "getUploadMusicList",
      "outputs": [
        {
          "internalType": "string[]",
          "name": "",
          "type": "string[]"
        }
      ],
      "stateMutability": "view",
      "type": "function",
      "constant": true
    },
    {
      "inputs": [],
      "name": "getBoughtMusicList",
      "outputs": [
        {
          "internalType": "string[]",
          "name": "",
          "type": "string[]"
        }
      ],
      "stateMutability": "view",
      "type": "function",
      "constant": true
    },
    {
      "inputs": [
        {
          "internalType": "string",
          "name": "_ipfsHash",
          "type": "string"
        }
      ],
      "name": "findUploadMusic",
      "outputs": [
        {
          "internalType": "bool",
          "name": "",
          "type": "bool"
        }
      ],
      "stateMutability": "view",
      "type": "function",
      "constant": true
    },
    {
      "inputs": [
        {
          "internalType": "string",
          "name": "_ipfsHash",
          "type": "string"
        }
      ],
      "name": "findBoughtMusic",
      "outputs": [
        {
          "internalType": "bool",
          "name": "",
          "type": "bool"
        }
      ],
      "stateMutability": "view",
      "type": "function",
      "constant": true
    },
    {
      "inputs": [
        {
          "internalType": "string",
          "name": "_ipfsHash",
          "type": "string"
        },
        {
          "internalType": "string",
          "name": "_name",
          "type": "string"
        },
        {
          "internalType": "string",
          "name": "_artist",
          "type": "string"
        },
        {
          "internalType": "string",
          "name": "_coverFrom",
          "type": "string"
        }
      ],
      "name": "uploadMusic",
      "outputs": [],
      "stateMutability": "nonpayable",
      "type": "function"
    },
    {
      "inputs": [
        {
          "internalType": "string",
          "name": "_name",
          "type": "string"
        },
        {
          "internalType": "string",
          "name": "_artist",
          "type": "string"
        }
      ],
      "name": "getMusic",
      "outputs": [
        {
          "components": [
            {
              "internalType": "address",
              "name": "uploader",
              "type": "address"
            },
            {
              "internalType": "uint256",
              "name": "uploadTime",
              "type": "uint256"
            },
            {
              "internalType": "uint256",
              "name": "count",
              "type": "uint256"
            },
            {
              "internalType": "string",
              "name": "name",
              "type": "string"
            },
            {
              "internalType": "string",
              "name": "artist",
              "type": "string"
            },
            {
              "internalType": "string",
              "name": "ipfsHash",
              "type": "string"
            },
            {
              "internalType": "string",
              "name": "coverFrom",
              "type": "string"
            }
          ],
          "internalType": "struct MusicDApp.Music",
          "name": "",
          "type": "tuple"
        }
      ],
      "stateMutability": "view",
      "type": "function",
      "constant": true
    },
    {
      "inputs": [
        {
          "internalType": "string",
          "name": "_name",
          "type": "string"
        },
        {
          "internalType": "string",
          "name": "_artist",
          "type": "string"
        }
      ],
      "name": "searchMusic",
      "outputs": [
        {
          "components": [
            {
              "internalType": "address",
              "name": "uploader",
              "type": "address"
            },
            {
              "internalType": "uint256",
              "name": "uploadTime",
              "type": "uint256"
            },
            {
              "internalType": "uint256",
              "name": "count",
              "type": "uint256"
            },
            {
              "internalType": "string",
              "name": "name",
              "type": "string"
            },
            {
              "internalType": "string",
              "name": "artist",
              "type": "string"
            },
            {
              "internalType": "string",
              "name": "ipfsHash",
              "type": "string"
            },
            {
              "internalType": "string",
              "name": "coverFrom",
              "type": "string"
            }
          ],
          "internalType": "struct MusicDApp.Music[]",
          "name": "",
          "type": "tuple[]"
        }
      ],
      "stateMutability": "view",
      "type": "function",
      "constant": true
    },
    {
      "inputs": [
        {
          "internalType": "string",
          "name": "_ipfsHash",
          "type": "string"
        }
      ],
      "name": "getMusicByHash",
      "outputs": [
        {
          "components": [
            {
              "internalType": "address",
              "name": "uploader",
              "type": "address"
            },
            {
              "internalType": "uint256",
              "name": "uploadTime",
              "type": "uint256"
            },
            {
              "internalType": "uint256",
              "name": "count",
              "type": "uint256"
            },
            {
              "internalType": "string",
              "name": "name",
              "type": "string"
            },
            {
              "internalType": "string",
              "name": "artist",
              "type": "string"
            },
            {
              "internalType": "string",
              "name": "ipfsHash",
              "type": "string"
            },
            {
              "internalType": "string",
              "name": "coverFrom",
              "type": "string"
            }
          ],
          "internalType": "struct MusicDApp.Music",
          "name": "",
          "type": "tuple"
        }
      ],
      "stateMutability": "view",
      "type": "function",
      "constant": true
    },
    {
      "inputs": [
        {
          "internalType": "string",
          "name": "_name",
          "type": "string"
        },
        {
          "internalType": "string",
          "name": "_artist",
          "type": "string"
        }
      ],
      "name": "getMusicWithCountIncrement",
      "outputs": [
        {
          "components": [
            {
              "internalType": "address",
              "name": "uploader",
              "type": "address"
            },
            {
              "internalType": "uint256",
              "name": "uploadTime",
              "type": "uint256"
            },
            {
              "internalType": "uint256",
              "name": "count",
              "type": "uint256"
            },
            {
              "internalType": "string",
              "name": "name",
              "type": "string"
            },
            {
              "internalType": "string",
              "name": "artist",
              "type": "string"
            },
            {
              "internalType": "string",
              "name": "ipfsHash",
              "type": "string"
            },
            {
              "internalType": "string",
              "name": "coverFrom",
              "type": "string"
            }
          ],
          "internalType": "struct MusicDApp.Music",
          "name": "",
          "type": "tuple"
        }
      ],
      "stateMutability": "nonpayable",
      "type": "function"
    },
    {
      "inputs": [
        {
          "internalType": "string",
          "name": "_name",
          "type": "string"
        }
      ],
      "name": "getMusicArtistList",
      "outputs": [
        {
          "components": [
            {
              "internalType": "address",
              "name": "uploader",
              "type": "address"
            },
            {
              "internalType": "uint256",
              "name": "uploadTime",
              "type": "uint256"
            },
            {
              "internalType": "uint256",
              "name": "count",
              "type": "uint256"
            },
            {
              "internalType": "string",
              "name": "name",
              "type": "string"
            },
            {
              "internalType": "string",
              "name": "artist",
              "type": "string"
            },
            {
              "internalType": "string",
              "name": "ipfsHash",
              "type": "string"
            },
            {
              "internalType": "string",
              "name": "coverFrom",
              "type": "string"
            }
          ],
          "internalType": "struct MusicDApp.Music[]",
          "name": "",
          "type": "tuple[]"
        }
      ],
      "stateMutability": "view",
      "type": "function",
      "constant": true
    },
    {
      "inputs": [
        {
          "internalType": "string",
          "name": "_artist",
          "type": "string"
        }
      ],
      "name": "getArtistMusicList",
      "outputs": [
        {
          "components": [
            {
              "internalType": "address",
              "name": "uploader",
              "type": "address"
            },
            {
              "internalType": "uint256",
              "name": "uploadTime",
              "type": "uint256"
            },
            {
              "internalType": "uint256",
              "name": "count",
              "type": "uint256"
            },
            {
              "internalType": "string",
              "name": "name",
              "type": "string"
            },
            {
              "internalType": "string",
              "name": "artist",
              "type": "string"
            },
            {
              "internalType": "string",
              "name": "ipfsHash",
              "type": "string"
            },
            {
              "internalType": "string",
              "name": "coverFrom",
              "type": "string"
            }
          ],
          "internalType": "struct MusicDApp.Music[]",
          "name": "",
          "type": "tuple[]"
        }
      ],
      "stateMutability": "view",
      "type": "function",
      "constant": true
    },
    {
      "inputs": [
        {
          "internalType": "string",
          "name": "_name",
          "type": "string"
        },
        {
          "internalType": "string",
          "name": "_artist",
          "type": "string"
        }
      ],
      "name": "buyMusic",
      "outputs": [],
      "stateMutability": "nonpayable",
      "type": "function"
    },
    {
      "inputs": [
        {
          "internalType": "string",
          "name": "_ipfsHash",
          "type": "string"
        }
      ],
      "name": "buyMusicByHash",
      "outputs": [],
      "stateMutability": "nonpayable",
      "type": "function"
    },
    {
      "inputs": [
        {
          "internalType": "string",
          "name": "_name",
          "type": "string"
        },
        {
          "internalType": "string",
          "name": "_artist",
          "type": "string"
        },
        {
          "internalType": "uint8",
          "name": "depth",
          "type": "uint8"
        }
      ],
      "name": "getMusicChain",
      "outputs": [
        {
          "components": [
            {
              "internalType": "address",
              "name": "uploader",
              "type": "address"
            },
            {
              "internalType": "uint256",
              "name": "uploadTime",
              "type": "uint256"
            },
            {
              "internalType": "uint256",
              "name": "count",
              "type": "uint256"
            },
            {
              "internalType": "string",
              "name": "name",
              "type": "string"
            },
            {
              "internalType": "string",
              "name": "artist",
              "type": "string"
            },
            {
              "internalType": "string",
              "name": "ipfsHash",
              "type": "string"
            },
            {
              "internalType": "string",
              "name": "coverFrom",
              "type": "string"
            }
          ],
          "internalType": "struct MusicDApp.Music[]",
          "name": "",
          "type": "tuple[]"
        }
      ],
      "stateMutability": "view",
      "type": "function",
      "constant": true
    },
    {
      "inputs": [
        {
          "internalType": "string",
          "name": "_ipfsHash",
          "type": "string"
        },
        {
          "internalType": "uint8",
          "name": "depth",
          "type": "uint8"
        }
      ],
      "name": "getMusicChainByHash",
      "outputs": [
        {
          "components": [
            {
              "internalType": "address",
              "name": "uploader",
              "type": "address"
            },
            {
              "internalType": "uint256",
              "name": "uploadTime",
              "type": "uint256"
            },
            {
              "internalType": "uint256",
              "name": "count",
              "type": "uint256"
            },
            {
              "internalType": "string",
              "name": "name",
              "type": "string"
            },
            {
              "internalType": "string",
              "name": "artist",
              "type": "string"
            },
            {
              "internalType": "string",
              "name": "ipfsHash",
              "type": "string"
            },
            {
              "internalType": "string",
              "name": "coverFrom",
              "type": "string"
            }
          ],
          "internalType": "struct MusicDApp.Music[]",
          "name": "",
          "type": "tuple[]"
        }
      ],
      "stateMutability": "view",
      "type": "function",
      "constant": true
    }
  ],
  "bytecode": "0x6080604052655af3107a40006001553480156200001b57600080fd5b506040516200002a906200006e565b604051809103906000f08015801562000047573d6000803e3d6000fd5b5060008054600160a060020a031916600160a060020a03929092169190911790556200007c565b6104eb806200540583390190565b615379806200008c6000396000f3fe6080604052600436106101915760003560e060020a9004806380f3de65116100db578063b7013dc111610089578063b7013dc11461042b578063e41bfe6e14610440578063e4849b3214610460578063e90fd8e714610480578063eae6d4da146104a0578063f7f6bd7f146104b5578063fc0c546a146104d5578063fdf74325146104ea57610191565b806380f3de65146103795780638aa4342c146103995780639146436b146103ae57806393154af7146103ce578063a6f2ae3a146103ee578063ad974f4c146103f6578063b1ddeab01461040b57610191565b80633d724a3f116101435780633d724a3f1461029657806346c641f3146102ab5780634d3820eb146102c05780635d8d1585146102e257806360b377b8146102f757806370d97eca146103195780637176285a146103395780637fb954481461035957610191565b80631072cbea14610196578063171ef0b2146101b85780631aa3a008146101e35780631f4b04ea14610205578063209af2dd14610232578063245fcb921461025f57806332a2c5d014610274575b600080fd5b3480156101a257600080fd5b506101b66101b1366004614b47565b61050a565b005b3480156101c457600080fd5b506101cd6105c4565b6040516101da919061520e565b60405180910390f35b3480156101ef57600080fd5b506101f86105ca565b6040516101da919061500a565b34801561021157600080fd5b50610225610220366004614bdf565b61070d565b6040516101da91906151a9565b34801561023e57600080fd5b5061025261024d366004614ba4565b610a2e565b6040516101da9190614fb7565b34801561026b57600080fd5b506101cd610d23565b34801561028057600080fd5b50610289610d28565b6040516101da9190614f1f565b3480156102a257600080fd5b50610289610d2c565b3480156102b757600080fd5b506101cd610d30565b3480156102cc57600080fd5b506102d5610db9565b6040516101da91906151bc565b3480156102ee57600080fd5b506102d561126f565b34801561030357600080fd5b5061030c611451565b6040516101da9190614f57565b34801561032557600080fd5b506101b6610334366004614bdf565b611535565b34801561034557600080fd5b50610252610354366004614bdf565b611bd7565b34801561036557600080fd5b50610225610374366004614bdf565b612089565b34801561038557600080fd5b506101f8610394366004614ba4565b6120a3565b3480156103a557600080fd5b5061030c612330565b3480156103ba57600080fd5b506102256103c9366004614ba4565b61240e565b3480156103da57600080fd5b506102526103e9366004614d59565b6126bb565b6101b6612d1d565b34801561040257600080fd5b506101cd612ebf565b34801561041757600080fd5b506101b6610426366004614c40565b612f11565b34801561043757600080fd5b506101cd613411565b34801561044c57600080fd5b506101b661045b366004614ba4565b613445565b34801561046c57600080fd5b506101b661047b366004614da5565b613ac4565b34801561048c57600080fd5b5061025261049b366004614ba4565b613c3e565b3480156104ac57600080fd5b506101f8613f25565b3480156104c157600080fd5b506101f86104d0366004614ba4565b613f3e565b3480156104e157600080fd5b506102896141c1565b3480156104f657600080fd5b50610252610505366004614ce8565b6141d0565b600081116105365760405160e560020a62461bcd02815260040161052d906150a9565b60405180910390fd5b60005460405160e060020a6323b872dd028152600160a060020a03909116906323b872dd9061056d90339086908690600401614f33565b602060405180830381600087803b15801561058757600080fd5b505af115801561059b573d6000803e3d6000fd5b505050506040513d601f19601f820116820180604052508101906105bf9190614b7d565b505050565b60015481565b6000805460405160e060020a6370a08231028152612710918391600160a060020a03909116906370a0823190610604903090600401614f1f565b60206040518083038186803b15801561061c57600080fd5b505afa158015610630573d6000803e3d6000fd5b505050506040513d601f19601f820116820180604052508101906106549190614dbd565b9050808211156106795760405160e560020a62461bcd02815260040161052d90615174565b60005460405160e060020a6323b872dd028152600160a060020a03909116906323b872dd906106b090309033908790600401614f33565b602060405180830381600087803b1580156106ca57600080fd5b505af11580156106de573d6000803e3d6000fd5b505050506040513d601f19601f820116820180604052508101906107029190614b7d565b506001925050505b90565b6107156149b3565b60016005846040516107279190614eda565b9081526020016040518091039020836040516107439190614eda565b908152602001604051809103902060020160008282546107639190615217565b92505081905550600060058460405161077c9190614eda565b9081526020016040518091039020836040516107989190614eda565b90815260408051918290036020908101832060e0840183528054600160a060020a031684526001810154918401919091526002810154918301919091526003810180546060840191906107ea906152b8565b80601f0160208091040260200160405190810160405280929190818152602001828054610816906152b8565b80156108635780601f1061083857610100808354040283529160200191610863565b820191906000526020600020905b81548152906001019060200180831161084657829003601f168201915b5050505050815260200160048201805461087c906152b8565b80601f01602080910402602001604051908101604052809291908181526020018280546108a8906152b8565b80156108f55780601f106108ca576101008083540402835291602001916108f5565b820191906000526020600020905b8154815290600101906020018083116108d857829003601f168201915b5050505050815260200160058201805461090e906152b8565b80601f016020809104026020016040519081016040528092919081815260200182805461093a906152b8565b80156109875780601f1061095c57610100808354040283529160200191610987565b820191906000526020600020905b81548152906001019060200180831161096a57829003601f168201915b505050505081526020016006820180546109a0906152b8565b80601f01602080910402602001604051908101604052809291908181526020018280546109cc906152b8565b8015610a195780601f106109ee57610100808354040283529160200191610a19565b820191906000526020600020905b8154815290600101906020018083116109fc57829003601f168201915b50505091909252509193505050505b92915050565b60606000600683604051610a429190614eda565b9081526020016040518091039020805480602002602001604051908101604052809291908181526020016000905b82821015610d155760008481526020908190206040805160e081018252600786029092018054600160a060020a03168352600181015493830193909352600283015490820152600382018054919291606084019190610ace906152b8565b80601f0160208091040260200160405190810160405280929190818152602001828054610afa906152b8565b8015610b475780601f10610b1c57610100808354040283529160200191610b47565b820191906000526020600020905b815481529060010190602001808311610b2a57829003601f168201915b50505050508152602001600482018054610b60906152b8565b80601f0160208091040260200160405190810160405280929190818152602001828054610b8c906152b8565b8015610bd95780601f10610bae57610100808354040283529160200191610bd9565b820191906000526020600020905b815481529060010190602001808311610bbc57829003601f168201915b50505050508152602001600582018054610bf2906152b8565b80601f0160208091040260200160405190810160405280929190818152602001828054610c1e906152b8565b8015610c6b5780601f10610c4057610100808354040283529160200191610c6b565b820191906000526020600020905b815481529060010190602001808311610c4e57829003601f168201915b50505050508152602001600682018054610c84906152b8565b80601f0160208091040260200160405190810160405280929190818152602001828054610cb0906152b8565b8015610cfd5780601f10610cd257610100808354040283529160200191610cfd565b820191906000526020600020905b815481529060010190602001808311610ce057829003601f168201915b50505050508152505081526020019060010190610a70565b50929450505050505b919050565b303190565b3090565b3390565b6000805460405160e060020a6370a08231028152600160a060020a03909116906370a0823190610d64903090600401614f1f565b60206040518083038186803b158015610d7c57600080fd5b505afa158015610d90573d6000803e3d6000fd5b505050506040513d601f19601f82011682018060405250810190610db49190614dbd565b905090565b610dc16149f9565b610dc9613f25565b611093576000805460405160e060020a6370a08231028152600160a060020a03909116906370a0823190610e01903090600401614f1f565b60206040518083038186803b158015610e1957600080fd5b505afa158015610e2d573d6000803e3d6000fd5b505050506040513d601f19601f82011682018060405250810190610e519190614dbd565b9050806127101115610e785760405160e560020a62461bcd02815260040161052d90615174565b6000610e826105ca565b905080610ea45760405160e560020a62461bcd02815260040161052d90615106565b33600090815260036020908152604080832060028101805460ff191660011790558151815460809481028201850190935260608101838152909391928492849190879085015b82821015610f96578382906000526020600020018054610f09906152b8565b80601f0160208091040260200160405190810160405280929190818152602001828054610f35906152b8565b8015610f825780601f10610f5757610100808354040283529160200191610f82565b820191906000526020600020905b815481529060010190602001808311610f6557829003601f168201915b505050505081526020019060010190610eea565b50505050815260200160018201805480602002602001604051908101604052809291908181526020016000905b8282101561106f578382906000526020600020018054610fe2906152b8565b80601f016020809104026020016040519081016040528092919081815260200182805461100e906152b8565b801561105b5780601f106110305761010080835404028352916020019161105b565b820191906000526020600020905b81548152906001019060200180831161103e57829003601f168201915b505050505081526020019060010190610fc3565b505050908252506002919091015460ff161515602090910152935061070a92505050565b3360009081526003602090815260408083208151815460809481028201850190935260608101838152909491938593919285929185015b828210156111765783829060005260206000200180546110e9906152b8565b80601f0160208091040260200160405190810160405280929190818152602001828054611115906152b8565b80156111625780601f1061113757610100808354040283529160200191611162565b820191906000526020600020905b81548152906001019060200180831161114557829003601f168201915b5050505050815260200190600101906110ca565b50505050815260200160018201805480602002602001604051908101604052809291908181526020016000905b8282101561124f5783829060005260206000200180546111c2906152b8565b80601f01602080910402602001604051908101604052809291908181526020018280546111ee906152b8565b801561123b5780601f106112105761010080835404028352916020019161123b565b820191906000526020600020905b81548152906001019060200180831161121e57829003601f168201915b5050505050815260200190600101906111a3565b505050908252506002919091015460ff161515602090910152905061070a565b6112776149f9565b3360009081526003602090815260408083208151815460809481028201850190935260608101838152909491938593919285929185015b8282101561135a5783829060005260206000200180546112cd906152b8565b80601f01602080910402602001604051908101604052809291908181526020018280546112f9906152b8565b80156113465780601f1061131b57610100808354040283529160200191611346565b820191906000526020600020905b81548152906001019060200180831161132957829003601f168201915b5050505050815260200190600101906112ae565b50505050815260200160018201805480602002602001604051908101604052809291908181526020016000905b828210156114335783829060005260206000200180546113a6906152b8565b80601f01602080910402602001604051908101604052809291908181526020018280546113d2906152b8565b801561141f5780601f106113f45761010080835404028352916020019161141f565b820191906000526020600020905b81548152906001019060200180831161140257829003601f168201915b505050505081526020019060010190611387565b505050908252506002919091015460ff161515602090910152905090565b336000908152600360209081526040808320805482518185028101850190935280835260609492939192909184015b8282101561152c57838290600052602060002001805461149f906152b8565b80601f01602080910402602001604051908101604052809291908181526020018280546114cb906152b8565b80156115185780601f106114ed57610100808354040283529160200191611518565b820191906000526020600020905b8154815290600101906020018083116114fb57829003601f168201915b505050505081526020019060010190611480565b50505050905090565b6000339050600060058460405161154c9190614eda565b9081526020016040518091039020836040516115689190614eda565b90815260408051918290036020908101832060e0840183528054600160a060020a031684526001810154918401919091526002810154918301919091526003810180546060840191906115ba906152b8565b80601f01602080910402602001604051908101604052809291908181526020018280546115e6906152b8565b80156116335780601f1061160857610100808354040283529160200191611633565b820191906000526020600020905b81548152906001019060200180831161161657829003601f168201915b5050505050815260200160048201805461164c906152b8565b80601f0160208091040260200160405190810160405280929190818152602001828054611678906152b8565b80156116c55780601f1061169a576101008083540402835291602001916116c5565b820191906000526020600020905b8154815290600101906020018083116116a857829003601f168201915b505050505081526020016005820180546116de906152b8565b80601f016020809104026020016040519081016040528092919081815260200182805461170a906152b8565b80156117575780601f1061172c57610100808354040283529160200191611757565b820191906000526020600020905b81548152906001019060200180831161173a57829003601f168201915b50505050508152602001600682018054611770906152b8565b80601f016020809104026020016040519081016040528092919081815260200182805461179c906152b8565b80156117e95780601f106117be576101008083540402835291602001916117e9565b820191906000526020600020905b8154815290600101906020018083116117cc57829003601f168201915b5050509190925250505060a08082015182516040805160e0810182526064815260326020820152601991810191909152600c606082015260066080820152600393810193909352600160c084015292935091906000611847846120a3565b1561185757505050505050611bd3565b61186084613f3e565b1561187057505050505050611bd3565b6007811061187d57611b95565b60405160200161188c90614ef6565b604051602081830303815290604052805190602001208560c001516040516020016118b79190614eda565b6040516020818303038152906040528051906020012014156118d857611b95565b82955060048560c001516040516118ef9190614eda565b90815260408051918290036020908101832060e0840183528054600160a060020a03168452600181015491840191909152600281015491830191909152600381018054606084019190611941906152b8565b80601f016020809104026020016040519081016040528092919081815260200182805461196d906152b8565b80156119ba5780601f1061198f576101008083540402835291602001916119ba565b820191906000526020600020905b81548152906001019060200180831161199d57829003601f168201915b505050505081526020016004820180546119d3906152b8565b80601f01602080910402602001604051908101604052809291908181526020018280546119ff906152b8565b8015611a4c5780601f10611a2157610100808354040283529160200191611a4c565b820191906000526020600020905b815481529060010190602001808311611a2f57829003601f168201915b50505050508152602001600582018054611a65906152b8565b80601f0160208091040260200160405190810160405280929190818152602001828054611a91906152b8565b8015611ade5780601f10611ab357610100808354040283529160200191611ade565b820191906000526020600020905b815481529060010190602001808311611ac157829003601f168201915b50505050508152602001600682018054611af7906152b8565b80601f0160208091040260200160405190810160405280929190818152602001828054611b23906152b8565b8015611b705780601f10611b4557610100808354040283529160200191611b70565b820191906000526020600020905b815481529060010190602001808311611b5357829003601f168201915b5050505050815250509450846000015192508080611b8d906152f6565b915050611870565b33600090815260036020908152604082206001908101805491820181558352918190208651611bcb939190910191870190614a1c565b505050505050505b5050565b60025460609060009067ffffffffffffffff811115611c095760e060020a634e487b7102600052604160045260246000fd5b604051908082528060200260200182016040528015611c4257816020015b611c2f6149b3565b815260200190600190039081611c275790505b5090506000805b60025481101561207f57611d1a8660028381548110611c7b5760e060020a634e487b7102600052603260045260246000fd5b90600052602060002090600702016003018054611c97906152b8565b80601f0160208091040260200160405190810160405280929190818152602001828054611cc3906152b8565b8015611d105780601f10611ce557610100808354040283529160200191611d10565b820191906000526020600020905b815481529060010190602001808311611cf357829003601f168201915b505050505061484f565b80611d645750611d648560028381548110611d485760e060020a634e487b7102600052603260045260246000fd5b90600052602060002090600702016004018054611c97906152b8565b1561206d5760028181548110611d8d5760e060020a634e487b7102600052603260045260246000fd5b90600052602060002090600702016040518060e00160405290816000820160009054906101000a9004600160a060020a0316600160a060020a0316600160a060020a031681526020016001820154815260200160028201548152602001600382018054611df9906152b8565b80601f0160208091040260200160405190810160405280929190818152602001828054611e25906152b8565b8015611e725780601f10611e4757610100808354040283529160200191611e72565b820191906000526020600020905b815481529060010190602001808311611e5557829003601f168201915b50505050508152602001600482018054611e8b906152b8565b80601f0160208091040260200160405190810160405280929190818152602001828054611eb7906152b8565b8015611f045780601f10611ed957610100808354040283529160200191611f04565b820191906000526020600020905b815481529060010190602001808311611ee757829003601f168201915b50505050508152602001600582018054611f1d906152b8565b80601f0160208091040260200160405190810160405280929190818152602001828054611f49906152b8565b8015611f965780601f10611f6b57610100808354040283529160200191611f96565b820191906000526020600020905b815481529060010190602001808311611f7957829003601f168201915b50505050508152602001600682018054611faf906152b8565b80601f0160208091040260200160405190810160405280929190818152602001828054611fdb906152b8565b80156120285780601f10611ffd57610100808354040283529160200191612028565b820191906000526020600020905b81548152906001019060200180831161200b57829003601f168201915b5050505050815250508383815181106120545760e060020a634e487b7102600052603260045260246000fd5b602090810291909101015261206a816001615217565b90505b80612077816152f6565b915050611c49565b5090949350505050565b6120916149b3565b600060058460405161077c9190614eda565b3360009081526003602090815260408083208151815460809481028201850190935260608101838152859491938492849190879085015b828210156121865783829060005260206000200180546120f9906152b8565b80601f0160208091040260200160405190810160405280929190818152602001828054612125906152b8565b80156121725780601f1061214757610100808354040283529160200191612172565b820191906000526020600020905b81548152906001019060200180831161215557829003601f168201915b5050505050815260200190600101906120da565b50505050815260200160018201805480602002602001604051908101604052809291908181526020016000905b8282101561225f5783829060005260206000200180546121d2906152b8565b80601f01602080910402602001604051908101604052809291908181526020018280546121fe906152b8565b801561224b5780601f106122205761010080835404028352916020019161224b565b820191906000526020600020905b81548152906001019060200180831161222e57829003601f168201915b5050505050815260200190600101906121b3565b505050908252506002919091015460ff161515602090910152805190915060005b8151811015612325578181815181106122ac5760e060020a634e487b7102600052603260045260246000fd5b60200260200101516040516020016122c49190614eda565b60405160208183030381529060405280519060200120856040516020016122eb9190614eda565b6040516020818303038152906040528051906020012014156123135760019350505050610d1e565b8061231d816152f6565b915050612280565b506000949350505050565b336000908152600360209081526040808320600101805482518185028101850190935280835260609492939192909184015b8282101561152c578382906000526020600020018054612381906152b8565b80601f01602080910402602001604051908101604052809291908181526020018280546123ad906152b8565b80156123fa5780601f106123cf576101008083540402835291602001916123fa565b820191906000526020600020905b8154815290600101906020018083116123dd57829003601f168201915b505050505081526020019060010190612362565b6124166149b3565b60006004836040516124289190614eda565b90815260408051918290036020908101832060e0840183528054600160a060020a0316845260018101549184019190915260028101549183019190915260038101805460608401919061247a906152b8565b80601f01602080910402602001604051908101604052809291908181526020018280546124a6906152b8565b80156124f35780601f106124c8576101008083540402835291602001916124f3565b820191906000526020600020905b8154815290600101906020018083116124d657829003601f168201915b5050505050815260200160048201805461250c906152b8565b80601f0160208091040260200160405190810160405280929190818152602001828054612538906152b8565b80156125855780601f1061255a57610100808354040283529160200191612585565b820191906000526020600020905b81548152906001019060200180831161256857829003601f168201915b5050505050815260200160058201805461259e906152b8565b80601f01602080910402602001604051908101604052809291908181526020018280546125ca906152b8565b80156126175780601f106125ec57610100808354040283529160200191612617565b820191906000526020600020905b8154815290600101906020018083116125fa57829003601f168201915b50505050508152602001600682018054612630906152b8565b80601f016020809104026020016040519081016040528092919081815260200182805461265c906152b8565b80156126a95780601f1061267e576101008083540402835291602001916126a9565b820191906000526020600020905b81548152906001019060200180831161268c57829003601f168201915b50505091909252509195945050505050565b606060006004846040516126cf9190614eda565b90815260408051918290036020908101832060e0840183528054600160a060020a03168452600181015491840191909152600281015491830191909152600381018054606084019190612721906152b8565b80601f016020809104026020016040519081016040528092919081815260200182805461274d906152b8565b801561279a5780601f1061276f5761010080835404028352916020019161279a565b820191906000526020600020905b81548152906001019060200180831161277d57829003601f168201915b505050505081526020016004820180546127b3906152b8565b80601f01602080910402602001604051908101604052809291908181526020018280546127df906152b8565b801561282c5780601f106128015761010080835404028352916020019161282c565b820191906000526020600020905b81548152906001019060200180831161280f57829003601f168201915b50505050508152602001600582018054612845906152b8565b80601f0160208091040260200160405190810160405280929190818152602001828054612871906152b8565b80156128be5780601f10612893576101008083540402835291602001916128be565b820191906000526020600020905b8154815290600101906020018083116128a157829003601f168201915b505050505081526020016006820180546128d7906152b8565b80601f0160208091040260200160405190810160405280929190818152602001828054612903906152b8565b80156129505780601f1061292557610100808354040283529160200191612950565b820191906000526020600020905b81548152906001019060200180831161293357829003601f168201915b50505050508152505090506000808460ff1667ffffffffffffffff81111561298b5760e060020a634e487b7102600052604160045260246000fd5b6040519080825280602002602001820160405280156129c457816020015b6129b16149b3565b8152602001906001900390816129a95790505b5090505b8460ff1682106129d757612d14565b828183815181106129fb5760e060020a634e487b7102600052603260045260246000fd5b6020026020010181905250604051602001612a1590614ef6565b604051602081830303815290604052805190602001208360c00151604051602001612a409190614eda565b604051602081830303815290604052805190602001201415612a6157612d14565b60048360c00151604051612a759190614eda565b90815260408051918290036020908101832060e0840183528054600160a060020a03168452600181015491840191909152600281015491830191909152600381018054606084019190612ac7906152b8565b80601f0160208091040260200160405190810160405280929190818152602001828054612af3906152b8565b8015612b405780601f10612b1557610100808354040283529160200191612b40565b820191906000526020600020905b815481529060010190602001808311612b2357829003601f168201915b50505050508152602001600482018054612b59906152b8565b80601f0160208091040260200160405190810160405280929190818152602001828054612b85906152b8565b8015612bd25780601f10612ba757610100808354040283529160200191612bd2565b820191906000526020600020905b815481529060010190602001808311612bb557829003601f168201915b50505050508152602001600582018054612beb906152b8565b80601f0160208091040260200160405190810160405280929190818152602001828054612c17906152b8565b8015612c645780601f10612c3957610100808354040283529160200191612c64565b820191906000526020600020905b815481529060010190602001808311612c4757829003601f168201915b50505050508152602001600682018054612c7d906152b8565b80601f0160208091040260200160405190810160405280929190818152602001828054612ca9906152b8565b8015612cf65780601f10612ccb57610100808354040283529160200191612cf6565b820191906000526020600020905b815481529060010190602001808311612cd957829003601f168201915b50505050508152505092508180612d0c906152f6565b9250506129c8565b95945050505050565b6000805460405160e060020a6370a08231028152349291600160a060020a0316906370a0823190612d52903090600401614f1f565b60206040518083038186803b158015612d6a57600080fd5b505afa158015612d7e573d6000803e3d6000fd5b505050506040513d601f19601f82011682018060405250810190612da29190614dbd565b905060008211612dc75760405160e560020a62461bcd02815260040161052d90615015565b80821115612dea5760405160e560020a62461bcd02815260040161052d90615174565b600054600154600160a060020a03909116906323b872dd9030903390612e10908761522f565b6040518463ffffffff1660e060020a028152600401612e3193929190614f33565b602060405180830381600087803b158015612e4b57600080fd5b505af1158015612e5f573d6000803e3d6000fd5b505050506040513d601f19601f82011682018060405250810190612e839190614b7d565b507f4e08ba899977cf7d4c2964bce71c6b9a7ef76ee5166a4c1249a1e08016e33ef182604051612eb3919061520e565b60405180910390a15050565b60008060009054906101000a9004600160a060020a0316600160a060020a03166318160ddd6040518163ffffffff1660e060020a02815260040160206040518083038186803b158015610d7c57600080fd5b6040805160e0810182523381524260208083019182526000938301848152606084018881526080850188905260a085018a905260c0850187905260028054600181018255965284517f405787fa12a823e0f2b7631cc41b3ba8828b3321ca811111fa75cd3aa3bb5ace60079097029687018054600160a060020a031916600160a060020a0390921691909117815593517f405787fa12a823e0f2b7631cc41b3ba8828b3321ca811111fa75cd3aa3bb5acf87015590517f405787fa12a823e0f2b7631cc41b3ba8828b3321ca811111fa75cd3aa3bb5ad086015551805193948594613024937f405787fa12a823e0f2b7631cc41b3ba8828b3321ca811111fa75cd3aa3bb5ad19092019290910190614a1c565b5060808201518051613040916004840191602090910190614a1c565b5060a0820151805161305c916005840191602090910190614a1c565b5060c08201518051613078916006840191602090910190614a1c565b5050508060058560405161308c9190614eda565b9081526020016040518091039020846040516130a89190614eda565b908152604080516020928190038301902083518154600160a060020a031916600160a060020a0390911617815583830151600182015590830151600282015560608301518051919261310292600385019290910190614a1c565b506080820151805161311e916004840191602090910190614a1c565b5060a0820151805161313a916005840191602090910190614a1c565b5060c08201518051613156916006840191602090910190614a1c565b509050508060048660405161316b9190614eda565b908152604080516020928190038301902083518154600160a060020a031916600160a060020a039091161781558383015160018201559083015160028201556060830151805191926131c592600385019290910190614a1c565b50608082015180516131e1916004840191602090910190614a1c565b5060a082015180516131fd916005840191602090910190614a1c565b5060c08201518051613219916006840191602090910190614a1c565b5090505060068460405161322d9190614eda565b908152604080516020928190038301902080546001808201835560009283529184902085516007909202018054600160a060020a031916600160a060020a0390921691909117815584840151918101919091559083015160028201556060830151805184936132a3926003850192910190614a1c565b50608082015180516132bf916004840191602090910190614a1c565b5060a082015180516132db916005840191602090910190614a1c565b5060c082015180516132f7916006840191602090910190614a1c565b50505060078360405161330a9190614eda565b908152604080516020928190038301902080546001808201835560009283529184902085516007909202018054600160a060020a031916600160a060020a039092169190911781558484015191810191909155908301516002820155606083015180518493613380926003850192910190614a1c565b506080820151805161339c916004840191602090910190614a1c565b5060a082015180516133b8916005840191602090910190614a1c565b5060c082015180516133d4916006840191602090910190614a1c565b505033600090815260036020908152604082208054600181018255908352918190208851613409945092019190880190614a1c565b505050505050565b6000805460405160e060020a6370a08231028152600160a060020a03909116906370a0823190610d64903390600401614f1f565b6000339050600060048360405161345c9190614eda565b90815260408051918290036020908101832060e0840183528054600160a060020a031684526001810154918401919091526002810154918301919091526003810180546060840191906134ae906152b8565b80601f01602080910402602001604051908101604052809291908181526020018280546134da906152b8565b80156135275780601f106134fc57610100808354040283529160200191613527565b820191906000526020600020905b81548152906001019060200180831161350a57829003601f168201915b50505050508152602001600482018054613540906152b8565b80601f016020809104026020016040519081016040528092919081815260200182805461356c906152b8565b80156135b95780601f1061358e576101008083540402835291602001916135b9565b820191906000526020600020905b81548152906001019060200180831161359c57829003601f168201915b505050505081526020016005820180546135d2906152b8565b80601f01602080910402602001604051908101604052809291908181526020018280546135fe906152b8565b801561364b5780601f106136205761010080835404028352916020019161364b565b820191906000526020600020905b81548152906001019060200180831161362e57829003601f168201915b50505050508152602001600682018054613664906152b8565b80601f0160208091040260200160405190810160405280929190818152602001828054613690906152b8565b80156136dd5780601f106136b2576101008083540402835291602001916136dd565b820191906000526020600020905b8154815290600101906020018083116136c057829003601f168201915b50505091909252505081516040805160e0810182526064815260326020820152601991810191909152600c606082015260066080820152600360a0820152600160c082015292935085929091506000613735846120a3565b1561374557505050505050613ac1565b61374e84613f3e565b1561375e57505050505050613ac1565b6007811061376b57613a83565b60405160200161377a90614ef6565b604051602081830303815290604052805190602001208560c001516040516020016137a59190614eda565b6040516020818303038152906040528051906020012014156137c657613a83565b82955060048560c001516040516137dd9190614eda565b90815260408051918290036020908101832060e0840183528054600160a060020a0316845260018101549184019190915260028101549183019190915260038101805460608401919061382f906152b8565b80601f016020809104026020016040519081016040528092919081815260200182805461385b906152b8565b80156138a85780601f1061387d576101008083540402835291602001916138a8565b820191906000526020600020905b81548152906001019060200180831161388b57829003601f168201915b505050505081526020016004820180546138c1906152b8565b80601f01602080910402602001604051908101604052809291908181526020018280546138ed906152b8565b801561393a5780601f1061390f5761010080835404028352916020019161393a565b820191906000526020600020905b81548152906001019060200180831161391d57829003601f168201915b50505050508152602001600582018054613953906152b8565b80601f016020809104026020016040519081016040528092919081815260200182805461397f906152b8565b80156139cc5780601f106139a1576101008083540402835291602001916139cc565b820191906000526020600020905b8154815290600101906020018083116139af57829003601f168201915b505050505081526020016006820180546139e5906152b8565b80601f0160208091040260200160405190810160405280929190818152602001828054613a11906152b8565b8015613a5e5780601f10613a3357610100808354040283529160200191613a5e565b820191906000526020600020905b815481529060010190602001808311613a4157829003601f168201915b5050505050815250509450846000015192508080613a7b906152f6565b91505061375e565b33600090815260036020908152604082206001908101805491820181558352918190208651613ab9939190910191870190614a1c565b505050505050505b50565b60008111613ae75760405160e560020a62461bcd02815260040161052d9061504c565b60005460405160e060020a6323b872dd028152600160a060020a03909116906323b872dd90613b1e90339030908690600401614f33565b602060405180830381600087803b158015613b3857600080fd5b505af1158015613b4c573d6000803e3d6000fd5b505050506040513d601f19601f82011682018060405250810190613b709190614b7d565b50600060015482613b819190615252565b9050600033600160a060020a031682604051613b9c9061070a565b60006040518083038185875af1925050503d8060008114613bd9576040519150601f19603f3d011682016040523d82523d6000602084013e613bde565b606091505b5050905080613c025760405160e560020a62461bcd02815260040161052d9061513d565b7f92f64ca637d023f354075a4be751b169c1a8a9ccb6d33cdd0cb352054399572783604051613c31919061520e565b60405180910390a1505050565b60606000600783604051613c529190614eda565b9081526020016040518091039020805480602002602001604051908101604052809291908181526020016000905b82821015610d155760008481526020908190206040805160e081018252600786029092018054600160a060020a03168352600181015493830193909352600283015490820152600382018054919291606084019190613cde906152b8565b80601f0160208091040260200160405190810160405280929190818152602001828054613d0a906152b8565b8015613d575780601f10613d2c57610100808354040283529160200191613d57565b820191906000526020600020905b815481529060010190602001808311613d3a57829003601f168201915b50505050508152602001600482018054613d70906152b8565b80601f0160208091040260200160405190810160405280929190818152602001828054613d9c906152b8565b8015613de95780601f10613dbe57610100808354040283529160200191613de9565b820191906000526020600020905b815481529060010190602001808311613dcc57829003601f168201915b50505050508152602001600582018054613e02906152b8565b80601f0160208091040260200160405190810160405280929190818152602001828054613e2e906152b8565b8015613e7b5780601f10613e5057610100808354040283529160200191613e7b565b820191906000526020600020905b815481529060010190602001808311613e5e57829003601f168201915b50505050508152602001600682018054613e94906152b8565b80601f0160208091040260200160405190810160405280929190818152602001828054613ec0906152b8565b8015613f0d5780601f10613ee257610100808354040283529160200191613f0d565b820191906000526020600020905b815481529060010190602001808311613ef057829003601f168201915b50505050508152505081526020019060010190613c80565b3360009081526003602052604090206002015460ff1690565b3360009081526003602090815260408083208151815460809481028201850190935260608101838152859491938492849190879085015b82821015614021578382906000526020600020018054613f94906152b8565b80601f0160208091040260200160405190810160405280929190818152602001828054613fc0906152b8565b801561400d5780601f10613fe25761010080835404028352916020019161400d565b820191906000526020600020905b815481529060010190602001808311613ff057829003601f168201915b505050505081526020019060010190613f75565b50505050815260200160018201805480602002602001604051908101604052809291908181526020016000905b828210156140fa57838290600052602060002001805461406d906152b8565b80601f0160208091040260200160405190810160405280929190818152602001828054614099906152b8565b80156140e65780601f106140bb576101008083540402835291602001916140e6565b820191906000526020600020905b8154815290600101906020018083116140c957829003601f168201915b50505050508152602001906001019061404e565b505050908252506002919091015460ff16151560209182015281015190915060005b8151811015612325578181815181106141485760e060020a634e487b7102600052603260045260246000fd5b60200260200101516040516020016141609190614eda565b60405160208183030381529060405280519060200120856040516020016141879190614eda565b6040516020818303038152906040528051906020012014156141af5760019350505050610d1e565b806141b9816152f6565b91505061411c565b600054600160a060020a031681565b606060006005856040516141e49190614eda565b9081526020016040518091039020846040516142009190614eda565b90815260408051918290036020908101832060e0840183528054600160a060020a03168452600181015491840191909152600281015491830191909152600381018054606084019190614252906152b8565b80601f016020809104026020016040519081016040528092919081815260200182805461427e906152b8565b80156142cb5780601f106142a0576101008083540402835291602001916142cb565b820191906000526020600020905b8154815290600101906020018083116142ae57829003601f168201915b505050505081526020016004820180546142e4906152b8565b80601f0160208091040260200160405190810160405280929190818152602001828054614310906152b8565b801561435d5780601f106143325761010080835404028352916020019161435d565b820191906000526020600020905b81548152906001019060200180831161434057829003601f168201915b50505050508152602001600582018054614376906152b8565b80601f01602080910402602001604051908101604052809291908181526020018280546143a2906152b8565b80156143ef5780601f106143c4576101008083540402835291602001916143ef565b820191906000526020600020905b8154815290600101906020018083116143d257829003601f168201915b50505050508152602001600682018054614408906152b8565b80601f0160208091040260200160405190810160405280929190818152602001828054614434906152b8565b80156144815780601f1061445657610100808354040283529160200191614481565b820191906000526020600020905b81548152906001019060200180831161446457829003601f168201915b50505050508152505090506000808460ff1667ffffffffffffffff8111156144bc5760e060020a634e487b7102600052604160045260246000fd5b6040519080825280602002602001820160405280156144f557816020015b6144e26149b3565b8152602001906001900390816144da5790505b5090505b8460ff16821061450857614845565b8281838151811061452c5760e060020a634e487b7102600052603260045260246000fd5b602002602001018190525060405160200161454690614ef6565b604051602081830303815290604052805190602001208360c001516040516020016145719190614eda565b60405160208183030381529060405280519060200120141561459257614845565b60048360c001516040516145a69190614eda565b90815260408051918290036020908101832060e0840183528054600160a060020a031684526001810154918401919091526002810154918301919091526003810180546060840191906145f8906152b8565b80601f0160208091040260200160405190810160405280929190818152602001828054614624906152b8565b80156146715780601f1061464657610100808354040283529160200191614671565b820191906000526020600020905b81548152906001019060200180831161465457829003601f168201915b5050505050815260200160048201805461468a906152b8565b80601f01602080910402602001604051908101604052809291908181526020018280546146b6906152b8565b80156147035780601f106146d857610100808354040283529160200191614703565b820191906000526020600020905b8154815290600101906020018083116146e657829003601f168201915b5050505050815260200160058201805461471c906152b8565b80601f0160208091040260200160405190810160405280929190818152602001828054614748906152b8565b80156147955780601f1061476a57610100808354040283529160200191614795565b820191906000526020600020905b81548152906001019060200180831161477857829003601f168201915b505050505081526020016006820180546147ae906152b8565b80601f01602080910402602001604051908101604052809291908181526020018280546147da906152b8565b80156148275780601f106147fc57610100808354040283529160200191614827565b820191906000526020600020905b81548152906001019060200180831161480a57829003601f168201915b5050505050815250509250818061483d906152f6565b9250506144f9565b9695505050505050565b60405160009083908390614867908290602001614eda565b604051602081830303815290604052805190602001208560405160200161488e9190614eda565b6040516020818303038152906040528051906020012014156148b557600192505050610a28565b6000805b835183516148c79190615271565b8110156149a957600160005b8551811015614985578581815181106148ff5760e060020a634e487b7102600052603260045260246000fd5b602001015160f860020a900460f860020a02600160f860020a0319168582856149289190615217565b815181106149495760e060020a634e487b7102600052603260045260246000fd5b602001015160f860020a900460f860020a02600160f860020a031916146149735760009150614985565b8061497d816152f6565b9150506148d3565b5080156149965760019250506149a9565b50806149a1816152f6565b9150506148b9565b5095945050505050565b6040518060e001604052806000600160a060020a031681526020016000815260200160008152602001606081526020016060815260200160608152602001606081525090565b604051806060016040528060608152602001606081526020016000151581525090565b828054614a28906152b8565b90600052602060002090601f016020900481019282614a4a5760008555614a90565b82601f10614a6357805160ff1916838001178555614a90565b82800160010185558215614a90579182015b82811115614a90578251825591602001919060010190614a75565b50614a9c929150614aa0565b5090565b5b80821115614a9c5760008155600101614aa1565b600082601f830112614ac5578081fd5b813567ffffffffffffffff80821115614ae057614ae061532a565b604051601f8301601f191681016020018281118282101715614b0457614b0461532a565b604052828152848301602001861015614b1b578384fd5b82602086016020830137918201602001929092529392505050565b803560ff81168114610d1e57600080fd5b60008060408385031215614b59578182fd5b8235600160a060020a0381168114614b6f578283fd5b946020939093013593505050565b600060208284031215614b8e578081fd5b81518015158114614b9d578182fd5b9392505050565b600060208284031215614bb5578081fd5b813567ffffffffffffffff811115614bcb578182fd5b614bd784828501614ab5565b949350505050565b60008060408385031215614bf1578182fd5b823567ffffffffffffffff80821115614c08578384fd5b614c1486838701614ab5565b93506020850135915080821115614c29578283fd5b50614c3685828601614ab5565b9150509250929050565b60008060008060808587031215614c55578182fd5b843567ffffffffffffffff80821115614c6c578384fd5b614c7888838901614ab5565b95506020870135915080821115614c8d578384fd5b614c9988838901614ab5565b94506040870135915080821115614cae578384fd5b614cba88838901614ab5565b93506060870135915080821115614ccf578283fd5b50614cdc87828801614ab5565b91505092959194509250565b600080600060608486031215614cfc578283fd5b833567ffffffffffffffff80821115614d13578485fd5b614d1f87838801614ab5565b94506020860135915080821115614d34578384fd5b50614d4186828701614ab5565b925050614d5060408501614b36565b90509250925092565b60008060408385031215614d6b578182fd5b823567ffffffffffffffff811115614d81578283fd5b614d8d85828601614ab5565b925050614d9c60208401614b36565b90509250929050565b600060208284031215614db6578081fd5b5035919050565b600060208284031215614dce578081fd5b5051919050565b6000815180845260208085019450848183028601828601855b85811015614e18578383038952614e06838351614e25565b98850198925090840190600101614dee565b5090979650505050505050565b60008151808452614e3d816020860160208601615288565b601f01601f19169290920160200192915050565b6000600160a060020a0382511683526020820151602084015260408201516040840152606082015160e06060850152614e8d60e0850182614e25565b905060808301518482036080860152614ea68282614e25565b91505060a083015184820360a0860152614ec08282614e25565b91505060c083015184820360c0860152612d148282614e25565b60008251614eec818460208701615288565b9190910192915050565b7f4e6f6e6500000000000000000000000000000000000000000000000000000000815260040190565b600160a060020a0391909116815260200190565b600160a060020a039384168152919092166020820152604081019190915260600190565b6000602080830181845280855180835260408601915060408482028701019250838701855b82811015614faa57603f19888603018452614f98858351614e25565b94509285019290850190600101614f7c565b5092979650505050505050565b6000602080830181845280855180835260408601915060408482028701019250838701855b82811015614faa57603f19888603018452614ff8858351614e51565b94509285019290850190600101614fdc565b901515815260200190565b6020808252601b908201527f596f75206e65656420746f2073656e6420736f6d652045746865720000000000604082015260600190565b60208082526025908201527f596f75206e65656420746f2073656c6c206174206c6561737420736f6d65207460408201527f6f6b656e73000000000000000000000000000000000000000000000000000000606082015260800190565b60208082526026908201527f596f75206e65656420746f20656e746572206174206c6561737420736f6d652060408201527f746f6b656e730000000000000000000000000000000000000000000000000000606082015260800190565b60208082526018908201527f52656769737465722050726f63657373206661696c65642e0000000000000000604082015260600190565b60208082526016908201527f5472616e73666572204574686572206661696c65642e00000000000000000000604082015260600190565b6020808252818101527f4e6f7420656e6f75676820746f6b656e7320696e207468652072657365727665604082015260600190565b600060208252614b9d6020830184614e51565b6000602082528251606060208401526151d86080840182614dd5565b90506020840151601f198483030160408501526151f58282614dd5565b9150506040840151151560608401528091505092915050565b90815260200190565b6000821982111561522a5761522a615311565b500190565b60008261524d5760e060020a634e487b710281526012600452602481fd5b500490565b600081600019048311821515161561526c5761526c615311565b500290565b60008282101561528357615283615311565b500390565b60005b838110156152a357818101518382015260200161528b565b838111156152b2576000848401525b50505050565b6002810460018216806152cc57607f821691505b602082108114156152f05760e060020a634e487b7102600052602260045260246000fd5b50919050565b600060001982141561530a5761530a615311565b5060010190565b60e060020a634e487b7102600052601160045260246000fd5b60e060020a634e487b7102600052604160045260246000fdfea2646970667358221220d4f9cfad20c62e83a16bf05bb26704ed1260eaafb40fbfbad77828c8d73678de64736f6c63430008000033608060405268056bc75e2d6310000060015534801561001d57600080fd5b50600154336000908152602081905260409020556104ab806100406000396000f3fe608060405234801561001057600080fd5b506004361061007e577c0100000000000000000000000000000000000000000000000000000000600035046306fdde03811461008357806318160ddd146100a157806323b872dd146100b6578063313ce567146100d657806370a08231146100eb57806395d89b41146100fe575b600080fd5b61008b610106565b604051610098919061038e565b60405180910390f35b6100a961013f565b6040516100989190610416565b6100c96100c4366004610348565b610145565b6040516100989190610383565b6100de610256565b604051610098919061041f565b6100a96100f936600461032e565b61025b565b61008b61027a565b6040518060400160405280600981526020017f4d75736963436f696e000000000000000000000000000000000000000000000081525081565b60015490565b600160a060020a0383166000908152602081905260408120548211156101a0576040517f08c379a0000000000000000000000000000000000000000000000000000000008152600401610197906103e1565b60405180910390fd5b600160a060020a0384166000908152602081905260409020546101c390836102b3565b600160a060020a0380861660009081526020819052604080822093909355908516815220546101f290836102e7565b600160a060020a0380851660008181526020819052604090819020939093559151908616907fddf252ad1be2c89b69c2b068fc378daa952ba7f163c4a11628f55a4df523b3ef90610244908690610416565b60405180910390a35060019392505050565b600281565b600160a060020a0381166000908152602081905260409020545b919050565b6040518060400160405280600381526020017f4d5543000000000000000000000000000000000000000000000000000000000081525081565b6000828211156102d65760e060020a634e487b7102600052600160045260246000fd5b6102e08284610445565b9392505050565b6000806102f4838561042d565b9050838110156102e05760e060020a634e487b7102600052600160045260246000fd5b8035600160a060020a038116811461027557600080fd5b60006020828403121561033f578081fd5b6102e082610317565b60008060006060848603121561035c578182fd5b61036584610317565b925061037360208501610317565b9150604084013590509250925092565b901515815260200190565b6000602080835283518082850152825b818110156103ba5785810183015185820160400152820161039e565b818111156103cb5783604083870101525b50601f01601f1916929092016040019392505050565b6020808252818101527f546865206f776e657220686173206e6f20656e6f7567682062616c616e636521604082015260600190565b90815260200190565b60ff91909116815260200190565b600082198211156104405761044061045c565b500190565b6000828210156104575761045761045c565b500390565b60e060020a634e487b7102600052601160045260246000fdfea26469706673582212207ca779663d610f9cf62364640b7423248be4ceaac22b5a5bfbb0f84ca623134264736f6c63430008000033",
  "immutableReferences": {},
  "source": "pragma solidity >=0.4.0 <0.9.0;\n// support return struct in functions\npragma experimental ABIEncoderV2;\n\n// import \"../../node_modules/@openzeppelin/contracts/token/ERC20/ERC20.sol\";\n// import \"./MusicCoin.sol\";\nimport \"./MusicToken.sol\";\n\ncontract MusicDApp is DEX {\n    // Music metadata\n    struct Music {\n        // Music information\n        address uploader;\n        uint256 uploadTime;\n        uint256 count;\n        string name;\n        string artist;\n        // Music content\n        string ipfsHash;\n        string coverFrom;\n    }\n\n    struct User {\n        string[] upload_music_list;\n        string[] bought_music_list;\n        bool isValid;\n    }\n\n    // State variables\n    Music[] musics;\n\n    mapping(address => User) internal users;\n\n    // ipfs hash as index\n    mapping(string => Music) internal music_hash;\n\n    // (name, artist) as primary key\n    mapping(string => mapping(string => Music)) internal music;\n\n    // name as primary key\n    mapping(string => Music[]) internal music_artist_list;\n\n    // artist as primary key\n    mapping(string => Music[]) internal artist_music_list;\n\n    // Modifiers\n\n    // Public methods\n\n    // Retrieve basic user information\n    function returnMsgSender() public view returns (address) {\n        return msg.sender;\n    }\n\n    function userExists() public view returns (bool) {\n        return users[msg.sender].isValid;\n    }\n\n    function getUserInfo() public view returns (User memory) {\n        return users[msg.sender];\n    }\n\n    function getUserBalance() public view returns (uint256) {\n        return token.balanceOf(msg.sender);\n    }\n\n    function registerUser() public returns (User memory) {\n        if (!userExists()) {\n            // Give 100 token for new user\n            uint256 dexBalance = token.balanceOf(address(this));\n            require(10000 <= dexBalance, \"Not enough tokens in the reserve\");\n            bool success = register();\n            require(success, \"Register Process failed.\");\n            // token.transfer(msg.sender, 10000);\n            users[msg.sender].isValid = true;\n            User memory user = users[msg.sender];\n            return user;\n        } else {\n            return users[msg.sender];\n        }\n    }\n\n    function getUploadMusicList() public view returns (string[] memory) {\n        return users[msg.sender].upload_music_list;\n    }\n\n    function getBoughtMusicList() public view returns (string[] memory) {\n        return users[msg.sender].bought_music_list;\n    }\n\n    function findUploadMusic(string memory _ipfsHash)\n        public\n        view\n        returns (bool)\n    {\n        User memory user = users[msg.sender];\n        string[] memory upload_list = user.upload_music_list;\n\n        for (uint256 i = 0; i < upload_list.length; i++) {\n            if (\n                keccak256(abi.encodePacked(_ipfsHash)) ==\n                keccak256(abi.encodePacked(upload_list[i]))\n            ) {\n                return true;\n            }\n        }\n\n        return false;\n    }\n\n    function findBoughtMusic(string memory _ipfsHash)\n        public\n        view\n        returns (bool)\n    {\n        User memory user = users[msg.sender];\n        string[] memory bought_list = user.bought_music_list;\n\n        for (uint256 i = 0; i < bought_list.length; i++) {\n            if (\n                keccak256(abi.encodePacked(_ipfsHash)) ==\n                keccak256(abi.encodePacked(bought_list[i]))\n            ) {\n                return true;\n            }\n        }\n\n        return false;\n    }\n\n    function uploadMusic(\n        string memory _ipfsHash,\n        string memory _name,\n        string memory _artist,\n        string memory _coverFrom\n    ) public {\n        Music memory _music =\n            Music(\n                msg.sender,\n                block.timestamp,\n                0,\n                _name,\n                _artist,\n                _ipfsHash,\n                _coverFrom\n            );\n\n        // Global state update\n        musics.push(_music);\n        music[_name][_artist] = _music;\n        music_hash[_ipfsHash] = _music;\n        music_artist_list[_name].push(_music);\n        artist_music_list[_artist].push(_music);\n\n        // User state update\n        users[msg.sender].upload_music_list.push(_ipfsHash);\n    }\n\n    function getMusic(string memory _name, string memory _artist)\n        public\n        view\n        returns (Music memory)\n    {\n        Music memory _music = music[_name][_artist];\n\n        return _music;\n    }\n\n    function searchMusic(string memory _name, string memory _artist)\n        public\n        view\n        returns (Music[] memory)\n    {\n        Music[] memory returnList = new Music[](musics.length);\n        uint ind = 0;\n        for (uint i=0; i<musics.length; i++) {\n            if (str_contains(_name,musics[i].name) || str_contains(_artist,musics[i].artist))\n            {\n                returnList[ind] = musics[i];\n                i = i + 1;\n            }\n        }\n        return returnList;\n    }\n\n    function getMusicByHash(string memory _ipfsHash)\n        public\n        view\n        returns (Music memory)\n    {\n        Music memory _music = music_hash[_ipfsHash];\n\n        return _music;\n    }\n\n    function getMusicWithCountIncrement(\n        string memory _name,\n        string memory _artist\n    ) public returns (Music memory) {\n        music[_name][_artist].count += 1;\n        Music memory _music = music[_name][_artist];\n\n        return _music;\n    }\n\n    function getMusicArtistList(string memory _name)\n        public\n        view\n        returns (Music[] memory)\n    {\n        Music[] memory _music_list = music_artist_list[_name];\n\n        return _music_list;\n    }\n\n    function getArtistMusicList(string memory _artist)\n        public\n        view\n        returns (Music[] memory)\n    {\n        Music[] memory _artist_music_list = artist_music_list[_artist];\n\n        return _artist_music_list;\n    }\n\n    function buyMusic(string memory _name, string memory _artist) public {\n        address sender = msg.sender;\n        Music memory _music = music[_name][_artist];\n        string memory songHash = _music.ipfsHash;\n        address uploader = _music.uploader;\n        uint8[7] memory chain = [100, 50, 25, 12, 6, 3, 1];\n        uint256 count = 0;\n\n        // TODO: Uploader can listen to what he uploaded\n        if (findUploadMusic(songHash)) return;\n\n        // TODO: Buyer will not pay twice\n        if (findBoughtMusic(songHash)) return;\n        // transfer token to uploader at the beginning of the chain\n\n        while (true) {\n            // The depth excee the limit\n            if (count >= 7) {\n                break;\n            }\n\n            // transferToken(sender, uploader, chain[count]);\n            // hit the end of the chain\n            if (\n                keccak256(abi.encodePacked((_music.coverFrom))) ==\n                keccak256(abi.encodePacked((\"None\")))\n            ) {\n                break;\n            }\n\n            sender = uploader;\n            _music = music_hash[_music.coverFrom];\n            uploader = _music.uploader;\n\n            count++;\n        }\n\n        // add music to listener list\n        users[msg.sender].bought_music_list.push(songHash);\n    }\n\n    function buyMusicByHash(string memory _ipfsHash) public {\n        address sender = msg.sender;\n        Music memory _music = music_hash[_ipfsHash];\n        string memory songHash = _ipfsHash;\n        address uploader = _music.uploader;\n        uint8[7] memory chain = [100, 50, 25, 12, 6, 3, 1];\n        uint256 count = 0;\n\n        // TODO: Uploader can listen to what he uploaded\n        if (findUploadMusic(songHash)) return;\n\n        // TODO: Buyer will not pay twice\n        if (findBoughtMusic(songHash)) return;\n\n        while (true) {\n            // The depth excee the limit\n            if (count >= 7) {\n                break;\n            }\n            // if (!(sender==uploader)) {\n            //     transferToken(sender, uploader, chain[count]);\n            // }\n            // hit the end of the chain\n            if (\n                keccak256(abi.encodePacked((_music.coverFrom))) ==\n                keccak256(abi.encodePacked((\"None\")))\n            ) {\n                break;\n            }\n\n            sender = uploader;\n            _music = music_hash[_music.coverFrom];\n            uploader = _music.uploader;\n\n            count++;\n        }\n\n        // add music to listener list\n        users[msg.sender].bought_music_list.push(songHash);\n    }\n\n    function getMusicChain(\n        string memory _name,\n        string memory _artist,\n        uint8 depth\n    ) public view returns (Music[] memory) {\n        Music memory _music = music[_name][_artist];\n        uint256 count = 0;\n        Music[] memory music_chain = new Music[](depth);\n\n        // transfer token to uploader at the beginning of the chain\n\n        while (true) {\n            // The depth excee the limit\n            if (count >= depth) {\n                break;\n            }\n            music_chain[count] = _music;\n            // hit the end of the chain\n            if (\n                keccak256(abi.encodePacked((_music.coverFrom))) ==\n                keccak256(abi.encodePacked((\"None\")))\n            ) {\n                break;\n            }\n\n            _music = music_hash[_music.coverFrom];\n\n            count++;\n        }\n\n        return music_chain;\n    }\n\n    function getMusicChainByHash(string memory _ipfsHash, uint8 depth)\n        public\n        view\n        returns (Music[] memory)\n    {\n        Music memory _music = music_hash[_ipfsHash];\n        uint256 count = 0;\n        Music[] memory music_chain = new Music[](depth);\n\n        while (true) {\n            // The depth excee the limit\n            if (count >= depth) {\n                break;\n            }\n            music_chain[count] = _music;\n            // hit the end of the chain\n            if (\n                keccak256(abi.encodePacked((_music.coverFrom))) ==\n                keccak256(abi.encodePacked((\"None\")))\n            ) {\n                break;\n            }\n\n            _music = music_hash[_music.coverFrom];\n\n            count++;\n        }\n\n        return music_chain;\n    }\n\n    // Private methods\n    // check if string contains in other string\n    function str_contains (string memory what, string memory where) private pure returns (bool){\n        bytes memory whatBytes = bytes (what);\n        bytes memory whereBytes = bytes (where);\n        if (keccak256(abi.encodePacked((what))) == keccak256(abi.encodePacked((where))))\n        {\n            return true;\n        }\n        bool found = false;\n        for (uint i = 0; i < whereBytes.length - whatBytes.length; i++) {\n            bool flag = true;\n            for (uint j = 0; j < whatBytes.length; j++)\n                if (whereBytes [i + j] != whatBytes [j]) {\n                    flag = false;\n                    break;\n                }\n            if (flag) {\n                found = true;\n                break;\n            }\n        }\n        return (found);\n    }\n}\n",
  "sourcePath": "/Users/chiao1/Desktop/NM-Lab/project/nmlab-final/music-dapp/react/src/contracts/MusicDApp.sol",
  "compiler": {
    "name": "solc",
    "version": "0.8.0+commit.c7dfd78e.Emscripten.clang"
  },
  "schemaVersion": "3.4.0",
  "updatedAt": "2021-06-13T08:32:55.354Z",
  "networkType": "ethereum",
  "devdoc": {
    "kind": "dev",
    "methods": {},
    "version": 1
  },
  "userdoc": {
    "kind": "user",
    "methods": {},
    "version": 1
  }
}