{
  "contractName": "MusicDApp",
  "abi": [
    {
      "anonymous": false,
      "inputs": [
        {
          "indexed": false,
          "internalType": "uint256",
          "name": "amount",
          "type": "uint256"
        }
      ],
      "name": "Bought",
      "type": "event"
    },
    {
      "anonymous": false,
      "inputs": [
        {
          "indexed": false,
          "internalType": "uint256",
          "name": "amount",
          "type": "uint256"
        }
      ],
      "name": "Sold",
      "type": "event"
    },
    {
      "inputs": [],
      "name": "buy",
      "outputs": [],
      "stateMutability": "payable",
      "type": "function",
      "payable": true
    },
    {
      "inputs": [],
      "name": "exchange_rate",
      "outputs": [
        {
          "internalType": "uint256",
          "name": "",
          "type": "uint256"
        }
      ],
      "stateMutability": "view",
      "type": "function",
      "constant": true
    },
    {
      "inputs": [
        {
          "internalType": "uint256",
          "name": "amount",
          "type": "uint256"
        }
      ],
      "name": "sell",
      "outputs": [],
      "stateMutability": "nonpayable",
      "type": "function"
    },
    {
      "inputs": [],
      "name": "token",
      "outputs": [
        {
          "internalType": "contract IERC20",
          "name": "",
          "type": "address"
        }
      ],
      "stateMutability": "view",
      "type": "function",
      "constant": true
    },
    {
      "inputs": [
        {
          "internalType": "address",
          "name": "sender",
          "type": "address"
        },
        {
          "internalType": "address",
          "name": "receiver",
          "type": "address"
        },
        {
          "internalType": "uint256",
          "name": "amount",
          "type": "uint256"
        }
      ],
      "name": "transferToken",
      "outputs": [],
      "stateMutability": "nonpayable",
      "type": "function"
    },
    {
      "inputs": [],
      "name": "login",
      "outputs": [
        {
          "internalType": "string[]",
          "name": "",
          "type": "string[]"
        }
      ],
      "stateMutability": "nonpayable",
      "type": "function"
    },
    {
      "inputs": [],
      "name": "getUploadMusicList",
      "outputs": [
        {
          "internalType": "string[]",
          "name": "",
          "type": "string[]"
        }
      ],
      "stateMutability": "view",
      "type": "function",
      "constant": true
    },
    {
      "inputs": [],
      "name": "getBoughtMusicList",
      "outputs": [
        {
          "internalType": "string[]",
          "name": "",
          "type": "string[]"
        }
      ],
      "stateMutability": "view",
      "type": "function",
      "constant": true
    },
    {
      "inputs": [],
      "name": "getUserInfo",
      "outputs": [
        {
          "components": [
            {
              "internalType": "string[]",
              "name": "upload_music_list",
              "type": "string[]"
            },
            {
              "internalType": "string[]",
              "name": "bought_music_list",
              "type": "string[]"
            },
            {
              "internalType": "bool",
              "name": "isValid",
              "type": "bool"
            }
          ],
          "internalType": "struct MusicDApp.User",
          "name": "",
          "type": "tuple"
        }
      ],
      "stateMutability": "view",
      "type": "function",
      "constant": true
    },
    {
      "inputs": [],
      "name": "getUserBalance",
      "outputs": [
        {
          "internalType": "uint256",
          "name": "",
          "type": "uint256"
        }
      ],
      "stateMutability": "view",
      "type": "function",
      "constant": true
    },
    {
      "inputs": [
        {
          "internalType": "string",
          "name": "_ipfsHash",
          "type": "string"
        }
      ],
      "name": "findUploadMusic",
      "outputs": [
        {
          "internalType": "bool",
          "name": "",
          "type": "bool"
        }
      ],
      "stateMutability": "view",
      "type": "function",
      "constant": true
    },
    {
      "inputs": [
        {
          "internalType": "string",
          "name": "_ipfsHash",
          "type": "string"
        }
      ],
      "name": "findBoughtMusic",
      "outputs": [
        {
          "internalType": "bool",
          "name": "",
          "type": "bool"
        }
      ],
      "stateMutability": "view",
      "type": "function",
      "constant": true
    },
    {
      "inputs": [
        {
          "internalType": "string",
          "name": "_ipfsHash",
          "type": "string"
        },
        {
          "internalType": "string",
          "name": "_name",
          "type": "string"
        },
        {
          "internalType": "string",
          "name": "_artist",
          "type": "string"
        },
        {
          "internalType": "string",
          "name": "_coverFrom",
          "type": "string"
        }
      ],
      "name": "uploadMusic",
      "outputs": [],
      "stateMutability": "nonpayable",
      "type": "function"
    },
    {
      "inputs": [
        {
          "internalType": "string",
          "name": "_name",
          "type": "string"
        },
        {
          "internalType": "string",
          "name": "_artist",
          "type": "string"
        }
      ],
      "name": "getMusic",
      "outputs": [
        {
          "components": [
            {
              "internalType": "address",
              "name": "uploader",
              "type": "address"
            },
            {
              "internalType": "uint256",
              "name": "uploadTime",
              "type": "uint256"
            },
            {
              "internalType": "uint256",
              "name": "count",
              "type": "uint256"
            },
            {
              "internalType": "string",
              "name": "name",
              "type": "string"
            },
            {
              "internalType": "string",
              "name": "artist",
              "type": "string"
            },
            {
              "internalType": "string",
              "name": "ipfsHash",
              "type": "string"
            },
            {
              "internalType": "string",
              "name": "coverFrom",
              "type": "string"
            }
          ],
          "internalType": "struct MusicDApp.Music",
          "name": "",
          "type": "tuple"
        }
      ],
      "stateMutability": "view",
      "type": "function",
      "constant": true
    },
    {
      "inputs": [
        {
          "internalType": "string",
          "name": "_ipfsHash",
          "type": "string"
        }
      ],
      "name": "getMusicByHash",
      "outputs": [
        {
          "components": [
            {
              "internalType": "address",
              "name": "uploader",
              "type": "address"
            },
            {
              "internalType": "uint256",
              "name": "uploadTime",
              "type": "uint256"
            },
            {
              "internalType": "uint256",
              "name": "count",
              "type": "uint256"
            },
            {
              "internalType": "string",
              "name": "name",
              "type": "string"
            },
            {
              "internalType": "string",
              "name": "artist",
              "type": "string"
            },
            {
              "internalType": "string",
              "name": "ipfsHash",
              "type": "string"
            },
            {
              "internalType": "string",
              "name": "coverFrom",
              "type": "string"
            }
          ],
          "internalType": "struct MusicDApp.Music",
          "name": "",
          "type": "tuple"
        }
      ],
      "stateMutability": "view",
      "type": "function",
      "constant": true
    },
    {
      "inputs": [
        {
          "internalType": "string",
          "name": "_name",
          "type": "string"
        },
        {
          "internalType": "string",
          "name": "_artist",
          "type": "string"
        }
      ],
      "name": "getMusicWithCountIncrement",
      "outputs": [
        {
          "components": [
            {
              "internalType": "address",
              "name": "uploader",
              "type": "address"
            },
            {
              "internalType": "uint256",
              "name": "uploadTime",
              "type": "uint256"
            },
            {
              "internalType": "uint256",
              "name": "count",
              "type": "uint256"
            },
            {
              "internalType": "string",
              "name": "name",
              "type": "string"
            },
            {
              "internalType": "string",
              "name": "artist",
              "type": "string"
            },
            {
              "internalType": "string",
              "name": "ipfsHash",
              "type": "string"
            },
            {
              "internalType": "string",
              "name": "coverFrom",
              "type": "string"
            }
          ],
          "internalType": "struct MusicDApp.Music",
          "name": "",
          "type": "tuple"
        }
      ],
      "stateMutability": "nonpayable",
      "type": "function"
    },
    {
      "inputs": [
        {
          "internalType": "string",
          "name": "_name",
          "type": "string"
        }
      ],
      "name": "getMusicArtistList",
      "outputs": [
        {
          "components": [
            {
              "internalType": "address",
              "name": "uploader",
              "type": "address"
            },
            {
              "internalType": "uint256",
              "name": "uploadTime",
              "type": "uint256"
            },
            {
              "internalType": "uint256",
              "name": "count",
              "type": "uint256"
            },
            {
              "internalType": "string",
              "name": "name",
              "type": "string"
            },
            {
              "internalType": "string",
              "name": "artist",
              "type": "string"
            },
            {
              "internalType": "string",
              "name": "ipfsHash",
              "type": "string"
            },
            {
              "internalType": "string",
              "name": "coverFrom",
              "type": "string"
            }
          ],
          "internalType": "struct MusicDApp.Music[]",
          "name": "",
          "type": "tuple[]"
        }
      ],
      "stateMutability": "view",
      "type": "function",
      "constant": true
    },
    {
      "inputs": [
        {
          "internalType": "string",
          "name": "_artist",
          "type": "string"
        }
      ],
      "name": "getArtistMusicList",
      "outputs": [
        {
          "components": [
            {
              "internalType": "address",
              "name": "uploader",
              "type": "address"
            },
            {
              "internalType": "uint256",
              "name": "uploadTime",
              "type": "uint256"
            },
            {
              "internalType": "uint256",
              "name": "count",
              "type": "uint256"
            },
            {
              "internalType": "string",
              "name": "name",
              "type": "string"
            },
            {
              "internalType": "string",
              "name": "artist",
              "type": "string"
            },
            {
              "internalType": "string",
              "name": "ipfsHash",
              "type": "string"
            },
            {
              "internalType": "string",
              "name": "coverFrom",
              "type": "string"
            }
          ],
          "internalType": "struct MusicDApp.Music[]",
          "name": "",
          "type": "tuple[]"
        }
      ],
      "stateMutability": "view",
      "type": "function",
      "constant": true
    },
    {
      "inputs": [
        {
          "internalType": "string",
          "name": "_name",
          "type": "string"
        },
        {
          "internalType": "string",
          "name": "_artist",
          "type": "string"
        }
      ],
      "name": "buyMusic",
      "outputs": [],
      "stateMutability": "nonpayable",
      "type": "function"
    },
    {
      "inputs": [
        {
          "internalType": "string",
          "name": "_ipfsHash",
          "type": "string"
        }
      ],
      "name": "buyMusicByHash",
      "outputs": [],
      "stateMutability": "nonpayable",
      "type": "function"
    },
    {
      "inputs": [
        {
          "internalType": "string",
          "name": "_name",
          "type": "string"
        },
        {
          "internalType": "string",
          "name": "_artist",
          "type": "string"
        },
        {
          "internalType": "uint8",
          "name": "depth",
          "type": "uint8"
        }
      ],
      "name": "getMusicChain",
      "outputs": [
        {
          "components": [
            {
              "internalType": "address",
              "name": "uploader",
              "type": "address"
            },
            {
              "internalType": "uint256",
              "name": "uploadTime",
              "type": "uint256"
            },
            {
              "internalType": "uint256",
              "name": "count",
              "type": "uint256"
            },
            {
              "internalType": "string",
              "name": "name",
              "type": "string"
            },
            {
              "internalType": "string",
              "name": "artist",
              "type": "string"
            },
            {
              "internalType": "string",
              "name": "ipfsHash",
              "type": "string"
            },
            {
              "internalType": "string",
              "name": "coverFrom",
              "type": "string"
            }
          ],
          "internalType": "struct MusicDApp.Music[]",
          "name": "",
          "type": "tuple[]"
        }
      ],
      "stateMutability": "view",
      "type": "function",
      "constant": true
    },
    {
      "inputs": [
        {
          "internalType": "string",
          "name": "_ipfsHash",
          "type": "string"
        },
        {
          "internalType": "uint8",
          "name": "depth",
          "type": "uint8"
        }
      ],
      "name": "getMusicChainByHash",
      "outputs": [
        {
          "components": [
            {
              "internalType": "address",
              "name": "uploader",
              "type": "address"
            },
            {
              "internalType": "uint256",
              "name": "uploadTime",
              "type": "uint256"
            },
            {
              "internalType": "uint256",
              "name": "count",
              "type": "uint256"
            },
            {
              "internalType": "string",
              "name": "name",
              "type": "string"
            },
            {
              "internalType": "string",
              "name": "artist",
              "type": "string"
            },
            {
              "internalType": "string",
              "name": "ipfsHash",
              "type": "string"
            },
            {
              "internalType": "string",
              "name": "coverFrom",
              "type": "string"
            }
          ],
          "internalType": "struct MusicDApp.Music[]",
          "name": "",
          "type": "tuple[]"
        }
      ],
      "stateMutability": "view",
      "type": "function",
      "constant": true
    }
  ],
  "bytecode": "0x60806040526103e86001553480156200001757600080fd5b5060405162000026906200006a565b604051809103906000f08015801562000043573d6000803e3d6000fd5b5060008054600160a060020a031916600160a060020a039290921691909117905562000078565b6106f080620047d083390190565b61474880620000886000396000f3fe6080604052600436106101395760003560e060020a90048063a6f2ae3a116100af578063e4849b3211610073578063e4849b321461033d578063e90fd8e71461035d578063f5537ede1461037d578063f7f6bd7f1461039d578063fc0c546a146103bd578063fdf74325146103df57610139565b8063a6f2ae3a146102cb578063b1ddeab0146102d3578063b34e97e8146102f3578063b7013dc114610308578063e41bfe6e1461031d57610139565b806370d97eca1161010157806370d97eca146102075780637fb954481461022957806380f3de65146102495780638aa4342c146102765780639146436b1461028b57806393154af7146102ab57610139565b8063171ef0b21461013e5780631f4b04ea14610169578063209af2dd146101965780635d8d1585146101c357806360b377b8146101e5575b600080fd5b34801561014a57600080fd5b506101536103ff565b60405161016091906145f8565b60405180910390f35b34801561017557600080fd5b50610189610184366004613fed565b610405565b6040516101609190614593565b3480156101a257600080fd5b506101b66101b1366004613fb2565b610724565b60405161016091906143fe565b3480156101cf57600080fd5b506101d8610a19565b60405161016091906145a6565b3480156101f157600080fd5b506101fa610bfb565b604051610160919061439e565b34801561021357600080fd5b50610227610222366004613fed565b610cdf565b005b34801561023557600080fd5b50610189610244366004613fed565b6113b6565b34801561025557600080fd5b50610269610264366004613fb2565b6113d0565b6040516101609190614451565b34801561028257600080fd5b506101fa61165d565b34801561029757600080fd5b506101896102a6366004613fb2565b61173b565b3480156102b757600080fd5b506101b66102c6366004614167565b6119e8565b61022761204a565b3480156102df57600080fd5b506102276102ee36600461404e565b6121f2565b3480156102ff57600080fd5b506101fa6126f3565b34801561031457600080fd5b50610153612757565b34801561032957600080fd5b50610227610338366004613fb2565b6127e0565b34801561034957600080fd5b506102276103583660046141b3565b612e7f565b34801561036957600080fd5b506101b6610378366004613fb2565b613058565b34801561038957600080fd5b50610227610398366004613f50565b61333f565b3480156103a957600080fd5b506102696103b8366004613fb2565b613494565b3480156103c957600080fd5b506103d2613717565b6040516101609190614333565b3480156103eb57600080fd5b506101b66103fa3660046140f6565b613726565b60015481565b61040d613da5565b600160078460405161041f91906142ee565b90815260200160405180910390208360405161043b91906142ee565b9081526020016040518091039020600201600082825461045b9190614601565b92505081905550600060078460405161047491906142ee565b90815260200160405180910390208360405161049091906142ee565b90815260408051918290036020908101832060e0840183528054600160a060020a031684526001810154918401919091526002810154918301919091526003810180546060840191906104e290614687565b80601f016020809104026020016040519081016040528092919081815260200182805461050e90614687565b801561055b5780601f106105305761010080835404028352916020019161055b565b820191906000526020600020905b81548152906001019060200180831161053e57829003601f168201915b5050505050815260200160048201805461057490614687565b80601f01602080910402602001604051908101604052809291908181526020018280546105a090614687565b80156105ed5780601f106105c2576101008083540402835291602001916105ed565b820191906000526020600020905b8154815290600101906020018083116105d057829003601f168201915b5050505050815260200160058201805461060690614687565b80601f016020809104026020016040519081016040528092919081815260200182805461063290614687565b801561067f5780601f106106545761010080835404028352916020019161067f565b820191906000526020600020905b81548152906001019060200180831161066257829003601f168201915b5050505050815260200160068201805461069890614687565b80601f01602080910402602001604051908101604052809291908181526020018280546106c490614687565b80156107115780601f106106e657610100808354040283529160200191610711565b820191906000526020600020905b8154815290600101906020018083116106f457829003601f168201915b5050509190925250919695505050505050565b6060600060088360405161073891906142ee565b9081526020016040518091039020805480602002602001604051908101604052809291908181526020016000905b82821015610a0b5760008481526020908190206040805160e081018252600786029092018054600160a060020a031683526001810154938301939093526002830154908201526003820180549192916060840191906107c490614687565b80601f01602080910402602001604051908101604052809291908181526020018280546107f090614687565b801561083d5780601f106108125761010080835404028352916020019161083d565b820191906000526020600020905b81548152906001019060200180831161082057829003601f168201915b5050505050815260200160048201805461085690614687565b80601f016020809104026020016040519081016040528092919081815260200182805461088290614687565b80156108cf5780601f106108a4576101008083540402835291602001916108cf565b820191906000526020600020905b8154815290600101906020018083116108b257829003601f168201915b505050505081526020016005820180546108e890614687565b80601f016020809104026020016040519081016040528092919081815260200182805461091490614687565b80156109615780601f1061093657610100808354040283529160200191610961565b820191906000526020600020905b81548152906001019060200180831161094457829003601f168201915b5050505050815260200160068201805461097a90614687565b80601f01602080910402602001604051908101604052809291908181526020018280546109a690614687565b80156109f35780601f106109c8576101008083540402835291602001916109f3565b820191906000526020600020905b8154815290600101906020018083116109d657829003601f168201915b50505050508152505081526020019060010190610766565b50929450505050505b919050565b610a21613deb565b3360009081526005602090815260408083208151815460809481028201850190935260608101838152909491938593919285929185015b82821015610b04578382906000526020600020018054610a7790614687565b80601f0160208091040260200160405190810160405280929190818152602001828054610aa390614687565b8015610af05780601f10610ac557610100808354040283529160200191610af0565b820191906000526020600020905b815481529060010190602001808311610ad357829003601f168201915b505050505081526020019060010190610a58565b50505050815260200160018201805480602002602001604051908101604052809291908181526020016000905b82821015610bdd578382906000526020600020018054610b5090614687565b80601f0160208091040260200160405190810160405280929190818152602001828054610b7c90614687565b8015610bc95780601f10610b9e57610100808354040283529160200191610bc9565b820191906000526020600020905b815481529060010190602001808311610bac57829003601f168201915b505050505081526020019060010190610b31565b505050908252506002919091015460ff161515602090910152905090565b336000908152600560209081526040808320805482518185028101850190935280835260609492939192909184015b82821015610cd6578382906000526020600020018054610c4990614687565b80601f0160208091040260200160405190810160405280929190818152602001828054610c7590614687565b8015610cc25780601f10610c9757610100808354040283529160200191610cc2565b820191906000526020600020905b815481529060010190602001808311610ca557829003601f168201915b505050505081526020019060010190610c2a565b50505050905090565b60003390506000600784604051610cf691906142ee565b908152602001604051809103902083604051610d1291906142ee565b90815260408051918290036020908101832060e0840183528054600160a060020a03168452600181015491840191909152600281015491830191909152600381018054606084019190610d6490614687565b80601f0160208091040260200160405190810160405280929190818152602001828054610d9090614687565b8015610ddd5780601f10610db257610100808354040283529160200191610ddd565b820191906000526020600020905b815481529060010190602001808311610dc057829003601f168201915b50505050508152602001600482018054610df690614687565b80601f0160208091040260200160405190810160405280929190818152602001828054610e2290614687565b8015610e6f5780601f10610e4457610100808354040283529160200191610e6f565b820191906000526020600020905b815481529060010190602001808311610e5257829003601f168201915b50505050508152602001600582018054610e8890614687565b80601f0160208091040260200160405190810160405280929190818152602001828054610eb490614687565b8015610f015780601f10610ed657610100808354040283529160200191610f01565b820191906000526020600020905b815481529060010190602001808311610ee457829003601f168201915b50505050508152602001600682018054610f1a90614687565b80601f0160208091040260200160405190810160405280929190818152602001828054610f4690614687565b8015610f935780601f10610f6857610100808354040283529160200191610f93565b820191906000526020600020905b815481529060010190602001808311610f7657829003601f168201915b5050509190925250505060a08082015182516040805160e0810182526064815260326020820152601991810191909152600c606082015260066080820152600393810193909352600160c084015292935091906000610ff1846113d0565b15611001575050505050506113b2565b61100a84613494565b1561101a575050505050506113b2565b6007811061102757611374565b61105c868484846007811061104f5760e060020a634e487b7102600052603260045260246000fd5b602002015160ff1661333f565b60405160200161106b9061430a565b604051602081830303815290604052805190602001208560c0015160405160200161109691906142ee565b6040516020818303038152906040528051906020012014156110b757611374565b82955060068560c001516040516110ce91906142ee565b90815260408051918290036020908101832060e0840183528054600160a060020a0316845260018101549184019190915260028101549183019190915260038101805460608401919061112090614687565b80601f016020809104026020016040519081016040528092919081815260200182805461114c90614687565b80156111995780601f1061116e57610100808354040283529160200191611199565b820191906000526020600020905b81548152906001019060200180831161117c57829003601f168201915b505050505081526020016004820180546111b290614687565b80601f01602080910402602001604051908101604052809291908181526020018280546111de90614687565b801561122b5780601f106112005761010080835404028352916020019161122b565b820191906000526020600020905b81548152906001019060200180831161120e57829003601f168201915b5050505050815260200160058201805461124490614687565b80601f016020809104026020016040519081016040528092919081815260200182805461127090614687565b80156112bd5780601f10611292576101008083540402835291602001916112bd565b820191906000526020600020905b8154815290600101906020018083116112a057829003601f168201915b505050505081526020016006820180546112d690614687565b80601f016020809104026020016040519081016040528092919081815260200182805461130290614687565b801561134f5780601f106113245761010080835404028352916020019161134f565b820191906000526020600020905b81548152906001019060200180831161133257829003601f168201915b505050505081525050945084600001519250808061136c906146c5565b91505061101a565b336000908152600560209081526040822060019081018054918201815583529181902086516113aa939190910191870190613e0e565b505050505050505b5050565b6113be613da5565b600060078460405161047491906142ee565b3360009081526005602090815260408083208151815460809481028201850190935260608101838152859491938492849190879085015b828210156114b357838290600052602060002001805461142690614687565b80601f016020809104026020016040519081016040528092919081815260200182805461145290614687565b801561149f5780601f106114745761010080835404028352916020019161149f565b820191906000526020600020905b81548152906001019060200180831161148257829003601f168201915b505050505081526020019060010190611407565b50505050815260200160018201805480602002602001604051908101604052809291908181526020016000905b8282101561158c5783829060005260206000200180546114ff90614687565b80601f016020809104026020016040519081016040528092919081815260200182805461152b90614687565b80156115785780601f1061154d57610100808354040283529160200191611578565b820191906000526020600020905b81548152906001019060200180831161155b57829003601f168201915b5050505050815260200190600101906114e0565b505050908252506002919091015460ff161515602090910152805190915060005b8151811015611652578181815181106115d95760e060020a634e487b7102600052603260045260246000fd5b60200260200101516040516020016115f191906142ee565b604051602081830303815290604052805190602001208560405160200161161891906142ee565b6040516020818303038152906040528051906020012014156116405760019350505050610a14565b8061164a816146c5565b9150506115ad565b506000949350505050565b336000908152600560209081526040808320600101805482518185028101850190935280835260609492939192909184015b82821015610cd65783829060005260206000200180546116ae90614687565b80601f01602080910402602001604051908101604052809291908181526020018280546116da90614687565b80156117275780601f106116fc57610100808354040283529160200191611727565b820191906000526020600020905b81548152906001019060200180831161170a57829003601f168201915b50505050508152602001906001019061168f565b611743613da5565b600060068360405161175591906142ee565b90815260408051918290036020908101832060e0840183528054600160a060020a031684526001810154918401919091526002810154918301919091526003810180546060840191906117a790614687565b80601f01602080910402602001604051908101604052809291908181526020018280546117d390614687565b80156118205780601f106117f557610100808354040283529160200191611820565b820191906000526020600020905b81548152906001019060200180831161180357829003601f168201915b5050505050815260200160048201805461183990614687565b80601f016020809104026020016040519081016040528092919081815260200182805461186590614687565b80156118b25780601f10611887576101008083540402835291602001916118b2565b820191906000526020600020905b81548152906001019060200180831161189557829003601f168201915b505050505081526020016005820180546118cb90614687565b80601f01602080910402602001604051908101604052809291908181526020018280546118f790614687565b80156119445780601f1061191957610100808354040283529160200191611944565b820191906000526020600020905b81548152906001019060200180831161192757829003601f168201915b5050505050815260200160068201805461195d90614687565b80601f016020809104026020016040519081016040528092919081815260200182805461198990614687565b80156119d65780601f106119ab576101008083540402835291602001916119d6565b820191906000526020600020905b8154815290600101906020018083116119b957829003601f168201915b50505091909252509195945050505050565b606060006006846040516119fc91906142ee565b90815260408051918290036020908101832060e0840183528054600160a060020a03168452600181015491840191909152600281015491830191909152600381018054606084019190611a4e90614687565b80601f0160208091040260200160405190810160405280929190818152602001828054611a7a90614687565b8015611ac75780601f10611a9c57610100808354040283529160200191611ac7565b820191906000526020600020905b815481529060010190602001808311611aaa57829003601f168201915b50505050508152602001600482018054611ae090614687565b80601f0160208091040260200160405190810160405280929190818152602001828054611b0c90614687565b8015611b595780601f10611b2e57610100808354040283529160200191611b59565b820191906000526020600020905b815481529060010190602001808311611b3c57829003601f168201915b50505050508152602001600582018054611b7290614687565b80601f0160208091040260200160405190810160405280929190818152602001828054611b9e90614687565b8015611beb5780601f10611bc057610100808354040283529160200191611beb565b820191906000526020600020905b815481529060010190602001808311611bce57829003601f168201915b50505050508152602001600682018054611c0490614687565b80601f0160208091040260200160405190810160405280929190818152602001828054611c3090614687565b8015611c7d5780601f10611c5257610100808354040283529160200191611c7d565b820191906000526020600020905b815481529060010190602001808311611c6057829003601f168201915b50505050508152505090506000808460ff1667ffffffffffffffff811115611cb85760e060020a634e487b7102600052604160045260246000fd5b604051908082528060200260200182016040528015611cf157816020015b611cde613da5565b815260200190600190039081611cd65790505b5090505b8460ff168210611d0457612041565b82818381518110611d285760e060020a634e487b7102600052603260045260246000fd5b6020026020010181905250604051602001611d429061430a565b604051602081830303815290604052805190602001208360c00151604051602001611d6d91906142ee565b604051602081830303815290604052805190602001201415611d8e57612041565b60068360c00151604051611da291906142ee565b90815260408051918290036020908101832060e0840183528054600160a060020a03168452600181015491840191909152600281015491830191909152600381018054606084019190611df490614687565b80601f0160208091040260200160405190810160405280929190818152602001828054611e2090614687565b8015611e6d5780601f10611e4257610100808354040283529160200191611e6d565b820191906000526020600020905b815481529060010190602001808311611e5057829003601f168201915b50505050508152602001600482018054611e8690614687565b80601f0160208091040260200160405190810160405280929190818152602001828054611eb290614687565b8015611eff5780601f10611ed457610100808354040283529160200191611eff565b820191906000526020600020905b815481529060010190602001808311611ee257829003601f168201915b50505050508152602001600582018054611f1890614687565b80601f0160208091040260200160405190810160405280929190818152602001828054611f4490614687565b8015611f915780601f10611f6657610100808354040283529160200191611f91565b820191906000526020600020905b815481529060010190602001808311611f7457829003601f168201915b50505050508152602001600682018054611faa90614687565b80601f0160208091040260200160405190810160405280929190818152602001828054611fd690614687565b80156120235780601f10611ff857610100808354040283529160200191612023565b820191906000526020600020905b81548152906001019060200180831161200657829003601f168201915b50505050508152505092508180612039906146c5565b925050611cf5565b95945050505050565b6000805460405160e060020a6370a08231028152349291600160a060020a0316906370a082319061207f903090600401614333565b60206040518083038186803b15801561209757600080fd5b505afa1580156120ab573d6000803e3d6000fd5b505050506040513d601f19601f820116820180604052508101906120cf91906141cb565b9050600082116120fd5760405160e560020a62461bcd0281526004016120f49061445c565b60405180910390fd5b808211156121205760405160e560020a62461bcd0281526004016120f490614527565b600054600154600160a060020a039091169063a9059cbb903390612144908661463c565b6040518363ffffffff1660e060020a028152600401612164929190614385565b602060405180830381600087803b15801561217e57600080fd5b505af1158015612192573d6000803e3d6000fd5b505050506040513d601f19601f820116820180604052508101906121b69190613f8b565b507f4e08ba899977cf7d4c2964bce71c6b9a7ef76ee5166a4c1249a1e08016e33ef1826040516121e691906145f8565b60405180910390a15050565b33600090815260056020908152604082208054600181018255908352918190208651612225939190910191870190613e0e565b506040805160e0810182523381524260208083019182526000938301848152606084018881526080850188905260a085018a905260c0850187905260028054600181018255965284517f405787fa12a823e0f2b7631cc41b3ba8828b3321ca811111fa75cd3aa3bb5ace60079097029687018054600160a060020a031916600160a060020a0390921691909117815593517f405787fa12a823e0f2b7631cc41b3ba8828b3321ca811111fa75cd3aa3bb5acf87015590517f405787fa12a823e0f2b7631cc41b3ba8828b3321ca811111fa75cd3aa3bb5ad086015551805193948594612339937f405787fa12a823e0f2b7631cc41b3ba8828b3321ca811111fa75cd3aa3bb5ad19092019290910190613e0e565b5060808201518051612355916004840191602090910190613e0e565b5060a08201518051612371916005840191602090910190613e0e565b5060c0820151805161238d916006840191602090910190613e0e565b505050806007856040516123a191906142ee565b9081526020016040518091039020846040516123bd91906142ee565b908152604080516020928190038301902083518154600160a060020a031916600160a060020a0390911617815583830151600182015590830151600282015560608301518051919261241792600385019290910190613e0e565b5060808201518051612433916004840191602090910190613e0e565b5060a0820151805161244f916005840191602090910190613e0e565b5060c0820151805161246b916006840191602090910190613e0e565b509050508060068660405161248091906142ee565b908152604080516020928190038301902083518154600160a060020a031916600160a060020a039091161781558383015160018201559083015160028201556060830151805191926124da92600385019290910190613e0e565b50608082015180516124f6916004840191602090910190613e0e565b5060a08201518051612512916005840191602090910190613e0e565b5060c0820151805161252e916006840191602090910190613e0e565b5090505060088460405161254291906142ee565b908152604080516020928190038301902080546001808201835560009283529184902085516007909202018054600160a060020a031916600160a060020a0390921691909117815584840151918101919091559083015160028201556060830151805184936125b8926003850192910190613e0e565b50608082015180516125d4916004840191602090910190613e0e565b5060a082015180516125f0916005840191602090910190613e0e565b5060c0820151805161260c916006840191602090910190613e0e565b50505060098360405161261f91906142ee565b908152604080516020928190038301902080546001808201835560009283529184902085516007909202018054600160a060020a031916600160a060020a039092169190911781558484015191810191909155908301516002820155606083015180518493612695926003850192910190613e0e565b50608082015180516126b1916004840191602090910190613e0e565b5060a082015180516126cd916005840191602090910190613e0e565b5060c082015180516126e9916006840191602090910190613e0e565b5050505050505050565b336000818152600560205260408120600201805460ff191660019081179091556003805491820181559091527fc2575a0e9e593c00f959f8c92f12db2869c3395a3b0502d05e2516446f71f85b018054600160a060020a0319169091179055606090565b6000805460405160e060020a6370a08231028152600160a060020a03909116906370a082319061278b903390600401614333565b60206040518083038186803b1580156127a357600080fd5b505afa1580156127b7573d6000803e3d6000fd5b505050506040513d601f19601f820116820180604052508101906127db91906141cb565b905090565b600033905060006006836040516127f791906142ee565b90815260408051918290036020908101832060e0840183528054600160a060020a0316845260018101549184019190915260028101549183019190915260038101805460608401919061284990614687565b80601f016020809104026020016040519081016040528092919081815260200182805461287590614687565b80156128c25780601f10612897576101008083540402835291602001916128c2565b820191906000526020600020905b8154815290600101906020018083116128a557829003601f168201915b505050505081526020016004820180546128db90614687565b80601f016020809104026020016040519081016040528092919081815260200182805461290790614687565b80156129545780601f1061292957610100808354040283529160200191612954565b820191906000526020600020905b81548152906001019060200180831161293757829003601f168201915b5050505050815260200160058201805461296d90614687565b80601f016020809104026020016040519081016040528092919081815260200182805461299990614687565b80156129e65780601f106129bb576101008083540402835291602001916129e6565b820191906000526020600020905b8154815290600101906020018083116129c957829003601f168201915b505050505081526020016006820180546129ff90614687565b80601f0160208091040260200160405190810160405280929190818152602001828054612a2b90614687565b8015612a785780601f10612a4d57610100808354040283529160200191612a78565b820191906000526020600020905b815481529060010190602001808311612a5b57829003601f168201915b50505091909252505081516040805160e0810182526064815260326020820152601991810191909152600c606082015260066080820152600360a0820152600160c082015292935085929091506000612ad0846113d0565b15612ae057505050505050612e7c565b612ae984613494565b15612af957505050505050612e7c565b60078110612b0657612e46565b612b2e868484846007811061104f5760e060020a634e487b7102600052603260045260246000fd5b604051602001612b3d9061430a565b604051602081830303815290604052805190602001208560c00151604051602001612b6891906142ee565b604051602081830303815290604052805190602001201415612b8957612e46565b82955060068560c00151604051612ba091906142ee565b90815260408051918290036020908101832060e0840183528054600160a060020a03168452600181015491840191909152600281015491830191909152600381018054606084019190612bf290614687565b80601f0160208091040260200160405190810160405280929190818152602001828054612c1e90614687565b8015612c6b5780601f10612c4057610100808354040283529160200191612c6b565b820191906000526020600020905b815481529060010190602001808311612c4e57829003601f168201915b50505050508152602001600482018054612c8490614687565b80601f0160208091040260200160405190810160405280929190818152602001828054612cb090614687565b8015612cfd5780601f10612cd257610100808354040283529160200191612cfd565b820191906000526020600020905b815481529060010190602001808311612ce057829003601f168201915b50505050508152602001600582018054612d1690614687565b80601f0160208091040260200160405190810160405280929190818152602001828054612d4290614687565b8015612d8f5780601f10612d6457610100808354040283529160200191612d8f565b820191906000526020600020905b815481529060010190602001808311612d7257829003601f168201915b50505050508152602001600682018054612da890614687565b80601f0160208091040260200160405190810160405280929190818152602001828054612dd490614687565b8015612e215780601f10612df657610100808354040283529160200191612e21565b820191906000526020600020905b815481529060010190602001808311612e0457829003601f168201915b5050505050815250509450846000015192508080612e3e906146c5565b915050612af9565b336000908152600560209081526040822060019081018054918201815583529181902086516126e9939190910191870190613e0e565b50565b60008111612ea25760405160e560020a62461bcd0281526004016120f490614493565b600080546040517fdd62ed3e000000000000000000000000000000000000000000000000000000008152600160a060020a039091169063dd62ed3e90612eee9033903090600401614347565b60206040518083038186803b158015612f0657600080fd5b505afa158015612f1a573d6000803e3d6000fd5b505050506040513d601f19601f82011682018060405250810190612f3e91906141cb565b905081811015612f635760405160e560020a62461bcd0281526004016120f4906144f0565b60005460405160e060020a6323b872dd028152600160a060020a03909116906323b872dd90612f9a90339030908790600401614361565b602060405180830381600087803b158015612fb457600080fd5b505af1158015612fc8573d6000803e3d6000fd5b505050506040513d601f19601f82011682018060405250810190612fec9190613f8b565b5060015433906108fc906130009085614619565b6040518115909202916000818181858888f19350505050158015613028573d6000803e3d6000fd5b507f92f64ca637d023f354075a4be751b169c1a8a9ccb6d33cdd0cb3520543995727826040516121e691906145f8565b6060600060098360405161306c91906142ee565b9081526020016040518091039020805480602002602001604051908101604052809291908181526020016000905b82821015610a0b5760008481526020908190206040805160e081018252600786029092018054600160a060020a031683526001810154938301939093526002830154908201526003820180549192916060840191906130f890614687565b80601f016020809104026020016040519081016040528092919081815260200182805461312490614687565b80156131715780601f1061314657610100808354040283529160200191613171565b820191906000526020600020905b81548152906001019060200180831161315457829003601f168201915b5050505050815260200160048201805461318a90614687565b80601f01602080910402602001604051908101604052809291908181526020018280546131b690614687565b80156132035780601f106131d857610100808354040283529160200191613203565b820191906000526020600020905b8154815290600101906020018083116131e657829003601f168201915b5050505050815260200160058201805461321c90614687565b80601f016020809104026020016040519081016040528092919081815260200182805461324890614687565b80156132955780601f1061326a57610100808354040283529160200191613295565b820191906000526020600020905b81548152906001019060200180831161327857829003601f168201915b505050505081526020016006820180546132ae90614687565b80601f01602080910402602001604051908101604052809291908181526020018280546132da90614687565b80156133275780601f106132fc57610100808354040283529160200191613327565b820191906000526020600020905b81548152906001019060200180831161330a57829003601f168201915b5050505050815250508152602001906001019061309a565b600081116133625760405160e560020a62461bcd0281526004016120f490614493565b60005460405160e060020a6370a082310281528291600160a060020a0316906370a0823190613395908790600401614333565b60206040518083038186803b1580156133ad57600080fd5b505afa1580156133c1573d6000803e3d6000fd5b505050506040513d601f19601f820116820180604052508101906133e591906141cb565b116134055760405160e560020a62461bcd0281526004016120f49061455c565b60005460405160e060020a6323b872dd028152600160a060020a03909116906323b872dd9061343c90869086908690600401614361565b602060405180830381600087803b15801561345657600080fd5b505af115801561346a573d6000803e3d6000fd5b505050506040513d601f19601f8201168201806040525081019061348e9190613f8b565b50505050565b3360009081526005602090815260408083208151815460809481028201850190935260608101838152859491938492849190879085015b828210156135775783829060005260206000200180546134ea90614687565b80601f016020809104026020016040519081016040528092919081815260200182805461351690614687565b80156135635780601f1061353857610100808354040283529160200191613563565b820191906000526020600020905b81548152906001019060200180831161354657829003601f168201915b5050505050815260200190600101906134cb565b50505050815260200160018201805480602002602001604051908101604052809291908181526020016000905b828210156136505783829060005260206000200180546135c390614687565b80601f01602080910402602001604051908101604052809291908181526020018280546135ef90614687565b801561363c5780601f106136115761010080835404028352916020019161363c565b820191906000526020600020905b81548152906001019060200180831161361f57829003601f168201915b5050505050815260200190600101906135a4565b505050908252506002919091015460ff16151560209182015281015190915060005b81518110156116525781818151811061369e5760e060020a634e487b7102600052603260045260246000fd5b60200260200101516040516020016136b691906142ee565b60405160208183030381529060405280519060200120856040516020016136dd91906142ee565b6040516020818303038152906040528051906020012014156137055760019350505050610a14565b8061370f816146c5565b915050613672565b600054600160a060020a031681565b6060600060078560405161373a91906142ee565b90815260200160405180910390208460405161375691906142ee565b90815260408051918290036020908101832060e0840183528054600160a060020a031684526001810154918401919091526002810154918301919091526003810180546060840191906137a890614687565b80601f01602080910402602001604051908101604052809291908181526020018280546137d490614687565b80156138215780601f106137f657610100808354040283529160200191613821565b820191906000526020600020905b81548152906001019060200180831161380457829003601f168201915b5050505050815260200160048201805461383a90614687565b80601f016020809104026020016040519081016040528092919081815260200182805461386690614687565b80156138b35780601f10613888576101008083540402835291602001916138b3565b820191906000526020600020905b81548152906001019060200180831161389657829003601f168201915b505050505081526020016005820180546138cc90614687565b80601f01602080910402602001604051908101604052809291908181526020018280546138f890614687565b80156139455780601f1061391a57610100808354040283529160200191613945565b820191906000526020600020905b81548152906001019060200180831161392857829003601f168201915b5050505050815260200160068201805461395e90614687565b80601f016020809104026020016040519081016040528092919081815260200182805461398a90614687565b80156139d75780601f106139ac576101008083540402835291602001916139d7565b820191906000526020600020905b8154815290600101906020018083116139ba57829003601f168201915b50505050508152505090506000808460ff1667ffffffffffffffff811115613a125760e060020a634e487b7102600052604160045260246000fd5b604051908082528060200260200182016040528015613a4b57816020015b613a38613da5565b815260200190600190039081613a305790505b5090505b8460ff168210613a5e57613d9b565b82818381518110613a825760e060020a634e487b7102600052603260045260246000fd5b6020026020010181905250604051602001613a9c9061430a565b604051602081830303815290604052805190602001208360c00151604051602001613ac791906142ee565b604051602081830303815290604052805190602001201415613ae857613d9b565b60068360c00151604051613afc91906142ee565b90815260408051918290036020908101832060e0840183528054600160a060020a03168452600181015491840191909152600281015491830191909152600381018054606084019190613b4e90614687565b80601f0160208091040260200160405190810160405280929190818152602001828054613b7a90614687565b8015613bc75780601f10613b9c57610100808354040283529160200191613bc7565b820191906000526020600020905b815481529060010190602001808311613baa57829003601f168201915b50505050508152602001600482018054613be090614687565b80601f0160208091040260200160405190810160405280929190818152602001828054613c0c90614687565b8015613c595780601f10613c2e57610100808354040283529160200191613c59565b820191906000526020600020905b815481529060010190602001808311613c3c57829003601f168201915b50505050508152602001600582018054613c7290614687565b80601f0160208091040260200160405190810160405280929190818152602001828054613c9e90614687565b8015613ceb5780601f10613cc057610100808354040283529160200191613ceb565b820191906000526020600020905b815481529060010190602001808311613cce57829003601f168201915b50505050508152602001600682018054613d0490614687565b80601f0160208091040260200160405190810160405280929190818152602001828054613d3090614687565b8015613d7d5780601f10613d5257610100808354040283529160200191613d7d565b820191906000526020600020905b815481529060010190602001808311613d6057829003601f168201915b50505050508152505092508180613d93906146c5565b925050613a4f565b9695505050505050565b6040518060e001604052806000600160a060020a031681526020016000815260200160008152602001606081526020016060815260200160608152602001606081525090565b604051806060016040528060608152602001606081526020016000151581525090565b828054613e1a90614687565b90600052602060002090601f016020900481019282613e3c5760008555613e82565b82601f10613e5557805160ff1916838001178555613e82565b82800160010185558215613e82579182015b82811115613e82578251825591602001919060010190613e67565b50613e8e929150613e92565b5090565b5b80821115613e8e5760008155600101613e93565b8035600160a060020a0381168114610a1457600080fd5b600082601f830112613ece578081fd5b813567ffffffffffffffff80821115613ee957613ee96146f9565b604051601f8301601f191681016020018281118282101715613f0d57613f0d6146f9565b604052828152848301602001861015613f24578384fd5b82602086016020830137918201602001929092529392505050565b803560ff81168114610a1457600080fd5b600080600060608486031215613f64578283fd5b613f6d84613ea7565b9250613f7b60208501613ea7565b9150604084013590509250925092565b600060208284031215613f9c578081fd5b81518015158114613fab578182fd5b9392505050565b600060208284031215613fc3578081fd5b813567ffffffffffffffff811115613fd9578182fd5b613fe584828501613ebe565b949350505050565b60008060408385031215613fff578182fd5b823567ffffffffffffffff80821115614016578384fd5b61402286838701613ebe565b93506020850135915080821115614037578283fd5b5061404485828601613ebe565b9150509250929050565b60008060008060808587031215614063578081fd5b843567ffffffffffffffff8082111561407a578283fd5b61408688838901613ebe565b9550602087013591508082111561409b578283fd5b6140a788838901613ebe565b945060408701359150808211156140bc578283fd5b6140c888838901613ebe565b935060608701359150808211156140dd578283fd5b506140ea87828801613ebe565b91505092959194509250565b60008060006060848603121561410a578283fd5b833567ffffffffffffffff80821115614121578485fd5b61412d87838801613ebe565b94506020860135915080821115614142578384fd5b5061414f86828701613ebe565b92505061415e60408501613f3f565b90509250925092565b60008060408385031215614179578182fd5b823567ffffffffffffffff81111561418f578283fd5b61419b85828601613ebe565b9250506141aa60208401613f3f565b90509250929050565b6000602082840312156141c4578081fd5b5035919050565b6000602082840312156141dc578081fd5b5051919050565b60008282518085526020808601955080818302840101818601855b8481101561422c57601f1986840301895261421a838351614239565b988401989250908301906001016141fe565b5090979650505050505050565b6000815180845261425181602086016020860161465b565b601f01601f19169290920160200192915050565b6000600160a060020a0382511683526020820151602084015260408201516040840152606082015160e060608501526142a160e0850182614239565b9050608083015184820360808601526142ba8282614239565b91505060a083015184820360a08601526142d48282614239565b91505060c083015184820360c08601526120418282614239565b6000825161430081846020870161465b565b9190910192915050565b7f4e6f6e6500000000000000000000000000000000000000000000000000000000815260040190565b600160a060020a0391909116815260200190565b600160a060020a0392831681529116602082015260400190565b600160a060020a039384168152919092166020820152604081019190915260600190565b600160a060020a03929092168252602082015260400190565b6000602080830181845280855180835260408601915060408482028701019250838701855b828110156143f157603f198886030184526143df858351614239565b945092850192908501906001016143c3565b5092979650505050505050565b6000602080830181845280855180835260408601915060408482028701019250838701855b828110156143f157603f1988860301845261443f858351614265565b94509285019290850190600101614423565b901515815260200190565b6020808252601b908201527f596f75206e65656420746f2073656e6420736f6d652045746865720000000000604082015260600190565b60208082526025908201527f596f75206e65656420746f2073656c6c206174206c6561737420736f6d65207460408201527f6f6b656e73000000000000000000000000000000000000000000000000000000606082015260800190565b60208082526019908201527f436865636b2074686520746f6b656e20616c6c6f77616e636500000000000000604082015260600190565b6020808252818101527f4e6f7420656e6f75676820746f6b656e7320696e207468652072657365727665604082015260600190565b6020808252601b908201527f596f75206861766520746f20656e6f7567682062616c616e6365210000000000604082015260600190565b600060208252613fab6020830184614265565b6000602082528251606060208401526145c260808401826141e3565b90506020840151601f198483030160408501526145df82826141e3565b9150506040840151151560608401528091505092915050565b90815260200190565b60008219821115614614576146146146e0565b500190565b6000826146375760e060020a634e487b710281526012600452602481fd5b500490565b6000816000190483118215151615614656576146566146e0565b500290565b60005b8381101561467657818101518382015260200161465e565b8381111561348e5750506000910152565b60028104600182168061469b57607f821691505b602082108114156146bf5760e060020a634e487b7102600052602260045260246000fd5b50919050565b60006000198214156146d9576146d96146e0565b5060010190565b60e060020a634e487b7102600052601160045260246000fd5b60e060020a634e487b7102600052604160045260246000fdfea2646970667358221220a9d229b4ad358f6908584d498119b062a631adca23f1b40bc98a803408c1eb3f64736f6c6343000800003360806040526a52b7d2dcc80cd2e400000060025534801561001f57600080fd5b50600254336000908152602081905260409020556106ae806100426000396000f3fe608060405234801561001057600080fd5b506004361061009f577c0100000000000000000000000000000000000000000000000000000000600035046306fdde0381146100a4578063095ea7b3146100c257806318160ddd146100e257806323b872dd146100f7578063313ce5671461010a57806370a082311461011f57806395d89b4114610132578063a9059cbb1461013a578063dd62ed3e1461014d575b600080fd5b6100ac610160565b6040516100b991906105c6565b60405180910390f35b6100d56100d0366004610592565b610199565b6040516100b991906105bb565b6100ea610203565b6040516100b99190610619565b6100d5610105366004610557565b610209565b610112610357565b6040516100b99190610622565b6100ea61012d36600461050b565b61035c565b6100ac61037b565b6100d5610148366004610592565b6103b4565b6100ea61015b366004610525565b610465565b6040518060400160405280600981526020017f4d75736963436f696e000000000000000000000000000000000000000000000081525081565b336000818152600160209081526040808320600160a060020a038716808552925280832085905551919290917f8c5be1e5ebec7d5bd14f71427d1e84f3dd0314c0f7b2291e5b200ac8c7c3b925906101f2908690610619565b60405180910390a350600192915050565b60025490565b600160a060020a03831660009081526020819052604081205482111561022e57600080fd5b600160a060020a038416600090815260016020908152604080832033845290915290205482111561025e57600080fd5b600160a060020a0384166000908152602081905260409020546102819083610490565b600160a060020a0385166000908152602081815260408083209390935560018152828220338352905220546102b69083610490565b600160a060020a03808616600090815260016020908152604080832033845282528083209490945591861681529081905220546102f390836104c4565b600160a060020a0380851660008181526020819052604090819020939093559151908616907fddf252ad1be2c89b69c2b068fc378daa952ba7f163c4a11628f55a4df523b3ef90610345908690610619565b60405180910390a35060019392505050565b600281565b600160a060020a0381166000908152602081905260409020545b919050565b6040518060400160405280600381526020017f4d5543000000000000000000000000000000000000000000000000000000000081525081565b336000908152602081905260408120548211156103d057600080fd5b336000908152602081905260409020546103ea9083610490565b3360009081526020819052604080822092909255600160a060020a0385168152205461041690836104c4565b600160a060020a0384166000818152602081905260409081902092909255905133907fddf252ad1be2c89b69c2b068fc378daa952ba7f163c4a11628f55a4df523b3ef906101f2908690610619565b600160a060020a03918216600090815260016020908152604080832093909416825291909152205490565b6000828211156104b35760e060020a634e487b7102600052600160045260246000fd5b6104bd8284610648565b9392505050565b6000806104d18385610630565b9050838110156104bd5760e060020a634e487b7102600052600160045260246000fd5b8035600160a060020a038116811461037657600080fd5b60006020828403121561051c578081fd5b6104bd826104f4565b60008060408385031215610537578081fd5b610540836104f4565b915061054e602084016104f4565b90509250929050565b60008060006060848603121561056b578081fd5b610574846104f4565b9250610582602085016104f4565b9150604084013590509250925092565b600080604083850312156105a4578182fd5b6105ad836104f4565b946020939093013593505050565b901515815260200190565b6000602080835283518082850152825b818110156105f2578581018301518582016040015282016105d6565b818111156106035783604083870101525b50601f01601f1916929092016040019392505050565b90815260200190565b60ff91909116815260200190565b600082198211156106435761064361065f565b500190565b60008282101561065a5761065a61065f565b500390565b60e060020a634e487b7102600052601160045260246000fdfea2646970667358221220d5ed501100d12a8a617d167fff523ae4aff9525763fc8664c38d85840a55dd3764736f6c63430008000033",
  "immutableReferences": {},
  "source": "pragma solidity >=0.4.0 <0.9.0;\n// support return struct in functions\npragma experimental ABIEncoderV2;\n\n// import \"../../node_modules/@openzeppelin/contracts/token/ERC20/ERC20.sol\";\n// import \"./MusicCoin.sol\";\nimport \"./MyERC20.sol\";\n\ncontract MusicDApp is DEX {\n    // Music metadata\n    struct Music {\n        // Music information\n        address uploader;\n        uint256 uploadTime;\n        uint256 count;\n        string name;\n        string artist;\n        // Music content\n        string ipfsHash;\n        string coverFrom;\n    }\n\n    struct User {\n        string[] upload_music_list;\n        string[] bought_music_list;\n        bool isValid;\n    }\n\n    // State variables\n    Music[] musics;\n    address[] allusers;\n\n    mapping(uint => User) internal users_a;\n    mapping(address => User) internal users;\n\n    // ipfs hash as index\n    mapping(string => Music) internal music_hash;\n\n    // (name, artist) as primary key\n    mapping(string => mapping(string => Music)) internal music;\n\n    // name as primary key\n    mapping(string => Music[]) internal music_artist_list;\n\n    // artist as primary key\n    mapping(string => Music[]) internal artist_music_list;\n\n    // events firing\n    // event OnMusicUpload(string ipfsHash);\n    // event OnMusicDownload(...)\n\n    // Modifiers\n\n    // Public methods\n\n    // Retrieve basic user information\n    function login() public returns (string[] memory) {\n        users[msg.sender].isValid = true;\n        // if (users[msg.sender].isValid) {\n        //     // User exists\n        //     return getUploadMusicList();\n        // } else {\n        //     // Give 100 token for new user\n        //     uint256 dexBalance = token.balanceOf(address(this));\n        //     require(100 <= dexBalance, \"Not enough tokens in the reserve\");\n        //     token.transfer(msg.sender, 10000);\n        //     users[msg.sender].isValid = true;\n        //     return users[msg.sender].bought_music_list;\n        // }\n        allusers.push(msg.sender);\n        // if (users_a[1].isValid) {\n        //     // User exists\n        //     return getUploadMusicList();\n        // } else {\n        //     // Give 100 token for new user\n        //     uint256 dexBalance = token.balanceOf(address(this));\n        //     require(100 <= dexBalance, \"Not enough tokens in the reserve\");\n        //     token.transfer(msg.sender, 10000);\n        //     users_a[1].isValid = true;\n        //     return users_a[1].bought_music_list;\n        // }\n    }\n\n    function getUploadMusicList() public view returns (string[] memory) {\n        return users[msg.sender].upload_music_list;\n    }\n\n    function getBoughtMusicList() public view returns (string[] memory) {\n        return users[msg.sender].bought_music_list;\n    }\n\n    function getUserInfo() public view returns (User memory) {\n        // return users_a[1];\n        return users[msg.sender];\n    }\n\n    function getUserBalance() public view returns (uint256) {\n        return token.balanceOf(msg.sender);\n    }\n\n    function findUploadMusic(string memory _ipfsHash)\n        public\n        view\n        returns (bool)\n    {\n        User memory user = users[msg.sender];\n        string[] memory upload_list = user.upload_music_list;\n\n        for (uint256 i = 0; i < upload_list.length; i++) {\n            if (\n                keccak256(abi.encodePacked(_ipfsHash)) ==\n                keccak256(abi.encodePacked(upload_list[i]))\n            ) {\n                return true;\n            }\n        }\n\n        return false;\n    }\n\n    function findBoughtMusic(string memory _ipfsHash)\n        public\n        view\n        returns (bool)\n    {\n        User memory user = users[msg.sender];\n        string[] memory bought_list = user.bought_music_list;\n\n        for (uint256 i = 0; i < bought_list.length; i++) {\n            if (\n                keccak256(abi.encodePacked(_ipfsHash)) ==\n                keccak256(abi.encodePacked(bought_list[i]))\n            ) {\n                return true;\n            }\n        }\n\n        return false;\n    }\n\n    function uploadMusic(\n        string memory _ipfsHash,\n        string memory _name,\n        string memory _artist,\n        string memory _coverFrom\n    ) public {\n        users[msg.sender].upload_music_list.push(_ipfsHash);\n\n        Music memory _music =\n            Music(\n                msg.sender,\n                block.timestamp,\n                0,\n                _name,\n                _artist,\n                _ipfsHash,\n                _coverFrom\n            );\n\n        musics.push(_music);\n        music[_name][_artist] = _music;\n        music_hash[_ipfsHash] = _music;\n        music_artist_list[_name].push(_music);\n        artist_music_list[_artist].push(_music);\n    }\n\n    function getMusic(string memory _name, string memory _artist)\n        public\n        view\n        returns (Music memory)\n    {\n        Music memory _music = music[_name][_artist];\n\n        return _music;\n    }\n\n    function getMusicByHash(string memory _ipfsHash)\n        public\n        view\n        returns (Music memory)\n    {\n        Music memory _music = music_hash[_ipfsHash];\n\n        return _music;\n    }\n\n    function getMusicWithCountIncrement(\n        string memory _name,\n        string memory _artist\n    ) public returns (Music memory) {\n        music[_name][_artist].count += 1;\n        Music memory _music = music[_name][_artist];\n\n        return _music;\n    }\n\n    function getMusicArtistList(string memory _name)\n        public\n        view\n        returns (Music[] memory)\n    {\n        Music[] memory _music_list = music_artist_list[_name];\n\n        return _music_list;\n    }\n\n    function getArtistMusicList(string memory _artist)\n        public\n        view\n        returns (Music[] memory)\n    {\n        Music[] memory _artist_music_list = artist_music_list[_artist];\n\n        return _artist_music_list;\n    }\n\n    function buyMusic(string memory _name, string memory _artist) public {\n        address sender = msg.sender;\n        Music memory _music = music[_name][_artist];\n        string memory songHash = _music.ipfsHash;\n        address uploader = _music.uploader;\n        uint8[7] memory chain = [100, 50, 25, 12, 6, 3, 1];\n        uint256 count = 0;\n\n        // TODO: Uploader can listen to what he uploaded\n        if (findUploadMusic(songHash)) return;\n\n        // TODO: Buyer will not pay twice\n        if (findBoughtMusic(songHash)) return;\n        // transfer token to uploader at the beginning of the chain\n\n        while (true) {\n            // The depth excee the limit\n            if (count >= 7) {\n                break;\n            }\n\n            transferToken(sender, uploader, chain[count]);\n            // hit the end of the chain\n            if (\n                keccak256(abi.encodePacked((_music.coverFrom))) ==\n                keccak256(abi.encodePacked((\"None\")))\n            ) {\n                break;\n            }\n\n            sender = uploader;\n            _music = music_hash[_music.coverFrom];\n            uploader = _music.uploader;\n\n            count++;\n        }\n\n        // add music to listener list\n        users[msg.sender].bought_music_list.push(songHash);\n    }\n\n    function buyMusicByHash(string memory _ipfsHash) public {\n        address sender = msg.sender;\n        Music memory _music = music_hash[_ipfsHash];\n        string memory songHash = _ipfsHash;\n        address uploader = _music.uploader;\n        uint8[7] memory chain = [100, 50, 25, 12, 6, 3, 1];\n        uint256 count = 0;\n\n        // TODO: Uploader can listen to what he uploaded\n        if (findUploadMusic(songHash)) return;\n\n        // TODO: Buyer will not pay twice\n        if (findBoughtMusic(songHash)) return;\n\n        while (true) {\n            // The depth excee the limit\n            if (count >= 7) {\n                break;\n            }\n\n            transferToken(sender, uploader, chain[count]);\n            // hit the end of the chain\n            if (\n                keccak256(abi.encodePacked((_music.coverFrom))) ==\n                keccak256(abi.encodePacked((\"None\")))\n            ) {\n                break;\n            }\n\n            sender = uploader;\n            _music = music_hash[_music.coverFrom];\n            uploader = _music.uploader;\n\n            count++;\n        }\n\n        // add music to listener list\n        users[msg.sender].bought_music_list.push(songHash);\n    }\n\n    function getMusicChain(\n        string memory _name,\n        string memory _artist,\n        uint8 depth\n    ) public view returns (Music[] memory) {\n        Music memory _music = music[_name][_artist];\n        uint256 count = 0;\n        Music[] memory music_chain = new Music[](depth);\n\n        // transfer token to uploader at the beginning of the chain\n\n        while (true) {\n            // The depth excee the limit\n            if (count >= depth) {\n                break;\n            }\n            music_chain[count] = _music;\n            // hit the end of the chain\n            if (\n                keccak256(abi.encodePacked((_music.coverFrom))) ==\n                keccak256(abi.encodePacked((\"None\")))\n            ) {\n                break;\n            }\n\n            _music = music_hash[_music.coverFrom];\n\n            count++;\n        }\n\n        return music_chain;\n    }\n\n    function getMusicChainByHash(string memory _ipfsHash, uint8 depth)\n        public\n        view\n        returns (Music[] memory)\n    {\n        Music memory _music = music_hash[_ipfsHash];\n        uint256 count = 0;\n        Music[] memory music_chain = new Music[](depth);\n\n        while (true) {\n            // The depth excee the limit\n            if (count >= depth) {\n                break;\n            }\n            music_chain[count] = _music;\n            // hit the end of the chain\n            if (\n                keccak256(abi.encodePacked((_music.coverFrom))) ==\n                keccak256(abi.encodePacked((\"None\")))\n            ) {\n                break;\n            }\n\n            _music = music_hash[_music.coverFrom];\n\n            count++;\n        }\n\n        return music_chain;\n    }\n\n    // Private methods\n}\n",
  "sourcePath": "/Users/systemato/dev/nmlab-final/music-dapp/react/src/contracts/MusicDApp.sol",
  "compiler": {
    "name": "solc",
    "version": "0.8.0+commit.c7dfd78e.Emscripten.clang"
  },
  "schemaVersion": "3.4.0",
  "updatedAt": "2021-06-07T06:40:59.146Z",
  "networkType": "ethereum",
  "devdoc": {
    "kind": "dev",
    "methods": {},
    "version": 1
  },
  "userdoc": {
    "kind": "user",
    "methods": {},
    "version": 1
  }
}