{
  "contractName": "MusicDApp",
  "abi": [
    {
      "anonymous": false,
      "inputs": [
        {
          "indexed": false,
          "internalType": "uint256",
          "name": "amount",
          "type": "uint256"
        }
      ],
      "name": "Bought",
      "type": "event"
    },
    {
      "anonymous": false,
      "inputs": [
        {
          "indexed": false,
          "internalType": "uint256",
          "name": "amount",
          "type": "uint256"
        }
      ],
      "name": "Sold",
      "type": "event"
    },
    {
      "inputs": [],
      "name": "buy",
      "outputs": [],
      "stateMutability": "payable",
      "type": "function",
      "payable": true
    },
    {
      "inputs": [],
      "name": "exchange_rate",
      "outputs": [
        {
          "internalType": "uint256",
          "name": "",
          "type": "uint256"
        }
      ],
      "stateMutability": "view",
      "type": "function",
      "constant": true
    },
    {
      "inputs": [],
      "name": "getContractAddress",
      "outputs": [
        {
          "internalType": "address",
          "name": "",
          "type": "address"
        }
      ],
      "stateMutability": "view",
      "type": "function",
      "constant": true
    },
    {
      "inputs": [],
      "name": "getPoolEtherBalance",
      "outputs": [
        {
          "internalType": "uint256",
          "name": "",
          "type": "uint256"
        }
      ],
      "stateMutability": "view",
      "type": "function",
      "constant": true
    },
    {
      "inputs": [],
      "name": "getPoolTokenBalance",
      "outputs": [
        {
          "internalType": "uint256",
          "name": "",
          "type": "uint256"
        }
      ],
      "stateMutability": "view",
      "type": "function",
      "constant": true
    },
    {
      "inputs": [],
      "name": "getTokenSupply",
      "outputs": [
        {
          "internalType": "uint256",
          "name": "",
          "type": "uint256"
        }
      ],
      "stateMutability": "view",
      "type": "function",
      "constant": true
    },
    {
      "inputs": [],
      "name": "register",
      "outputs": [
        {
          "internalType": "bool",
          "name": "",
          "type": "bool"
        }
      ],
      "stateMutability": "nonpayable",
      "type": "function"
    },
    {
      "inputs": [
        {
          "internalType": "uint256",
          "name": "amount",
          "type": "uint256"
        }
      ],
      "name": "sell",
      "outputs": [],
      "stateMutability": "nonpayable",
      "type": "function"
    },
    {
      "inputs": [],
      "name": "token",
      "outputs": [
        {
          "internalType": "contract TokenPool",
          "name": "",
          "type": "address"
        }
      ],
      "stateMutability": "view",
      "type": "function",
      "constant": true
    },
    {
      "inputs": [
        {
          "internalType": "address",
          "name": "receiver",
          "type": "address"
        },
        {
          "internalType": "uint256",
          "name": "amount",
          "type": "uint256"
        }
      ],
      "name": "transferToken",
      "outputs": [],
      "stateMutability": "nonpayable",
      "type": "function"
    },
    {
      "inputs": [],
      "name": "userExists",
      "outputs": [
        {
          "internalType": "bool",
          "name": "",
          "type": "bool"
        }
      ],
      "stateMutability": "view",
      "type": "function",
      "constant": true
    },
    {
      "inputs": [],
      "name": "getUserInfo",
      "outputs": [
        {
          "components": [
            {
              "internalType": "string[]",
              "name": "upload_music_list",
              "type": "string[]"
            },
            {
              "internalType": "string[]",
              "name": "bought_music_list",
              "type": "string[]"
            },
            {
              "internalType": "bool",
              "name": "isValid",
              "type": "bool"
            }
          ],
          "internalType": "struct MusicDApp.User",
          "name": "",
          "type": "tuple"
        }
      ],
      "stateMutability": "view",
      "type": "function",
      "constant": true
    },
    {
      "inputs": [],
      "name": "getUserBalance",
      "outputs": [
        {
          "internalType": "uint256",
          "name": "",
          "type": "uint256"
        }
      ],
      "stateMutability": "view",
      "type": "function",
      "constant": true
    },
    {
      "inputs": [],
      "name": "registerUser",
      "outputs": [
        {
          "components": [
            {
              "internalType": "string[]",
              "name": "upload_music_list",
              "type": "string[]"
            },
            {
              "internalType": "string[]",
              "name": "bought_music_list",
              "type": "string[]"
            },
            {
              "internalType": "bool",
              "name": "isValid",
              "type": "bool"
            }
          ],
          "internalType": "struct MusicDApp.User",
          "name": "",
          "type": "tuple"
        }
      ],
      "stateMutability": "nonpayable",
      "type": "function"
    },
    {
      "inputs": [],
      "name": "getUploadMusicList",
      "outputs": [
        {
          "internalType": "string[]",
          "name": "",
          "type": "string[]"
        }
      ],
      "stateMutability": "view",
      "type": "function",
      "constant": true
    },
    {
      "inputs": [],
      "name": "getBoughtMusicList",
      "outputs": [
        {
          "internalType": "string[]",
          "name": "",
          "type": "string[]"
        }
      ],
      "stateMutability": "view",
      "type": "function",
      "constant": true
    },
    {
      "inputs": [
        {
          "internalType": "string",
          "name": "_ipfsHash",
          "type": "string"
        }
      ],
      "name": "findUploadMusic",
      "outputs": [
        {
          "internalType": "bool",
          "name": "",
          "type": "bool"
        }
      ],
      "stateMutability": "view",
      "type": "function",
      "constant": true
    },
    {
      "inputs": [
        {
          "internalType": "string",
          "name": "_ipfsHash",
          "type": "string"
        }
      ],
      "name": "findBoughtMusic",
      "outputs": [
        {
          "internalType": "bool",
          "name": "",
          "type": "bool"
        }
      ],
      "stateMutability": "view",
      "type": "function",
      "constant": true
    },
    {
      "inputs": [
        {
          "internalType": "string",
          "name": "_ipfsHash",
          "type": "string"
        },
        {
          "internalType": "string",
          "name": "_name",
          "type": "string"
        },
        {
          "internalType": "string",
          "name": "_artist",
          "type": "string"
        },
        {
          "internalType": "string",
          "name": "_coverFrom",
          "type": "string"
        }
      ],
      "name": "uploadMusic",
      "outputs": [],
      "stateMutability": "nonpayable",
      "type": "function"
    },
    {
      "inputs": [
        {
          "internalType": "string",
          "name": "_name",
          "type": "string"
        },
        {
          "internalType": "string",
          "name": "_artist",
          "type": "string"
        }
      ],
      "name": "getMusic",
      "outputs": [
        {
          "components": [
            {
              "internalType": "address",
              "name": "uploader",
              "type": "address"
            },
            {
              "internalType": "uint256",
              "name": "uploadTime",
              "type": "uint256"
            },
            {
              "internalType": "uint256",
              "name": "count",
              "type": "uint256"
            },
            {
              "internalType": "string",
              "name": "name",
              "type": "string"
            },
            {
              "internalType": "string",
              "name": "artist",
              "type": "string"
            },
            {
              "internalType": "string",
              "name": "ipfsHash",
              "type": "string"
            },
            {
              "internalType": "string",
              "name": "coverFrom",
              "type": "string"
            }
          ],
          "internalType": "struct MusicDApp.Music",
          "name": "",
          "type": "tuple"
        }
      ],
      "stateMutability": "view",
      "type": "function",
      "constant": true
    },
    {
      "inputs": [
        {
          "internalType": "string",
          "name": "_name",
          "type": "string"
        },
        {
          "internalType": "string",
          "name": "_artist",
          "type": "string"
        }
      ],
      "name": "searchMusic",
      "outputs": [
        {
          "components": [
            {
              "internalType": "address",
              "name": "uploader",
              "type": "address"
            },
            {
              "internalType": "uint256",
              "name": "uploadTime",
              "type": "uint256"
            },
            {
              "internalType": "uint256",
              "name": "count",
              "type": "uint256"
            },
            {
              "internalType": "string",
              "name": "name",
              "type": "string"
            },
            {
              "internalType": "string",
              "name": "artist",
              "type": "string"
            },
            {
              "internalType": "string",
              "name": "ipfsHash",
              "type": "string"
            },
            {
              "internalType": "string",
              "name": "coverFrom",
              "type": "string"
            }
          ],
          "internalType": "struct MusicDApp.Music[]",
          "name": "",
          "type": "tuple[]"
        }
      ],
      "stateMutability": "view",
      "type": "function",
      "constant": true
    },
    {
      "inputs": [
        {
          "internalType": "string",
          "name": "_ipfsHash",
          "type": "string"
        }
      ],
      "name": "getMusicByHash",
      "outputs": [
        {
          "components": [
            {
              "internalType": "address",
              "name": "uploader",
              "type": "address"
            },
            {
              "internalType": "uint256",
              "name": "uploadTime",
              "type": "uint256"
            },
            {
              "internalType": "uint256",
              "name": "count",
              "type": "uint256"
            },
            {
              "internalType": "string",
              "name": "name",
              "type": "string"
            },
            {
              "internalType": "string",
              "name": "artist",
              "type": "string"
            },
            {
              "internalType": "string",
              "name": "ipfsHash",
              "type": "string"
            },
            {
              "internalType": "string",
              "name": "coverFrom",
              "type": "string"
            }
          ],
          "internalType": "struct MusicDApp.Music",
          "name": "",
          "type": "tuple"
        }
      ],
      "stateMutability": "view",
      "type": "function",
      "constant": true
    },
    {
      "inputs": [
        {
          "internalType": "string",
          "name": "_name",
          "type": "string"
        }
      ],
      "name": "getMusicArtistList",
      "outputs": [
        {
          "components": [
            {
              "internalType": "address",
              "name": "uploader",
              "type": "address"
            },
            {
              "internalType": "uint256",
              "name": "uploadTime",
              "type": "uint256"
            },
            {
              "internalType": "uint256",
              "name": "count",
              "type": "uint256"
            },
            {
              "internalType": "string",
              "name": "name",
              "type": "string"
            },
            {
              "internalType": "string",
              "name": "artist",
              "type": "string"
            },
            {
              "internalType": "string",
              "name": "ipfsHash",
              "type": "string"
            },
            {
              "internalType": "string",
              "name": "coverFrom",
              "type": "string"
            }
          ],
          "internalType": "struct MusicDApp.Music[]",
          "name": "",
          "type": "tuple[]"
        }
      ],
      "stateMutability": "view",
      "type": "function",
      "constant": true
    },
    {
      "inputs": [
        {
          "internalType": "string",
          "name": "_artist",
          "type": "string"
        }
      ],
      "name": "getArtistMusicList",
      "outputs": [
        {
          "components": [
            {
              "internalType": "address",
              "name": "uploader",
              "type": "address"
            },
            {
              "internalType": "uint256",
              "name": "uploadTime",
              "type": "uint256"
            },
            {
              "internalType": "uint256",
              "name": "count",
              "type": "uint256"
            },
            {
              "internalType": "string",
              "name": "name",
              "type": "string"
            },
            {
              "internalType": "string",
              "name": "artist",
              "type": "string"
            },
            {
              "internalType": "string",
              "name": "ipfsHash",
              "type": "string"
            },
            {
              "internalType": "string",
              "name": "coverFrom",
              "type": "string"
            }
          ],
          "internalType": "struct MusicDApp.Music[]",
          "name": "",
          "type": "tuple[]"
        }
      ],
      "stateMutability": "view",
      "type": "function",
      "constant": true
    },
    {
      "inputs": [
        {
          "internalType": "string",
          "name": "_ipfsHash",
          "type": "string"
        }
      ],
      "name": "buyMusicByHash",
      "outputs": [],
      "stateMutability": "nonpayable",
      "type": "function"
    },
    {
      "inputs": [
        {
          "internalType": "string",
          "name": "_name",
          "type": "string"
        },
        {
          "internalType": "string",
          "name": "_artist",
          "type": "string"
        },
        {
          "internalType": "uint8",
          "name": "depth",
          "type": "uint8"
        }
      ],
      "name": "getMusicChain",
      "outputs": [
        {
          "components": [
            {
              "internalType": "address",
              "name": "uploader",
              "type": "address"
            },
            {
              "internalType": "uint256",
              "name": "uploadTime",
              "type": "uint256"
            },
            {
              "internalType": "uint256",
              "name": "count",
              "type": "uint256"
            },
            {
              "internalType": "string",
              "name": "name",
              "type": "string"
            },
            {
              "internalType": "string",
              "name": "artist",
              "type": "string"
            },
            {
              "internalType": "string",
              "name": "ipfsHash",
              "type": "string"
            },
            {
              "internalType": "string",
              "name": "coverFrom",
              "type": "string"
            }
          ],
          "internalType": "struct MusicDApp.Music[]",
          "name": "",
          "type": "tuple[]"
        }
      ],
      "stateMutability": "view",
      "type": "function",
      "constant": true
    },
    {
      "inputs": [
        {
          "internalType": "string",
          "name": "_ipfsHash",
          "type": "string"
        },
        {
          "internalType": "uint8",
          "name": "depth",
          "type": "uint8"
        }
      ],
      "name": "getMusicChainByHash",
      "outputs": [
        {
          "components": [
            {
              "internalType": "address",
              "name": "uploader",
              "type": "address"
            },
            {
              "internalType": "uint256",
              "name": "uploadTime",
              "type": "uint256"
            },
            {
              "internalType": "uint256",
              "name": "count",
              "type": "uint256"
            },
            {
              "internalType": "string",
              "name": "name",
              "type": "string"
            },
            {
              "internalType": "string",
              "name": "artist",
              "type": "string"
            },
            {
              "internalType": "string",
              "name": "ipfsHash",
              "type": "string"
            },
            {
              "internalType": "string",
              "name": "coverFrom",
              "type": "string"
            }
          ],
          "internalType": "struct MusicDApp.Music[]",
          "name": "",
          "type": "tuple[]"
        }
      ],
      "stateMutability": "view",
      "type": "function",
      "constant": true
    },
    {
      "inputs": [
        {
          "internalType": "string",
          "name": "_name",
          "type": "string"
        },
        {
          "internalType": "uint256",
          "name": "_index",
          "type": "uint256"
        }
      ],
      "name": "getRelevantMusicNameList",
      "outputs": [
        {
          "components": [
            {
              "internalType": "address",
              "name": "uploader",
              "type": "address"
            },
            {
              "internalType": "uint256",
              "name": "uploadTime",
              "type": "uint256"
            },
            {
              "internalType": "uint256",
              "name": "count",
              "type": "uint256"
            },
            {
              "internalType": "string",
              "name": "name",
              "type": "string"
            },
            {
              "internalType": "string",
              "name": "artist",
              "type": "string"
            },
            {
              "internalType": "string",
              "name": "ipfsHash",
              "type": "string"
            },
            {
              "internalType": "string",
              "name": "coverFrom",
              "type": "string"
            }
          ],
          "internalType": "struct MusicDApp.Music[10]",
          "name": "",
          "type": "tuple[10]"
        },
        {
          "internalType": "uint256",
          "name": "",
          "type": "uint256"
        },
        {
          "internalType": "bool",
          "name": "",
          "type": "bool"
        }
      ],
      "stateMutability": "view",
      "type": "function",
      "constant": true
    }
  ],
  "bytecode": "0x6080604052655af3107a40006001553480156200001b57600080fd5b506040516200002a906200006e565b604051809103906000f08015801562000047573d6000803e3d6000fd5b5060008054600160a060020a031916600160a060020a03929092169190911790556200007c565b6104eb806200525f83390190565b6151d3806200008c6000396000f3fe60806040526004361061017b5760003560e060020a900480638aa4342c116100d0578063e41bfe6e1161007e578063e41bfe6e14610404578063e4849b3214610424578063e90fd8e714610444578063eae6d4da14610464578063f7f6bd7f14610479578063fc0c546a14610499578063fdf74325146104ae5761017b565b80638aa4342c1461035d5780639146436b1461037257806393154af714610392578063a6f2ae3a146103b2578063ad974f4c146103ba578063b1ddeab0146103cf578063b7013dc1146103ef5761017b565b806346c641f31161012d57806346c641f3146102825780634d3820eb146102975780635d8d1585146102b957806360b377b8146102ce5780637176285a146102f05780637fb954481461031057806380f3de651461033d5761017b565b80631072cbea14610180578063171ef0b2146101a25780631aa3a008146101cd578063209af2dd146101ef578063245fcb921461021c57806329c080261461023157806332a2c5d014610260575b600080fd5b34801561018c57600080fd5b506101a061019b3660046148da565b6104ce565b005b3480156101ae57600080fd5b506101b7610588565b6040516101c4919061506c565b60405180910390f35b3480156101d957600080fd5b506101e261058e565b6040516101c49190614e68565b3480156101fb57600080fd5b5061020f61020a366004614937565b6106d1565b6040516101c49190614e15565b34801561022857600080fd5b506101b76109c6565b34801561023d57600080fd5b5061025161024c366004614aec565b6109cb565b6040516101c493929190614db6565b34801561026c57600080fd5b50610275610d47565b6040516101c49190614d1e565b34801561028e57600080fd5b506101b7610d4b565b3480156102a357600080fd5b506102ac610dd4565b6040516101c4919061501a565b3480156102c557600080fd5b506102ac61128a565b3480156102da57600080fd5b506102e361146c565b6040516101c49190614d56565b3480156102fc57600080fd5b5061020f61030b366004614972565b611550565b34801561031c57600080fd5b5061033061032b366004614972565b611a04565b6040516101c49190615007565b34801561034957600080fd5b506101e2610358366004614937565b611cce565b34801561036957600080fd5b506102e3611f5b565b34801561037e57600080fd5b5061033061038d366004614937565b612039565b34801561039e57600080fd5b5061020f6103ad366004614b2f565b6122e6565b6101a0612948565b3480156103c657600080fd5b506101b7612aea565b3480156103db57600080fd5b506101a06103ea3660046149d3565b612b3c565b3480156103fb57600080fd5b506101b761303c565b34801561041057600080fd5b506101a061041f366004614937565b613070565b34801561043057600080fd5b506101a061043f366004614b7b565b613777565b34801561045057600080fd5b5061020f61045f366004614937565b6138f1565b34801561047057600080fd5b506101e2613bd8565b34801561048557600080fd5b506101e2610494366004614937565b613bf1565b3480156104a557600080fd5b50610275613e74565b3480156104ba57600080fd5b5061020f6104c9366004614a7b565b613e83565b600081116104fa5760405160e560020a62461bcd0281526004016104f190614f07565b60405180910390fd5b60005460405160e060020a6323b872dd028152600160a060020a03909116906323b872dd9061053190339086908690600401614d32565b602060405180830381600087803b15801561054b57600080fd5b505af115801561055f573d6000803e3d6000fd5b505050506040513d601f19601f820116820180604052508101906105839190614910565b505050565b60015481565b6000805460405160e060020a6370a08231028152612710918391600160a060020a03909116906370a08231906105c8903090600401614d1e565b60206040518083038186803b1580156105e057600080fd5b505afa1580156105f4573d6000803e3d6000fd5b505050506040513d601f19601f820116820180604052508101906106189190614b93565b90508082111561063d5760405160e560020a62461bcd0281526004016104f190614fd2565b60005460405160e060020a6323b872dd028152600160a060020a03909116906323b872dd9061067490309033908790600401614d32565b602060405180830381600087803b15801561068e57600080fd5b505af11580156106a2573d6000803e3d6000fd5b505050506040513d601f19601f820116820180604052508101906106c69190614910565b506001925050505b90565b606060006006836040516106e59190614cd9565b9081526020016040518091039020805480602002602001604051908101604052809291908181526020016000905b828210156109b85760008481526020908190206040805160e081018252600786029092018054600160a060020a0316835260018101549383019390935260028301549082015260038201805491929160608401919061077190615112565b80601f016020809104026020016040519081016040528092919081815260200182805461079d90615112565b80156107ea5780601f106107bf576101008083540402835291602001916107ea565b820191906000526020600020905b8154815290600101906020018083116107cd57829003601f168201915b5050505050815260200160048201805461080390615112565b80601f016020809104026020016040519081016040528092919081815260200182805461082f90615112565b801561087c5780601f106108515761010080835404028352916020019161087c565b820191906000526020600020905b81548152906001019060200180831161085f57829003601f168201915b5050505050815260200160058201805461089590615112565b80601f01602080910402602001604051908101604052809291908181526020018280546108c190615112565b801561090e5780601f106108e35761010080835404028352916020019161090e565b820191906000526020600020905b8154815290600101906020018083116108f157829003601f168201915b5050505050815260200160068201805461092790615112565b80601f016020809104026020016040519081016040528092919081815260200182805461095390615112565b80156109a05780601f10610975576101008083540402835291602001916109a0565b820191906000526020600020905b81548152906001019060200180831161098357829003601f168201915b50505050508152505081526020019060010190610713565b50929450505050505b919050565b303190565b6109d3614718565b6000806109de614718565b6000806109e9614746565b875b600254811015610d2857600a8410610a0257610d28565b60028181548110610a265760e060020a634e487b7102600052603260045260246000fd5b90600052602060002090600702016040518060e00160405290816000820160009054906101000a9004600160a060020a0316600160a060020a0316600160a060020a031681526020016001820154815260200160028201548152602001600382018054610a9290615112565b80601f0160208091040260200160405190810160405280929190818152602001828054610abe90615112565b8015610b0b5780601f10610ae057610100808354040283529160200191610b0b565b820191906000526020600020905b815481529060010190602001808311610aee57829003601f168201915b50505050508152602001600482018054610b2490615112565b80601f0160208091040260200160405190810160405280929190818152602001828054610b5090615112565b8015610b9d5780601f10610b7257610100808354040283529160200191610b9d565b820191906000526020600020905b815481529060010190602001808311610b8057829003601f168201915b50505050508152602001600582018054610bb690615112565b80601f0160208091040260200160405190810160405280929190818152602001828054610be290615112565b8015610c2f5780601f10610c0457610100808354040283529160200191610c2f565b820191906000526020600020905b815481529060010190602001808311610c1257829003601f168201915b50505050508152602001600682018054610c4890615112565b80601f0160208091040260200160405190810160405280929190818152602001828054610c7490615112565b8015610cc15780601f10610c9657610100808354040283529160200191610cc1565b820191906000526020600020905b815481529060010190602001808311610ca457829003601f168201915b5050505050815250509150610cda8a8360600151614502565b15610d1657818585600a8110610d035760e060020a634e487b7102600052603260045260246000fd5b602002015283610d1281615150565b9450505b80610d2081615150565b9150506109eb565b50600254831415610d3857600191505b50919450925090509250925092565b3090565b6000805460405160e060020a6370a08231028152600160a060020a03909116906370a0823190610d7f903090600401614d1e565b60206040518083038186803b158015610d9757600080fd5b505afa158015610dab573d6000803e3d6000fd5b505050506040513d601f19601f82011682018060405250810190610dcf9190614b93565b905090565b610ddc61478c565b610de4613bd8565b6110ae576000805460405160e060020a6370a08231028152600160a060020a03909116906370a0823190610e1c903090600401614d1e565b60206040518083038186803b158015610e3457600080fd5b505afa158015610e48573d6000803e3d6000fd5b505050506040513d601f19601f82011682018060405250810190610e6c9190614b93565b9050806127101115610e935760405160e560020a62461bcd0281526004016104f190614fd2565b6000610e9d61058e565b905080610ebf5760405160e560020a62461bcd0281526004016104f190614f64565b33600090815260036020908152604080832060028101805460ff191660011790558151815460809481028201850190935260608101838152909391928492849190879085015b82821015610fb1578382906000526020600020018054610f2490615112565b80601f0160208091040260200160405190810160405280929190818152602001828054610f5090615112565b8015610f9d5780601f10610f7257610100808354040283529160200191610f9d565b820191906000526020600020905b815481529060010190602001808311610f8057829003601f168201915b505050505081526020019060010190610f05565b50505050815260200160018201805480602002602001604051908101604052809291908181526020016000905b8282101561108a578382906000526020600020018054610ffd90615112565b80601f016020809104026020016040519081016040528092919081815260200182805461102990615112565b80156110765780601f1061104b57610100808354040283529160200191611076565b820191906000526020600020905b81548152906001019060200180831161105957829003601f168201915b505050505081526020019060010190610fde565b505050908252506002919091015460ff16151560209091015293506106ce92505050565b3360009081526003602090815260408083208151815460809481028201850190935260608101838152909491938593919285929185015b8282101561119157838290600052602060002001805461110490615112565b80601f016020809104026020016040519081016040528092919081815260200182805461113090615112565b801561117d5780601f106111525761010080835404028352916020019161117d565b820191906000526020600020905b81548152906001019060200180831161116057829003601f168201915b5050505050815260200190600101906110e5565b50505050815260200160018201805480602002602001604051908101604052809291908181526020016000905b8282101561126a5783829060005260206000200180546111dd90615112565b80601f016020809104026020016040519081016040528092919081815260200182805461120990615112565b80156112565780601f1061122b57610100808354040283529160200191611256565b820191906000526020600020905b81548152906001019060200180831161123957829003601f168201915b5050505050815260200190600101906111be565b505050908252506002919091015460ff16151560209091015290506106ce565b61129261478c565b3360009081526003602090815260408083208151815460809481028201850190935260608101838152909491938593919285929185015b828210156113755783829060005260206000200180546112e890615112565b80601f016020809104026020016040519081016040528092919081815260200182805461131490615112565b80156113615780601f1061133657610100808354040283529160200191611361565b820191906000526020600020905b81548152906001019060200180831161134457829003601f168201915b5050505050815260200190600101906112c9565b50505050815260200160018201805480602002602001604051908101604052809291908181526020016000905b8282101561144e5783829060005260206000200180546113c190615112565b80601f01602080910402602001604051908101604052809291908181526020018280546113ed90615112565b801561143a5780601f1061140f5761010080835404028352916020019161143a565b820191906000526020600020905b81548152906001019060200180831161141d57829003601f168201915b5050505050815260200190600101906113a2565b505050908252506002919091015460ff161515602090910152905090565b336000908152600360209081526040808320805482518185028101850190935280835260609492939192909184015b828210156115475783829060005260206000200180546114ba90615112565b80601f01602080910402602001604051908101604052809291908181526020018280546114e690615112565b80156115335780601f1061150857610100808354040283529160200191611533565b820191906000526020600020905b81548152906001019060200180831161151657829003601f168201915b50505050508152602001906001019061149b565b50505050905090565b60025460609060009067ffffffffffffffff8111156115825760e060020a634e487b7102600052604160045260246000fd5b6040519080825280602002602001820160405280156115bb57816020015b6115a8614746565b8152602001906001900390816115a05790505b5090506000805b6002548110156119f85761169386600283815481106115f45760e060020a634e487b7102600052603260045260246000fd5b9060005260206000209060070201600301805461161090615112565b80601f016020809104026020016040519081016040528092919081815260200182805461163c90615112565b80156116895780601f1061165e57610100808354040283529160200191611689565b820191906000526020600020905b81548152906001019060200180831161166c57829003601f168201915b5050505050614502565b806116dd57506116dd85600283815481106116c15760e060020a634e487b7102600052603260045260246000fd5b9060005260206000209060070201600401805461161090615112565b156119e657600281815481106117065760e060020a634e487b7102600052603260045260246000fd5b90600052602060002090600702016040518060e00160405290816000820160009054906101000a9004600160a060020a0316600160a060020a0316600160a060020a03168152602001600182015481526020016002820154815260200160038201805461177290615112565b80601f016020809104026020016040519081016040528092919081815260200182805461179e90615112565b80156117eb5780601f106117c0576101008083540402835291602001916117eb565b820191906000526020600020905b8154815290600101906020018083116117ce57829003601f168201915b5050505050815260200160048201805461180490615112565b80601f016020809104026020016040519081016040528092919081815260200182805461183090615112565b801561187d5780601f106118525761010080835404028352916020019161187d565b820191906000526020600020905b81548152906001019060200180831161186057829003601f168201915b5050505050815260200160058201805461189690615112565b80601f01602080910402602001604051908101604052809291908181526020018280546118c290615112565b801561190f5780601f106118e45761010080835404028352916020019161190f565b820191906000526020600020905b8154815290600101906020018083116118f257829003601f168201915b5050505050815260200160068201805461192890615112565b80601f016020809104026020016040519081016040528092919081815260200182805461195490615112565b80156119a15780601f10611976576101008083540402835291602001916119a1565b820191906000526020600020905b81548152906001019060200180831161198457829003601f168201915b5050505050815250508383815181106119cd5760e060020a634e487b7102600052603260045260246000fd5b60209081029190910101526119e3816001615075565b90505b806119f081615150565b9150506115c2565b50909150505b92915050565b611a0c614746565b6000600584604051611a1e9190614cd9565b908152602001604051809103902083604051611a3a9190614cd9565b90815260408051918290036020908101832060e0840183528054600160a060020a03168452600181015491840191909152600281015491830191909152600381018054606084019190611a8c90615112565b80601f0160208091040260200160405190810160405280929190818152602001828054611ab890615112565b8015611b055780601f10611ada57610100808354040283529160200191611b05565b820191906000526020600020905b815481529060010190602001808311611ae857829003601f168201915b50505050508152602001600482018054611b1e90615112565b80601f0160208091040260200160405190810160405280929190818152602001828054611b4a90615112565b8015611b975780601f10611b6c57610100808354040283529160200191611b97565b820191906000526020600020905b815481529060010190602001808311611b7a57829003601f168201915b50505050508152602001600582018054611bb090615112565b80601f0160208091040260200160405190810160405280929190818152602001828054611bdc90615112565b8015611c295780601f10611bfe57610100808354040283529160200191611c29565b820191906000526020600020905b815481529060010190602001808311611c0c57829003601f168201915b50505050508152602001600682018054611c4290615112565b80601f0160208091040260200160405190810160405280929190818152602001828054611c6e90615112565b8015611cbb5780601f10611c9057610100808354040283529160200191611cbb565b820191906000526020600020905b815481529060010190602001808311611c9e57829003601f168201915b5050509190925250919695505050505050565b3360009081526003602090815260408083208151815460809481028201850190935260608101838152859491938492849190879085015b82821015611db1578382906000526020600020018054611d2490615112565b80601f0160208091040260200160405190810160405280929190818152602001828054611d5090615112565b8015611d9d5780601f10611d7257610100808354040283529160200191611d9d565b820191906000526020600020905b815481529060010190602001808311611d8057829003601f168201915b505050505081526020019060010190611d05565b50505050815260200160018201805480602002602001604051908101604052809291908181526020016000905b82821015611e8a578382906000526020600020018054611dfd90615112565b80601f0160208091040260200160405190810160405280929190818152602001828054611e2990615112565b8015611e765780601f10611e4b57610100808354040283529160200191611e76565b820191906000526020600020905b815481529060010190602001808311611e5957829003601f168201915b505050505081526020019060010190611dde565b505050908252506002919091015460ff161515602090910152805190915060005b8151811015611f5057818181518110611ed75760e060020a634e487b7102600052603260045260246000fd5b6020026020010151604051602001611eef9190614cd9565b6040516020818303038152906040528051906020012085604051602001611f169190614cd9565b604051602081830303815290604052805190602001201415611f3e57600193505050506109c1565b80611f4881615150565b915050611eab565b506000949350505050565b336000908152600360209081526040808320600101805482518185028101850190935280835260609492939192909184015b82821015611547578382906000526020600020018054611fac90615112565b80601f0160208091040260200160405190810160405280929190818152602001828054611fd890615112565b80156120255780601f10611ffa57610100808354040283529160200191612025565b820191906000526020600020905b81548152906001019060200180831161200857829003601f168201915b505050505081526020019060010190611f8d565b612041614746565b60006004836040516120539190614cd9565b90815260408051918290036020908101832060e0840183528054600160a060020a031684526001810154918401919091526002810154918301919091526003810180546060840191906120a590615112565b80601f01602080910402602001604051908101604052809291908181526020018280546120d190615112565b801561211e5780601f106120f35761010080835404028352916020019161211e565b820191906000526020600020905b81548152906001019060200180831161210157829003601f168201915b5050505050815260200160048201805461213790615112565b80601f016020809104026020016040519081016040528092919081815260200182805461216390615112565b80156121b05780601f10612185576101008083540402835291602001916121b0565b820191906000526020600020905b81548152906001019060200180831161219357829003601f168201915b505050505081526020016005820180546121c990615112565b80601f01602080910402602001604051908101604052809291908181526020018280546121f590615112565b80156122425780601f1061221757610100808354040283529160200191612242565b820191906000526020600020905b81548152906001019060200180831161222557829003601f168201915b5050505050815260200160068201805461225b90615112565b80601f016020809104026020016040519081016040528092919081815260200182805461228790615112565b80156122d45780601f106122a9576101008083540402835291602001916122d4565b820191906000526020600020905b8154815290600101906020018083116122b757829003601f168201915b50505091909252509195945050505050565b606060006004846040516122fa9190614cd9565b90815260408051918290036020908101832060e0840183528054600160a060020a0316845260018101549184019190915260028101549183019190915260038101805460608401919061234c90615112565b80601f016020809104026020016040519081016040528092919081815260200182805461237890615112565b80156123c55780601f1061239a576101008083540402835291602001916123c5565b820191906000526020600020905b8154815290600101906020018083116123a857829003601f168201915b505050505081526020016004820180546123de90615112565b80601f016020809104026020016040519081016040528092919081815260200182805461240a90615112565b80156124575780601f1061242c57610100808354040283529160200191612457565b820191906000526020600020905b81548152906001019060200180831161243a57829003601f168201915b5050505050815260200160058201805461247090615112565b80601f016020809104026020016040519081016040528092919081815260200182805461249c90615112565b80156124e95780601f106124be576101008083540402835291602001916124e9565b820191906000526020600020905b8154815290600101906020018083116124cc57829003601f168201915b5050505050815260200160068201805461250290615112565b80601f016020809104026020016040519081016040528092919081815260200182805461252e90615112565b801561257b5780601f106125505761010080835404028352916020019161257b565b820191906000526020600020905b81548152906001019060200180831161255e57829003601f168201915b50505050508152505090506000808460ff1667ffffffffffffffff8111156125b65760e060020a634e487b7102600052604160045260246000fd5b6040519080825280602002602001820160405280156125ef57816020015b6125dc614746565b8152602001906001900390816125d45790505b5090505b8460ff1682106126025761293f565b828183815181106126265760e060020a634e487b7102600052603260045260246000fd5b602002602001018190525060405160200161264090614cf5565b604051602081830303815290604052805190602001208360c0015160405160200161266b9190614cd9565b60405160208183030381529060405280519060200120141561268c5761293f565b60048360c001516040516126a09190614cd9565b90815260408051918290036020908101832060e0840183528054600160a060020a031684526001810154918401919091526002810154918301919091526003810180546060840191906126f290615112565b80601f016020809104026020016040519081016040528092919081815260200182805461271e90615112565b801561276b5780601f106127405761010080835404028352916020019161276b565b820191906000526020600020905b81548152906001019060200180831161274e57829003601f168201915b5050505050815260200160048201805461278490615112565b80601f01602080910402602001604051908101604052809291908181526020018280546127b090615112565b80156127fd5780601f106127d2576101008083540402835291602001916127fd565b820191906000526020600020905b8154815290600101906020018083116127e057829003601f168201915b5050505050815260200160058201805461281690615112565b80601f016020809104026020016040519081016040528092919081815260200182805461284290615112565b801561288f5780601f106128645761010080835404028352916020019161288f565b820191906000526020600020905b81548152906001019060200180831161287257829003601f168201915b505050505081526020016006820180546128a890615112565b80601f01602080910402602001604051908101604052809291908181526020018280546128d490615112565b80156129215780601f106128f657610100808354040283529160200191612921565b820191906000526020600020905b81548152906001019060200180831161290457829003601f168201915b5050505050815250509250818061293790615150565b9250506125f3565b95945050505050565b6000805460405160e060020a6370a08231028152349291600160a060020a0316906370a082319061297d903090600401614d1e565b60206040518083038186803b15801561299557600080fd5b505afa1580156129a9573d6000803e3d6000fd5b505050506040513d601f19601f820116820180604052508101906129cd9190614b93565b9050600082116129f25760405160e560020a62461bcd0281526004016104f190614e73565b80821115612a155760405160e560020a62461bcd0281526004016104f190614fd2565b600054600154600160a060020a03909116906323b872dd9030903390612a3b908761508d565b6040518463ffffffff1660e060020a028152600401612a5c93929190614d32565b602060405180830381600087803b158015612a7657600080fd5b505af1158015612a8a573d6000803e3d6000fd5b505050506040513d601f19601f82011682018060405250810190612aae9190614910565b507f4e08ba899977cf7d4c2964bce71c6b9a7ef76ee5166a4c1249a1e08016e33ef182604051612ade919061506c565b60405180910390a15050565b60008060009054906101000a9004600160a060020a0316600160a060020a03166318160ddd6040518163ffffffff1660e060020a02815260040160206040518083038186803b158015610d9757600080fd5b6040805160e0810182523381524260208083019182526000938301848152606084018881526080850188905260a085018a905260c0850187905260028054600181018255965284517f405787fa12a823e0f2b7631cc41b3ba8828b3321ca811111fa75cd3aa3bb5ace60079097029687018054600160a060020a031916600160a060020a0390921691909117815593517f405787fa12a823e0f2b7631cc41b3ba8828b3321ca811111fa75cd3aa3bb5acf87015590517f405787fa12a823e0f2b7631cc41b3ba8828b3321ca811111fa75cd3aa3bb5ad086015551805193948594612c4f937f405787fa12a823e0f2b7631cc41b3ba8828b3321ca811111fa75cd3aa3bb5ad190920192909101906147af565b5060808201518051612c6b9160048401916020909101906147af565b5060a08201518051612c879160058401916020909101906147af565b5060c08201518051612ca39160068401916020909101906147af565b50505080600585604051612cb79190614cd9565b908152602001604051809103902084604051612cd39190614cd9565b908152604080516020928190038301902083518154600160a060020a031916600160a060020a03909116178155838301516001820155908301516002820155606083015180519192612d2d926003850192909101906147af565b5060808201518051612d499160048401916020909101906147af565b5060a08201518051612d659160058401916020909101906147af565b5060c08201518051612d819160068401916020909101906147af565b5090505080600486604051612d969190614cd9565b908152604080516020928190038301902083518154600160a060020a031916600160a060020a03909116178155838301516001820155908301516002820155606083015180519192612df0926003850192909101906147af565b5060808201518051612e0c9160048401916020909101906147af565b5060a08201518051612e289160058401916020909101906147af565b5060c08201518051612e449160068401916020909101906147af565b50905050600684604051612e589190614cd9565b908152604080516020928190038301902080546001808201835560009283529184902085516007909202018054600160a060020a031916600160a060020a039092169190911781558484015191810191909155908301516002820155606083015180518493612ece9260038501929101906147af565b5060808201518051612eea9160048401916020909101906147af565b5060a08201518051612f069160058401916020909101906147af565b5060c08201518051612f229160068401916020909101906147af565b505050600783604051612f359190614cd9565b908152604080516020928190038301902080546001808201835560009283529184902085516007909202018054600160a060020a031916600160a060020a039092169190911781558484015191810191909155908301516002820155606083015180518493612fab9260038501929101906147af565b5060808201518051612fc79160048401916020909101906147af565b5060a08201518051612fe39160058401916020909101906147af565b5060c08201518051612fff9160068401916020909101906147af565b5050336000908152600360209081526040822080546001810182559083529181902088516130349450920191908801906147af565b505050505050565b6000805460405160e060020a6370a08231028152600160a060020a03909116906370a0823190610d7f903390600401614d1e565b600033905060006004836040516130879190614cd9565b90815260408051918290036020908101832060e0840183528054600160a060020a031684526001810154918401919091526002810154918301919091526003810180546060840191906130d990615112565b80601f016020809104026020016040519081016040528092919081815260200182805461310590615112565b80156131525780601f1061312757610100808354040283529160200191613152565b820191906000526020600020905b81548152906001019060200180831161313557829003601f168201915b5050505050815260200160048201805461316b90615112565b80601f016020809104026020016040519081016040528092919081815260200182805461319790615112565b80156131e45780601f106131b9576101008083540402835291602001916131e4565b820191906000526020600020905b8154815290600101906020018083116131c757829003601f168201915b505050505081526020016005820180546131fd90615112565b80601f016020809104026020016040519081016040528092919081815260200182805461322990615112565b80156132765780601f1061324b57610100808354040283529160200191613276565b820191906000526020600020905b81548152906001019060200180831161325957829003601f168201915b5050505050815260200160068201805461328f90615112565b80601f01602080910402602001604051908101604052809291908181526020018280546132bb90615112565b80156133085780601f106132dd57610100808354040283529160200191613308565b820191906000526020600020905b8154815290600101906020018083116132eb57829003601f168201915b50505091909252505081516040805160e0810182526064815260326020820152601991810191909152600c606082015260066080820152600360a0820152600160c08201529293508592909150600061336084611cce565b1561337057505050505050613774565b61337984613bf1565b1561338957505050505050613774565b6007811061339657613736565b826040516020016133a79190614cb6565b60405160208183030381529060405280519060200120866040516020016133ce9190614cb6565b604051602081830303815290604052805190602001201461341e5761341e86848484600781106134115760e060020a634e487b7102600052603260045260246000fd5b602002015160ff16614666565b60405160200161342d90614cf5565b604051602081830303815290604052805190602001208560c001516040516020016134589190614cd9565b60405160208183030381529060405280519060200120141561347957613736565b82955060048560c001516040516134909190614cd9565b90815260408051918290036020908101832060e0840183528054600160a060020a031684526001810154918401919091526002810154918301919091526003810180546060840191906134e290615112565b80601f016020809104026020016040519081016040528092919081815260200182805461350e90615112565b801561355b5780601f106135305761010080835404028352916020019161355b565b820191906000526020600020905b81548152906001019060200180831161353e57829003601f168201915b5050505050815260200160048201805461357490615112565b80601f01602080910402602001604051908101604052809291908181526020018280546135a090615112565b80156135ed5780601f106135c2576101008083540402835291602001916135ed565b820191906000526020600020905b8154815290600101906020018083116135d057829003601f168201915b5050505050815260200160058201805461360690615112565b80601f016020809104026020016040519081016040528092919081815260200182805461363290615112565b801561367f5780601f106136545761010080835404028352916020019161367f565b820191906000526020600020905b81548152906001019060200180831161366257829003601f168201915b5050505050815260200160068201805461369890615112565b80601f01602080910402602001604051908101604052809291908181526020018280546136c490615112565b80156137115780601f106136e657610100808354040283529160200191613711565b820191906000526020600020905b8154815290600101906020018083116136f457829003601f168201915b505050505081525050945084600001519250808061372e90615150565b915050613389565b3360009081526003602090815260408220600190810180549182018155835291819020865161376c9391909101918701906147af565b505050505050505b50565b6000811161379a5760405160e560020a62461bcd0281526004016104f190614eaa565b60005460405160e060020a6323b872dd028152600160a060020a03909116906323b872dd906137d190339030908690600401614d32565b602060405180830381600087803b1580156137eb57600080fd5b505af11580156137ff573d6000803e3d6000fd5b505050506040513d601f19601f820116820180604052508101906138239190614910565b5060006001548261383491906150b0565b9050600033600160a060020a03168260405161384f906106ce565b60006040518083038185875af1925050503d806000811461388c576040519150601f19603f3d011682016040523d82523d6000602084013e613891565b606091505b50509050806138b55760405160e560020a62461bcd0281526004016104f190614f9b565b7f92f64ca637d023f354075a4be751b169c1a8a9ccb6d33cdd0cb3520543995727836040516138e4919061506c565b60405180910390a1505050565b606060006007836040516139059190614cd9565b9081526020016040518091039020805480602002602001604051908101604052809291908181526020016000905b828210156109b85760008481526020908190206040805160e081018252600786029092018054600160a060020a0316835260018101549383019390935260028301549082015260038201805491929160608401919061399190615112565b80601f01602080910402602001604051908101604052809291908181526020018280546139bd90615112565b8015613a0a5780601f106139df57610100808354040283529160200191613a0a565b820191906000526020600020905b8154815290600101906020018083116139ed57829003601f168201915b50505050508152602001600482018054613a2390615112565b80601f0160208091040260200160405190810160405280929190818152602001828054613a4f90615112565b8015613a9c5780601f10613a7157610100808354040283529160200191613a9c565b820191906000526020600020905b815481529060010190602001808311613a7f57829003601f168201915b50505050508152602001600582018054613ab590615112565b80601f0160208091040260200160405190810160405280929190818152602001828054613ae190615112565b8015613b2e5780601f10613b0357610100808354040283529160200191613b2e565b820191906000526020600020905b815481529060010190602001808311613b1157829003601f168201915b50505050508152602001600682018054613b4790615112565b80601f0160208091040260200160405190810160405280929190818152602001828054613b7390615112565b8015613bc05780601f10613b9557610100808354040283529160200191613bc0565b820191906000526020600020905b815481529060010190602001808311613ba357829003601f168201915b50505050508152505081526020019060010190613933565b3360009081526003602052604090206002015460ff1690565b3360009081526003602090815260408083208151815460809481028201850190935260608101838152859491938492849190879085015b82821015613cd4578382906000526020600020018054613c4790615112565b80601f0160208091040260200160405190810160405280929190818152602001828054613c7390615112565b8015613cc05780601f10613c9557610100808354040283529160200191613cc0565b820191906000526020600020905b815481529060010190602001808311613ca357829003601f168201915b505050505081526020019060010190613c28565b50505050815260200160018201805480602002602001604051908101604052809291908181526020016000905b82821015613dad578382906000526020600020018054613d2090615112565b80601f0160208091040260200160405190810160405280929190818152602001828054613d4c90615112565b8015613d995780601f10613d6e57610100808354040283529160200191613d99565b820191906000526020600020905b815481529060010190602001808311613d7c57829003601f168201915b505050505081526020019060010190613d01565b505050908252506002919091015460ff16151560209182015281015190915060005b8151811015611f5057818181518110613dfb5760e060020a634e487b7102600052603260045260246000fd5b6020026020010151604051602001613e139190614cd9565b6040516020818303038152906040528051906020012085604051602001613e3a9190614cd9565b604051602081830303815290604052805190602001201415613e6257600193505050506109c1565b80613e6c81615150565b915050613dcf565b600054600160a060020a031681565b60606000600585604051613e979190614cd9565b908152602001604051809103902084604051613eb39190614cd9565b90815260408051918290036020908101832060e0840183528054600160a060020a03168452600181015491840191909152600281015491830191909152600381018054606084019190613f0590615112565b80601f0160208091040260200160405190810160405280929190818152602001828054613f3190615112565b8015613f7e5780601f10613f5357610100808354040283529160200191613f7e565b820191906000526020600020905b815481529060010190602001808311613f6157829003601f168201915b50505050508152602001600482018054613f9790615112565b80601f0160208091040260200160405190810160405280929190818152602001828054613fc390615112565b80156140105780601f10613fe557610100808354040283529160200191614010565b820191906000526020600020905b815481529060010190602001808311613ff357829003601f168201915b5050505050815260200160058201805461402990615112565b80601f016020809104026020016040519081016040528092919081815260200182805461405590615112565b80156140a25780601f10614077576101008083540402835291602001916140a2565b820191906000526020600020905b81548152906001019060200180831161408557829003601f168201915b505050505081526020016006820180546140bb90615112565b80601f01602080910402602001604051908101604052809291908181526020018280546140e790615112565b80156141345780601f1061410957610100808354040283529160200191614134565b820191906000526020600020905b81548152906001019060200180831161411757829003601f168201915b50505050508152505090506000808460ff1667ffffffffffffffff81111561416f5760e060020a634e487b7102600052604160045260246000fd5b6040519080825280602002602001820160405280156141a857816020015b614195614746565b81526020019060019003908161418d5790505b5090505b8460ff1682106141bb576144f8565b828183815181106141df5760e060020a634e487b7102600052603260045260246000fd5b60200260200101819052506040516020016141f990614cf5565b604051602081830303815290604052805190602001208360c001516040516020016142249190614cd9565b604051602081830303815290604052805190602001201415614245576144f8565b60048360c001516040516142599190614cd9565b90815260408051918290036020908101832060e0840183528054600160a060020a031684526001810154918401919091526002810154918301919091526003810180546060840191906142ab90615112565b80601f01602080910402602001604051908101604052809291908181526020018280546142d790615112565b80156143245780601f106142f957610100808354040283529160200191614324565b820191906000526020600020905b81548152906001019060200180831161430757829003601f168201915b5050505050815260200160048201805461433d90615112565b80601f016020809104026020016040519081016040528092919081815260200182805461436990615112565b80156143b65780601f1061438b576101008083540402835291602001916143b6565b820191906000526020600020905b81548152906001019060200180831161439957829003601f168201915b505050505081526020016005820180546143cf90615112565b80601f01602080910402602001604051908101604052809291908181526020018280546143fb90615112565b80156144485780601f1061441d57610100808354040283529160200191614448565b820191906000526020600020905b81548152906001019060200180831161442b57829003601f168201915b5050505050815260200160068201805461446190615112565b80601f016020809104026020016040519081016040528092919081815260200182805461448d90615112565b80156144da5780601f106144af576101008083540402835291602001916144da565b820191906000526020600020905b8154815290600101906020018083116144bd57829003601f168201915b505050505081525050925081806144f090615150565b9250506141ac565b9695505050505050565b6040516000908390839061451a908290602001614cd9565b60405160208183030381529060405280519060200120856040516020016145419190614cd9565b604051602081830303815290604052805190602001201415614568576001925050506119fe565b6000805b8351835161457a91906150cf565b81101561465c57600160005b8551811015614638578581815181106145b25760e060020a634e487b7102600052603260045260246000fd5b602001015160f860020a900460f860020a02600160f860020a0319168582856145db9190615075565b815181106145fc5760e060020a634e487b7102600052603260045260246000fd5b602001015160f860020a900460f860020a02600160f860020a031916146146265760009150614638565b8061463081615150565b915050614586565b50801561464957600192505061465c565b508061465481615150565b91505061456c565b5095945050505050565b600081116146895760405160e560020a62461bcd0281526004016104f190614f07565b60005460405160e060020a6323b872dd028152600160a060020a03909116906323b872dd906146c090869086908690600401614d32565b602060405180830381600087803b1580156146da57600080fd5b505af11580156146ee573d6000803e3d6000fd5b505050506040513d601f19601f820116820180604052508101906147129190614910565b50505050565b604051806101400160405280600a905b614730614746565b8152602001906001900390816147285790505090565b6040518060e001604052806000600160a060020a031681526020016000815260200160008152602001606081526020016060815260200160608152602001606081525090565b604051806060016040528060608152602001606081526020016000151581525090565b8280546147bb90615112565b90600052602060002090601f0160209004810192826147dd5760008555614823565b82601f106147f657805160ff1916838001178555614823565b82800160010185558215614823579182015b82811115614823578251825591602001919060010190614808565b5061482f929150614833565b5090565b5b8082111561482f5760008155600101614834565b600082601f830112614858578081fd5b813567ffffffffffffffff8082111561487357614873615184565b604051601f8301601f19168101602001828111828210171561489757614897615184565b6040528281528483016020018610156148ae578384fd5b82602086016020830137918201602001929092529392505050565b803560ff811681146109c157600080fd5b600080604083850312156148ec578182fd5b8235600160a060020a0381168114614902578283fd5b946020939093013593505050565b600060208284031215614921578081fd5b81518015158114614930578182fd5b9392505050565b600060208284031215614948578081fd5b813567ffffffffffffffff81111561495e578182fd5b61496a84828501614848565b949350505050565b60008060408385031215614984578182fd5b823567ffffffffffffffff8082111561499b578384fd5b6149a786838701614848565b935060208501359150808211156149bc578283fd5b506149c985828601614848565b9150509250929050565b600080600080608085870312156149e8578182fd5b843567ffffffffffffffff808211156149ff578384fd5b614a0b88838901614848565b95506020870135915080821115614a20578384fd5b614a2c88838901614848565b94506040870135915080821115614a41578384fd5b614a4d88838901614848565b93506060870135915080821115614a62578283fd5b50614a6f87828801614848565b91505092959194509250565b600080600060608486031215614a8f578283fd5b833567ffffffffffffffff80821115614aa6578485fd5b614ab287838801614848565b94506020860135915080821115614ac7578384fd5b50614ad486828701614848565b925050614ae3604085016148c9565b90509250925092565b60008060408385031215614afe578182fd5b823567ffffffffffffffff811115614b14578283fd5b614b2085828601614848565b95602094909401359450505050565b60008060408385031215614b41578182fd5b823567ffffffffffffffff811115614b57578283fd5b614b6385828601614848565b925050614b72602084016148c9565b90509250929050565b600060208284031215614b8c578081fd5b5035919050565b600060208284031215614ba4578081fd5b5051919050565b60008282518085526020808601955080818302840101818601855b84811015614bf457601f19868403018952614be2838351614c01565b98840198925090830190600101614bc6565b5090979650505050505050565b60008151808452614c198160208601602086016150e6565b601f01601f19169290920160200192915050565b6000600160a060020a0382511683526020820151602084015260408201516040840152606082015160e06060850152614c6960e0850182614c01565b905060808301518482036080860152614c828282614c01565b91505060a083015184820360a0860152614c9c8282614c01565b91505060c083015184820360c086015261293f8282614c01565b600160a060020a03919091166c0100000000000000000000000002815260140190565b60008251614ceb8184602087016150e6565b9190910192915050565b7f4e6f6e6500000000000000000000000000000000000000000000000000000000815260040190565b600160a060020a0391909116815260200190565b600160a060020a039384168152919092166020820152604081019190915260600190565b6000602080830181845280855180835260408601915060408482028701019250838701855b82811015614da957603f19888603018452614d97858351614c01565b94509285019290850190600101614d7b565b5092979650505050505050565b60608082526000906101a0830190830186835b600a811015614dfb57605f19868503018352614de6848351614c2d565b93506020928301929190910190600101614dc9565b505050602083019490945250901515604090910152919050565b6000602080830181845280855180835260408601915060408482028701019250838701855b82811015614da957603f19888603018452614e56858351614c2d565b94509285019290850190600101614e3a565b901515815260200190565b6020808252601b908201527f596f75206e65656420746f2073656e6420736f6d652045746865720000000000604082015260600190565b60208082526025908201527f596f75206e65656420746f2073656c6c206174206c6561737420736f6d65207460408201527f6f6b656e73000000000000000000000000000000000000000000000000000000606082015260800190565b60208082526026908201527f596f75206e65656420746f20656e746572206174206c6561737420736f6d652060408201527f746f6b656e730000000000000000000000000000000000000000000000000000606082015260800190565b60208082526018908201527f52656769737465722050726f63657373206661696c65642e0000000000000000604082015260600190565b60208082526016908201527f5472616e73666572204574686572206661696c65642e00000000000000000000604082015260600190565b6020808252818101527f4e6f7420656e6f75676820746f6b656e7320696e207468652072657365727665604082015260600190565b6000602082526149306020830184614c2d565b6000602082528251606060208401526150366080840182614bab565b90506020840151601f198483030160408501526150538282614bab565b9150506040840151151560608401528091505092915050565b90815260200190565b600082198211156150885761508861516b565b500190565b6000826150ab5760e060020a634e487b710281526012600452602481fd5b500490565b60008160001904831182151516156150ca576150ca61516b565b500290565b6000828210156150e1576150e161516b565b500390565b60005b838110156151015781810151838201526020016150e9565b838111156147125750506000910152565b60028104600182168061512657607f821691505b6020821081141561514a5760e060020a634e487b7102600052602260045260246000fd5b50919050565b60006000198214156151645761516461516b565b5060010190565b60e060020a634e487b7102600052601160045260246000fd5b60e060020a634e487b7102600052604160045260246000fdfea26469706673582212205146cf505b7a927cb425c47314d4a04f833e6421e495976685288bdbd7f7c29a64736f6c63430008000033608060405268056bc75e2d6310000060015534801561001d57600080fd5b50600154336000908152602081905260409020556104ab806100406000396000f3fe608060405234801561001057600080fd5b506004361061007e577c0100000000000000000000000000000000000000000000000000000000600035046306fdde03811461008357806318160ddd146100a157806323b872dd146100b6578063313ce567146100d657806370a08231146100eb57806395d89b41146100fe575b600080fd5b61008b610106565b604051610098919061038e565b60405180910390f35b6100a961013f565b6040516100989190610416565b6100c96100c4366004610348565b610145565b6040516100989190610383565b6100de610256565b604051610098919061041f565b6100a96100f936600461032e565b61025b565b61008b61027a565b6040518060400160405280600981526020017f4d75736963436f696e000000000000000000000000000000000000000000000081525081565b60015490565b600160a060020a0383166000908152602081905260408120548211156101a0576040517f08c379a0000000000000000000000000000000000000000000000000000000008152600401610197906103e1565b60405180910390fd5b600160a060020a0384166000908152602081905260409020546101c390836102b3565b600160a060020a0380861660009081526020819052604080822093909355908516815220546101f290836102e7565b600160a060020a0380851660008181526020819052604090819020939093559151908616907fddf252ad1be2c89b69c2b068fc378daa952ba7f163c4a11628f55a4df523b3ef90610244908690610416565b60405180910390a35060019392505050565b600281565b600160a060020a0381166000908152602081905260409020545b919050565b6040518060400160405280600381526020017f4d5543000000000000000000000000000000000000000000000000000000000081525081565b6000828211156102d65760e060020a634e487b7102600052600160045260246000fd5b6102e08284610445565b9392505050565b6000806102f4838561042d565b9050838110156102e05760e060020a634e487b7102600052600160045260246000fd5b8035600160a060020a038116811461027557600080fd5b60006020828403121561033f578081fd5b6102e082610317565b60008060006060848603121561035c578182fd5b61036584610317565b925061037360208501610317565b9150604084013590509250925092565b901515815260200190565b6000602080835283518082850152825b818110156103ba5785810183015185820160400152820161039e565b818111156103cb5783604083870101525b50601f01601f1916929092016040019392505050565b6020808252818101527f546865206f776e657220686173206e6f20656e6f7567682062616c616e636521604082015260600190565b90815260200190565b60ff91909116815260200190565b600082198211156104405761044061045c565b500190565b6000828210156104575761045761045c565b500390565b60e060020a634e487b7102600052601160045260246000fdfea26469706673582212200099f8b04d13cb9bd29b206950ca34db006ff81bcb0a69e92b9839fdccad4e4d64736f6c63430008000033",
  "immutableReferences": {},
  "source": "pragma solidity >=0.4.0 <0.9.0;\n// support return struct in functions\npragma experimental ABIEncoderV2;\n\n// import \"../../node_modules/@openzeppelin/contracts/token/ERC20/ERC20.sol\";\n// import \"./MusicCoin.sol\";\nimport \"./MusicToken.sol\";\n\ncontract MusicDApp is DEX {\n    // Music metadata\n    struct Music {\n        // Music information\n        address uploader;\n        uint256 uploadTime;\n        uint256 count;\n        string name;\n        string artist;\n        // Music content\n        string ipfsHash;\n        string coverFrom;\n    }\n\n    struct User {\n        string[] upload_music_list;\n        string[] bought_music_list;\n        bool isValid;\n    }\n\n    // State variables\n    Music[] internal musics;\n\n    mapping(address => User) internal users;\n\n    // ipfs hash as index\n    mapping(string => Music) internal music_hash;\n\n    // (name, artist) as primary key\n    mapping(string => mapping(string => Music)) internal music;\n\n    // name as primary key\n    mapping(string => Music[]) internal music_artist_list;\n\n    // artist as primary key\n    mapping(string => Music[]) internal artist_music_list;\n\n    // Modifiers\n\n    // Public methods\n\n    // Retrieve basic user information\n    function userExists() public view returns (bool) {\n        return users[msg.sender].isValid;\n    }\n\n    function getUserInfo() public view returns (User memory) {\n        return users[msg.sender];\n    }\n\n    function getUserBalance() public view returns (uint256) {\n        return token.balanceOf(msg.sender);\n    }\n\n    function registerUser() public returns (User memory) {\n        if (!userExists()) {\n            // Give 10000 token for new user\n            uint256 dexBalance = token.balanceOf(address(this));\n            require(10000 <= dexBalance, \"Not enough tokens in the reserve\");\n            bool success = register();\n            require(success, \"Register Process failed.\");\n            // token.transfer(msg.sender, 10000);\n            users[msg.sender].isValid = true;\n            User memory user = users[msg.sender];\n            return user;\n        } else {\n            return users[msg.sender];\n        }\n    }\n\n    function getUploadMusicList() public view returns (string[] memory) {\n        return users[msg.sender].upload_music_list;\n    }\n\n    function getBoughtMusicList() public view returns (string[] memory) {\n        return users[msg.sender].bought_music_list;\n    }\n\n    // check if the user had upload this music\n    function findUploadMusic(string memory _ipfsHash)\n        public\n        view\n        returns (bool)\n    {\n        User memory user = users[msg.sender];\n        string[] memory upload_list = user.upload_music_list;\n\n        for (uint256 i = 0; i < upload_list.length; i++) {\n            if (\n                keccak256(abi.encodePacked(_ipfsHash)) ==\n                keccak256(abi.encodePacked(upload_list[i]))\n            ) {\n                return true;\n            }\n        }\n\n        return false;\n    }\n\n    // check if the user had bought this music\n    function findBoughtMusic(string memory _ipfsHash)\n        public\n        view\n        returns (bool)\n    {\n        User memory user = users[msg.sender];\n        string[] memory bought_list = user.bought_music_list;\n\n        for (uint256 i = 0; i < bought_list.length; i++) {\n            if (\n                keccak256(abi.encodePacked(_ipfsHash)) ==\n                keccak256(abi.encodePacked(bought_list[i]))\n            ) {\n                return true;\n            }\n        }\n\n        return false;\n    }\n\n    // upload music to the blockchain\n    function uploadMusic(\n        string memory _ipfsHash,\n        string memory _name,\n        string memory _artist,\n        string memory _coverFrom\n    ) public {\n        Music memory _music =\n            Music(\n                msg.sender,\n                block.timestamp,\n                0,\n                _name,\n                _artist,\n                _ipfsHash,\n                _coverFrom\n            );\n\n        // Global state update\n        musics.push(_music);\n        music[_name][_artist] = _music;\n        music_hash[_ipfsHash] = _music;\n        music_artist_list[_name].push(_music);\n        artist_music_list[_artist].push(_music);\n\n        // User state update\n        users[msg.sender].upload_music_list.push(_ipfsHash);\n    }\n\n    function getMusic(string memory _name, string memory _artist)\n        public\n        view\n        returns (Music memory)\n    {\n        Music memory _music = music[_name][_artist];\n\n        return _music;\n    }\n\n    function searchMusic(string memory _name, string memory _artist)\n        public\n        view\n        returns (Music[] memory)\n    {\n        Music[] memory returnList = new Music[](musics.length);\n        uint ind = 0;\n        for (uint i=0; i<musics.length; i++) {\n            if (str_contains(_name,musics[i].name) || str_contains(_artist,musics[i].artist))\n            {\n                returnList[ind] = musics[i];\n                i = i + 1;\n            }\n        }\n        return returnList;\n    }\n\n    function getMusicByHash(string memory _ipfsHash)\n        public\n        view\n        returns (Music memory)\n    {\n        Music memory _music = music_hash[_ipfsHash];\n\n        return _music;\n    }\n\n    function getMusicArtistList(string memory _name)\n        public\n        view\n        returns (Music[] memory)\n    {\n        Music[] memory _music_list = music_artist_list[_name];\n\n        return _music_list;\n    }\n\n    function getArtistMusicList(string memory _artist)\n        public\n        view\n        returns (Music[] memory)\n    {\n        Music[] memory _artist_music_list = artist_music_list[_artist];\n\n        return _artist_music_list;\n    }       \n\n    function buyMusicByHash(string memory _ipfsHash) public {\n        address sender = msg.sender;\n        Music memory _music = music_hash[_ipfsHash];\n        string memory songHash = _ipfsHash;\n        address uploader = _music.uploader;\n        uint8[7] memory chain = [100, 50, 25, 12, 6, 3, 1];\n        uint256 count = 0;\n\n        // Uploader can listen to what he uploaded\n        if (findUploadMusic(songHash)) return;\n\n        // Buyer will not pay twice\n        if (findBoughtMusic(songHash)) return;\n\n        while (true) {\n            // The depth excee the limit\n            if (count >= 7) {\n                break;\n            }\n\n            // Send token only if the \n            if (\n                !(keccak256(abi.encodePacked(sender)) ==\n                keccak256(abi.encodePacked(uploader)))\n            ) {\n                transferTokenFrom(sender, uploader, chain[count]);\n            }\n            // hit the end of the chain\n            if (\n                keccak256(abi.encodePacked((_music.coverFrom))) ==\n                keccak256(abi.encodePacked((\"None\")))\n            ) {\n                break;\n            }\n\n            sender = uploader;\n            _music = music_hash[_music.coverFrom];\n            uploader = _music.uploader;\n\n            count++;\n        }\n\n        // add music to listener list\n        users[msg.sender].bought_music_list.push(songHash);\n    }\n\n    function getMusicChain(\n        string memory _name,\n        string memory _artist,\n        uint8 depth\n    ) public view returns (Music[] memory) {\n        Music memory _music = music[_name][_artist];\n        uint256 count = 0;\n        Music[] memory music_chain = new Music[](depth);\n\n        // transfer token to uploader at the beginning of the chain\n\n        while (true) {\n            // The depth excee the limit\n            if (count >= depth) {\n                break;\n            }\n            music_chain[count] = _music;\n            // hit the end of the chain\n            if (\n                keccak256(abi.encodePacked((_music.coverFrom))) ==\n                keccak256(abi.encodePacked((\"None\")))\n            ) {\n                break;\n            }\n\n            _music = music_hash[_music.coverFrom];\n\n            count++;\n        }\n\n        return music_chain;\n    }\n\n    function getMusicChainByHash(string memory _ipfsHash, uint8 depth)\n        public\n        view\n        returns (Music[] memory)\n    {\n        Music memory _music = music_hash[_ipfsHash];\n        uint256 count = 0;\n        Music[] memory music_chain = new Music[](depth);\n\n        while (true) {\n            // The depth excee the limit\n            if (count >= depth) {\n                break;\n            }\n            music_chain[count] = _music;\n            // hit the end of the chain\n            if (\n                keccak256(abi.encodePacked((_music.coverFrom))) ==\n                keccak256(abi.encodePacked((\"None\")))\n            ) {\n                break;\n            }\n\n            _music = music_hash[_music.coverFrom];\n\n            count++;\n        }\n\n        return music_chain;\n    }\n\n    function getRelevantMusicNameList(string memory _name, uint _index) \n        public \n        view \n        returns (Music[10] memory, uint, bool) \n    {\n        Music[10] memory returnList;\n        uint returnIndex = 0;\n        bool reachEnd = false;\n        Music memory _music;\n        \n        for(uint i = _index; i < musics.length; i++) {\n            if(returnIndex >= 10) break;\n            _music = musics[i];\n\n            // if a music name contains input name, put it into return list \n            if(str_contains(_name, _music.name)) {\n                returnList[returnIndex] = _music;\n                returnIndex++;\n            }\n        }\n\n        // tell frontend we had reach the end of the list\n        if (returnIndex == musics.length) {\n            reachEnd = true;\n        }\n\n        return (returnList, returnIndex, reachEnd);\n    }\n\n    \n\n    // Private methods\n    // check if string contains in other string\n    function str_contains (string memory what, string memory where) private pure returns (bool){\n        bytes memory whatBytes = bytes (what);\n        bytes memory whereBytes = bytes (where);\n        if (keccak256(abi.encodePacked((what))) == keccak256(abi.encodePacked((where))))\n        {\n            return true;\n        }\n        bool found = false;\n        for (uint i = 0; i < whereBytes.length - whatBytes.length; i++) {\n            bool flag = true;\n            for (uint j = 0; j < whatBytes.length; j++)\n                if (whereBytes [i + j] != whatBytes [j]) {\n                    flag = false;\n                    break;\n                }\n            if (flag) {\n                found = true;\n                break;\n            }\n        }\n        return (found);\n    }\n}\n",
  "sourcePath": "/Users/chiao1/Desktop/NM-Lab/project/nmlab-final/music-dapp/react/src/contracts/MusicDApp.sol",
  "compiler": {
    "name": "solc",
    "version": "0.8.0+commit.c7dfd78e.Emscripten.clang"
  },
  "schemaVersion": "3.4.0",
  "updatedAt": "2021-06-23T12:20:55.886Z",
  "networkType": "ethereum",
  "devdoc": {
    "kind": "dev",
    "methods": {},
    "version": 1
  },
  "userdoc": {
    "kind": "user",
    "methods": {},
    "version": 1
  }
}