{
  "contractName": "MusicDApp",
  "abi": [
    {
      "anonymous": false,
      "inputs": [
        {
          "indexed": false,
          "internalType": "uint256",
          "name": "amount",
          "type": "uint256"
        }
      ],
      "name": "Bought",
      "type": "event"
    },
    {
      "anonymous": false,
      "inputs": [
        {
          "indexed": false,
          "internalType": "uint256",
          "name": "amount",
          "type": "uint256"
        }
      ],
      "name": "Sold",
      "type": "event"
    },
    {
      "inputs": [],
      "name": "buy",
      "outputs": [],
      "stateMutability": "payable",
      "type": "function",
      "payable": true
    },
    {
      "inputs": [],
      "name": "exchange_rate",
      "outputs": [
        {
          "internalType": "uint256",
          "name": "",
          "type": "uint256"
        }
      ],
      "stateMutability": "view",
      "type": "function",
      "constant": true
    },
    {
      "inputs": [],
      "name": "getContractAddress",
      "outputs": [
        {
          "internalType": "address",
          "name": "",
          "type": "address"
        }
      ],
      "stateMutability": "view",
      "type": "function",
      "constant": true
    },
    {
      "inputs": [],
      "name": "getPoolEtherBalance",
      "outputs": [
        {
          "internalType": "uint256",
          "name": "",
          "type": "uint256"
        }
      ],
      "stateMutability": "view",
      "type": "function",
      "constant": true
    },
    {
      "inputs": [],
      "name": "getPoolTokenBalance",
      "outputs": [
        {
          "internalType": "uint256",
          "name": "",
          "type": "uint256"
        }
      ],
      "stateMutability": "view",
      "type": "function",
      "constant": true
    },
    {
      "inputs": [],
      "name": "getTokenSupply",
      "outputs": [
        {
          "internalType": "uint256",
          "name": "",
          "type": "uint256"
        }
      ],
      "stateMutability": "view",
      "type": "function",
      "constant": true
    },
    {
      "inputs": [],
      "name": "register",
      "outputs": [
        {
          "internalType": "bool",
          "name": "",
          "type": "bool"
        }
      ],
      "stateMutability": "nonpayable",
      "type": "function"
    },
    {
      "inputs": [
        {
          "internalType": "uint256",
          "name": "amount",
          "type": "uint256"
        }
      ],
      "name": "sell",
      "outputs": [],
      "stateMutability": "nonpayable",
      "type": "function"
    },
    {
      "inputs": [],
      "name": "token",
      "outputs": [
        {
          "internalType": "contract TokenPool",
          "name": "",
          "type": "address"
        }
      ],
      "stateMutability": "view",
      "type": "function",
      "constant": true
    },
    {
      "inputs": [
        {
          "internalType": "address",
          "name": "receiver",
          "type": "address"
        },
        {
          "internalType": "uint256",
          "name": "amount",
          "type": "uint256"
        }
      ],
      "name": "transferToken",
      "outputs": [],
      "stateMutability": "nonpayable",
      "type": "function"
    },
    {
      "inputs": [],
      "name": "returnMsgSender",
      "outputs": [
        {
          "internalType": "address",
          "name": "",
          "type": "address"
        }
      ],
      "stateMutability": "view",
      "type": "function",
      "constant": true
    },
    {
      "inputs": [],
      "name": "userExists",
      "outputs": [
        {
          "internalType": "bool",
          "name": "",
          "type": "bool"
        }
      ],
      "stateMutability": "view",
      "type": "function",
      "constant": true
    },
    {
      "inputs": [],
      "name": "getUserInfo",
      "outputs": [
        {
          "components": [
            {
              "internalType": "string[]",
              "name": "upload_music_list",
              "type": "string[]"
            },
            {
              "internalType": "string[]",
              "name": "bought_music_list",
              "type": "string[]"
            },
            {
              "internalType": "bool",
              "name": "isValid",
              "type": "bool"
            }
          ],
          "internalType": "struct MusicDApp.User",
          "name": "",
          "type": "tuple"
        }
      ],
      "stateMutability": "view",
      "type": "function",
      "constant": true
    },
    {
      "inputs": [],
      "name": "getUserBalance",
      "outputs": [
        {
          "internalType": "uint256",
          "name": "",
          "type": "uint256"
        }
      ],
      "stateMutability": "view",
      "type": "function",
      "constant": true
    },
    {
      "inputs": [],
      "name": "registerUser",
      "outputs": [
        {
          "components": [
            {
              "internalType": "string[]",
              "name": "upload_music_list",
              "type": "string[]"
            },
            {
              "internalType": "string[]",
              "name": "bought_music_list",
              "type": "string[]"
            },
            {
              "internalType": "bool",
              "name": "isValid",
              "type": "bool"
            }
          ],
          "internalType": "struct MusicDApp.User",
          "name": "",
          "type": "tuple"
        }
      ],
      "stateMutability": "nonpayable",
      "type": "function"
    },
    {
      "inputs": [],
      "name": "getUploadMusicList",
      "outputs": [
        {
          "internalType": "string[]",
          "name": "",
          "type": "string[]"
        }
      ],
      "stateMutability": "view",
      "type": "function",
      "constant": true
    },
    {
      "inputs": [],
      "name": "getBoughtMusicList",
      "outputs": [
        {
          "internalType": "string[]",
          "name": "",
          "type": "string[]"
        }
      ],
      "stateMutability": "view",
      "type": "function",
      "constant": true
    },
    {
      "inputs": [
        {
          "internalType": "string",
          "name": "_ipfsHash",
          "type": "string"
        }
      ],
      "name": "findUploadMusic",
      "outputs": [
        {
          "internalType": "bool",
          "name": "",
          "type": "bool"
        }
      ],
      "stateMutability": "view",
      "type": "function",
      "constant": true
    },
    {
      "inputs": [
        {
          "internalType": "string",
          "name": "_ipfsHash",
          "type": "string"
        }
      ],
      "name": "findBoughtMusic",
      "outputs": [
        {
          "internalType": "bool",
          "name": "",
          "type": "bool"
        }
      ],
      "stateMutability": "view",
      "type": "function",
      "constant": true
    },
    {
      "inputs": [
        {
          "internalType": "string",
          "name": "_ipfsHash",
          "type": "string"
        },
        {
          "internalType": "string",
          "name": "_name",
          "type": "string"
        },
        {
          "internalType": "string",
          "name": "_artist",
          "type": "string"
        },
        {
          "internalType": "string",
          "name": "_coverFrom",
          "type": "string"
        }
      ],
      "name": "uploadMusic",
      "outputs": [],
      "stateMutability": "nonpayable",
      "type": "function"
    },
    {
      "inputs": [
        {
          "internalType": "string",
          "name": "_ipfsHash",
          "type": "string"
        },
        {
          "internalType": "string",
          "name": "_name",
          "type": "string"
        },
        {
          "internalType": "string",
          "name": "_artist",
          "type": "string"
        },
        {
          "internalType": "string",
          "name": "_coverFrom",
          "type": "string"
        },
        {
          "internalType": "address",
          "name": "uploader_addr",
          "type": "address"
        }
      ],
      "name": "uploadMusic_batch",
      "outputs": [],
      "stateMutability": "nonpayable",
      "type": "function"
    },
    {
      "inputs": [
        {
          "internalType": "string",
          "name": "_name",
          "type": "string"
        },
        {
          "internalType": "string",
          "name": "_artist",
          "type": "string"
        }
      ],
      "name": "getMusic",
      "outputs": [
        {
          "components": [
            {
              "internalType": "address",
              "name": "uploader",
              "type": "address"
            },
            {
              "internalType": "uint256",
              "name": "uploadTime",
              "type": "uint256"
            },
            {
              "internalType": "uint256",
              "name": "count",
              "type": "uint256"
            },
            {
              "internalType": "string",
              "name": "name",
              "type": "string"
            },
            {
              "internalType": "string",
              "name": "artist",
              "type": "string"
            },
            {
              "internalType": "string",
              "name": "ipfsHash",
              "type": "string"
            },
            {
              "internalType": "string",
              "name": "coverFrom",
              "type": "string"
            }
          ],
          "internalType": "struct MusicDApp.Music",
          "name": "",
          "type": "tuple"
        }
      ],
      "stateMutability": "view",
      "type": "function",
      "constant": true
    },
    {
      "inputs": [
        {
          "internalType": "string",
          "name": "_name",
          "type": "string"
        },
        {
          "internalType": "string",
          "name": "_artist",
          "type": "string"
        }
      ],
      "name": "searchMusic",
      "outputs": [
        {
          "components": [
            {
              "internalType": "address",
              "name": "uploader",
              "type": "address"
            },
            {
              "internalType": "uint256",
              "name": "uploadTime",
              "type": "uint256"
            },
            {
              "internalType": "uint256",
              "name": "count",
              "type": "uint256"
            },
            {
              "internalType": "string",
              "name": "name",
              "type": "string"
            },
            {
              "internalType": "string",
              "name": "artist",
              "type": "string"
            },
            {
              "internalType": "string",
              "name": "ipfsHash",
              "type": "string"
            },
            {
              "internalType": "string",
              "name": "coverFrom",
              "type": "string"
            }
          ],
          "internalType": "struct MusicDApp.Music[]",
          "name": "",
          "type": "tuple[]"
        }
      ],
      "stateMutability": "view",
      "type": "function",
      "constant": true
    },
    {
      "inputs": [
        {
          "internalType": "string",
          "name": "_ipfsHash",
          "type": "string"
        }
      ],
      "name": "getMusicByHash",
      "outputs": [
        {
          "components": [
            {
              "internalType": "address",
              "name": "uploader",
              "type": "address"
            },
            {
              "internalType": "uint256",
              "name": "uploadTime",
              "type": "uint256"
            },
            {
              "internalType": "uint256",
              "name": "count",
              "type": "uint256"
            },
            {
              "internalType": "string",
              "name": "name",
              "type": "string"
            },
            {
              "internalType": "string",
              "name": "artist",
              "type": "string"
            },
            {
              "internalType": "string",
              "name": "ipfsHash",
              "type": "string"
            },
            {
              "internalType": "string",
              "name": "coverFrom",
              "type": "string"
            }
          ],
          "internalType": "struct MusicDApp.Music",
          "name": "",
          "type": "tuple"
        }
      ],
      "stateMutability": "view",
      "type": "function",
      "constant": true
    },
    {
      "inputs": [
        {
          "internalType": "string",
          "name": "_name",
          "type": "string"
        },
        {
          "internalType": "string",
          "name": "_artist",
          "type": "string"
        }
      ],
      "name": "getMusicWithCountIncrement",
      "outputs": [
        {
          "components": [
            {
              "internalType": "address",
              "name": "uploader",
              "type": "address"
            },
            {
              "internalType": "uint256",
              "name": "uploadTime",
              "type": "uint256"
            },
            {
              "internalType": "uint256",
              "name": "count",
              "type": "uint256"
            },
            {
              "internalType": "string",
              "name": "name",
              "type": "string"
            },
            {
              "internalType": "string",
              "name": "artist",
              "type": "string"
            },
            {
              "internalType": "string",
              "name": "ipfsHash",
              "type": "string"
            },
            {
              "internalType": "string",
              "name": "coverFrom",
              "type": "string"
            }
          ],
          "internalType": "struct MusicDApp.Music",
          "name": "",
          "type": "tuple"
        }
      ],
      "stateMutability": "nonpayable",
      "type": "function"
    },
    {
      "inputs": [
        {
          "internalType": "string",
          "name": "_name",
          "type": "string"
        }
      ],
      "name": "getMusicArtistList",
      "outputs": [
        {
          "components": [
            {
              "internalType": "address",
              "name": "uploader",
              "type": "address"
            },
            {
              "internalType": "uint256",
              "name": "uploadTime",
              "type": "uint256"
            },
            {
              "internalType": "uint256",
              "name": "count",
              "type": "uint256"
            },
            {
              "internalType": "string",
              "name": "name",
              "type": "string"
            },
            {
              "internalType": "string",
              "name": "artist",
              "type": "string"
            },
            {
              "internalType": "string",
              "name": "ipfsHash",
              "type": "string"
            },
            {
              "internalType": "string",
              "name": "coverFrom",
              "type": "string"
            }
          ],
          "internalType": "struct MusicDApp.Music[]",
          "name": "",
          "type": "tuple[]"
        }
      ],
      "stateMutability": "view",
      "type": "function",
      "constant": true
    },
    {
      "inputs": [
        {
          "internalType": "string",
          "name": "_artist",
          "type": "string"
        }
      ],
      "name": "getArtistMusicList",
      "outputs": [
        {
          "components": [
            {
              "internalType": "address",
              "name": "uploader",
              "type": "address"
            },
            {
              "internalType": "uint256",
              "name": "uploadTime",
              "type": "uint256"
            },
            {
              "internalType": "uint256",
              "name": "count",
              "type": "uint256"
            },
            {
              "internalType": "string",
              "name": "name",
              "type": "string"
            },
            {
              "internalType": "string",
              "name": "artist",
              "type": "string"
            },
            {
              "internalType": "string",
              "name": "ipfsHash",
              "type": "string"
            },
            {
              "internalType": "string",
              "name": "coverFrom",
              "type": "string"
            }
          ],
          "internalType": "struct MusicDApp.Music[]",
          "name": "",
          "type": "tuple[]"
        }
      ],
      "stateMutability": "view",
      "type": "function",
      "constant": true
    },
    {
      "inputs": [
        {
          "internalType": "string",
          "name": "_name",
          "type": "string"
        },
        {
          "internalType": "string",
          "name": "_artist",
          "type": "string"
        }
      ],
      "name": "buyMusic",
      "outputs": [],
      "stateMutability": "nonpayable",
      "type": "function"
    },
    {
      "inputs": [
        {
          "internalType": "string",
          "name": "_ipfsHash",
          "type": "string"
        },
        {
          "internalType": "string",
          "name": "_coverFrom",
          "type": "string"
        }
      ],
      "name": "setMusicCoverFrom",
      "outputs": [],
      "stateMutability": "nonpayable",
      "type": "function"
    },
    {
      "inputs": [
        {
          "internalType": "string",
          "name": "_ipfsHash",
          "type": "string"
        }
      ],
      "name": "buyMusicByHash",
      "outputs": [],
      "stateMutability": "nonpayable",
      "type": "function"
    },
    {
      "inputs": [
        {
          "internalType": "string",
          "name": "_name",
          "type": "string"
        },
        {
          "internalType": "string",
          "name": "_artist",
          "type": "string"
        },
        {
          "internalType": "uint8",
          "name": "depth",
          "type": "uint8"
        }
      ],
      "name": "getMusicChain",
      "outputs": [
        {
          "components": [
            {
              "internalType": "address",
              "name": "uploader",
              "type": "address"
            },
            {
              "internalType": "uint256",
              "name": "uploadTime",
              "type": "uint256"
            },
            {
              "internalType": "uint256",
              "name": "count",
              "type": "uint256"
            },
            {
              "internalType": "string",
              "name": "name",
              "type": "string"
            },
            {
              "internalType": "string",
              "name": "artist",
              "type": "string"
            },
            {
              "internalType": "string",
              "name": "ipfsHash",
              "type": "string"
            },
            {
              "internalType": "string",
              "name": "coverFrom",
              "type": "string"
            }
          ],
          "internalType": "struct MusicDApp.Music[]",
          "name": "",
          "type": "tuple[]"
        }
      ],
      "stateMutability": "view",
      "type": "function",
      "constant": true
    },
    {
      "inputs": [
        {
          "internalType": "string",
          "name": "_ipfsHash",
          "type": "string"
        },
        {
          "internalType": "uint8",
          "name": "depth",
          "type": "uint8"
        }
      ],
      "name": "getMusicChainByHash",
      "outputs": [
        {
          "components": [
            {
              "internalType": "address",
              "name": "uploader",
              "type": "address"
            },
            {
              "internalType": "uint256",
              "name": "uploadTime",
              "type": "uint256"
            },
            {
              "internalType": "uint256",
              "name": "count",
              "type": "uint256"
            },
            {
              "internalType": "string",
              "name": "name",
              "type": "string"
            },
            {
              "internalType": "string",
              "name": "artist",
              "type": "string"
            },
            {
              "internalType": "string",
              "name": "ipfsHash",
              "type": "string"
            },
            {
              "internalType": "string",
              "name": "coverFrom",
              "type": "string"
            }
          ],
          "internalType": "struct MusicDApp.Music[]",
          "name": "",
          "type": "tuple[]"
        }
      ],
      "stateMutability": "view",
      "type": "function",
      "constant": true
    }
  ],
  "bytecode": "0x6080604052655af3107a40006001553480156200001b57600080fd5b506040516200002a906200006e565b604051809103906000f08015801562000047573d6000803e3d6000fd5b5060008054600160a060020a031916600160a060020a03929092169190911790556200007c565b6104eb8062005be283390190565b615b56806200008c6000396000f3fe6080604052600436106101a75760003560e060020a900480638aa4342c116100e6578063c4cb37f511610089578063c4cb37f514610476578063e41bfe6e14610496578063e4849b32146104b6578063e90fd8e7146104d6578063eae6d4da146104f6578063f7f6bd7f1461050b578063fc0c546a1461052b578063fdf7432514610540576101a7565b80638aa4342c146103af5780639146436b146103c457806393154af7146103e4578063a678b83014610404578063a6f2ae3a14610424578063ad974f4c1461042c578063b1ddeab014610441578063b7013dc114610461576101a7565b806346c641f31161014e57806346c641f3146102c15780634d3820eb146102d65780635d8d1585146102f857806360b377b81461030d57806370d97eca1461032f5780637176285a1461034f5780637fb954481461036f57806380f3de651461038f576101a7565b80631072cbea146101ac578063171ef0b2146101ce5780631aa3a008146101f95780631f4b04ea1461021b578063209af2dd14610248578063245fcb921461027557806332a2c5d01461028a5780633d724a3f146102ac575b600080fd5b3480156101b857600080fd5b506101cc6101c7366004615256565b610560565b005b3480156101da57600080fd5b506101e361061a565b6040516101f091906159ef565b60405180910390f35b34801561020557600080fd5b5061020e610620565b6040516101f091906157eb565b34801561022757600080fd5b5061023b6102363660046152e1565b610763565b6040516101f0919061598a565b34801561025457600080fd5b506102686102633660046152a6565b610a84565b6040516101f09190615798565b34801561028157600080fd5b506101e3610d79565b34801561029657600080fd5b5061029f610d7e565b6040516101f09190615700565b3480156102b857600080fd5b5061029f610d82565b3480156102cd57600080fd5b506101e3610d86565b3480156102e257600080fd5b506102eb610e0f565b6040516101f0919061599d565b34801561030457600080fd5b506102eb6112c5565b34801561031957600080fd5b506103226114a7565b6040516101f09190615738565b34801561033b57600080fd5b506101cc61034a3660046152e1565b61158b565b34801561035b57600080fd5b5061026861036a3660046152e1565b611c62565b34801561037b57600080fd5b5061023b61038a3660046152e1565b612114565b34801561039b57600080fd5b5061020e6103aa3660046152a6565b61212e565b3480156103bb57600080fd5b506103226123bb565b3480156103d057600080fd5b5061023b6103df3660046152a6565b612499565b3480156103f057600080fd5b506102686103ff366004615514565b612746565b34801561041057600080fd5b506101cc61041f3660046153ea565b612da8565b6101cc6132b3565b34801561043857600080fd5b506101e3613455565b34801561044d57600080fd5b506101cc61045c366004615342565b6134a7565b34801561046d57600080fd5b506101e36139a7565b34801561048257600080fd5b506101cc6104913660046152e1565b6139db565b3480156104a257600080fd5b506101cc6104b13660046152a6565b613a10565b3480156104c257600080fd5b506101cc6104d1366004615560565b61410a565b3480156104e257600080fd5b506102686104f13660046152a6565b614284565b34801561050257600080fd5b5061020e61456b565b34801561051757600080fd5b5061020e6105263660046152a6565b614584565b34801561053757600080fd5b5061029f614807565b34801561054c57600080fd5b5061026861055b3660046154a3565b614816565b6000811161058c5760405160e560020a62461bcd0281526004016105839061588a565b60405180910390fd5b60005460405160e060020a6323b872dd028152600160a060020a03909116906323b872dd906105c390339086908690600401615714565b602060405180830381600087803b1580156105dd57600080fd5b505af11580156105f1573d6000803e3d6000fd5b505050506040513d601f19601f82011682018060405250810190610615919061527f565b505050565b60015481565b6000805460405160e060020a6370a08231028152612710918391600160a060020a03909116906370a082319061065a903090600401615700565b60206040518083038186803b15801561067257600080fd5b505afa158015610686573d6000803e3d6000fd5b505050506040513d601f19601f820116820180604052508101906106aa9190615578565b9050808211156106cf5760405160e560020a62461bcd02815260040161058390615955565b60005460405160e060020a6323b872dd028152600160a060020a03909116906323b872dd9061070690309033908790600401615714565b602060405180830381600087803b15801561072057600080fd5b505af1158015610734573d6000803e3d6000fd5b505050506040513d601f19601f82011682018060405250810190610758919061527f565b506001925050505b90565b61076b6150ab565b600160058460405161077d91906156bb565b90815260200160405180910390208360405161079991906156bb565b908152602001604051809103902060020160008282546107b991906159f8565b9250508190555060006005846040516107d291906156bb565b9081526020016040518091039020836040516107ee91906156bb565b90815260408051918290036020908101832060e0840183528054600160a060020a0316845260018101549184019190915260028101549183019190915260038101805460608401919061084090615a95565b80601f016020809104026020016040519081016040528092919081815260200182805461086c90615a95565b80156108b95780601f1061088e576101008083540402835291602001916108b9565b820191906000526020600020905b81548152906001019060200180831161089c57829003601f168201915b505050505081526020016004820180546108d290615a95565b80601f01602080910402602001604051908101604052809291908181526020018280546108fe90615a95565b801561094b5780601f106109205761010080835404028352916020019161094b565b820191906000526020600020905b81548152906001019060200180831161092e57829003601f168201915b5050505050815260200160058201805461096490615a95565b80601f016020809104026020016040519081016040528092919081815260200182805461099090615a95565b80156109dd5780601f106109b2576101008083540402835291602001916109dd565b820191906000526020600020905b8154815290600101906020018083116109c057829003601f168201915b505050505081526020016006820180546109f690615a95565b80601f0160208091040260200160405190810160405280929190818152602001828054610a2290615a95565b8015610a6f5780601f10610a4457610100808354040283529160200191610a6f565b820191906000526020600020905b815481529060010190602001808311610a5257829003601f168201915b50505091909252509193505050505b92915050565b60606000600683604051610a9891906156bb565b9081526020016040518091039020805480602002602001604051908101604052809291908181526020016000905b82821015610d6b5760008481526020908190206040805160e081018252600786029092018054600160a060020a03168352600181015493830193909352600283015490820152600382018054919291606084019190610b2490615a95565b80601f0160208091040260200160405190810160405280929190818152602001828054610b5090615a95565b8015610b9d5780601f10610b7257610100808354040283529160200191610b9d565b820191906000526020600020905b815481529060010190602001808311610b8057829003601f168201915b50505050508152602001600482018054610bb690615a95565b80601f0160208091040260200160405190810160405280929190818152602001828054610be290615a95565b8015610c2f5780601f10610c0457610100808354040283529160200191610c2f565b820191906000526020600020905b815481529060010190602001808311610c1257829003601f168201915b50505050508152602001600582018054610c4890615a95565b80601f0160208091040260200160405190810160405280929190818152602001828054610c7490615a95565b8015610cc15780601f10610c9657610100808354040283529160200191610cc1565b820191906000526020600020905b815481529060010190602001808311610ca457829003601f168201915b50505050508152602001600682018054610cda90615a95565b80601f0160208091040260200160405190810160405280929190818152602001828054610d0690615a95565b8015610d535780601f10610d2857610100808354040283529160200191610d53565b820191906000526020600020905b815481529060010190602001808311610d3657829003601f168201915b50505050508152505081526020019060010190610ac6565b50929450505050505b919050565b303190565b3090565b3390565b6000805460405160e060020a6370a08231028152600160a060020a03909116906370a0823190610dba903090600401615700565b60206040518083038186803b158015610dd257600080fd5b505afa158015610de6573d6000803e3d6000fd5b505050506040513d601f19601f82011682018060405250810190610e0a9190615578565b905090565b610e176150f1565b610e1f61456b565b6110e9576000805460405160e060020a6370a08231028152600160a060020a03909116906370a0823190610e57903090600401615700565b60206040518083038186803b158015610e6f57600080fd5b505afa158015610e83573d6000803e3d6000fd5b505050506040513d601f19601f82011682018060405250810190610ea79190615578565b9050806127101115610ece5760405160e560020a62461bcd02815260040161058390615955565b6000610ed8610620565b905080610efa5760405160e560020a62461bcd028152600401610583906158e7565b33600090815260036020908152604080832060028101805460ff191660011790558151815460809481028201850190935260608101838152909391928492849190879085015b82821015610fec578382906000526020600020018054610f5f90615a95565b80601f0160208091040260200160405190810160405280929190818152602001828054610f8b90615a95565b8015610fd85780601f10610fad57610100808354040283529160200191610fd8565b820191906000526020600020905b815481529060010190602001808311610fbb57829003601f168201915b505050505081526020019060010190610f40565b50505050815260200160018201805480602002602001604051908101604052809291908181526020016000905b828210156110c557838290600052602060002001805461103890615a95565b80601f016020809104026020016040519081016040528092919081815260200182805461106490615a95565b80156110b15780601f10611086576101008083540402835291602001916110b1565b820191906000526020600020905b81548152906001019060200180831161109457829003601f168201915b505050505081526020019060010190611019565b505050908252506002919091015460ff161515602090910152935061076092505050565b3360009081526003602090815260408083208151815460809481028201850190935260608101838152909491938593919285929185015b828210156111cc57838290600052602060002001805461113f90615a95565b80601f016020809104026020016040519081016040528092919081815260200182805461116b90615a95565b80156111b85780601f1061118d576101008083540402835291602001916111b8565b820191906000526020600020905b81548152906001019060200180831161119b57829003601f168201915b505050505081526020019060010190611120565b50505050815260200160018201805480602002602001604051908101604052809291908181526020016000905b828210156112a557838290600052602060002001805461121890615a95565b80601f016020809104026020016040519081016040528092919081815260200182805461124490615a95565b80156112915780601f1061126657610100808354040283529160200191611291565b820191906000526020600020905b81548152906001019060200180831161127457829003601f168201915b5050505050815260200190600101906111f9565b505050908252506002919091015460ff1615156020909101529050610760565b6112cd6150f1565b3360009081526003602090815260408083208151815460809481028201850190935260608101838152909491938593919285929185015b828210156113b057838290600052602060002001805461132390615a95565b80601f016020809104026020016040519081016040528092919081815260200182805461134f90615a95565b801561139c5780601f106113715761010080835404028352916020019161139c565b820191906000526020600020905b81548152906001019060200180831161137f57829003601f168201915b505050505081526020019060010190611304565b50505050815260200160018201805480602002602001604051908101604052809291908181526020016000905b828210156114895783829060005260206000200180546113fc90615a95565b80601f016020809104026020016040519081016040528092919081815260200182805461142890615a95565b80156114755780601f1061144a57610100808354040283529160200191611475565b820191906000526020600020905b81548152906001019060200180831161145857829003601f168201915b5050505050815260200190600101906113dd565b505050908252506002919091015460ff161515602090910152905090565b336000908152600360209081526040808320805482518185028101850190935280835260609492939192909184015b828210156115825783829060005260206000200180546114f590615a95565b80601f016020809104026020016040519081016040528092919081815260200182805461152190615a95565b801561156e5780601f106115435761010080835404028352916020019161156e565b820191906000526020600020905b81548152906001019060200180831161155157829003601f168201915b5050505050815260200190600101906114d6565b50505050905090565b600033905060006005846040516115a291906156bb565b9081526020016040518091039020836040516115be91906156bb565b90815260408051918290036020908101832060e0840183528054600160a060020a0316845260018101549184019190915260028101549183019190915260038101805460608401919061161090615a95565b80601f016020809104026020016040519081016040528092919081815260200182805461163c90615a95565b80156116895780601f1061165e57610100808354040283529160200191611689565b820191906000526020600020905b81548152906001019060200180831161166c57829003601f168201915b505050505081526020016004820180546116a290615a95565b80601f01602080910402602001604051908101604052809291908181526020018280546116ce90615a95565b801561171b5780601f106116f05761010080835404028352916020019161171b565b820191906000526020600020905b8154815290600101906020018083116116fe57829003601f168201915b5050505050815260200160058201805461173490615a95565b80601f016020809104026020016040519081016040528092919081815260200182805461176090615a95565b80156117ad5780601f10611782576101008083540402835291602001916117ad565b820191906000526020600020905b81548152906001019060200180831161179057829003601f168201915b505050505081526020016006820180546117c690615a95565b80601f01602080910402602001604051908101604052809291908181526020018280546117f290615a95565b801561183f5780601f106118145761010080835404028352916020019161183f565b820191906000526020600020905b81548152906001019060200180831161182257829003601f168201915b5050509190925250505060a08082015182516040805160e0810182526064815260326020820152601991810191909152600c606082015260066080820152600393810193909352600160c08401529293509190600061189d8461212e565b156118ad57505050505050611c5e565b6118b684614584565b156118c657505050505050611c5e565b600781106118d357611c20565b61190886848484600781106118fb5760e060020a634e487b7102600052603260045260246000fd5b602002015160ff16614e95565b604051602001611917906156d7565b604051602081830303815290604052805190602001208560c0015160405160200161194291906156bb565b60405160208183030381529060405280519060200120141561196357611c20565b82955060048560c0015160405161197a91906156bb565b90815260408051918290036020908101832060e0840183528054600160a060020a031684526001810154918401919091526002810154918301919091526003810180546060840191906119cc90615a95565b80601f01602080910402602001604051908101604052809291908181526020018280546119f890615a95565b8015611a455780601f10611a1a57610100808354040283529160200191611a45565b820191906000526020600020905b815481529060010190602001808311611a2857829003601f168201915b50505050508152602001600482018054611a5e90615a95565b80601f0160208091040260200160405190810160405280929190818152602001828054611a8a90615a95565b8015611ad75780601f10611aac57610100808354040283529160200191611ad7565b820191906000526020600020905b815481529060010190602001808311611aba57829003601f168201915b50505050508152602001600582018054611af090615a95565b80601f0160208091040260200160405190810160405280929190818152602001828054611b1c90615a95565b8015611b695780601f10611b3e57610100808354040283529160200191611b69565b820191906000526020600020905b815481529060010190602001808311611b4c57829003601f168201915b50505050508152602001600682018054611b8290615a95565b80601f0160208091040260200160405190810160405280929190818152602001828054611bae90615a95565b8015611bfb5780601f10611bd057610100808354040283529160200191611bfb565b820191906000526020600020905b815481529060010190602001808311611bde57829003601f168201915b5050505050815250509450846000015192508080611c1890615ad3565b9150506118c6565b33600090815260036020908152604082206001908101805491820181558352918190208651611c56939190910191870190615114565b505050505050505b5050565b60025460609060009067ffffffffffffffff811115611c945760e060020a634e487b7102600052604160045260246000fd5b604051908082528060200260200182016040528015611ccd57816020015b611cba6150ab565b815260200190600190039081611cb25790505b5090506000805b60025481101561210a57611da58660028381548110611d065760e060020a634e487b7102600052603260045260246000fd5b90600052602060002090600702016003018054611d2290615a95565b80601f0160208091040260200160405190810160405280929190818152602001828054611d4e90615a95565b8015611d9b5780601f10611d7057610100808354040283529160200191611d9b565b820191906000526020600020905b815481529060010190602001808311611d7e57829003601f168201915b5050505050614f47565b80611def5750611def8560028381548110611dd35760e060020a634e487b7102600052603260045260246000fd5b90600052602060002090600702016004018054611d2290615a95565b156120f85760028181548110611e185760e060020a634e487b7102600052603260045260246000fd5b90600052602060002090600702016040518060e00160405290816000820160009054906101000a9004600160a060020a0316600160a060020a0316600160a060020a031681526020016001820154815260200160028201548152602001600382018054611e8490615a95565b80601f0160208091040260200160405190810160405280929190818152602001828054611eb090615a95565b8015611efd5780601f10611ed257610100808354040283529160200191611efd565b820191906000526020600020905b815481529060010190602001808311611ee057829003601f168201915b50505050508152602001600482018054611f1690615a95565b80601f0160208091040260200160405190810160405280929190818152602001828054611f4290615a95565b8015611f8f5780601f10611f6457610100808354040283529160200191611f8f565b820191906000526020600020905b815481529060010190602001808311611f7257829003601f168201915b50505050508152602001600582018054611fa890615a95565b80601f0160208091040260200160405190810160405280929190818152602001828054611fd490615a95565b80156120215780601f10611ff657610100808354040283529160200191612021565b820191906000526020600020905b81548152906001019060200180831161200457829003601f168201915b5050505050815260200160068201805461203a90615a95565b80601f016020809104026020016040519081016040528092919081815260200182805461206690615a95565b80156120b35780601f10612088576101008083540402835291602001916120b3565b820191906000526020600020905b81548152906001019060200180831161209657829003601f168201915b5050505050815250508383815181106120df5760e060020a634e487b7102600052603260045260246000fd5b60209081029190910101526120f58160016159f8565b90505b8061210281615ad3565b915050611cd4565b5090949350505050565b61211c6150ab565b60006005846040516107d291906156bb565b3360009081526003602090815260408083208151815460809481028201850190935260608101838152859491938492849190879085015b8282101561221157838290600052602060002001805461218490615a95565b80601f01602080910402602001604051908101604052809291908181526020018280546121b090615a95565b80156121fd5780601f106121d2576101008083540402835291602001916121fd565b820191906000526020600020905b8154815290600101906020018083116121e057829003601f168201915b505050505081526020019060010190612165565b50505050815260200160018201805480602002602001604051908101604052809291908181526020016000905b828210156122ea57838290600052602060002001805461225d90615a95565b80601f016020809104026020016040519081016040528092919081815260200182805461228990615a95565b80156122d65780601f106122ab576101008083540402835291602001916122d6565b820191906000526020600020905b8154815290600101906020018083116122b957829003601f168201915b50505050508152602001906001019061223e565b505050908252506002919091015460ff161515602090910152805190915060005b81518110156123b0578181815181106123375760e060020a634e487b7102600052603260045260246000fd5b602002602001015160405160200161234f91906156bb565b604051602081830303815290604052805190602001208560405160200161237691906156bb565b60405160208183030381529060405280519060200120141561239e5760019350505050610d74565b806123a881615ad3565b91505061230b565b506000949350505050565b336000908152600360209081526040808320600101805482518185028101850190935280835260609492939192909184015b8282101561158257838290600052602060002001805461240c90615a95565b80601f016020809104026020016040519081016040528092919081815260200182805461243890615a95565b80156124855780601f1061245a57610100808354040283529160200191612485565b820191906000526020600020905b81548152906001019060200180831161246857829003601f168201915b5050505050815260200190600101906123ed565b6124a16150ab565b60006004836040516124b391906156bb565b90815260408051918290036020908101832060e0840183528054600160a060020a0316845260018101549184019190915260028101549183019190915260038101805460608401919061250590615a95565b80601f016020809104026020016040519081016040528092919081815260200182805461253190615a95565b801561257e5780601f106125535761010080835404028352916020019161257e565b820191906000526020600020905b81548152906001019060200180831161256157829003601f168201915b5050505050815260200160048201805461259790615a95565b80601f01602080910402602001604051908101604052809291908181526020018280546125c390615a95565b80156126105780601f106125e557610100808354040283529160200191612610565b820191906000526020600020905b8154815290600101906020018083116125f357829003601f168201915b5050505050815260200160058201805461262990615a95565b80601f016020809104026020016040519081016040528092919081815260200182805461265590615a95565b80156126a25780601f10612677576101008083540402835291602001916126a2565b820191906000526020600020905b81548152906001019060200180831161268557829003601f168201915b505050505081526020016006820180546126bb90615a95565b80601f01602080910402602001604051908101604052809291908181526020018280546126e790615a95565b80156127345780601f1061270957610100808354040283529160200191612734565b820191906000526020600020905b81548152906001019060200180831161271757829003601f168201915b50505091909252509195945050505050565b6060600060048460405161275a91906156bb565b90815260408051918290036020908101832060e0840183528054600160a060020a031684526001810154918401919091526002810154918301919091526003810180546060840191906127ac90615a95565b80601f01602080910402602001604051908101604052809291908181526020018280546127d890615a95565b80156128255780601f106127fa57610100808354040283529160200191612825565b820191906000526020600020905b81548152906001019060200180831161280857829003601f168201915b5050505050815260200160048201805461283e90615a95565b80601f016020809104026020016040519081016040528092919081815260200182805461286a90615a95565b80156128b75780601f1061288c576101008083540402835291602001916128b7565b820191906000526020600020905b81548152906001019060200180831161289a57829003601f168201915b505050505081526020016005820180546128d090615a95565b80601f01602080910402602001604051908101604052809291908181526020018280546128fc90615a95565b80156129495780601f1061291e57610100808354040283529160200191612949565b820191906000526020600020905b81548152906001019060200180831161292c57829003601f168201915b5050505050815260200160068201805461296290615a95565b80601f016020809104026020016040519081016040528092919081815260200182805461298e90615a95565b80156129db5780601f106129b0576101008083540402835291602001916129db565b820191906000526020600020905b8154815290600101906020018083116129be57829003601f168201915b50505050508152505090506000808460ff1667ffffffffffffffff811115612a165760e060020a634e487b7102600052604160045260246000fd5b604051908082528060200260200182016040528015612a4f57816020015b612a3c6150ab565b815260200190600190039081612a345790505b5090505b8460ff168210612a6257612d9f565b82818381518110612a865760e060020a634e487b7102600052603260045260246000fd5b6020026020010181905250604051602001612aa0906156d7565b604051602081830303815290604052805190602001208360c00151604051602001612acb91906156bb565b604051602081830303815290604052805190602001201415612aec57612d9f565b60048360c00151604051612b0091906156bb565b90815260408051918290036020908101832060e0840183528054600160a060020a03168452600181015491840191909152600281015491830191909152600381018054606084019190612b5290615a95565b80601f0160208091040260200160405190810160405280929190818152602001828054612b7e90615a95565b8015612bcb5780601f10612ba057610100808354040283529160200191612bcb565b820191906000526020600020905b815481529060010190602001808311612bae57829003601f168201915b50505050508152602001600482018054612be490615a95565b80601f0160208091040260200160405190810160405280929190818152602001828054612c1090615a95565b8015612c5d5780601f10612c3257610100808354040283529160200191612c5d565b820191906000526020600020905b815481529060010190602001808311612c4057829003601f168201915b50505050508152602001600582018054612c7690615a95565b80601f0160208091040260200160405190810160405280929190818152602001828054612ca290615a95565b8015612cef5780601f10612cc457610100808354040283529160200191612cef565b820191906000526020600020905b815481529060010190602001808311612cd257829003601f168201915b50505050508152602001600682018054612d0890615a95565b80601f0160208091040260200160405190810160405280929190818152602001828054612d3490615a95565b8015612d815780601f10612d5657610100808354040283529160200191612d81565b820191906000526020600020905b815481529060010190602001808311612d6457829003601f168201915b50505050508152505092508180612d9790615ad3565b925050612a53565b95945050505050565b6040805160e081018252600160a060020a0383811682524260208084019182526000948401858152606085018a8152608086018a905260a086018c905260c0860189905260028054600181018255975285517f405787fa12a823e0f2b7631cc41b3ba8828b3321ca811111fa75cd3aa3bb5ace60079098029788018054600160a060020a0319169190961617855592517f405787fa12a823e0f2b7631cc41b3ba8828b3321ca811111fa75cd3aa3bb5acf870155517f405787fa12a823e0f2b7631cc41b3ba8828b3321ca811111fa75cd3aa3bb5ad08601559051805193948594612ebb937f405787fa12a823e0f2b7631cc41b3ba8828b3321ca811111fa75cd3aa3bb5ad19092019290910190615114565b5060808201518051612ed7916004840191602090910190615114565b5060a08201518051612ef3916005840191602090910190615114565b5060c08201518051612f0f916006840191602090910190615114565b50505080600586604051612f2391906156bb565b908152602001604051809103902085604051612f3f91906156bb565b908152604080516020928190038301902083518154600160a060020a031916600160a060020a03909116178155838301516001820155908301516002820155606083015180519192612f9992600385019290910190615114565b5060808201518051612fb5916004840191602090910190615114565b5060a08201518051612fd1916005840191602090910190615114565b5060c08201518051612fed916006840191602090910190615114565b509050508060048760405161300291906156bb565b908152604080516020928190038301902083518154600160a060020a031916600160a060020a0390911617815583830151600182015590830151600282015560608301518051919261305c92600385019290910190615114565b5060808201518051613078916004840191602090910190615114565b5060a08201518051613094916005840191602090910190615114565b5060c082015180516130b0916006840191602090910190615114565b509050506006856040516130c491906156bb565b908152604080516020928190038301902080546001808201835560009283529184902085516007909202018054600160a060020a031916600160a060020a03909216919091178155848401519181019190915590830151600282015560608301518051849361313a926003850192910190615114565b5060808201518051613156916004840191602090910190615114565b5060a08201518051613172916005840191602090910190615114565b5060c0820151805161318e916006840191602090910190615114565b5050506007846040516131a191906156bb565b908152604080516020928190038301902080546001808201835560009283529184902085516007909202018054600160a060020a031916600160a060020a039092169190911781558484015191810191909155908301516002820155606083015180518493613217926003850192910190615114565b5060808201518051613233916004840191602090910190615114565b5060a0820151805161324f916005840191602090910190615114565b5060c0820151805161326b916006840191602090910190615114565b505050600160a060020a0382166000908152600360209081526040822080546001810182559083529181902088516132aa939190910191890190615114565b50505050505050565b6000805460405160e060020a6370a08231028152349291600160a060020a0316906370a08231906132e8903090600401615700565b60206040518083038186803b15801561330057600080fd5b505afa158015613314573d6000803e3d6000fd5b505050506040513d601f19601f820116820180604052508101906133389190615578565b90506000821161335d5760405160e560020a62461bcd028152600401610583906157f6565b808211156133805760405160e560020a62461bcd02815260040161058390615955565b600054600154600160a060020a03909116906323b872dd90309033906133a69087615a10565b6040518463ffffffff1660e060020a0281526004016133c793929190615714565b602060405180830381600087803b1580156133e157600080fd5b505af11580156133f5573d6000803e3d6000fd5b505050506040513d601f19601f82011682018060405250810190613419919061527f565b507f4e08ba899977cf7d4c2964bce71c6b9a7ef76ee5166a4c1249a1e08016e33ef18260405161344991906159ef565b60405180910390a15050565b60008060009054906101000a9004600160a060020a0316600160a060020a03166318160ddd6040518163ffffffff1660e060020a02815260040160206040518083038186803b158015610dd257600080fd5b6040805160e0810182523381524260208083019182526000938301848152606084018881526080850188905260a085018a905260c0850187905260028054600181018255965284517f405787fa12a823e0f2b7631cc41b3ba8828b3321ca811111fa75cd3aa3bb5ace60079097029687018054600160a060020a031916600160a060020a0390921691909117815593517f405787fa12a823e0f2b7631cc41b3ba8828b3321ca811111fa75cd3aa3bb5acf87015590517f405787fa12a823e0f2b7631cc41b3ba8828b3321ca811111fa75cd3aa3bb5ad0860155518051939485946135ba937f405787fa12a823e0f2b7631cc41b3ba8828b3321ca811111fa75cd3aa3bb5ad19092019290910190615114565b50608082015180516135d6916004840191602090910190615114565b5060a082015180516135f2916005840191602090910190615114565b5060c0820151805161360e916006840191602090910190615114565b5050508060058560405161362291906156bb565b90815260200160405180910390208460405161363e91906156bb565b908152604080516020928190038301902083518154600160a060020a031916600160a060020a0390911617815583830151600182015590830151600282015560608301518051919261369892600385019290910190615114565b50608082015180516136b4916004840191602090910190615114565b5060a082015180516136d0916005840191602090910190615114565b5060c082015180516136ec916006840191602090910190615114565b509050508060048660405161370191906156bb565b908152604080516020928190038301902083518154600160a060020a031916600160a060020a0390911617815583830151600182015590830151600282015560608301518051919261375b92600385019290910190615114565b5060808201518051613777916004840191602090910190615114565b5060a08201518051613793916005840191602090910190615114565b5060c082015180516137af916006840191602090910190615114565b509050506006846040516137c391906156bb565b908152604080516020928190038301902080546001808201835560009283529184902085516007909202018054600160a060020a031916600160a060020a039092169190911781558484015191810191909155908301516002820155606083015180518493613839926003850192910190615114565b5060808201518051613855916004840191602090910190615114565b5060a08201518051613871916005840191602090910190615114565b5060c0820151805161388d916006840191602090910190615114565b5050506007836040516138a091906156bb565b908152604080516020928190038301902080546001808201835560009283529184902085516007909202018054600160a060020a031916600160a060020a039092169190911781558484015191810191909155908301516002820155606083015180518493613916926003850192910190615114565b5060808201518051613932916004840191602090910190615114565b5060a0820151805161394e916005840191602090910190615114565b5060c0820151805161396a916006840191602090910190615114565b50503360009081526003602090815260408220805460018101825590835291819020885161399f945092019190880190615114565b505050505050565b6000805460405160e060020a6370a08231028152600160a060020a03909116906370a0823190610dba903390600401615700565b806004836040516139ec91906156bb565b90815260200160405180910390206006019080519060200190610615929190615114565b60003390506000600483604051613a2791906156bb565b90815260408051918290036020908101832060e0840183528054600160a060020a03168452600181015491840191909152600281015491830191909152600381018054606084019190613a7990615a95565b80601f0160208091040260200160405190810160405280929190818152602001828054613aa590615a95565b8015613af25780601f10613ac757610100808354040283529160200191613af2565b820191906000526020600020905b815481529060010190602001808311613ad557829003601f168201915b50505050508152602001600482018054613b0b90615a95565b80601f0160208091040260200160405190810160405280929190818152602001828054613b3790615a95565b8015613b845780601f10613b5957610100808354040283529160200191613b84565b820191906000526020600020905b815481529060010190602001808311613b6757829003601f168201915b50505050508152602001600582018054613b9d90615a95565b80601f0160208091040260200160405190810160405280929190818152602001828054613bc990615a95565b8015613c165780601f10613beb57610100808354040283529160200191613c16565b820191906000526020600020905b815481529060010190602001808311613bf957829003601f168201915b50505050508152602001600682018054613c2f90615a95565b80601f0160208091040260200160405190810160405280929190818152602001828054613c5b90615a95565b8015613ca85780601f10613c7d57610100808354040283529160200191613ca8565b820191906000526020600020905b815481529060010190602001808311613c8b57829003601f168201915b50505091909252505081516040805160e0810182526064815260326020820152601991810191909152600c606082015260066080820152600360a0820152600160c082015292935085929091506000613d008461212e565b15613d1057505050505050614107565b613d1984614584565b15613d2957505050505050614107565b60078110613d36576140c9565b82604051602001613d479190615698565b6040516020818303038152906040528051906020012086604051602001613d6e9190615698565b6040516020818303038152906040528051906020012014613db157613db186848484600781106118fb5760e060020a634e487b7102600052603260045260246000fd5b604051602001613dc0906156d7565b604051602081830303815290604052805190602001208560c00151604051602001613deb91906156bb565b604051602081830303815290604052805190602001201415613e0c576140c9565b82955060048560c00151604051613e2391906156bb565b90815260408051918290036020908101832060e0840183528054600160a060020a03168452600181015491840191909152600281015491830191909152600381018054606084019190613e7590615a95565b80601f0160208091040260200160405190810160405280929190818152602001828054613ea190615a95565b8015613eee5780601f10613ec357610100808354040283529160200191613eee565b820191906000526020600020905b815481529060010190602001808311613ed157829003601f168201915b50505050508152602001600482018054613f0790615a95565b80601f0160208091040260200160405190810160405280929190818152602001828054613f3390615a95565b8015613f805780601f10613f5557610100808354040283529160200191613f80565b820191906000526020600020905b815481529060010190602001808311613f6357829003601f168201915b50505050508152602001600582018054613f9990615a95565b80601f0160208091040260200160405190810160405280929190818152602001828054613fc590615a95565b80156140125780601f10613fe757610100808354040283529160200191614012565b820191906000526020600020905b815481529060010190602001808311613ff557829003601f168201915b5050505050815260200160068201805461402b90615a95565b80601f016020809104026020016040519081016040528092919081815260200182805461405790615a95565b80156140a45780601f10614079576101008083540402835291602001916140a4565b820191906000526020600020905b81548152906001019060200180831161408757829003601f168201915b50505050508152505094508460000151925080806140c190615ad3565b915050613d29565b336000908152600360209081526040822060019081018054918201815583529181902086516140ff939190910191870190615114565b505050505050505b50565b6000811161412d5760405160e560020a62461bcd0281526004016105839061582d565b60005460405160e060020a6323b872dd028152600160a060020a03909116906323b872dd9061416490339030908690600401615714565b602060405180830381600087803b15801561417e57600080fd5b505af1158015614192573d6000803e3d6000fd5b505050506040513d601f19601f820116820180604052508101906141b6919061527f565b506000600154826141c79190615a33565b9050600033600160a060020a0316826040516141e290610760565b60006040518083038185875af1925050503d806000811461421f576040519150601f19603f3d011682016040523d82523d6000602084013e614224565b606091505b50509050806142485760405160e560020a62461bcd0281526004016105839061591e565b7f92f64ca637d023f354075a4be751b169c1a8a9ccb6d33cdd0cb35205439957278360405161427791906159ef565b60405180910390a1505050565b6060600060078360405161429891906156bb565b9081526020016040518091039020805480602002602001604051908101604052809291908181526020016000905b82821015610d6b5760008481526020908190206040805160e081018252600786029092018054600160a060020a0316835260018101549383019390935260028301549082015260038201805491929160608401919061432490615a95565b80601f016020809104026020016040519081016040528092919081815260200182805461435090615a95565b801561439d5780601f106143725761010080835404028352916020019161439d565b820191906000526020600020905b81548152906001019060200180831161438057829003601f168201915b505050505081526020016004820180546143b690615a95565b80601f01602080910402602001604051908101604052809291908181526020018280546143e290615a95565b801561442f5780601f106144045761010080835404028352916020019161442f565b820191906000526020600020905b81548152906001019060200180831161441257829003601f168201915b5050505050815260200160058201805461444890615a95565b80601f016020809104026020016040519081016040528092919081815260200182805461447490615a95565b80156144c15780601f10614496576101008083540402835291602001916144c1565b820191906000526020600020905b8154815290600101906020018083116144a457829003601f168201915b505050505081526020016006820180546144da90615a95565b80601f016020809104026020016040519081016040528092919081815260200182805461450690615a95565b80156145535780601f1061452857610100808354040283529160200191614553565b820191906000526020600020905b81548152906001019060200180831161453657829003601f168201915b505050505081525050815260200190600101906142c6565b3360009081526003602052604090206002015460ff1690565b3360009081526003602090815260408083208151815460809481028201850190935260608101838152859491938492849190879085015b828210156146675783829060005260206000200180546145da90615a95565b80601f016020809104026020016040519081016040528092919081815260200182805461460690615a95565b80156146535780601f1061462857610100808354040283529160200191614653565b820191906000526020600020905b81548152906001019060200180831161463657829003601f168201915b5050505050815260200190600101906145bb565b50505050815260200160018201805480602002602001604051908101604052809291908181526020016000905b828210156147405783829060005260206000200180546146b390615a95565b80601f01602080910402602001604051908101604052809291908181526020018280546146df90615a95565b801561472c5780601f106147015761010080835404028352916020019161472c565b820191906000526020600020905b81548152906001019060200180831161470f57829003601f168201915b505050505081526020019060010190614694565b505050908252506002919091015460ff16151560209182015281015190915060005b81518110156123b05781818151811061478e5760e060020a634e487b7102600052603260045260246000fd5b60200260200101516040516020016147a691906156bb565b60405160208183030381529060405280519060200120856040516020016147cd91906156bb565b6040516020818303038152906040528051906020012014156147f55760019350505050610d74565b806147ff81615ad3565b915050614762565b600054600160a060020a031681565b6060600060058560405161482a91906156bb565b90815260200160405180910390208460405161484691906156bb565b90815260408051918290036020908101832060e0840183528054600160a060020a0316845260018101549184019190915260028101549183019190915260038101805460608401919061489890615a95565b80601f01602080910402602001604051908101604052809291908181526020018280546148c490615a95565b80156149115780601f106148e657610100808354040283529160200191614911565b820191906000526020600020905b8154815290600101906020018083116148f457829003601f168201915b5050505050815260200160048201805461492a90615a95565b80601f016020809104026020016040519081016040528092919081815260200182805461495690615a95565b80156149a35780601f10614978576101008083540402835291602001916149a3565b820191906000526020600020905b81548152906001019060200180831161498657829003601f168201915b505050505081526020016005820180546149bc90615a95565b80601f01602080910402602001604051908101604052809291908181526020018280546149e890615a95565b8015614a355780601f10614a0a57610100808354040283529160200191614a35565b820191906000526020600020905b815481529060010190602001808311614a1857829003601f168201915b50505050508152602001600682018054614a4e90615a95565b80601f0160208091040260200160405190810160405280929190818152602001828054614a7a90615a95565b8015614ac75780601f10614a9c57610100808354040283529160200191614ac7565b820191906000526020600020905b815481529060010190602001808311614aaa57829003601f168201915b50505050508152505090506000808460ff1667ffffffffffffffff811115614b025760e060020a634e487b7102600052604160045260246000fd5b604051908082528060200260200182016040528015614b3b57816020015b614b286150ab565b815260200190600190039081614b205790505b5090505b8460ff168210614b4e57614e8b565b82818381518110614b725760e060020a634e487b7102600052603260045260246000fd5b6020026020010181905250604051602001614b8c906156d7565b604051602081830303815290604052805190602001208360c00151604051602001614bb791906156bb565b604051602081830303815290604052805190602001201415614bd857614e8b565b60048360c00151604051614bec91906156bb565b90815260408051918290036020908101832060e0840183528054600160a060020a03168452600181015491840191909152600281015491830191909152600381018054606084019190614c3e90615a95565b80601f0160208091040260200160405190810160405280929190818152602001828054614c6a90615a95565b8015614cb75780601f10614c8c57610100808354040283529160200191614cb7565b820191906000526020600020905b815481529060010190602001808311614c9a57829003601f168201915b50505050508152602001600482018054614cd090615a95565b80601f0160208091040260200160405190810160405280929190818152602001828054614cfc90615a95565b8015614d495780601f10614d1e57610100808354040283529160200191614d49565b820191906000526020600020905b815481529060010190602001808311614d2c57829003601f168201915b50505050508152602001600582018054614d6290615a95565b80601f0160208091040260200160405190810160405280929190818152602001828054614d8e90615a95565b8015614ddb5780601f10614db057610100808354040283529160200191614ddb565b820191906000526020600020905b815481529060010190602001808311614dbe57829003601f168201915b50505050508152602001600682018054614df490615a95565b80601f0160208091040260200160405190810160405280929190818152602001828054614e2090615a95565b8015614e6d5780601f10614e4257610100808354040283529160200191614e6d565b820191906000526020600020905b815481529060010190602001808311614e5057829003601f168201915b50505050508152505092508180614e8390615ad3565b925050614b3f565b9695505050505050565b60008111614eb85760405160e560020a62461bcd0281526004016105839061588a565b60005460405160e060020a6323b872dd028152600160a060020a03909116906323b872dd90614eef90869086908690600401615714565b602060405180830381600087803b158015614f0957600080fd5b505af1158015614f1d573d6000803e3d6000fd5b505050506040513d601f19601f82011682018060405250810190614f41919061527f565b50505050565b60405160009083908390614f5f9082906020016156bb565b6040516020818303038152906040528051906020012085604051602001614f8691906156bb565b604051602081830303815290604052805190602001201415614fad57600192505050610a7e565b6000805b83518351614fbf9190615a52565b8110156150a157600160005b855181101561507d57858181518110614ff75760e060020a634e487b7102600052603260045260246000fd5b602001015160f860020a900460f860020a02600160f860020a03191685828561502091906159f8565b815181106150415760e060020a634e487b7102600052603260045260246000fd5b602001015160f860020a900460f860020a02600160f860020a0319161461506b576000915061507d565b8061507581615ad3565b915050614fcb565b50801561508e5760019250506150a1565b508061509981615ad3565b915050614fb1565b5095945050505050565b6040518060e001604052806000600160a060020a031681526020016000815260200160008152602001606081526020016060815260200160608152602001606081525090565b604051806060016040528060608152602001606081526020016000151581525090565b82805461512090615a95565b90600052602060002090601f0160209004810192826151425760008555615188565b82601f1061515b57805160ff1916838001178555615188565b82800160010185558215615188579182015b8281111561518857825182559160200191906001019061516d565b50615194929150615198565b5090565b5b808211156151945760008155600101615199565b8035600160a060020a0381168114610d7457600080fd5b600082601f8301126151d4578081fd5b813567ffffffffffffffff808211156151ef576151ef615b07565b604051601f8301601f19168101602001828111828210171561521357615213615b07565b60405282815284830160200186101561522a578384fd5b82602086016020830137918201602001929092529392505050565b803560ff81168114610d7457600080fd5b60008060408385031215615268578182fd5b615271836151ad565b946020939093013593505050565b600060208284031215615290578081fd5b8151801515811461529f578182fd5b9392505050565b6000602082840312156152b7578081fd5b813567ffffffffffffffff8111156152cd578182fd5b6152d9848285016151c4565b949350505050565b600080604083850312156152f3578182fd5b823567ffffffffffffffff8082111561530a578384fd5b615316868387016151c4565b9350602085013591508082111561532b578283fd5b50615338858286016151c4565b9150509250929050565b60008060008060808587031215615357578182fd5b843567ffffffffffffffff8082111561536e578384fd5b61537a888389016151c4565b9550602087013591508082111561538f578384fd5b61539b888389016151c4565b945060408701359150808211156153b0578384fd5b6153bc888389016151c4565b935060608701359150808211156153d1578283fd5b506153de878288016151c4565b91505092959194509250565b600080600080600060a08688031215615401578081fd5b853567ffffffffffffffff80821115615418578283fd5b61542489838a016151c4565b96506020880135915080821115615439578283fd5b61544589838a016151c4565b9550604088013591508082111561545a578283fd5b61546689838a016151c4565b9450606088013591508082111561547b578283fd5b50615488888289016151c4565b925050615497608087016151ad565b90509295509295909350565b6000806000606084860312156154b7578283fd5b833567ffffffffffffffff808211156154ce578485fd5b6154da878388016151c4565b945060208601359150808211156154ef578384fd5b506154fc868287016151c4565b92505061550b60408501615245565b90509250925092565b60008060408385031215615526578182fd5b823567ffffffffffffffff81111561553c578283fd5b615548858286016151c4565b92505061555760208401615245565b90509250929050565b600060208284031215615571578081fd5b5035919050565b600060208284031215615589578081fd5b5051919050565b6000815180845260208085018081965082840281019150828601855b858110156155d65782840389526155c48483516155e3565b988501989350908401906001016155ac565b5091979650505050505050565b600081518084526155fb816020860160208601615a69565b601f01601f19169290920160200192915050565b6000600160a060020a0382511683526020820151602084015260408201516040840152606082015160e0606085015261564b60e08501826155e3565b90506080830151848203608086015261566482826155e3565b91505060a083015184820360a086015261567e82826155e3565b91505060c083015184820360c0860152612d9f82826155e3565b600160a060020a03919091166c0100000000000000000000000002815260140190565b600082516156cd818460208701615a69565b9190910192915050565b7f4e6f6e6500000000000000000000000000000000000000000000000000000000815260040190565b600160a060020a0391909116815260200190565b600160a060020a039384168152919092166020820152604081019190915260600190565b6000602080830181845280855180835260408601915060408482028701019250838701855b8281101561578b57603f198886030184526157798583516155e3565b9450928501929085019060010161575d565b5092979650505050505050565b6000602080830181845280855180835260408601915060408482028701019250838701855b8281101561578b57603f198886030184526157d985835161560f565b945092850192908501906001016157bd565b901515815260200190565b6020808252601b908201527f596f75206e65656420746f2073656e6420736f6d652045746865720000000000604082015260600190565b60208082526025908201527f596f75206e65656420746f2073656c6c206174206c6561737420736f6d65207460408201527f6f6b656e73000000000000000000000000000000000000000000000000000000606082015260800190565b60208082526026908201527f596f75206e65656420746f20656e746572206174206c6561737420736f6d652060408201527f746f6b656e730000000000000000000000000000000000000000000000000000606082015260800190565b60208082526018908201527f52656769737465722050726f63657373206661696c65642e0000000000000000604082015260600190565b60208082526016908201527f5472616e73666572204574686572206661696c65642e00000000000000000000604082015260600190565b6020808252818101527f4e6f7420656e6f75676820746f6b656e7320696e207468652072657365727665604082015260600190565b60006020825261529f602083018461560f565b6000602082528251606060208401526159b96080840182615590565b90506020840151601f198483030160408501526159d68282615590565b9150506040840151151560608401528091505092915050565b90815260200190565b60008219821115615a0b57615a0b615aee565b500190565b600082615a2e5760e060020a634e487b710281526012600452602481fd5b500490565b6000816000190483118215151615615a4d57615a4d615aee565b500290565b600082821015615a6457615a64615aee565b500390565b60005b83811015615a84578181015183820152602001615a6c565b83811115614f415750506000910152565b600281046001821680615aa957607f821691505b60208210811415615acd5760e060020a634e487b7102600052602260045260246000fd5b50919050565b6000600019821415615ae757615ae7615aee565b5060010190565b60e060020a634e487b7102600052601160045260246000fd5b60e060020a634e487b7102600052604160045260246000fdfea26469706673582212209707cfb24e0f4695a0acd40de9a6b9f2059444dae3897728e030b83308e9b0ea64736f6c63430008000033608060405268056bc75e2d6310000060015534801561001d57600080fd5b50600154336000908152602081905260409020556104ab806100406000396000f3fe608060405234801561001057600080fd5b506004361061007e577c0100000000000000000000000000000000000000000000000000000000600035046306fdde03811461008357806318160ddd146100a157806323b872dd146100b6578063313ce567146100d657806370a08231146100eb57806395d89b41146100fe575b600080fd5b61008b610106565b604051610098919061038e565b60405180910390f35b6100a961013f565b6040516100989190610416565b6100c96100c4366004610348565b610145565b6040516100989190610383565b6100de610256565b604051610098919061041f565b6100a96100f936600461032e565b61025b565b61008b61027a565b6040518060400160405280600981526020017f4d75736963436f696e000000000000000000000000000000000000000000000081525081565b60015490565b600160a060020a0383166000908152602081905260408120548211156101a0576040517f08c379a0000000000000000000000000000000000000000000000000000000008152600401610197906103e1565b60405180910390fd5b600160a060020a0384166000908152602081905260409020546101c390836102b3565b600160a060020a0380861660009081526020819052604080822093909355908516815220546101f290836102e7565b600160a060020a0380851660008181526020819052604090819020939093559151908616907fddf252ad1be2c89b69c2b068fc378daa952ba7f163c4a11628f55a4df523b3ef90610244908690610416565b60405180910390a35060019392505050565b600281565b600160a060020a0381166000908152602081905260409020545b919050565b6040518060400160405280600381526020017f4d5543000000000000000000000000000000000000000000000000000000000081525081565b6000828211156102d65760e060020a634e487b7102600052600160045260246000fd5b6102e08284610445565b9392505050565b6000806102f4838561042d565b9050838110156102e05760e060020a634e487b7102600052600160045260246000fd5b8035600160a060020a038116811461027557600080fd5b60006020828403121561033f578081fd5b6102e082610317565b60008060006060848603121561035c578182fd5b61036584610317565b925061037360208501610317565b9150604084013590509250925092565b901515815260200190565b6000602080835283518082850152825b818110156103ba5785810183015185820160400152820161039e565b818111156103cb5783604083870101525b50601f01601f1916929092016040019392505050565b6020808252818101527f546865206f776e657220686173206e6f20656e6f7567682062616c616e636521604082015260600190565b90815260200190565b60ff91909116815260200190565b600082198211156104405761044061045c565b500190565b6000828210156104575761045761045c565b500390565b60e060020a634e487b7102600052601160045260246000fdfea2646970667358221220dd6487f38fb2355b01aa2007d24309987685c8b8c437448added730bc2852eba64736f6c63430008000033",
  "immutableReferences": {},
  "source": "pragma solidity >=0.4.0 <0.9.0;\n// support return struct in functions\npragma experimental ABIEncoderV2;\n\n// import \"../../node_modules/@openzeppelin/contracts/token/ERC20/ERC20.sol\";\n// import \"./MusicCoin.sol\";\nimport \"./MusicToken.sol\";\n\ncontract MusicDApp is DEX {\n    // Music metadata\n    struct Music {\n        // Music information\n        address uploader;\n        uint256 uploadTime;\n        uint256 count;\n        string name;\n        string artist;\n        // Music content\n        string ipfsHash;\n        string coverFrom;\n    }\n\n    struct User {\n        string[] upload_music_list;\n        string[] bought_music_list;\n        bool isValid;\n    }\n\n    // State variables\n    Music[] musics;\n\n    mapping(address => User) internal users;\n\n    // ipfs hash as index\n    mapping(string => Music) internal music_hash;\n\n    // (name, artist) as primary key\n    mapping(string => mapping(string => Music)) internal music;\n\n    // name as primary key\n    mapping(string => Music[]) internal music_artist_list;\n\n    // artist as primary key\n    mapping(string => Music[]) internal artist_music_list;\n\n    // Modifiers\n\n    // Public methods\n\n    // Retrieve basic user information\n    function returnMsgSender() public view returns (address) {\n        return msg.sender;\n    }\n\n    function userExists() public view returns (bool) {\n        return users[msg.sender].isValid;\n    }\n\n    function getUserInfo() public view returns (User memory) {\n        return users[msg.sender];\n    }\n\n    function getUserBalance() public view returns (uint256) {\n        return token.balanceOf(msg.sender);\n    }\n\n    function registerUser() public returns (User memory) {\n        if (!userExists()) {\n            // Give 10000 token for new user\n            uint256 dexBalance = token.balanceOf(address(this));\n            require(10000 <= dexBalance, \"Not enough tokens in the reserve\");\n            bool success = register();\n            require(success, \"Register Process failed.\");\n            // token.transfer(msg.sender, 10000);\n            users[msg.sender].isValid = true;\n            User memory user = users[msg.sender];\n            return user;\n        } else {\n            return users[msg.sender];\n        }\n    }\n\n    function getUploadMusicList() public view returns (string[] memory) {\n        return users[msg.sender].upload_music_list;\n    }\n\n    function getBoughtMusicList() public view returns (string[] memory) {\n        return users[msg.sender].bought_music_list;\n    }\n\n    function findUploadMusic(string memory _ipfsHash)\n        public\n        view\n        returns (bool)\n    {\n        User memory user = users[msg.sender];\n        string[] memory upload_list = user.upload_music_list;\n\n        for (uint256 i = 0; i < upload_list.length; i++) {\n            if (\n                keccak256(abi.encodePacked(_ipfsHash)) ==\n                keccak256(abi.encodePacked(upload_list[i]))\n            ) {\n                return true;\n            }\n        }\n\n        return false;\n    }\n\n    function findBoughtMusic(string memory _ipfsHash)\n        public\n        view\n        returns (bool)\n    {\n        User memory user = users[msg.sender];\n        string[] memory bought_list = user.bought_music_list;\n\n        for (uint256 i = 0; i < bought_list.length; i++) {\n            if (\n                keccak256(abi.encodePacked(_ipfsHash)) ==\n                keccak256(abi.encodePacked(bought_list[i]))\n            ) {\n                return true;\n            }\n        }\n\n        return false;\n    }\n\n    function uploadMusic(\n        string memory _ipfsHash,\n        string memory _name,\n        string memory _artist,\n        string memory _coverFrom\n    ) public {\n        Music memory _music =\n            Music(\n                msg.sender,\n                block.timestamp,\n                0,\n                _name,\n                _artist,\n                _ipfsHash,\n                _coverFrom\n            );\n\n        // Global state update\n        musics.push(_music);\n        music[_name][_artist] = _music;\n        music_hash[_ipfsHash] = _music;\n        music_artist_list[_name].push(_music);\n        artist_music_list[_artist].push(_music);\n\n        // User state update\n        users[msg.sender].upload_music_list.push(_ipfsHash);\n    }\n\n    function uploadMusic_batch(\n        string memory _ipfsHash,\n        string memory _name,\n        string memory _artist,\n        string memory _coverFrom,\n        address uploader_addr\n    ) public {\n        Music memory _music =\n            Music(\n                uploader_addr,\n                block.timestamp,\n                0,\n                _name,\n                _artist,\n                _ipfsHash,\n                _coverFrom\n            );\n\n        // Global state update\n        musics.push(_music);\n        music[_name][_artist] = _music;\n        music_hash[_ipfsHash] = _music;\n        music_artist_list[_name].push(_music);\n        artist_music_list[_artist].push(_music);\n\n        // User state update\n        users[uploader_addr].upload_music_list.push(_ipfsHash);\n    }\n\n    function getMusic(string memory _name, string memory _artist)\n        public\n        view\n        returns (Music memory)\n    {\n        Music memory _music = music[_name][_artist];\n\n        return _music;\n    }\n\n    function searchMusic(string memory _name, string memory _artist)\n        public\n        view\n        returns (Music[] memory)\n    {\n        Music[] memory returnList = new Music[](musics.length);\n        uint ind = 0;\n        for (uint i=0; i<musics.length; i++) {\n            if (str_contains(_name,musics[i].name) || str_contains(_artist,musics[i].artist))\n            {\n                returnList[ind] = musics[i];\n                i = i + 1;\n            }\n        }\n        return returnList;\n    }\n\n    function getMusicByHash(string memory _ipfsHash)\n        public\n        view\n        returns (Music memory)\n    {\n        Music memory _music = music_hash[_ipfsHash];\n\n        return _music;\n    }\n\n    function getMusicWithCountIncrement(\n        string memory _name,\n        string memory _artist\n    ) public returns (Music memory) {\n        music[_name][_artist].count += 1;\n        Music memory _music = music[_name][_artist];\n\n        return _music;\n    }\n\n    function getMusicArtistList(string memory _name)\n        public\n        view\n        returns (Music[] memory)\n    {\n        Music[] memory _music_list = music_artist_list[_name];\n\n        return _music_list;\n    }\n\n    function getArtistMusicList(string memory _artist)\n        public\n        view\n        returns (Music[] memory)\n    {\n        Music[] memory _artist_music_list = artist_music_list[_artist];\n\n        return _artist_music_list;\n    }\n\n    function buyMusic(string memory _name, string memory _artist) public {\n        address sender = msg.sender;\n        Music memory _music = music[_name][_artist];\n        string memory songHash = _music.ipfsHash;\n        address uploader = _music.uploader;\n        uint8[7] memory chain = [100, 50, 25, 12, 6, 3, 1];\n        uint256 count = 0;\n\n        // TODO: Uploader can listen to what he uploaded\n        if (findUploadMusic(songHash)) return;\n\n        // TODO: Buyer will not pay twice\n        if (findBoughtMusic(songHash)) return;\n        // transfer token to uploader at the beginning of the chain\n\n        while (true) {\n            // The depth excee the limit\n            if (count >= 7) {\n                break;\n            }\n\n            transferTokenFrom(sender, uploader, chain[count]);\n            // hit the end of the chain\n            if (\n                keccak256(abi.encodePacked((_music.coverFrom))) ==\n                keccak256(abi.encodePacked((\"None\")))\n            ) {\n                break;\n            }\n\n            sender = uploader;\n            _music = music_hash[_music.coverFrom];\n            uploader = _music.uploader;\n\n            count++;\n        }\n\n        // add music to listener list\n        users[msg.sender].bought_music_list.push(songHash);\n    }\n\n    // Just for testing purpose\n    function setMusicCoverFrom(string memory _ipfsHash, string memory _coverFrom) public {\n        music_hash[_ipfsHash].coverFrom = _coverFrom;\n    }\n\n    function buyMusicByHash(string memory _ipfsHash) public {\n        address sender = msg.sender;\n        Music memory _music = music_hash[_ipfsHash];\n        string memory songHash = _ipfsHash;\n        address uploader = _music.uploader;\n        uint8[7] memory chain = [100, 50, 25, 12, 6, 3, 1];\n        uint256 count = 0;\n\n        // Uploader can listen to what he uploaded\n        if (findUploadMusic(songHash)) return;\n\n        // Buyer will not pay twice\n        if (findBoughtMusic(songHash)) return;\n\n        while (true) {\n            // The depth excee the limit\n            if (count >= 7) {\n                break;\n            }\n\n            // Send token only if the \n            if (\n                !(keccak256(abi.encodePacked(sender)) ==\n                keccak256(abi.encodePacked(uploader)))\n            ) {\n                transferTokenFrom(sender, uploader, chain[count]);\n            }\n            // hit the end of the chain\n            if (\n                keccak256(abi.encodePacked((_music.coverFrom))) ==\n                keccak256(abi.encodePacked((\"None\")))\n            ) {\n                break;\n            }\n\n            sender = uploader;\n            _music = music_hash[_music.coverFrom];\n            uploader = _music.uploader;\n\n            count++;\n        }\n\n        // add music to listener list\n        users[msg.sender].bought_music_list.push(songHash);\n    }\n\n    function getMusicChain(\n        string memory _name,\n        string memory _artist,\n        uint8 depth\n    ) public view returns (Music[] memory) {\n        Music memory _music = music[_name][_artist];\n        uint256 count = 0;\n        Music[] memory music_chain = new Music[](depth);\n\n        // transfer token to uploader at the beginning of the chain\n\n        while (true) {\n            // The depth excee the limit\n            if (count >= depth) {\n                break;\n            }\n            music_chain[count] = _music;\n            // hit the end of the chain\n            if (\n                keccak256(abi.encodePacked((_music.coverFrom))) ==\n                keccak256(abi.encodePacked((\"None\")))\n            ) {\n                break;\n            }\n\n            _music = music_hash[_music.coverFrom];\n\n            count++;\n        }\n\n        return music_chain;\n    }\n\n    function getMusicChainByHash(string memory _ipfsHash, uint8 depth)\n        public\n        view\n        returns (Music[] memory)\n    {\n        Music memory _music = music_hash[_ipfsHash];\n        uint256 count = 0;\n        Music[] memory music_chain = new Music[](depth);\n\n        while (true) {\n            // The depth excee the limit\n            if (count >= depth) {\n                break;\n            }\n            music_chain[count] = _music;\n            // hit the end of the chain\n            if (\n                keccak256(abi.encodePacked((_music.coverFrom))) ==\n                keccak256(abi.encodePacked((\"None\")))\n            ) {\n                break;\n            }\n\n            _music = music_hash[_music.coverFrom];\n\n            count++;\n        }\n\n        return music_chain;\n    }\n\n    // Private methods\n    // check if string contains in other string\n    function str_contains (string memory what, string memory where) private pure returns (bool){\n        bytes memory whatBytes = bytes (what);\n        bytes memory whereBytes = bytes (where);\n        if (keccak256(abi.encodePacked((what))) == keccak256(abi.encodePacked((where))))\n        {\n            return true;\n        }\n        bool found = false;\n        for (uint i = 0; i < whereBytes.length - whatBytes.length; i++) {\n            bool flag = true;\n            for (uint j = 0; j < whatBytes.length; j++)\n                if (whereBytes [i + j] != whatBytes [j]) {\n                    flag = false;\n                    break;\n                }\n            if (flag) {\n                found = true;\n                break;\n            }\n        }\n        return (found);\n    }\n}\n",
  "sourcePath": "/Users/systemato/dev/nmlab-final/music-dapp/react/src/contracts/MusicDApp.sol",
  "compiler": {
    "name": "solc",
    "version": "0.8.0+commit.c7dfd78e.Emscripten.clang"
  },
  "schemaVersion": "3.4.0",
  "updatedAt": "2021-06-24T15:42:09.406Z",
  "networkType": "ethereum",
  "devdoc": {
    "kind": "dev",
    "methods": {},
    "version": 1
  },
  "userdoc": {
    "kind": "user",
    "methods": {},
    "version": 1
  }
}