{
  "contractName": "MusicDApp",
  "abi": [
    {
      "anonymous": false,
      "inputs": [
        {
          "indexed": false,
          "internalType": "uint256",
          "name": "amount",
          "type": "uint256"
        }
      ],
      "name": "Bought",
      "type": "event"
    },
    {
      "anonymous": false,
      "inputs": [
        {
          "indexed": false,
          "internalType": "uint256",
          "name": "amount",
          "type": "uint256"
        }
      ],
      "name": "Sold",
      "type": "event"
    },
    {
      "inputs": [],
      "name": "buy",
      "outputs": [],
      "stateMutability": "payable",
      "type": "function",
      "payable": true
    },
    {
      "inputs": [],
      "name": "exchange_rate",
      "outputs": [
        {
          "internalType": "uint256",
          "name": "",
          "type": "uint256"
        }
      ],
      "stateMutability": "view",
      "type": "function",
      "constant": true
    },
    {
      "inputs": [],
      "name": "getContractAddress",
      "outputs": [
        {
          "internalType": "address",
          "name": "",
          "type": "address"
        }
      ],
      "stateMutability": "view",
      "type": "function",
      "constant": true
    },
    {
      "inputs": [],
      "name": "getPoolEtherBalance",
      "outputs": [
        {
          "internalType": "uint256",
          "name": "",
          "type": "uint256"
        }
      ],
      "stateMutability": "view",
      "type": "function",
      "constant": true
    },
    {
      "inputs": [],
      "name": "getPoolTokenBalance",
      "outputs": [
        {
          "internalType": "uint256",
          "name": "",
          "type": "uint256"
        }
      ],
      "stateMutability": "view",
      "type": "function",
      "constant": true
    },
    {
      "inputs": [],
      "name": "getTokenSupply",
      "outputs": [
        {
          "internalType": "uint256",
          "name": "",
          "type": "uint256"
        }
      ],
      "stateMutability": "view",
      "type": "function",
      "constant": true
    },
    {
      "inputs": [],
      "name": "register",
      "outputs": [
        {
          "internalType": "bool",
          "name": "",
          "type": "bool"
        }
      ],
      "stateMutability": "nonpayable",
      "type": "function"
    },
    {
      "inputs": [
        {
          "internalType": "uint256",
          "name": "amount",
          "type": "uint256"
        }
      ],
      "name": "sell",
      "outputs": [],
      "stateMutability": "nonpayable",
      "type": "function"
    },
    {
      "inputs": [],
      "name": "token",
      "outputs": [
        {
          "internalType": "contract TokenPool",
          "name": "",
          "type": "address"
        }
      ],
      "stateMutability": "view",
      "type": "function",
      "constant": true
    },
    {
      "inputs": [
        {
          "internalType": "address",
          "name": "receiver",
          "type": "address"
        },
        {
          "internalType": "uint256",
          "name": "amount",
          "type": "uint256"
        }
      ],
      "name": "transferToken",
      "outputs": [],
      "stateMutability": "nonpayable",
      "type": "function"
    },
    {
      "inputs": [],
      "name": "returnMsgSender",
      "outputs": [
        {
          "internalType": "address",
          "name": "",
          "type": "address"
        }
      ],
      "stateMutability": "view",
      "type": "function",
      "constant": true
    },
    {
      "inputs": [],
      "name": "userExists",
      "outputs": [
        {
          "internalType": "bool",
          "name": "",
          "type": "bool"
        }
      ],
      "stateMutability": "view",
      "type": "function",
      "constant": true
    },
    {
      "inputs": [],
      "name": "getUserInfo",
      "outputs": [
        {
          "components": [
            {
              "internalType": "string[]",
              "name": "upload_music_list",
              "type": "string[]"
            },
            {
              "internalType": "string[]",
              "name": "bought_music_list",
              "type": "string[]"
            },
            {
              "internalType": "bool",
              "name": "isValid",
              "type": "bool"
            }
          ],
          "internalType": "struct MusicDApp.User",
          "name": "",
          "type": "tuple"
        }
      ],
      "stateMutability": "view",
      "type": "function",
      "constant": true
    },
    {
      "inputs": [],
      "name": "getUserBalance",
      "outputs": [
        {
          "internalType": "uint256",
          "name": "",
          "type": "uint256"
        }
      ],
      "stateMutability": "view",
      "type": "function",
      "constant": true
    },
    {
      "inputs": [],
      "name": "registerUser",
      "outputs": [
        {
          "components": [
            {
              "internalType": "string[]",
              "name": "upload_music_list",
              "type": "string[]"
            },
            {
              "internalType": "string[]",
              "name": "bought_music_list",
              "type": "string[]"
            },
            {
              "internalType": "bool",
              "name": "isValid",
              "type": "bool"
            }
          ],
          "internalType": "struct MusicDApp.User",
          "name": "",
          "type": "tuple"
        }
      ],
      "stateMutability": "nonpayable",
      "type": "function"
    },
    {
      "inputs": [],
      "name": "getUploadMusicList",
      "outputs": [
        {
          "internalType": "string[]",
          "name": "",
          "type": "string[]"
        }
      ],
      "stateMutability": "view",
      "type": "function",
      "constant": true
    },
    {
      "inputs": [],
      "name": "getBoughtMusicList",
      "outputs": [
        {
          "internalType": "string[]",
          "name": "",
          "type": "string[]"
        }
      ],
      "stateMutability": "view",
      "type": "function",
      "constant": true
    },
    {
      "inputs": [
        {
          "internalType": "string",
          "name": "_ipfsHash",
          "type": "string"
        }
      ],
      "name": "findUploadMusic",
      "outputs": [
        {
          "internalType": "bool",
          "name": "",
          "type": "bool"
        }
      ],
      "stateMutability": "view",
      "type": "function",
      "constant": true
    },
    {
      "inputs": [
        {
          "internalType": "string",
          "name": "_ipfsHash",
          "type": "string"
        }
      ],
      "name": "findBoughtMusic",
      "outputs": [
        {
          "internalType": "bool",
          "name": "",
          "type": "bool"
        }
      ],
      "stateMutability": "view",
      "type": "function",
      "constant": true
    },
    {
      "inputs": [
        {
          "internalType": "string",
          "name": "_ipfsHash",
          "type": "string"
        },
        {
          "internalType": "string",
          "name": "_name",
          "type": "string"
        },
        {
          "internalType": "string",
          "name": "_artist",
          "type": "string"
        },
        {
          "internalType": "string",
          "name": "_coverFrom",
          "type": "string"
        }
      ],
      "name": "uploadMusic",
      "outputs": [],
      "stateMutability": "nonpayable",
      "type": "function"
    },
    {
      "inputs": [
        {
          "internalType": "string",
          "name": "_name",
          "type": "string"
        },
        {
          "internalType": "string",
          "name": "_artist",
          "type": "string"
        }
      ],
      "name": "getMusic",
      "outputs": [
        {
          "components": [
            {
              "internalType": "address",
              "name": "uploader",
              "type": "address"
            },
            {
              "internalType": "uint256",
              "name": "uploadTime",
              "type": "uint256"
            },
            {
              "internalType": "uint256",
              "name": "count",
              "type": "uint256"
            },
            {
              "internalType": "string",
              "name": "name",
              "type": "string"
            },
            {
              "internalType": "string",
              "name": "artist",
              "type": "string"
            },
            {
              "internalType": "string",
              "name": "ipfsHash",
              "type": "string"
            },
            {
              "internalType": "string",
              "name": "coverFrom",
              "type": "string"
            }
          ],
          "internalType": "struct MusicDApp.Music",
          "name": "",
          "type": "tuple"
        }
      ],
      "stateMutability": "view",
      "type": "function",
      "constant": true
    },
    {
      "inputs": [
        {
          "internalType": "string",
          "name": "_name",
          "type": "string"
        },
        {
          "internalType": "string",
          "name": "_artist",
          "type": "string"
        }
      ],
      "name": "searchMusic",
      "outputs": [
        {
          "components": [
            {
              "internalType": "address",
              "name": "uploader",
              "type": "address"
            },
            {
              "internalType": "uint256",
              "name": "uploadTime",
              "type": "uint256"
            },
            {
              "internalType": "uint256",
              "name": "count",
              "type": "uint256"
            },
            {
              "internalType": "string",
              "name": "name",
              "type": "string"
            },
            {
              "internalType": "string",
              "name": "artist",
              "type": "string"
            },
            {
              "internalType": "string",
              "name": "ipfsHash",
              "type": "string"
            },
            {
              "internalType": "string",
              "name": "coverFrom",
              "type": "string"
            }
          ],
          "internalType": "struct MusicDApp.Music[]",
          "name": "",
          "type": "tuple[]"
        }
      ],
      "stateMutability": "view",
      "type": "function",
      "constant": true
    },
    {
      "inputs": [
        {
          "internalType": "string",
          "name": "_ipfsHash",
          "type": "string"
        }
      ],
      "name": "getMusicByHash",
      "outputs": [
        {
          "components": [
            {
              "internalType": "address",
              "name": "uploader",
              "type": "address"
            },
            {
              "internalType": "uint256",
              "name": "uploadTime",
              "type": "uint256"
            },
            {
              "internalType": "uint256",
              "name": "count",
              "type": "uint256"
            },
            {
              "internalType": "string",
              "name": "name",
              "type": "string"
            },
            {
              "internalType": "string",
              "name": "artist",
              "type": "string"
            },
            {
              "internalType": "string",
              "name": "ipfsHash",
              "type": "string"
            },
            {
              "internalType": "string",
              "name": "coverFrom",
              "type": "string"
            }
          ],
          "internalType": "struct MusicDApp.Music",
          "name": "",
          "type": "tuple"
        }
      ],
      "stateMutability": "view",
      "type": "function",
      "constant": true
    },
    {
      "inputs": [
        {
          "internalType": "string",
          "name": "_name",
          "type": "string"
        },
        {
          "internalType": "string",
          "name": "_artist",
          "type": "string"
        }
      ],
      "name": "getMusicWithCountIncrement",
      "outputs": [
        {
          "components": [
            {
              "internalType": "address",
              "name": "uploader",
              "type": "address"
            },
            {
              "internalType": "uint256",
              "name": "uploadTime",
              "type": "uint256"
            },
            {
              "internalType": "uint256",
              "name": "count",
              "type": "uint256"
            },
            {
              "internalType": "string",
              "name": "name",
              "type": "string"
            },
            {
              "internalType": "string",
              "name": "artist",
              "type": "string"
            },
            {
              "internalType": "string",
              "name": "ipfsHash",
              "type": "string"
            },
            {
              "internalType": "string",
              "name": "coverFrom",
              "type": "string"
            }
          ],
          "internalType": "struct MusicDApp.Music",
          "name": "",
          "type": "tuple"
        }
      ],
      "stateMutability": "nonpayable",
      "type": "function"
    },
    {
      "inputs": [
        {
          "internalType": "string",
          "name": "_name",
          "type": "string"
        }
      ],
      "name": "getMusicArtistList",
      "outputs": [
        {
          "components": [
            {
              "internalType": "address",
              "name": "uploader",
              "type": "address"
            },
            {
              "internalType": "uint256",
              "name": "uploadTime",
              "type": "uint256"
            },
            {
              "internalType": "uint256",
              "name": "count",
              "type": "uint256"
            },
            {
              "internalType": "string",
              "name": "name",
              "type": "string"
            },
            {
              "internalType": "string",
              "name": "artist",
              "type": "string"
            },
            {
              "internalType": "string",
              "name": "ipfsHash",
              "type": "string"
            },
            {
              "internalType": "string",
              "name": "coverFrom",
              "type": "string"
            }
          ],
          "internalType": "struct MusicDApp.Music[]",
          "name": "",
          "type": "tuple[]"
        }
      ],
      "stateMutability": "view",
      "type": "function",
      "constant": true
    },
    {
      "inputs": [
        {
          "internalType": "string",
          "name": "_artist",
          "type": "string"
        }
      ],
      "name": "getArtistMusicList",
      "outputs": [
        {
          "components": [
            {
              "internalType": "address",
              "name": "uploader",
              "type": "address"
            },
            {
              "internalType": "uint256",
              "name": "uploadTime",
              "type": "uint256"
            },
            {
              "internalType": "uint256",
              "name": "count",
              "type": "uint256"
            },
            {
              "internalType": "string",
              "name": "name",
              "type": "string"
            },
            {
              "internalType": "string",
              "name": "artist",
              "type": "string"
            },
            {
              "internalType": "string",
              "name": "ipfsHash",
              "type": "string"
            },
            {
              "internalType": "string",
              "name": "coverFrom",
              "type": "string"
            }
          ],
          "internalType": "struct MusicDApp.Music[]",
          "name": "",
          "type": "tuple[]"
        }
      ],
      "stateMutability": "view",
      "type": "function",
      "constant": true
    },
    {
      "inputs": [
        {
          "internalType": "string",
          "name": "_name",
          "type": "string"
        },
        {
          "internalType": "string",
          "name": "_artist",
          "type": "string"
        }
      ],
      "name": "buyMusic",
      "outputs": [],
      "stateMutability": "nonpayable",
      "type": "function"
    },
    {
      "inputs": [
        {
          "internalType": "string",
          "name": "_ipfsHash",
          "type": "string"
        },
        {
          "internalType": "string",
          "name": "_coverFrom",
          "type": "string"
        }
      ],
      "name": "setMusicCoverFrom",
      "outputs": [],
      "stateMutability": "nonpayable",
      "type": "function"
    },
    {
      "inputs": [
        {
          "internalType": "string",
          "name": "_ipfsHash",
          "type": "string"
        }
      ],
      "name": "buyMusicByHash",
      "outputs": [],
      "stateMutability": "nonpayable",
      "type": "function"
    },
    {
      "inputs": [
        {
          "internalType": "string",
          "name": "_name",
          "type": "string"
        },
        {
          "internalType": "string",
          "name": "_artist",
          "type": "string"
        },
        {
          "internalType": "uint8",
          "name": "depth",
          "type": "uint8"
        }
      ],
      "name": "getMusicChain",
      "outputs": [
        {
          "components": [
            {
              "internalType": "address",
              "name": "uploader",
              "type": "address"
            },
            {
              "internalType": "uint256",
              "name": "uploadTime",
              "type": "uint256"
            },
            {
              "internalType": "uint256",
              "name": "count",
              "type": "uint256"
            },
            {
              "internalType": "string",
              "name": "name",
              "type": "string"
            },
            {
              "internalType": "string",
              "name": "artist",
              "type": "string"
            },
            {
              "internalType": "string",
              "name": "ipfsHash",
              "type": "string"
            },
            {
              "internalType": "string",
              "name": "coverFrom",
              "type": "string"
            }
          ],
          "internalType": "struct MusicDApp.Music[]",
          "name": "",
          "type": "tuple[]"
        }
      ],
      "stateMutability": "view",
      "type": "function",
      "constant": true
    },
    {
      "inputs": [
        {
          "internalType": "string",
          "name": "_ipfsHash",
          "type": "string"
        },
        {
          "internalType": "uint8",
          "name": "depth",
          "type": "uint8"
        }
      ],
      "name": "getMusicChainByHash",
      "outputs": [
        {
          "components": [
            {
              "internalType": "address",
              "name": "uploader",
              "type": "address"
            },
            {
              "internalType": "uint256",
              "name": "uploadTime",
              "type": "uint256"
            },
            {
              "internalType": "uint256",
              "name": "count",
              "type": "uint256"
            },
            {
              "internalType": "string",
              "name": "name",
              "type": "string"
            },
            {
              "internalType": "string",
              "name": "artist",
              "type": "string"
            },
            {
              "internalType": "string",
              "name": "ipfsHash",
              "type": "string"
            },
            {
              "internalType": "string",
              "name": "coverFrom",
              "type": "string"
            }
          ],
          "internalType": "struct MusicDApp.Music[]",
          "name": "",
          "type": "tuple[]"
        }
      ],
      "stateMutability": "view",
      "type": "function",
      "constant": true
    }
  ],
  "bytecode": "0x6080604052655af3107a40006001553480156200001b57600080fd5b506040516200002a906200006e565b604051809103906000f08015801562000047573d6000803e3d6000fd5b5060008054600160a060020a031916600160a060020a03929092169190911790556200007c565b6104eb80620055e983390190565b61555d806200008c6000396000f3fe60806040526004361061019c5760003560e060020a9004806380f3de65116100e6578063c4cb37f511610089578063c4cb37f51461044b578063e41bfe6e1461046b578063e4849b321461048b578063e90fd8e7146104ab578063eae6d4da146104cb578063f7f6bd7f146104e0578063fc0c546a14610500578063fdf74325146105155761019c565b806380f3de65146103845780638aa4342c146103a45780639146436b146103b957806393154af7146103d9578063a6f2ae3a146103f9578063ad974f4c14610401578063b1ddeab014610416578063b7013dc1146104365761019c565b80633d724a3f1161014e5780633d724a3f146102a157806346c641f3146102b65780634d3820eb146102cb5780635d8d1585146102ed57806360b377b81461030257806370d97eca146103245780637176285a146103445780637fb95448146103645761019c565b80631072cbea146101a1578063171ef0b2146101c35780631aa3a008146101ee5780631f4b04ea14610210578063209af2dd1461023d578063245fcb921461026a57806332a2c5d01461027f575b600080fd5b3480156101ad57600080fd5b506101c16101bc366004614d09565b610535565b005b3480156101cf57600080fd5b506101d86105ef565b6040516101e591906153f6565b60405180910390f35b3480156101fa57600080fd5b506102036105f5565b6040516101e591906151f2565b34801561021c57600080fd5b5061023061022b366004614da1565b610738565b6040516101e59190615391565b34801561024957600080fd5b5061025d610258366004614d66565b610a59565b6040516101e5919061519f565b34801561027657600080fd5b506101d8610d4e565b34801561028b57600080fd5b50610294610d53565b6040516101e59190615107565b3480156102ad57600080fd5b50610294610d57565b3480156102c257600080fd5b506101d8610d5b565b3480156102d757600080fd5b506102e0610de4565b6040516101e591906153a4565b3480156102f957600080fd5b506102e061129a565b34801561030e57600080fd5b5061031761147c565b6040516101e5919061513f565b34801561033057600080fd5b506101c161033f366004614da1565b611560565b34801561035057600080fd5b5061025d61035f366004614da1565b611c37565b34801561037057600080fd5b5061023061037f366004614da1565b6120e9565b34801561039057600080fd5b5061020361039f366004614d66565b612103565b3480156103b057600080fd5b50610317612390565b3480156103c557600080fd5b506102306103d4366004614d66565b61246e565b3480156103e557600080fd5b5061025d6103f4366004614f1b565b61271b565b6101c1612d7d565b34801561040d57600080fd5b506101d8612f1f565b34801561042257600080fd5b506101c1610431366004614e02565b612f71565b34801561044257600080fd5b506101d8613471565b34801561045757600080fd5b506101c1610466366004614da1565b6134a5565b34801561047757600080fd5b506101c1610486366004614d66565b6134da565b34801561049757600080fd5b506101c16104a6366004614f67565b613bd4565b3480156104b757600080fd5b5061025d6104c6366004614d66565b613d4e565b3480156104d757600080fd5b50610203614035565b3480156104ec57600080fd5b506102036104fb366004614d66565b61404e565b34801561050c57600080fd5b506102946142d1565b34801561052157600080fd5b5061025d610530366004614eaa565b6142e0565b600081116105615760405160e560020a62461bcd02815260040161055890615291565b60405180910390fd5b60005460405160e060020a6323b872dd028152600160a060020a03909116906323b872dd906105989033908690869060040161511b565b602060405180830381600087803b1580156105b257600080fd5b505af11580156105c6573d6000803e3d6000fd5b505050506040513d601f19601f820116820180604052508101906105ea9190614d3f565b505050565b60015481565b6000805460405160e060020a6370a08231028152612710918391600160a060020a03909116906370a082319061062f903090600401615107565b60206040518083038186803b15801561064757600080fd5b505afa15801561065b573d6000803e3d6000fd5b505050506040513d601f19601f8201168201806040525081019061067f9190614f7f565b9050808211156106a45760405160e560020a62461bcd0281526004016105589061535c565b60005460405160e060020a6323b872dd028152600160a060020a03909116906323b872dd906106db9030903390879060040161511b565b602060405180830381600087803b1580156106f557600080fd5b505af1158015610709573d6000803e3d6000fd5b505050506040513d601f19601f8201168201806040525081019061072d9190614d3f565b506001925050505b90565b610740614b75565b600160058460405161075291906150c2565b90815260200160405180910390208360405161076e91906150c2565b9081526020016040518091039020600201600082825461078e91906153ff565b9250508190555060006005846040516107a791906150c2565b9081526020016040518091039020836040516107c391906150c2565b90815260408051918290036020908101832060e0840183528054600160a060020a031684526001810154918401919091526002810154918301919091526003810180546060840191906108159061549c565b80601f01602080910402602001604051908101604052809291908181526020018280546108419061549c565b801561088e5780601f106108635761010080835404028352916020019161088e565b820191906000526020600020905b81548152906001019060200180831161087157829003601f168201915b505050505081526020016004820180546108a79061549c565b80601f01602080910402602001604051908101604052809291908181526020018280546108d39061549c565b80156109205780601f106108f557610100808354040283529160200191610920565b820191906000526020600020905b81548152906001019060200180831161090357829003601f168201915b505050505081526020016005820180546109399061549c565b80601f01602080910402602001604051908101604052809291908181526020018280546109659061549c565b80156109b25780601f10610987576101008083540402835291602001916109b2565b820191906000526020600020905b81548152906001019060200180831161099557829003601f168201915b505050505081526020016006820180546109cb9061549c565b80601f01602080910402602001604051908101604052809291908181526020018280546109f79061549c565b8015610a445780601f10610a1957610100808354040283529160200191610a44565b820191906000526020600020905b815481529060010190602001808311610a2757829003601f168201915b50505091909252509193505050505b92915050565b60606000600683604051610a6d91906150c2565b9081526020016040518091039020805480602002602001604051908101604052809291908181526020016000905b82821015610d405760008481526020908190206040805160e081018252600786029092018054600160a060020a03168352600181015493830193909352600283015490820152600382018054919291606084019190610af99061549c565b80601f0160208091040260200160405190810160405280929190818152602001828054610b259061549c565b8015610b725780601f10610b4757610100808354040283529160200191610b72565b820191906000526020600020905b815481529060010190602001808311610b5557829003601f168201915b50505050508152602001600482018054610b8b9061549c565b80601f0160208091040260200160405190810160405280929190818152602001828054610bb79061549c565b8015610c045780601f10610bd957610100808354040283529160200191610c04565b820191906000526020600020905b815481529060010190602001808311610be757829003601f168201915b50505050508152602001600582018054610c1d9061549c565b80601f0160208091040260200160405190810160405280929190818152602001828054610c499061549c565b8015610c965780601f10610c6b57610100808354040283529160200191610c96565b820191906000526020600020905b815481529060010190602001808311610c7957829003601f168201915b50505050508152602001600682018054610caf9061549c565b80601f0160208091040260200160405190810160405280929190818152602001828054610cdb9061549c565b8015610d285780601f10610cfd57610100808354040283529160200191610d28565b820191906000526020600020905b815481529060010190602001808311610d0b57829003601f168201915b50505050508152505081526020019060010190610a9b565b50929450505050505b919050565b303190565b3090565b3390565b6000805460405160e060020a6370a08231028152600160a060020a03909116906370a0823190610d8f903090600401615107565b60206040518083038186803b158015610da757600080fd5b505afa158015610dbb573d6000803e3d6000fd5b505050506040513d601f19601f82011682018060405250810190610ddf9190614f7f565b905090565b610dec614bbb565b610df4614035565b6110be576000805460405160e060020a6370a08231028152600160a060020a03909116906370a0823190610e2c903090600401615107565b60206040518083038186803b158015610e4457600080fd5b505afa158015610e58573d6000803e3d6000fd5b505050506040513d601f19601f82011682018060405250810190610e7c9190614f7f565b9050806127101115610ea35760405160e560020a62461bcd0281526004016105589061535c565b6000610ead6105f5565b905080610ecf5760405160e560020a62461bcd028152600401610558906152ee565b33600090815260036020908152604080832060028101805460ff191660011790558151815460809481028201850190935260608101838152909391928492849190879085015b82821015610fc1578382906000526020600020018054610f349061549c565b80601f0160208091040260200160405190810160405280929190818152602001828054610f609061549c565b8015610fad5780601f10610f8257610100808354040283529160200191610fad565b820191906000526020600020905b815481529060010190602001808311610f9057829003601f168201915b505050505081526020019060010190610f15565b50505050815260200160018201805480602002602001604051908101604052809291908181526020016000905b8282101561109a57838290600052602060002001805461100d9061549c565b80601f01602080910402602001604051908101604052809291908181526020018280546110399061549c565b80156110865780601f1061105b57610100808354040283529160200191611086565b820191906000526020600020905b81548152906001019060200180831161106957829003601f168201915b505050505081526020019060010190610fee565b505050908252506002919091015460ff161515602090910152935061073592505050565b3360009081526003602090815260408083208151815460809481028201850190935260608101838152909491938593919285929185015b828210156111a15783829060005260206000200180546111149061549c565b80601f01602080910402602001604051908101604052809291908181526020018280546111409061549c565b801561118d5780601f106111625761010080835404028352916020019161118d565b820191906000526020600020905b81548152906001019060200180831161117057829003601f168201915b5050505050815260200190600101906110f5565b50505050815260200160018201805480602002602001604051908101604052809291908181526020016000905b8282101561127a5783829060005260206000200180546111ed9061549c565b80601f01602080910402602001604051908101604052809291908181526020018280546112199061549c565b80156112665780601f1061123b57610100808354040283529160200191611266565b820191906000526020600020905b81548152906001019060200180831161124957829003601f168201915b5050505050815260200190600101906111ce565b505050908252506002919091015460ff1615156020909101529050610735565b6112a2614bbb565b3360009081526003602090815260408083208151815460809481028201850190935260608101838152909491938593919285929185015b828210156113855783829060005260206000200180546112f89061549c565b80601f01602080910402602001604051908101604052809291908181526020018280546113249061549c565b80156113715780601f1061134657610100808354040283529160200191611371565b820191906000526020600020905b81548152906001019060200180831161135457829003601f168201915b5050505050815260200190600101906112d9565b50505050815260200160018201805480602002602001604051908101604052809291908181526020016000905b8282101561145e5783829060005260206000200180546113d19061549c565b80601f01602080910402602001604051908101604052809291908181526020018280546113fd9061549c565b801561144a5780601f1061141f5761010080835404028352916020019161144a565b820191906000526020600020905b81548152906001019060200180831161142d57829003601f168201915b5050505050815260200190600101906113b2565b505050908252506002919091015460ff161515602090910152905090565b336000908152600360209081526040808320805482518185028101850190935280835260609492939192909184015b828210156115575783829060005260206000200180546114ca9061549c565b80601f01602080910402602001604051908101604052809291908181526020018280546114f69061549c565b80156115435780601f1061151857610100808354040283529160200191611543565b820191906000526020600020905b81548152906001019060200180831161152657829003601f168201915b5050505050815260200190600101906114ab565b50505050905090565b6000339050600060058460405161157791906150c2565b90815260200160405180910390208360405161159391906150c2565b90815260408051918290036020908101832060e0840183528054600160a060020a031684526001810154918401919091526002810154918301919091526003810180546060840191906115e59061549c565b80601f01602080910402602001604051908101604052809291908181526020018280546116119061549c565b801561165e5780601f106116335761010080835404028352916020019161165e565b820191906000526020600020905b81548152906001019060200180831161164157829003601f168201915b505050505081526020016004820180546116779061549c565b80601f01602080910402602001604051908101604052809291908181526020018280546116a39061549c565b80156116f05780601f106116c5576101008083540402835291602001916116f0565b820191906000526020600020905b8154815290600101906020018083116116d357829003601f168201915b505050505081526020016005820180546117099061549c565b80601f01602080910402602001604051908101604052809291908181526020018280546117359061549c565b80156117825780601f1061175757610100808354040283529160200191611782565b820191906000526020600020905b81548152906001019060200180831161176557829003601f168201915b5050505050815260200160068201805461179b9061549c565b80601f01602080910402602001604051908101604052809291908181526020018280546117c79061549c565b80156118145780601f106117e957610100808354040283529160200191611814565b820191906000526020600020905b8154815290600101906020018083116117f757829003601f168201915b5050509190925250505060a08082015182516040805160e0810182526064815260326020820152601991810191909152600c606082015260066080820152600393810193909352600160c08401529293509190600061187284612103565b1561188257505050505050611c33565b61188b8461404e565b1561189b57505050505050611c33565b600781106118a857611bf5565b6118dd86848484600781106118d05760e060020a634e487b7102600052603260045260246000fd5b602002015160ff1661495f565b6040516020016118ec906150de565b604051602081830303815290604052805190602001208560c0015160405160200161191791906150c2565b60405160208183030381529060405280519060200120141561193857611bf5565b82955060048560c0015160405161194f91906150c2565b90815260408051918290036020908101832060e0840183528054600160a060020a031684526001810154918401919091526002810154918301919091526003810180546060840191906119a19061549c565b80601f01602080910402602001604051908101604052809291908181526020018280546119cd9061549c565b8015611a1a5780601f106119ef57610100808354040283529160200191611a1a565b820191906000526020600020905b8154815290600101906020018083116119fd57829003601f168201915b50505050508152602001600482018054611a339061549c565b80601f0160208091040260200160405190810160405280929190818152602001828054611a5f9061549c565b8015611aac5780601f10611a8157610100808354040283529160200191611aac565b820191906000526020600020905b815481529060010190602001808311611a8f57829003601f168201915b50505050508152602001600582018054611ac59061549c565b80601f0160208091040260200160405190810160405280929190818152602001828054611af19061549c565b8015611b3e5780601f10611b1357610100808354040283529160200191611b3e565b820191906000526020600020905b815481529060010190602001808311611b2157829003601f168201915b50505050508152602001600682018054611b579061549c565b80601f0160208091040260200160405190810160405280929190818152602001828054611b839061549c565b8015611bd05780601f10611ba557610100808354040283529160200191611bd0565b820191906000526020600020905b815481529060010190602001808311611bb357829003601f168201915b5050505050815250509450846000015192508080611bed906154da565b91505061189b565b33600090815260036020908152604082206001908101805491820181558352918190208651611c2b939190910191870190614bde565b505050505050505b5050565b60025460609060009067ffffffffffffffff811115611c695760e060020a634e487b7102600052604160045260246000fd5b604051908082528060200260200182016040528015611ca257816020015b611c8f614b75565b815260200190600190039081611c875790505b5090506000805b6002548110156120df57611d7a8660028381548110611cdb5760e060020a634e487b7102600052603260045260246000fd5b90600052602060002090600702016003018054611cf79061549c565b80601f0160208091040260200160405190810160405280929190818152602001828054611d239061549c565b8015611d705780601f10611d4557610100808354040283529160200191611d70565b820191906000526020600020905b815481529060010190602001808311611d5357829003601f168201915b5050505050614a11565b80611dc45750611dc48560028381548110611da85760e060020a634e487b7102600052603260045260246000fd5b90600052602060002090600702016004018054611cf79061549c565b156120cd5760028181548110611ded5760e060020a634e487b7102600052603260045260246000fd5b90600052602060002090600702016040518060e00160405290816000820160009054906101000a9004600160a060020a0316600160a060020a0316600160a060020a031681526020016001820154815260200160028201548152602001600382018054611e599061549c565b80601f0160208091040260200160405190810160405280929190818152602001828054611e859061549c565b8015611ed25780601f10611ea757610100808354040283529160200191611ed2565b820191906000526020600020905b815481529060010190602001808311611eb557829003601f168201915b50505050508152602001600482018054611eeb9061549c565b80601f0160208091040260200160405190810160405280929190818152602001828054611f179061549c565b8015611f645780601f10611f3957610100808354040283529160200191611f64565b820191906000526020600020905b815481529060010190602001808311611f4757829003601f168201915b50505050508152602001600582018054611f7d9061549c565b80601f0160208091040260200160405190810160405280929190818152602001828054611fa99061549c565b8015611ff65780601f10611fcb57610100808354040283529160200191611ff6565b820191906000526020600020905b815481529060010190602001808311611fd957829003601f168201915b5050505050815260200160068201805461200f9061549c565b80601f016020809104026020016040519081016040528092919081815260200182805461203b9061549c565b80156120885780601f1061205d57610100808354040283529160200191612088565b820191906000526020600020905b81548152906001019060200180831161206b57829003601f168201915b5050505050815250508383815181106120b45760e060020a634e487b7102600052603260045260246000fd5b60209081029190910101526120ca8160016153ff565b90505b806120d7816154da565b915050611ca9565b5090949350505050565b6120f1614b75565b60006005846040516107a791906150c2565b3360009081526003602090815260408083208151815460809481028201850190935260608101838152859491938492849190879085015b828210156121e65783829060005260206000200180546121599061549c565b80601f01602080910402602001604051908101604052809291908181526020018280546121859061549c565b80156121d25780601f106121a7576101008083540402835291602001916121d2565b820191906000526020600020905b8154815290600101906020018083116121b557829003601f168201915b50505050508152602001906001019061213a565b50505050815260200160018201805480602002602001604051908101604052809291908181526020016000905b828210156122bf5783829060005260206000200180546122329061549c565b80601f016020809104026020016040519081016040528092919081815260200182805461225e9061549c565b80156122ab5780601f10612280576101008083540402835291602001916122ab565b820191906000526020600020905b81548152906001019060200180831161228e57829003601f168201915b505050505081526020019060010190612213565b505050908252506002919091015460ff161515602090910152805190915060005b81518110156123855781818151811061230c5760e060020a634e487b7102600052603260045260246000fd5b602002602001015160405160200161232491906150c2565b604051602081830303815290604052805190602001208560405160200161234b91906150c2565b6040516020818303038152906040528051906020012014156123735760019350505050610d49565b8061237d816154da565b9150506122e0565b506000949350505050565b336000908152600360209081526040808320600101805482518185028101850190935280835260609492939192909184015b828210156115575783829060005260206000200180546123e19061549c565b80601f016020809104026020016040519081016040528092919081815260200182805461240d9061549c565b801561245a5780601f1061242f5761010080835404028352916020019161245a565b820191906000526020600020905b81548152906001019060200180831161243d57829003601f168201915b5050505050815260200190600101906123c2565b612476614b75565b600060048360405161248891906150c2565b90815260408051918290036020908101832060e0840183528054600160a060020a031684526001810154918401919091526002810154918301919091526003810180546060840191906124da9061549c565b80601f01602080910402602001604051908101604052809291908181526020018280546125069061549c565b80156125535780601f1061252857610100808354040283529160200191612553565b820191906000526020600020905b81548152906001019060200180831161253657829003601f168201915b5050505050815260200160048201805461256c9061549c565b80601f01602080910402602001604051908101604052809291908181526020018280546125989061549c565b80156125e55780601f106125ba576101008083540402835291602001916125e5565b820191906000526020600020905b8154815290600101906020018083116125c857829003601f168201915b505050505081526020016005820180546125fe9061549c565b80601f016020809104026020016040519081016040528092919081815260200182805461262a9061549c565b80156126775780601f1061264c57610100808354040283529160200191612677565b820191906000526020600020905b81548152906001019060200180831161265a57829003601f168201915b505050505081526020016006820180546126909061549c565b80601f01602080910402602001604051908101604052809291908181526020018280546126bc9061549c565b80156127095780601f106126de57610100808354040283529160200191612709565b820191906000526020600020905b8154815290600101906020018083116126ec57829003601f168201915b50505091909252509195945050505050565b6060600060048460405161272f91906150c2565b90815260408051918290036020908101832060e0840183528054600160a060020a031684526001810154918401919091526002810154918301919091526003810180546060840191906127819061549c565b80601f01602080910402602001604051908101604052809291908181526020018280546127ad9061549c565b80156127fa5780601f106127cf576101008083540402835291602001916127fa565b820191906000526020600020905b8154815290600101906020018083116127dd57829003601f168201915b505050505081526020016004820180546128139061549c565b80601f016020809104026020016040519081016040528092919081815260200182805461283f9061549c565b801561288c5780601f106128615761010080835404028352916020019161288c565b820191906000526020600020905b81548152906001019060200180831161286f57829003601f168201915b505050505081526020016005820180546128a59061549c565b80601f01602080910402602001604051908101604052809291908181526020018280546128d19061549c565b801561291e5780601f106128f35761010080835404028352916020019161291e565b820191906000526020600020905b81548152906001019060200180831161290157829003601f168201915b505050505081526020016006820180546129379061549c565b80601f01602080910402602001604051908101604052809291908181526020018280546129639061549c565b80156129b05780601f10612985576101008083540402835291602001916129b0565b820191906000526020600020905b81548152906001019060200180831161299357829003601f168201915b50505050508152505090506000808460ff1667ffffffffffffffff8111156129eb5760e060020a634e487b7102600052604160045260246000fd5b604051908082528060200260200182016040528015612a2457816020015b612a11614b75565b815260200190600190039081612a095790505b5090505b8460ff168210612a3757612d74565b82818381518110612a5b5760e060020a634e487b7102600052603260045260246000fd5b6020026020010181905250604051602001612a75906150de565b604051602081830303815290604052805190602001208360c00151604051602001612aa091906150c2565b604051602081830303815290604052805190602001201415612ac157612d74565b60048360c00151604051612ad591906150c2565b90815260408051918290036020908101832060e0840183528054600160a060020a03168452600181015491840191909152600281015491830191909152600381018054606084019190612b279061549c565b80601f0160208091040260200160405190810160405280929190818152602001828054612b539061549c565b8015612ba05780601f10612b7557610100808354040283529160200191612ba0565b820191906000526020600020905b815481529060010190602001808311612b8357829003601f168201915b50505050508152602001600482018054612bb99061549c565b80601f0160208091040260200160405190810160405280929190818152602001828054612be59061549c565b8015612c325780601f10612c0757610100808354040283529160200191612c32565b820191906000526020600020905b815481529060010190602001808311612c1557829003601f168201915b50505050508152602001600582018054612c4b9061549c565b80601f0160208091040260200160405190810160405280929190818152602001828054612c779061549c565b8015612cc45780601f10612c9957610100808354040283529160200191612cc4565b820191906000526020600020905b815481529060010190602001808311612ca757829003601f168201915b50505050508152602001600682018054612cdd9061549c565b80601f0160208091040260200160405190810160405280929190818152602001828054612d099061549c565b8015612d565780601f10612d2b57610100808354040283529160200191612d56565b820191906000526020600020905b815481529060010190602001808311612d3957829003601f168201915b50505050508152505092508180612d6c906154da565b925050612a28565b95945050505050565b6000805460405160e060020a6370a08231028152349291600160a060020a0316906370a0823190612db2903090600401615107565b60206040518083038186803b158015612dca57600080fd5b505afa158015612dde573d6000803e3d6000fd5b505050506040513d601f19601f82011682018060405250810190612e029190614f7f565b905060008211612e275760405160e560020a62461bcd028152600401610558906151fd565b80821115612e4a5760405160e560020a62461bcd0281526004016105589061535c565b600054600154600160a060020a03909116906323b872dd9030903390612e709087615417565b6040518463ffffffff1660e060020a028152600401612e919392919061511b565b602060405180830381600087803b158015612eab57600080fd5b505af1158015612ebf573d6000803e3d6000fd5b505050506040513d601f19601f82011682018060405250810190612ee39190614d3f565b507f4e08ba899977cf7d4c2964bce71c6b9a7ef76ee5166a4c1249a1e08016e33ef182604051612f1391906153f6565b60405180910390a15050565b60008060009054906101000a9004600160a060020a0316600160a060020a03166318160ddd6040518163ffffffff1660e060020a02815260040160206040518083038186803b158015610da757600080fd5b6040805160e0810182523381524260208083019182526000938301848152606084018881526080850188905260a085018a905260c0850187905260028054600181018255965284517f405787fa12a823e0f2b7631cc41b3ba8828b3321ca811111fa75cd3aa3bb5ace60079097029687018054600160a060020a031916600160a060020a0390921691909117815593517f405787fa12a823e0f2b7631cc41b3ba8828b3321ca811111fa75cd3aa3bb5acf87015590517f405787fa12a823e0f2b7631cc41b3ba8828b3321ca811111fa75cd3aa3bb5ad086015551805193948594613084937f405787fa12a823e0f2b7631cc41b3ba8828b3321ca811111fa75cd3aa3bb5ad19092019290910190614bde565b50608082015180516130a0916004840191602090910190614bde565b5060a082015180516130bc916005840191602090910190614bde565b5060c082015180516130d8916006840191602090910190614bde565b505050806005856040516130ec91906150c2565b90815260200160405180910390208460405161310891906150c2565b908152604080516020928190038301902083518154600160a060020a031916600160a060020a0390911617815583830151600182015590830151600282015560608301518051919261316292600385019290910190614bde565b506080820151805161317e916004840191602090910190614bde565b5060a0820151805161319a916005840191602090910190614bde565b5060c082015180516131b6916006840191602090910190614bde565b50905050806004866040516131cb91906150c2565b908152604080516020928190038301902083518154600160a060020a031916600160a060020a0390911617815583830151600182015590830151600282015560608301518051919261322592600385019290910190614bde565b5060808201518051613241916004840191602090910190614bde565b5060a0820151805161325d916005840191602090910190614bde565b5060c08201518051613279916006840191602090910190614bde565b5090505060068460405161328d91906150c2565b908152604080516020928190038301902080546001808201835560009283529184902085516007909202018054600160a060020a031916600160a060020a039092169190911781558484015191810191909155908301516002820155606083015180518493613303926003850192910190614bde565b506080820151805161331f916004840191602090910190614bde565b5060a0820151805161333b916005840191602090910190614bde565b5060c08201518051613357916006840191602090910190614bde565b50505060078360405161336a91906150c2565b908152604080516020928190038301902080546001808201835560009283529184902085516007909202018054600160a060020a031916600160a060020a0390921691909117815584840151918101919091559083015160028201556060830151805184936133e0926003850192910190614bde565b50608082015180516133fc916004840191602090910190614bde565b5060a08201518051613418916005840191602090910190614bde565b5060c08201518051613434916006840191602090910190614bde565b505033600090815260036020908152604082208054600181018255908352918190208851613469945092019190880190614bde565b505050505050565b6000805460405160e060020a6370a08231028152600160a060020a03909116906370a0823190610d8f903390600401615107565b806004836040516134b691906150c2565b908152602001604051809103902060060190805190602001906105ea929190614bde565b600033905060006004836040516134f191906150c2565b90815260408051918290036020908101832060e0840183528054600160a060020a031684526001810154918401919091526002810154918301919091526003810180546060840191906135439061549c565b80601f016020809104026020016040519081016040528092919081815260200182805461356f9061549c565b80156135bc5780601f10613591576101008083540402835291602001916135bc565b820191906000526020600020905b81548152906001019060200180831161359f57829003601f168201915b505050505081526020016004820180546135d59061549c565b80601f01602080910402602001604051908101604052809291908181526020018280546136019061549c565b801561364e5780601f106136235761010080835404028352916020019161364e565b820191906000526020600020905b81548152906001019060200180831161363157829003601f168201915b505050505081526020016005820180546136679061549c565b80601f01602080910402602001604051908101604052809291908181526020018280546136939061549c565b80156136e05780601f106136b5576101008083540402835291602001916136e0565b820191906000526020600020905b8154815290600101906020018083116136c357829003601f168201915b505050505081526020016006820180546136f99061549c565b80601f01602080910402602001604051908101604052809291908181526020018280546137259061549c565b80156137725780601f1061374757610100808354040283529160200191613772565b820191906000526020600020905b81548152906001019060200180831161375557829003601f168201915b50505091909252505081516040805160e0810182526064815260326020820152601991810191909152600c606082015260066080820152600360a0820152600160c0820152929350859290915060006137ca84612103565b156137da57505050505050613bd1565b6137e38461404e565b156137f357505050505050613bd1565b6007811061380057613b93565b82604051602001613811919061509f565b6040516020818303038152906040528051906020012086604051602001613838919061509f565b604051602081830303815290604052805190602001201461387b5761387b86848484600781106118d05760e060020a634e487b7102600052603260045260246000fd5b60405160200161388a906150de565b604051602081830303815290604052805190602001208560c001516040516020016138b591906150c2565b6040516020818303038152906040528051906020012014156138d657613b93565b82955060048560c001516040516138ed91906150c2565b90815260408051918290036020908101832060e0840183528054600160a060020a0316845260018101549184019190915260028101549183019190915260038101805460608401919061393f9061549c565b80601f016020809104026020016040519081016040528092919081815260200182805461396b9061549c565b80156139b85780601f1061398d576101008083540402835291602001916139b8565b820191906000526020600020905b81548152906001019060200180831161399b57829003601f168201915b505050505081526020016004820180546139d19061549c565b80601f01602080910402602001604051908101604052809291908181526020018280546139fd9061549c565b8015613a4a5780601f10613a1f57610100808354040283529160200191613a4a565b820191906000526020600020905b815481529060010190602001808311613a2d57829003601f168201915b50505050508152602001600582018054613a639061549c565b80601f0160208091040260200160405190810160405280929190818152602001828054613a8f9061549c565b8015613adc5780601f10613ab157610100808354040283529160200191613adc565b820191906000526020600020905b815481529060010190602001808311613abf57829003601f168201915b50505050508152602001600682018054613af59061549c565b80601f0160208091040260200160405190810160405280929190818152602001828054613b219061549c565b8015613b6e5780601f10613b4357610100808354040283529160200191613b6e565b820191906000526020600020905b815481529060010190602001808311613b5157829003601f168201915b5050505050815250509450846000015192508080613b8b906154da565b9150506137f3565b33600090815260036020908152604082206001908101805491820181558352918190208651613bc9939190910191870190614bde565b505050505050505b50565b60008111613bf75760405160e560020a62461bcd02815260040161055890615234565b60005460405160e060020a6323b872dd028152600160a060020a03909116906323b872dd90613c2e9033903090869060040161511b565b602060405180830381600087803b158015613c4857600080fd5b505af1158015613c5c573d6000803e3d6000fd5b505050506040513d601f19601f82011682018060405250810190613c809190614d3f565b50600060015482613c91919061543a565b9050600033600160a060020a031682604051613cac90610735565b60006040518083038185875af1925050503d8060008114613ce9576040519150601f19603f3d011682016040523d82523d6000602084013e613cee565b606091505b5050905080613d125760405160e560020a62461bcd02815260040161055890615325565b7f92f64ca637d023f354075a4be751b169c1a8a9ccb6d33cdd0cb352054399572783604051613d4191906153f6565b60405180910390a1505050565b60606000600783604051613d6291906150c2565b9081526020016040518091039020805480602002602001604051908101604052809291908181526020016000905b82821015610d405760008481526020908190206040805160e081018252600786029092018054600160a060020a03168352600181015493830193909352600283015490820152600382018054919291606084019190613dee9061549c565b80601f0160208091040260200160405190810160405280929190818152602001828054613e1a9061549c565b8015613e675780601f10613e3c57610100808354040283529160200191613e67565b820191906000526020600020905b815481529060010190602001808311613e4a57829003601f168201915b50505050508152602001600482018054613e809061549c565b80601f0160208091040260200160405190810160405280929190818152602001828054613eac9061549c565b8015613ef95780601f10613ece57610100808354040283529160200191613ef9565b820191906000526020600020905b815481529060010190602001808311613edc57829003601f168201915b50505050508152602001600582018054613f129061549c565b80601f0160208091040260200160405190810160405280929190818152602001828054613f3e9061549c565b8015613f8b5780601f10613f6057610100808354040283529160200191613f8b565b820191906000526020600020905b815481529060010190602001808311613f6e57829003601f168201915b50505050508152602001600682018054613fa49061549c565b80601f0160208091040260200160405190810160405280929190818152602001828054613fd09061549c565b801561401d5780601f10613ff25761010080835404028352916020019161401d565b820191906000526020600020905b81548152906001019060200180831161400057829003601f168201915b50505050508152505081526020019060010190613d90565b3360009081526003602052604090206002015460ff1690565b3360009081526003602090815260408083208151815460809481028201850190935260608101838152859491938492849190879085015b828210156141315783829060005260206000200180546140a49061549c565b80601f01602080910402602001604051908101604052809291908181526020018280546140d09061549c565b801561411d5780601f106140f25761010080835404028352916020019161411d565b820191906000526020600020905b81548152906001019060200180831161410057829003601f168201915b505050505081526020019060010190614085565b50505050815260200160018201805480602002602001604051908101604052809291908181526020016000905b8282101561420a57838290600052602060002001805461417d9061549c565b80601f01602080910402602001604051908101604052809291908181526020018280546141a99061549c565b80156141f65780601f106141cb576101008083540402835291602001916141f6565b820191906000526020600020905b8154815290600101906020018083116141d957829003601f168201915b50505050508152602001906001019061415e565b505050908252506002919091015460ff16151560209182015281015190915060005b8151811015612385578181815181106142585760e060020a634e487b7102600052603260045260246000fd5b602002602001015160405160200161427091906150c2565b604051602081830303815290604052805190602001208560405160200161429791906150c2565b6040516020818303038152906040528051906020012014156142bf5760019350505050610d49565b806142c9816154da565b91505061422c565b600054600160a060020a031681565b606060006005856040516142f491906150c2565b90815260200160405180910390208460405161431091906150c2565b90815260408051918290036020908101832060e0840183528054600160a060020a031684526001810154918401919091526002810154918301919091526003810180546060840191906143629061549c565b80601f016020809104026020016040519081016040528092919081815260200182805461438e9061549c565b80156143db5780601f106143b0576101008083540402835291602001916143db565b820191906000526020600020905b8154815290600101906020018083116143be57829003601f168201915b505050505081526020016004820180546143f49061549c565b80601f01602080910402602001604051908101604052809291908181526020018280546144209061549c565b801561446d5780601f106144425761010080835404028352916020019161446d565b820191906000526020600020905b81548152906001019060200180831161445057829003601f168201915b505050505081526020016005820180546144869061549c565b80601f01602080910402602001604051908101604052809291908181526020018280546144b29061549c565b80156144ff5780601f106144d4576101008083540402835291602001916144ff565b820191906000526020600020905b8154815290600101906020018083116144e257829003601f168201915b505050505081526020016006820180546145189061549c565b80601f01602080910402602001604051908101604052809291908181526020018280546145449061549c565b80156145915780601f1061456657610100808354040283529160200191614591565b820191906000526020600020905b81548152906001019060200180831161457457829003601f168201915b50505050508152505090506000808460ff1667ffffffffffffffff8111156145cc5760e060020a634e487b7102600052604160045260246000fd5b60405190808252806020026020018201604052801561460557816020015b6145f2614b75565b8152602001906001900390816145ea5790505b5090505b8460ff16821061461857614955565b8281838151811061463c5760e060020a634e487b7102600052603260045260246000fd5b6020026020010181905250604051602001614656906150de565b604051602081830303815290604052805190602001208360c0015160405160200161468191906150c2565b6040516020818303038152906040528051906020012014156146a257614955565b60048360c001516040516146b691906150c2565b90815260408051918290036020908101832060e0840183528054600160a060020a031684526001810154918401919091526002810154918301919091526003810180546060840191906147089061549c565b80601f01602080910402602001604051908101604052809291908181526020018280546147349061549c565b80156147815780601f1061475657610100808354040283529160200191614781565b820191906000526020600020905b81548152906001019060200180831161476457829003601f168201915b5050505050815260200160048201805461479a9061549c565b80601f01602080910402602001604051908101604052809291908181526020018280546147c69061549c565b80156148135780601f106147e857610100808354040283529160200191614813565b820191906000526020600020905b8154815290600101906020018083116147f657829003601f168201915b5050505050815260200160058201805461482c9061549c565b80601f01602080910402602001604051908101604052809291908181526020018280546148589061549c565b80156148a55780601f1061487a576101008083540402835291602001916148a5565b820191906000526020600020905b81548152906001019060200180831161488857829003601f168201915b505050505081526020016006820180546148be9061549c565b80601f01602080910402602001604051908101604052809291908181526020018280546148ea9061549c565b80156149375780601f1061490c57610100808354040283529160200191614937565b820191906000526020600020905b81548152906001019060200180831161491a57829003601f168201915b5050505050815250509250818061494d906154da565b925050614609565b9695505050505050565b600081116149825760405160e560020a62461bcd02815260040161055890615291565b60005460405160e060020a6323b872dd028152600160a060020a03909116906323b872dd906149b99086908690869060040161511b565b602060405180830381600087803b1580156149d357600080fd5b505af11580156149e7573d6000803e3d6000fd5b505050506040513d601f19601f82011682018060405250810190614a0b9190614d3f565b50505050565b60405160009083908390614a299082906020016150c2565b6040516020818303038152906040528051906020012085604051602001614a5091906150c2565b604051602081830303815290604052805190602001201415614a7757600192505050610a53565b6000805b83518351614a899190615459565b811015614b6b57600160005b8551811015614b4757858181518110614ac15760e060020a634e487b7102600052603260045260246000fd5b602001015160f860020a900460f860020a02600160f860020a031916858285614aea91906153ff565b81518110614b0b5760e060020a634e487b7102600052603260045260246000fd5b602001015160f860020a900460f860020a02600160f860020a03191614614b355760009150614b47565b80614b3f816154da565b915050614a95565b508015614b58576001925050614b6b565b5080614b63816154da565b915050614a7b565b5095945050505050565b6040518060e001604052806000600160a060020a031681526020016000815260200160008152602001606081526020016060815260200160608152602001606081525090565b604051806060016040528060608152602001606081526020016000151581525090565b828054614bea9061549c565b90600052602060002090601f016020900481019282614c0c5760008555614c52565b82601f10614c2557805160ff1916838001178555614c52565b82800160010185558215614c52579182015b82811115614c52578251825591602001919060010190614c37565b50614c5e929150614c62565b5090565b5b80821115614c5e5760008155600101614c63565b600082601f830112614c87578081fd5b813567ffffffffffffffff80821115614ca257614ca261550e565b604051601f8301601f191681016020018281118282101715614cc657614cc661550e565b604052828152848301602001861015614cdd578384fd5b82602086016020830137918201602001929092529392505050565b803560ff81168114610d4957600080fd5b60008060408385031215614d1b578182fd5b8235600160a060020a0381168114614d31578283fd5b946020939093013593505050565b600060208284031215614d50578081fd5b81518015158114614d5f578182fd5b9392505050565b600060208284031215614d77578081fd5b813567ffffffffffffffff811115614d8d578182fd5b614d9984828501614c77565b949350505050565b60008060408385031215614db3578182fd5b823567ffffffffffffffff80821115614dca578384fd5b614dd686838701614c77565b93506020850135915080821115614deb578283fd5b50614df885828601614c77565b9150509250929050565b60008060008060808587031215614e17578182fd5b843567ffffffffffffffff80821115614e2e578384fd5b614e3a88838901614c77565b95506020870135915080821115614e4f578384fd5b614e5b88838901614c77565b94506040870135915080821115614e70578384fd5b614e7c88838901614c77565b93506060870135915080821115614e91578283fd5b50614e9e87828801614c77565b91505092959194509250565b600080600060608486031215614ebe578283fd5b833567ffffffffffffffff80821115614ed5578485fd5b614ee187838801614c77565b94506020860135915080821115614ef6578384fd5b50614f0386828701614c77565b925050614f1260408501614cf8565b90509250925092565b60008060408385031215614f2d578182fd5b823567ffffffffffffffff811115614f43578283fd5b614f4f85828601614c77565b925050614f5e60208401614cf8565b90509250929050565b600060208284031215614f78578081fd5b5035919050565b600060208284031215614f90578081fd5b5051919050565b6000815180845260208085018081965082840281019150828601855b85811015614fdd578284038952614fcb848351614fea565b98850198935090840190600101614fb3565b5091979650505050505050565b60008151808452615002816020860160208601615470565b601f01601f19169290920160200192915050565b6000600160a060020a0382511683526020820151602084015260408201516040840152606082015160e0606085015261505260e0850182614fea565b90506080830151848203608086015261506b8282614fea565b91505060a083015184820360a08601526150858282614fea565b91505060c083015184820360c0860152612d748282614fea565b600160a060020a03919091166c0100000000000000000000000002815260140190565b600082516150d4818460208701615470565b9190910192915050565b7f4e6f6e6500000000000000000000000000000000000000000000000000000000815260040190565b600160a060020a0391909116815260200190565b600160a060020a039384168152919092166020820152604081019190915260600190565b6000602080830181845280855180835260408601915060408482028701019250838701855b8281101561519257603f19888603018452615180858351614fea565b94509285019290850190600101615164565b5092979650505050505050565b6000602080830181845280855180835260408601915060408482028701019250838701855b8281101561519257603f198886030184526151e0858351615016565b945092850192908501906001016151c4565b901515815260200190565b6020808252601b908201527f596f75206e65656420746f2073656e6420736f6d652045746865720000000000604082015260600190565b60208082526025908201527f596f75206e65656420746f2073656c6c206174206c6561737420736f6d65207460408201527f6f6b656e73000000000000000000000000000000000000000000000000000000606082015260800190565b60208082526026908201527f596f75206e65656420746f20656e746572206174206c6561737420736f6d652060408201527f746f6b656e730000000000000000000000000000000000000000000000000000606082015260800190565b60208082526018908201527f52656769737465722050726f63657373206661696c65642e0000000000000000604082015260600190565b60208082526016908201527f5472616e73666572204574686572206661696c65642e00000000000000000000604082015260600190565b6020808252818101527f4e6f7420656e6f75676820746f6b656e7320696e207468652072657365727665604082015260600190565b600060208252614d5f6020830184615016565b6000602082528251606060208401526153c06080840182614f97565b90506020840151601f198483030160408501526153dd8282614f97565b9150506040840151151560608401528091505092915050565b90815260200190565b60008219821115615412576154126154f5565b500190565b6000826154355760e060020a634e487b710281526012600452602481fd5b500490565b6000816000190483118215151615615454576154546154f5565b500290565b60008282101561546b5761546b6154f5565b500390565b60005b8381101561548b578181015183820152602001615473565b83811115614a0b5750506000910152565b6002810460018216806154b057607f821691505b602082108114156154d45760e060020a634e487b7102600052602260045260246000fd5b50919050565b60006000198214156154ee576154ee6154f5565b5060010190565b60e060020a634e487b7102600052601160045260246000fd5b60e060020a634e487b7102600052604160045260246000fdfea2646970667358221220478e101554cfff877dc9eaaf08bec543e6de925a61fe8cd55f6319712e0f4c9764736f6c63430008000033608060405268056bc75e2d6310000060015534801561001d57600080fd5b50600154336000908152602081905260409020556104ab806100406000396000f3fe608060405234801561001057600080fd5b506004361061007e577c0100000000000000000000000000000000000000000000000000000000600035046306fdde03811461008357806318160ddd146100a157806323b872dd146100b6578063313ce567146100d657806370a08231146100eb57806395d89b41146100fe575b600080fd5b61008b610106565b604051610098919061038e565b60405180910390f35b6100a961013f565b6040516100989190610416565b6100c96100c4366004610348565b610145565b6040516100989190610383565b6100de610256565b604051610098919061041f565b6100a96100f936600461032e565b61025b565b61008b61027a565b6040518060400160405280600981526020017f4d75736963436f696e000000000000000000000000000000000000000000000081525081565b60015490565b600160a060020a0383166000908152602081905260408120548211156101a0576040517f08c379a0000000000000000000000000000000000000000000000000000000008152600401610197906103e1565b60405180910390fd5b600160a060020a0384166000908152602081905260409020546101c390836102b3565b600160a060020a0380861660009081526020819052604080822093909355908516815220546101f290836102e7565b600160a060020a0380851660008181526020819052604090819020939093559151908616907fddf252ad1be2c89b69c2b068fc378daa952ba7f163c4a11628f55a4df523b3ef90610244908690610416565b60405180910390a35060019392505050565b600281565b600160a060020a0381166000908152602081905260409020545b919050565b6040518060400160405280600381526020017f4d5543000000000000000000000000000000000000000000000000000000000081525081565b6000828211156102d65760e060020a634e487b7102600052600160045260246000fd5b6102e08284610445565b9392505050565b6000806102f4838561042d565b9050838110156102e05760e060020a634e487b7102600052600160045260246000fd5b8035600160a060020a038116811461027557600080fd5b60006020828403121561033f578081fd5b6102e082610317565b60008060006060848603121561035c578182fd5b61036584610317565b925061037360208501610317565b9150604084013590509250925092565b901515815260200190565b6000602080835283518082850152825b818110156103ba5785810183015185820160400152820161039e565b818111156103cb5783604083870101525b50601f01601f1916929092016040019392505050565b6020808252818101527f546865206f776e657220686173206e6f20656e6f7567682062616c616e636521604082015260600190565b90815260200190565b60ff91909116815260200190565b600082198211156104405761044061045c565b500190565b6000828210156104575761045761045c565b500390565b60e060020a634e487b7102600052601160045260246000fdfea26469706673582212200099f8b04d13cb9bd29b206950ca34db006ff81bcb0a69e92b9839fdccad4e4d64736f6c63430008000033",
  "immutableReferences": {},
  "source": "pragma solidity >=0.4.0 <0.9.0;\n// support return struct in functions\npragma experimental ABIEncoderV2;\n\n// import \"../../node_modules/@openzeppelin/contracts/token/ERC20/ERC20.sol\";\n// import \"./MusicCoin.sol\";\nimport \"./MusicToken.sol\";\n\ncontract MusicDApp is DEX {\n    // Music metadata\n    struct Music {\n        // Music information\n        address uploader;\n        uint256 uploadTime;\n        uint256 count;\n        string name;\n        string artist;\n        // Music content\n        string ipfsHash;\n        string coverFrom;\n    }\n\n    struct User {\n        string[] upload_music_list;\n        string[] bought_music_list;\n        bool isValid;\n    }\n\n    // State variables\n    Music[] musics;\n\n    mapping(address => User) internal users;\n\n    // ipfs hash as index\n    mapping(string => Music) internal music_hash;\n\n    // (name, artist) as primary key\n    mapping(string => mapping(string => Music)) internal music;\n\n    // name as primary key\n    mapping(string => Music[]) internal music_artist_list;\n\n    // artist as primary key\n    mapping(string => Music[]) internal artist_music_list;\n\n    // Modifiers\n\n    // Public methods\n\n    // Retrieve basic user information\n    function returnMsgSender() public view returns (address) {\n        return msg.sender;\n    }\n\n    function userExists() public view returns (bool) {\n        return users[msg.sender].isValid;\n    }\n\n    function getUserInfo() public view returns (User memory) {\n        return users[msg.sender];\n    }\n\n    function getUserBalance() public view returns (uint256) {\n        return token.balanceOf(msg.sender);\n    }\n\n    function registerUser() public returns (User memory) {\n        if (!userExists()) {\n            // Give 10000 token for new user\n            uint256 dexBalance = token.balanceOf(address(this));\n            require(10000 <= dexBalance, \"Not enough tokens in the reserve\");\n            bool success = register();\n            require(success, \"Register Process failed.\");\n            // token.transfer(msg.sender, 10000);\n            users[msg.sender].isValid = true;\n            User memory user = users[msg.sender];\n            return user;\n        } else {\n            return users[msg.sender];\n        }\n    }\n\n    function getUploadMusicList() public view returns (string[] memory) {\n        return users[msg.sender].upload_music_list;\n    }\n\n    function getBoughtMusicList() public view returns (string[] memory) {\n        return users[msg.sender].bought_music_list;\n    }\n\n    function findUploadMusic(string memory _ipfsHash)\n        public\n        view\n        returns (bool)\n    {\n        User memory user = users[msg.sender];\n        string[] memory upload_list = user.upload_music_list;\n\n        for (uint256 i = 0; i < upload_list.length; i++) {\n            if (\n                keccak256(abi.encodePacked(_ipfsHash)) ==\n                keccak256(abi.encodePacked(upload_list[i]))\n            ) {\n                return true;\n            }\n        }\n\n        return false;\n    }\n\n    function findBoughtMusic(string memory _ipfsHash)\n        public\n        view\n        returns (bool)\n    {\n        User memory user = users[msg.sender];\n        string[] memory bought_list = user.bought_music_list;\n\n        for (uint256 i = 0; i < bought_list.length; i++) {\n            if (\n                keccak256(abi.encodePacked(_ipfsHash)) ==\n                keccak256(abi.encodePacked(bought_list[i]))\n            ) {\n                return true;\n            }\n        }\n\n        return false;\n    }\n\n    function uploadMusic(\n        string memory _ipfsHash,\n        string memory _name,\n        string memory _artist,\n        string memory _coverFrom\n    ) public {\n        Music memory _music =\n            Music(\n                msg.sender,\n                block.timestamp,\n                0,\n                _name,\n                _artist,\n                _ipfsHash,\n                _coverFrom\n            );\n\n        // Global state update\n        musics.push(_music);\n        music[_name][_artist] = _music;\n        music_hash[_ipfsHash] = _music;\n        music_artist_list[_name].push(_music);\n        artist_music_list[_artist].push(_music);\n\n        // User state update\n        users[msg.sender].upload_music_list.push(_ipfsHash);\n    }\n\n    function getMusic(string memory _name, string memory _artist)\n        public\n        view\n        returns (Music memory)\n    {\n        Music memory _music = music[_name][_artist];\n\n        return _music;\n    }\n\n    function searchMusic(string memory _name, string memory _artist)\n        public\n        view\n        returns (Music[] memory)\n    {\n        Music[] memory returnList = new Music[](musics.length);\n        uint ind = 0;\n        for (uint i=0; i<musics.length; i++) {\n            if (str_contains(_name,musics[i].name) || str_contains(_artist,musics[i].artist))\n            {\n                returnList[ind] = musics[i];\n                i = i + 1;\n            }\n        }\n        return returnList;\n    }\n\n    function getMusicByHash(string memory _ipfsHash)\n        public\n        view\n        returns (Music memory)\n    {\n        Music memory _music = music_hash[_ipfsHash];\n\n        return _music;\n    }\n\n    function getMusicWithCountIncrement(\n        string memory _name,\n        string memory _artist\n    ) public returns (Music memory) {\n        music[_name][_artist].count += 1;\n        Music memory _music = music[_name][_artist];\n\n        return _music;\n    }\n\n    function getMusicArtistList(string memory _name)\n        public\n        view\n        returns (Music[] memory)\n    {\n        Music[] memory _music_list = music_artist_list[_name];\n\n        return _music_list;\n    }\n\n    function getArtistMusicList(string memory _artist)\n        public\n        view\n        returns (Music[] memory)\n    {\n        Music[] memory _artist_music_list = artist_music_list[_artist];\n\n        return _artist_music_list;\n    }\n\n    function buyMusic(string memory _name, string memory _artist) public {\n        address sender = msg.sender;\n        Music memory _music = music[_name][_artist];\n        string memory songHash = _music.ipfsHash;\n        address uploader = _music.uploader;\n        uint8[7] memory chain = [100, 50, 25, 12, 6, 3, 1];\n        uint256 count = 0;\n\n        // TODO: Uploader can listen to what he uploaded\n        if (findUploadMusic(songHash)) return;\n\n        // TODO: Buyer will not pay twice\n        if (findBoughtMusic(songHash)) return;\n        // transfer token to uploader at the beginning of the chain\n\n        while (true) {\n            // The depth excee the limit\n            if (count >= 7) {\n                break;\n            }\n\n            transferTokenFrom(sender, uploader, chain[count]);\n            // hit the end of the chain\n            if (\n                keccak256(abi.encodePacked((_music.coverFrom))) ==\n                keccak256(abi.encodePacked((\"None\")))\n            ) {\n                break;\n            }\n\n            sender = uploader;\n            _music = music_hash[_music.coverFrom];\n            uploader = _music.uploader;\n\n            count++;\n        }\n\n        // add music to listener list\n        users[msg.sender].bought_music_list.push(songHash);\n    }\n\n    // Just for testing purpose\n    function setMusicCoverFrom(string memory _ipfsHash, string memory _coverFrom) public {\n        music_hash[_ipfsHash].coverFrom = _coverFrom;\n    }\n\n    function buyMusicByHash(string memory _ipfsHash) public {\n        address sender = msg.sender;\n        Music memory _music = music_hash[_ipfsHash];\n        string memory songHash = _ipfsHash;\n        address uploader = _music.uploader;\n        uint8[7] memory chain = [100, 50, 25, 12, 6, 3, 1];\n        uint256 count = 0;\n\n        // Uploader can listen to what he uploaded\n        if (findUploadMusic(songHash)) return;\n\n        // Buyer will not pay twice\n        if (findBoughtMusic(songHash)) return;\n\n        while (true) {\n            // The depth excee the limit\n            if (count >= 7) {\n                break;\n            }\n\n            // Send token only if the \n            if (\n                !(keccak256(abi.encodePacked(sender)) ==\n                keccak256(abi.encodePacked(uploader)))\n            ) {\n                transferTokenFrom(sender, uploader, chain[count]);\n            }\n            // hit the end of the chain\n            if (\n                keccak256(abi.encodePacked((_music.coverFrom))) ==\n                keccak256(abi.encodePacked((\"None\")))\n            ) {\n                break;\n            }\n\n            sender = uploader;\n            _music = music_hash[_music.coverFrom];\n            uploader = _music.uploader;\n\n            count++;\n        }\n\n        // add music to listener list\n        users[msg.sender].bought_music_list.push(songHash);\n    }\n\n    function getMusicChain(\n        string memory _name,\n        string memory _artist,\n        uint8 depth\n    ) public view returns (Music[] memory) {\n        Music memory _music = music[_name][_artist];\n        uint256 count = 0;\n        Music[] memory music_chain = new Music[](depth);\n\n        // transfer token to uploader at the beginning of the chain\n\n        while (true) {\n            // The depth excee the limit\n            if (count >= depth) {\n                break;\n            }\n            music_chain[count] = _music;\n            // hit the end of the chain\n            if (\n                keccak256(abi.encodePacked((_music.coverFrom))) ==\n                keccak256(abi.encodePacked((\"None\")))\n            ) {\n                break;\n            }\n\n            _music = music_hash[_music.coverFrom];\n\n            count++;\n        }\n\n        return music_chain;\n    }\n\n    function getMusicChainByHash(string memory _ipfsHash, uint8 depth)\n        public\n        view\n        returns (Music[] memory)\n    {\n        Music memory _music = music_hash[_ipfsHash];\n        uint256 count = 0;\n        Music[] memory music_chain = new Music[](depth);\n\n        while (true) {\n            // The depth excee the limit\n            if (count >= depth) {\n                break;\n            }\n            music_chain[count] = _music;\n            // hit the end of the chain\n            if (\n                keccak256(abi.encodePacked((_music.coverFrom))) ==\n                keccak256(abi.encodePacked((\"None\")))\n            ) {\n                break;\n            }\n\n            _music = music_hash[_music.coverFrom];\n\n            count++;\n        }\n\n        return music_chain;\n    }\n\n    // Private methods\n    // check if string contains in other string\n    function str_contains (string memory what, string memory where) private pure returns (bool){\n        bytes memory whatBytes = bytes (what);\n        bytes memory whereBytes = bytes (where);\n        if (keccak256(abi.encodePacked((what))) == keccak256(abi.encodePacked((where))))\n        {\n            return true;\n        }\n        bool found = false;\n        for (uint i = 0; i < whereBytes.length - whatBytes.length; i++) {\n            bool flag = true;\n            for (uint j = 0; j < whatBytes.length; j++)\n                if (whereBytes [i + j] != whatBytes [j]) {\n                    flag = false;\n                    break;\n                }\n            if (flag) {\n                found = true;\n                break;\n            }\n        }\n        return (found);\n    }\n}\n",
  "sourcePath": "/Users/chiao1/Desktop/NM-Lab/project/nmlab-final/music-dapp/react/src/contracts/MusicDApp.sol",
  "compiler": {
    "name": "solc",
    "version": "0.8.0+commit.c7dfd78e.Emscripten.clang"
  },
  "schemaVersion": "3.4.0",
  "updatedAt": "2021-06-15T12:45:45.022Z",
  "networkType": "ethereum",
  "devdoc": {
    "kind": "dev",
    "methods": {},
    "version": 1
  },
  "userdoc": {
    "kind": "user",
    "methods": {},
    "version": 1
  }
}